:400000000080002011000000BD2A0000BD2A000008B5044B1A6803F53F5302331A6002F067FD00BFFA46004010B5054C237833B9044B13B10448AFF300800123237010BD43
:40004000F081FF1F00000000C0690000084B10B51BB108490848AFF300800848036803B910BD074B002BFBD0BDE81040184700BF00000000F481FF1FC0690000C880FF1F60
:400080000000000000F1080343604FF0FF328260C360036100230360704700BF00230361704700BF43684B609A688A609A68516099600861036801330360704730B40D6866
:4000C000B5F1FF3F01D1026907E000F1080200E01A4653681C68A542FAD253684B6099608A605160086103680133036030BC704703694268816891608268416851605A68CD
:40010000904201D182685A6000220261186801381860704706480068006880F3088862B661B6BFF34F8FBFF36F8F00DF00BF000008ED00E04FF0807340F8043C40F8081C01
:40014000034B40F80C3C40F8202C4038704700BFA1010000074B19680868B0E8F00F80F30988BFF36F8F4FF0000080F311884EF00D0E7047E082FF1F4FF08052034B1A605B
:40018000BFF34F8FBFF36F8F704700BF04ED00E0EFF311804FF0A00181F311887047002008B5FFF7F5FFFEE708B5FFF7F1FF044A136801331360BFF34F8FBFF36F8F08BDDD
:4001C000CC80FF1F80F31188704700BF08B5044A1368013B136013B90020FFF7F3FF08BDCC80FF1FEFF30980BFF36F8F0D4B1A6820E9F00F10602DE908404FF0A00080F3BE
:40020000118800F0DBFC4FF0000080F31188BDE8084019680868B0E8F00F80F30988BFF36F8F7047E082FF1F08B5FFF7B1FF00F085FB18B14FF08052024B1A600020FFF729
:40024000C1FF08BD04ED00E0034A044B1A600722043B1A60704700BFCF01010014E000E008B5094B1A6842F460021A601A6842F060421A60FFF7E8FF0022044B1A60FFF7E2
:4002800049FFFFF78DFF00BF20ED00E0CC80FF1F10B50446FFF788FFA26BE36B9A4201D1012400E00024FFF791FF204610BD00BF10B50446FFF778FFA36B0BB9012400E0D5
:4002C0000024FFF783FF204610BD00BF38B504461546026C3AB903685BBB406800F0C2FD002363602CE06DB9806805F032FFA268236C1344A360626893421CD32368A36070
:4003000000201DE0C06805F024FF236C5B42E2681A44E26021688A4202D262681344E360022D0AD1A36B53B1A36B013BA363002006E0002004E0002002E0002000E0002025
:40034000A36B0133A36338BD026C72B110B5C3681344C3604468A34201D30368C3600C46C168204605F0F5FE10BD704710B50446FFF71AFF0BE0636A63B104F1240000F012
:400380009FFC08B100F00CFDA36C013BA364A36C002BF0DC4FF0FF33A364FFF717FFFFF703FF0BE0236963B104F1100000F088FC08B100F0F5FC636C013B6364636C002BB2
:4003C000F0DC4FF0FF336364FFF700FF10BD00BF38B504460D46FFF7E7FE2168E26B236C03FB021060600020A063A160013A02FB0313E3604FF0FF336364A36455B9236950
:4004000083B104F1100000F05BFC01280AD1FFF7B3FE07E004F11000FFF734FE04F12400FFF730FEFFF7D2FE012038BD70B506460D4619B100FB01F0013000E000204C303D
:4004400000F07CFD044658B10DB9206002E000F14C030360E663256401212046FFF7B8FF204670BDF0B585B004460F4601921E460025FFF799FEA26BE36B9A4201D3022EFE
:4004800016D1324639462046FFF720FF636A43B104F1240000F014FC012805D1FFF76CFE02E008B1FFF768FEFFF790FE012042E0019B1BB9FFF78AFE00203CE01DB902A842
:4004C00000F038FC0125FFF781FE00F02DFAFFF76BFE636CB3F1FF3F01D100236364A36CB3F1FF3F01D10023A364FFF76FFE01A902A800F029FCC0B92046FFF7C9FE70B1E4
:40050000019904F1100000F0ADFB2046FFF72EFF00F096FA0028ACD1FFF72EFEA9E72046FFF724FF00F08CFAA3E72046FFF71EFF00F086FA002005B0F0BD00BF38B54C2022
:4005400000F0FCFC0446C8B10025456005608560C56085630123C36305644FF0FF33436483641030FFF78EFD04F12400FFF78AFD2B462A4629462046FFF774FF204638BD2C
:40058000F0B585B004460F4601921E460025FFF70BFEA36B33B3E56839462046FFF7D4FE96B9A36B013BA363236813B900F09EFC6060236993B104F1100000F081FB01280F
:4005C0000CD1FFF7D9FD09E0E560636A33B104F1240000F075FB08B1FFF7CEFDFFF7F6FD01204BE0019B1BB9FFF7F0FD002045E01DB902A800F09EFB0125FFF7E7FD00F0BA
:4006000093F9FFF7D1FD636CB3F1FF3F01D100236364A36CB3F1FF3F01D10023A364FFF7D5FD01A902A800F08FFB08BB2046FFF73FFEB8B1236833B9FFF7B6FD606800F0DD
:40064000B7FBFFF7C3FD019904F1240000F00AFB2046FFF78BFE00F0F3F9002897D1FFF78BFD94E72046FFF781FE00F0E9F98EE72046FFF77BFE00F0E3F9002005B0F0BDDB
:40068000094B9B6A1B680BB9012300E0002323B14FF0FF32044BDA627047034B9A6AD268D2685268DA6270470C82FF1F10B50446006B00F09DFC204600F09AFC10BD00BF53
:4006C00070B506460C4619B9800000F037FC044654B1502000F032FC054608B1046304E0204600F085FC00E0002525B1B200A521286B05F039FD284670BD00BF70B50446E5
:400700001546002306E0C85CE21882F83400CA5C12B101330B2BF6D9002384F83F30042D00D90425E562256400266664201DFFF7B5FC04F11800FFF7B1FC2461C5F105058D
:40074000A5616462A66484F84C6070BD70B5002407E004EB8402930010481844FFF792FC0134042CF5D90E4C04F194063046FFF789FC04F1A8052846FFF784FC04F1140042
:40078000FFF780FC04F1BC00FFF77CFC2046FFF779FCA662C4F8D05070BD00BF3C82FF1F0C82FF1F38B50F4BD3F8D4205060D3F8D830984208D20B4BD3F8D000D3F8D410A2
:4007C0000431FFF77BFC38BD0446064DA86AD5F8D4100431FFF772FCEB6A9C4200D2EC6238BD00BF0C82FF1F2DE9F04782B080468A46164699460B9F0C991046FFF760FF6C
:40080000002854D00446036B06F18045013D03EB850525F0070500960D9B0A9A5146FFF76DFF4A4641462846FFF784FC206007B13C60FFF7B9FC284BD3F8DC200132C3F8A4
:40084000DC20D3F8D4304BB9234BC3F8D440D3F8DC30012B10D1FFF779FF0DE01E4BD3F8E0304BB91C4BD3F8D430DB6A0A9A9A4202D3194BC3F8D440174BD3F8E42001327E
:40088000C3F8E420E26A012505FA02F0D3F8E8100143C3F8E810303302EB82029000211D1844FFF7FFFBFFF791FC2C4601E04FF0FF34012C0CD1084BD3F8E03043B1064BA9
:4008C000D3F8D430DB6A0A9A9A4201D9FFF754FC204602B0BDE8F0870C82FF1F00B585B00023039302930193009364220B490C48FFF77AFF01280DD1FFF74AFC094B4FF092
:40090000FF32DA620122C3F8E0200022C3F8D820FFF7A6FC05B05DF804FB00BFCC690000B50B00000C82FF1F034AD2F8F0300133C2F8F030704700BF0C82FF1F2DE9F041E8
:400940003E4BD3F8F030002B67D13C4BD3F8D8200132C3F8D820D3F8D880B8F1000F0CD19A6AD3F8D0109962C3F8D020D3F8F4200132C3F8F420FFF783FE304BDB6A98456E
:4009800003D200273DE0012700E000272B4B9B6A1B680BB9012300E0002323B14FF0FF32264BDA622DE0254B9B6ADB68DC686368984502D2214AD36223E0261D3046FFF73E
:4009C00097FBA36A1BB104F11800FFF791FBE36A012202FA03F1194DD5F8E8200A43C5F8E82005F1300003EB83039A0031461044FFF758FBE26AD5F8D430DB6A9A42C2D236
:400A0000C4E70E49D1F8D430DB6A03EB83039A000A44136B012B08D808E0084AD2F8F8300133C2F8F830002700E00127034BD3F8FC3003B101273846BDE8F0810C82FF1FEA
:400A400070B5FFF7B1FB304BD3F8F020013AC3F8F020D3F8F030002B4FD12B4BD3F8DC303BBB00244CE0284C236ADD6805F11800FFF73EFB2E1D3046FFF73AFBEB6A0122A3
:400A800002FA03F1D4F8E8200A43C4F8E82004F1300003EB83039A0031461044FFF702FBEA6AD4F8D430DB6A9A4202D30122C4F8FC20154B5B69002BD5D1134BD3F8F83015
:400AC0006BB911E0FFF73AFF18B101220E4BC3F8FC200D4AD2F8F830013BC2F8F8300A4BD3F8F830002BEDD1074BD3F8FC30012B05D1FFF741FB012402E0002400E0002452
:400B0000FFF764FB204670BD0C82FF1F10B5F8B10446FFF709FF114BD3F8D8201444D3F8D4000430FFF7E4FA60B90C4BD3F8D420D16A012202FA01F1D3F8E82022EA0102F0
:400B4000C3F8E8202046FFF72DFEFFF779FF00E0002008B9FFF710FB10BD00BF0C82FF1F38B51FE0FFF7E0FE114BD3F8BC40FFF767FFBCB1FFF718FB0D4CD4F8C830DD68AC
:400B8000281DFFF7B5FAD4F8DC30013BC4F8DC30D4F8EC30013BC4F8EC30FFF717FB2846FFF784FD024BD3F8EC30002BDAD138BD0C82FF1F08B5FFF7D3FFFCE7284BD3F835
:400BC000F03023B10122264BC3F8FC20704710B5234B0022C3F8FC20D3F8D4301B6B1A68B2F1A53F0BD15A68B2F1A53F07D19A68B2F1A53F03D1DB68B3F1A53F07D0184BF6
:400C0000D3F8D400D3F8D410343100F065FB144AD2F8E830B3FA83F3DBB2C3F11F039800C418A10011444C6B64684C6302F130011844820008320A44944206D1606803EB62
:400C400083018A0006490A445063054903EB83039A000A44536BDB68C1F8D43010BD00BF0C82FF1F38B50D46144CD4F8D4101831FFF724FAD4F8D4000430FFF739FA58B9BB
:400C8000D4F8D420D16A012202FA01F1D4F8E82022EA0102C4F8E820B5F1FF3F06D10748D0F8D4100431FFF7FDF938BD034BD3F8D8002844FFF776FD38BD00BF0C82FF1F8F
:400CC00038B5C368DC6804F118052846FFF710FA164BD3F8F030B3B9251D2846FFF708FAE36A012202FA03F11048D0F8E8200A43C0F8E820303003EB83039A0029461044F2
:400D0000FFF7D0F903E029460948FFF7CBF9E26A064BD3F8D430DB6A9A4204D90120034BC3F8FC0038BD002038BD00BF0C82FF1F2082FF1F034BD3F8F4200260D3F8D83070
:400D4000436070470C82FF1F38B504460D46FFF72BFA124BD3F8D8202B68B3F1FF3F14D020680E49D1F8F410884202D061688A420DD26168501A83420BD98A1A13442B6031
:400D80002046FFF7D7FF002404E0002402E0012400E00124FFF71AFA204638BD0C82FF1F0122024BC3F8FC20704700BF0C82FF1F002851D038B50246C36A2849D1F8D41086
:400DC000C96A8B4247D28169002906DB2349D1F8D410C96AC1F105018161506903EB830399001F4B1944884201D1012300E0002363B31546141D2046FFF77AF980B9EA6AB2
:400E000002EB82018B0015490B441B6B43B9012303FA02F2D1F8E83023EA0202C1F8E8200E48D0F8D430DB6AEB62012202FA03F1D0F8E8200A43C0F8E820303003EB830348
:400E40009A0021461044FFF72DF938BD034BD3F8D430DB6AD36238BD704700BF0C82FF1F3C82FF1F002838D038B50346426C013A4264C06A196C884231D092BB1C461D1D2A
:400E80002846FFF735F980B9E26A02EB82018B0015490B441B6B43B9012303FA02F2D1F8E83023EA0202C1F8E820236CE362C3F10502A261012404FA03F10B48D0F8E8205D
:400EC0000A43C0F8E820303003EB83039A0029461044FFF7E7F8204638BD00207047002038BD002038BD00BF0C82FF1F064BD3F8D4302BB1044BD3F8D420536C0133536464
:400F0000014BD3F8D40070470C82FF1F094A22F00702094BC3F838290020C3F83C0947F6F871C3F84419C3F84009516003F51463136070471483FF1FD4F9FF1F70B504464A
:400F4000FFF7F2FC264BD3F848392BB9FFF7DEFF0122234BC3F8482934B1083414F0070F02D024F007040834621E47F6F6739A422BD81B49D1F8383901F6381101E01946D1
:400F800013465A68944202D91A68002AF7D1154A93421CD00D6808351A680A605A68121B102A0CD91E1972605C6074680E4900E011460A6850688442FAD832600E60596873
:400FC0000A4A13685B1A136002E0002500E00025FFF736FD0DB900F083F9284670BD00BFD4F9FF1F140300200C030020D080FF1FD0B170B50546A0F10806FFF795FC55F856
:40100000044C0A4A00E01A46136859688C42FAD845F8083C166055F8043C054A11680B441360FFF70DFD70BD704700BF0C030020D080FF1F08B530B901F0BEFF80F00100DD
:4010400000F0010008BD012806D101F0BDFF10F0010F03D1012002E0002000E00020C0B208BD00BF38B50022324B1A6059E0C0B2FFF7E0FF2F4B18711D682F4B5C5D052C9E
:401080004BD8DFE804F003090E13273B003018BF0120294B585540E000B10220264B58553BE000B10320244B585536E000231A462249234850F82500FFF7D4F91D4B1A68D5
:4010C00003EB8201002088601B7903B104231A498B5422E070B1174B03EB85039B68322B00D90524144A5455124A02EB85050133AB6012E00022104B5A550EE000231A46C1
:401100000E490F4850F82500FFF7ACF9094B1A681B7903B1234608498B54064A136801331360044B18680128A1D90A20FFF7EEFC99E700BF200300205C030020D480FF1FE1
:401140003805002010B504460021602002F006F9204602F05FF910BD08B5012001F022FD4FF47A70FFF7D2FC002001F01BFD4FF47A70FFF7CBFCF0E708B501F0B3F801F0E1
:40118000F7F808BD70B53E4B1B7813F0010F27D002223C4B1A7003F071FE3B4B1B88C01A80B210F4004F02D04FF6FF7200E001221344354A1380354B1C7804FB00F004B264
:4011C000334A11784B1C334820F8114003F01F031370314B1B7883F08003304A137043E00122284B1A7003F049FE2D4B1B88C01A80B210F4004F02D04FF6FF7200E0012282
:401200001344274A1380214B1D7805FB00F085B22CB2244B1B7853B11D4B1A781D4B33F91260012003F06CFF301A80B209E0184B1A78184B33F91260012003F061FF304485
:4012400080B2C2B2184B1A70000A01331870EDB203331D70C4F30723144A1370084B1B7813B90122124B1A70054A137801331370104BB3F900309C4201DD0E4B1C8070BD8F
:401280004A050020726400408E0300202C0500201C05002094040020AAC70040805B0040BC05002069050020A1C70040A6C700408003002048050020034B044ADA62044AE8
:4012C0009A63044ADA6370470080FF1F55010000E50100002902000008B5FEF759FFFEE708B5FEF755FFFEE770B50C461546FFF729FF07E014B12078013400E0002002F075
:4013000089F835466E1E002DF4DC02F067F870BD70B50D461446FFF715FF02F05FF80121602002F01BF806E06E1C012002F09EF82870013C3546012CF6DC03D1002002F090
:4013400095F8287002F04AF870BD00BF00B583B002AB03F8011D01221946FFF7C5FF03B05DF804FB00B583B001220DF10701FFF7CFFF9DF8070003B05DF804FB30B5C1B069
:401380003F222F4B1A7030B94FF400722D492E4804F0DFFE10E0012806D14FF400722B49294804F0D6FE07E0022808D14FF400722749254804F0CDFE00231A4632E0032820
:4013C00006D14FF4007223491F4804F0C2FEF3E7042806D14FF400721F491B4804F0B9FEEAE70528E8D14FF400721C49164804F0B0FEE1E71A4951F82210581CC0B20DF870
:4014000003109C1CE4B20D120DF80050D81CC0B209140DF804100433DBB200210DF800100132D2B23F2AE5D94FF4807269460D4804F08FFE0022024B1A7041B030BD00BF13
:401440008CC700404472000000C2004044700000446E0000446C0000446A0000EC7700004474000000C30040104B1870431EDBB2012B03D9052803D1012202E0012200E05D
:4014800000220B4B1A70022801D0062803D10222084B1A707047012803D80122054B1A7070470422034B1A70704700BF1E050020690500202D05002010B40A4A0024234681
:4014C0000AE00178303902FB01440749A1FB0212D2080133DBB20130072BF2D9204610BC704700BF80969800CDCCCCCC0000000070B508223849394804F01CFE002859D0DE
:401500003648FFF7D9FF064604F0D8F804460D46334B1B78A3B928A3D3E9002304F0B6FB38B927A3D3E900232046294604F0CCFB30B12A4B284A1168526819605A6070BD71
:40154000254B264A1168526819605A60254B1E60254B186804F0C2F822462B4604F024F919A3D3E9002304F049FA02460B462046294603F065FF04460D4604F0AFFB0123B9
:4015800000221146800001F0C3F811A3D3E900232046294604F07AFB48B1002200232046294604F091FB10B10022104B1A70012001F090FB70BD00BF000000000088D34036
:4015C00000000000389C7C4100000000D012634100000000D0128341600500202405002068050020440500205C0500202C050020F8B50D4E47003B18DD003544AA680B493A
:401600000B4804F0B9FDFFF773FF287D094B1870FFF72AFF687D084B1870FFF7AFFE0022064B1A60F8BD00BFD880FF1FD4690000240500201E0500202D0500201405002017
:4016400000B583B00020224B1870FFF7D1FF00234FF0FF3219461F480068FEF791FF00231A460DF107011C480068FEF789FF68B1174A13780133DBB21370042B02D900221A
:40168000134B1A70124B1878FFF7B2FF00231A460DF1070110484068FEF772FF68B10C4B1B781BB904220A4B1A7002E0013B084A1370074B1878FFF79BFF00231A4619469C
:4016C00004480068FEF7CEFE6420FFF71FFABEE790040020580500203805002010B5642001F0F8FA01F0BEFCC0220021394800F0A9FF0121002000F07BFF0121002000F0DE
:40170000E3FF012001F0E6FA03F0ECFC03F05CFC03F08CFB03F0A0FD2F4803F0F3FB03F0A5FB642001F0D6FA01202C4B1870FFF79BFE4FF4A0632A4A13802A4A138004224C
:40174000294B1A7001F0D0FE642001F0C3FA002306E0264A926FD15C254AD1540133DBB2072BF6D9224B1B78302B09D001F07CFA0021204801F0BCFE01211F4801F0B8FE7E
:4017800000241E4B1C60C82001F0A4FA62B6234606E0164AD26FD15C194AD1540133DBB2072BF6D91648FFF787FE164B1B1A134A136003F57A73B3F5FA6F02D900220F4B9E
:4017C0001A60114A114B03CB10605160FFF790FE10BD00BF40787D01851100002D050020BC0500208E0300202E050020D880FF1F84030020DC690000E86900005C05002082
:401800004C0500208096980024050020F469000000B585B0FFF750FDFFF760FF0120FEF78DFE2A4B1860002201210846FEF7FEFD274C2060002201210846FEF7F7FD606023
:40184000002201210846FEF7F1FD224B18604FF47A7001F03FFA002403940294019403250095234680221C491C48FEF7BDFF03940294019400952346802219491948FEF775
:40188000B3FF0394029401940225009523464FF4007215491548FEF7A7FF039402940194009523464FF4007211491248FEF79CFF039402940194009523464FF400720E49FF
:4018C0000E48FEF791FFFFF709F8FEE7580500203805002030050020006A000059110000046A000065100000086A000041160000106A00001D1B0000186A0000511C0000E1
:4019000008B5514B9B783F3B2F2B00F29080DFE803F0718E8E8E8E8E8E8E8E8E8E8E8E8E8E8E8E8E8E8E8E8E8E8E8E8E8E8E8E8E8E8E8E8E8E8E18308E498E8E8E8E8E8E5D
:401940008E3C424A424B03CB10605160414A424B03CB106051600022404B1A60FFF7C8FD3F4A404B03CB106051601B781372092360E001223C4B1A70394A3C4B03CB1060A9
:4019800051601B8813810A2354E001F06DF90021374801F0ADFD00284BD11922354B1A70002347E001F060F90121314801F0A0FD00BB19222F4B1A70244A254B03CB1060F0
:4019C0005160244A244B03CB10605160002306E0294AD26FD15C294AD1540133DBB2072BF6D92648FFF768FD254B1B1A1B4A1360FFF77EFD002306E01F4A926FD15C184A6D
:401A0000D1540133DBB2072BF6D92022144B1A72002308E003F109021749C96FC85C104988540133DBB2072BF4D9112302E0002300E000233BB10A480022C25400F08EFCAB
:401A40000A2000F07FFC08BD6003002060050020206A000024050020E86900005C0500206C0500202C6A000068050020386A0000630300208C030020D880FF1F4C050020ED
:401A80008096980010B500F0A7FC10F0800F3ED11F490A78531CDBB20B701E4988543B2813D11D4C00234FF0FF3219462068FEF767FD00F0D5F800231A4619462068FEF73F
:401AC000D1FC0022124B1A7010BD0A281BD1114A1278242A17D10F4A52782A2A13D10E4C00234FF0FF3219462068FEF749FDFFF707FF00231A4619462068FEF7B3FC002274
:401B0000034B1A7010BD03F01F03014A137010BDBE050020600300205805002008B50221002001F03BFE0A4803F03CFC01F06EFE0028FBD001F070FE01F08CFF01F06CFE40
:401B40000028F3D1FFF79EFF02F028F8F6E700BF7911000008B5344B1B78002B62D00022314B1A70314B1B785BB1013BDBB22F4A13701BB9002001F0A5FC02E0012001F000
:401B8000A1FC2B4B1B781BB100222A4B1A8013E0284BB3F90030B3F5605F0DDD264A13789B0803EB4303DBB213709B080133234A137003221D4B1A702149B1F900001D4AB4
:401BC000B2F90030034403EBD37343F34F030B80002111801B490A78013AD2B20A700ABB194A1178174A1170184A127812B14FF4805201E04FF42052934207DA0E4B1B781C
:401C0000FF2B09D001330C4A137005E00A4B1B7813B1013B084A1370074B1B789B080133064A137008BD00BF800300208C03002034050020480500201D0500202C05002034
:401C400020050020400500202E0500203505002008B5FFF77FFF0120FEF758FFF9E700BFF0B583B0B74A1178537803EB012344F64412934200F0D48135DC44F24162934228
:401C800000F0DE8013DC44F24E12934274D004DC44F24912934264D0B3E244F24722934275D044F25342934200F08F80A9E244F25462934200F0FD800ADC44F24262934283
:401CC00000F0DD8044F25262934200F0E78098E244F25762934200F0F78044F25472934200F073818DE244F64262934200F0F7811BDC44F65332934200F0C1810ADC44F6C0
:401D00004612934200F0948144F63232934200F0AB8176E244F64B42934200F0BD8144F64452934200F0C3816BE245F25302934200F0FC810ADC45F24102934200F0DC814A
:401D400045F24302934200F0E2815AE245F24122934200F0F18145F25132934200F015824FE2784B9B783B2B40F04D82764B1868764B186004235DE2724B9B783B2B40F0EA
:401D80004482734B1868714B1860042352E2714B1B78714AA2FB03239B08C3F11603DBB26A496E4A1068086012790A716C4AA2FB0302D20802F13000887002EB8202A3EB29
:401DC00042033033CB70052334E266490A780132D2B2614BA3FB0203DB0803EB4303A2EB8303DBB20B70032B07D8584A5E4B03CB106051601B8813811AE0072B0CD8534B2D
:401E00005A4A1068186012791A71594A1168C3F8051012795A720BE04C4B564A1068186012791A71544A1168C3F8051012795A72464B8022DA729A723B221A730D23F9E1D0
:401E4000404B9B783B2B0FD1404C4C4B07CB206061601B88A3814A4B1A685B68C4F80520C4F809300E23E5E1454A364B53F8051F5B6811605360FFF73BFB0023DAE1314BEE
:401E80009B783B2B40F0C381304C3E4B07CB20606160A2601B88A3810E23CBE1294B9B783B2B40F0B681384B1868284B18600423C0E1244B9B783B2B40F0AD81334B186829
:401EC000224B18600423B5E11E4B9B783B2B6BD12F4B1B7843B91D4A2E4B03CB106051601B7813720923A5E1012B08D1174A2A4B03CB106051601B78137209239AE1022BCA
:401F000008D1124A254B03CB106051601B78137209238FE1032B08D10C4A214B03CB106051601B781372092384E1042B40F07581064A1C4B03CB106051601B7813720923B9
:401F400078E100BF60030020447500006C0500204C7500002C050020ABAAAAAA54750000CDCCCCCC540500205C7500006875000087030020707500004F05002078750000B0
:401F8000240500208875000098750000A07500002D050020A8750000B4750000C0750000CC750000D8750000A84B9B79313BDBB2A74A1370052B02D90022A54B1A70A44B54
:401FC0001878FFF7DBF9002334E1A04B9B783B2B18D1A04B1A78A049684604F0CDF89F4B00981860BDF804109DF8062099809A719B4B1B780BB1302200E03122974B5A712C
:40200000072317E1914A1379303B92490B705379302B14BF00230123914A1370002309E18E4B904A1068186092889A80062301E18D4E8A4C06F1200735460FCD2060616061
:40204000A260E3602E461034BD42F5D12A88AB782280A370814B854A11685268C3F80510C3F809202323E5E0784B9B783B2B40F0D6807F4B1868794B18600423DAE0734BA0
:402080009B783B2B40F0CD80744B7A4A1068186092889A800623CDE06C4B9B783B2B40F0C280754B18686D4B18600423C2E0674B98783B2809D1694A704B18681060704BBA
:4020C0001B78313393700423B4E03138C0B2FFF7CBF95F4B1878FFF751F90023AAE05B4B9B783B2B40F0A1805C4B664A1068186012791A7105239DE0544B9B783B2B40F0B5
:402100009680614B1868554B1860042392E04F4B9B783B2B40F08D80504B5C4A106818609188927999809A71072383E0584B18684A4B186004237DE0444B9B783B2B0FD1BA
:40214000464B544A1068186012791A71524B1B780BB1312200E03022404BDA70052369E03A4BDB78312B14BF002301234A4A137000224A490A704A490A700BB1012000E015
:40218000042002F067FE002354E0304B9B783B2B21D13249434B186808609B888B80424B1878424AA2FB0032530903F130028A70642202FB1303DBB23D4AA2FB0302D2082B
:4021C00002F13000C87002EB8202A3EB420330330B7106232EE0303B03EB830303EB83039B00DAB21949CB78303B03EB830302EB4303DBB20A791344303B2B4A137000230C
:4022000018E0002316E0002314E0002312E0002310E000230EE000230CE009230AE0002308E0002306E0002304E0002302E0002300E000233BB109480022C25400F08EF8E7
:402240000A2000F07FF803B0F0BD00BF600300202D0500202E050020E47500006C05002034050020F0750000F8750000240500201C760000247600002C76000034760000B0
:402280001E0500203C760000447600004C760000547600005C760000350500201D0500202C050020647600002F0500201F85EB51CDCCCCCC10B5044603F08AF8074B1B787C
:4022C0003F2B02D903F088F8F6E7591C034A1170034AD45403F080F810BD00BF300300200006002038B503F073F80446134B1B7813B9124B5B78E3B101F02CFC70B10F4D75
:4023000029780F4801F0F2FB2B78402B14BF002301236B7000232B70AB700AE0074A93780133DBB29370042B03D9134600221A709A70204603F050F838BD00BF300300201F
:402340000006002010B504460A2802D10D20FFF7B1FF2046FFF7AEFF10BD00BF10B5044602E00134FFF7EEFF20780028F9D110BD10B503F02DF80446094BDA781B799A421E
:4023800009D301F0DBFB30B1064801F0EFFB044B18710022DA70204603F01EF810BD00BF30030020C005002010B503F011F8084BDA781B799A4205D2511C054BD970054BF6
:4023C0009C5C00E0FF2403F007F8204610BD00BF30030020C005002008B5FFF7E5FF094B5B793BB10A2805D10022064B5A71FFF7DBFF08BD0D2803D10122024B5A710A20D2
:4024000008BD00BF300300202DE9F843294B1A6890FBF2F5A5F10F034B2B47D80C4602FB150080464FEAE0794FEA0953060543EA1037D317B6EB080067EB090103F0BEFC63
:4024400008B11D4A00E00122C701B7FBF2F303EBC516A6F5007602FB1373C2F3072727706270C6F30147A770C6F30727E7702671160B26F00F07C3F303463E436671C3F3EA
:402480000726A671E3710B4B1B6803FB05F50021DF1700FB07F403FB0144A0FB03012144002303F08BFC2844BDE8F8834FF0FF30BDE8F88340060020FFFF0F002DE9F047E8
:4024C00017461E46474B984208DD850001224FF0030E002413462046214655E08E4609B9414D00E00D46002400FA04F295FBF2F302FB1351052B0EDDB3F5E16F01DB0AD148
:4025000049B9BEF1000F10D113F0010F00D0013B02FB03F509E0B3F5E16F02DC56D1002958D00134072CDFDD58E0BEF1000F00D0754695FBF2FA02FB1A5398464FEAE379B1
:402540004FEA095E18054EEA1331D317B0EB080061EB090103F032FC1AF0010F02D118B1002202E0002200E0012208B11F4B00E00123C00190FBF3FE0EEBCA11A1F5007100
:4025800003FB1E004FF0000E0AB1402200E000223A70C3F3072232707370C1F3014242EA041444EA8E04B470C1F30722F27031711B0B23F00F03C0F3034213437371C0F355
:4025C0000723B371F0712846BDE8F0874FF0FF30BDE8F0874FF0FF30BDE8F0874FF0FF30BDE8F0877FD1F00800E9A435FFFF0F0038B504460D460320FEF7B4FE0123A34092
:402600005BB2184340B2C1B215B120EA0300C1B20320FEF79BFE2DB1094A135D03F07F03135504E0064A135D63F07F03135504F11000034B195DC0B2FEF788FE38BD00BF0D
:4026400044060020F8B505460E4614460020FEF789FE10F0800FF9D1FF210320FEF776FE44F01201C9B2B720FEF770FE134B0C221A702C225A709A70002404E00021E0B2BA
:40268000FFF7B6FF0134072CF8DDF317D9070C4A0023F00741EA560103F040FBEF1705FB01F300FB0733A5FB00011944C30F43EA41032B44034A1360F8BD00BF44060020AB
:4026C000809698004006002008B5104A135C03F0FC031354022907D003290AD001290CD143F00103135408E043F00203074A135403E043F00303054A135400F11003034A3F
:40270000115CD8B2FEF722FE08BD00BF440600202DE9F04186B0064614461F4601AB0DF11702FFF7CBFE054614B1022C16D807E02F4B1E68361A18BF01264FF0000812E0FB
:402740002C4B196869B101AB0DF117023046FFF7B5FE054600264FF0010804E00026B04601E00126B046002D3DDBD6B103A92846FFF74AFE0546B8F1000F03D0B8F1000FFC
:4027800005D109E01A4B18604FF01A0806E0194B18604FF0220801E04FF01A08002D02DA21E04FF01A08144A115D21F040019DF817301943115504F11000C0B2FEF7C6FD59
:4027C00026B1082203A94046FEF78EFDE0002A30082201A900F0FE00FEF786FD1FB1AC21B120FEF7B3FD284606B0BDE8F08100BF4C0600205006002044060020FEE700BFB0
:40280000F0B40022174611E050F82760F3B226F0FF0608E001EB420511F812406D78A5550132013BDBB2002BF4D101371A2FEBD9F0BC7047104B1B78DBB203F007010F4A3D
:4028400011701B090132137060220D4B1A7080230C490B701020C0310870012001F68301087080310A70084A1370543213704422064B1A70704700BFCF0100496E5800409A
:402880000D5100403D510040045B00407658004008B50A46002103F067FC08BD08B503F058FC08BD38B500242F4B1C80502202331A7042F6DF6202331A80192502331D704D
:4028C00004222A492A48FFF7E9FF0622294B1A705222A3F580731A70274B1B78DBB2274A137040F62132264B1A8041F25122023B1A800CE0234B1B7803F0010343EA440450
:4029000004F003044FF4F07002F05AFD013D0DB1032CEFD115B90320FFF770FF1A4A4FF48073138007231370002318490B704820023108701370053213700222144B1A7039
:4029400004220A331A70134A137843F003031370013A137843F001031370013A137843F08003137038BD00BF80400040E401004800410040004300400F010049A1460040E2
:402980002242004025420040044000400640004001400040A243004038B572B6324C61232370FFF77FFF01232370304A137843F00403137000240CE02D4D630019194A001C
:4029C00011462A44084691882858FFF761FF0134E4B2062CF0D927494FF09040FFF710FF0A24254B1C70254A137843F0020313701032137843F002031370214D2B7843F0E0
:402A000040032B70A2F58632513A137843F01003137022461B491C48FFF740FF08221B491B48FFF73BFF22461A491B48FFF736FF08221A491A48FFF731FF224619491A486A
:402A4000FFF72CFF082219491948FFF727FF194A137843F008031370FFF7ECFE0E2229461548FFF71BFF38BD00480040E84600406C7600006C000048835800400350014061
:402A8000A0430040A801004800510040B4010048C2510040BC010048F0510040C801004812510040D001004820510040DC0100483251004022430040B0430040FEE700BFB9
:402AC00008B5094B1A681044084BC31AB3F5805F02DC054B186005E003F000FB0C2303604FF0FF32104608BD5881FF1F5007002008B5104E104D16E029686B68AC6800222C
:402B000004E051F8040B43F8040B0432A242F8D1E868002203E0002143F8041B04328242F9D11035013E002EE6D103F0DDFAFEF76FFEFEE701000000A47E000008B5104AE4
:402B4000104B1A60104A136843F40073136000230AE0032B03D80D4A52F8231000E00C490C4A42F8231001332F2BF2D90A4B1A780A4B1A70074A0A4B1A60FFF70DFF08BDA6
:402B80000004FA050CED00E014ED00E000000000BD2A00000080FF1FBC760040C080FF1F08ED00E0044A137803F0FE0300F0010018431070704700BF2051004010B500F0B9
:402BC0000DF900F0A3F9D0B900F0E2F90446072812D102E0012000F093F80A4B1B7813F0020FF7D0074B1B7813F0020F04D0054B1B789B0800D1002400F0AEF900E004246B
:402C0000204610BD2247004010B500F0E7F800F07DF910BB012000F05BF9072818D102210F4800F0EDF802280AD102E0012000F067F80C4B1B7813F0020FF7D0002409E0FE
:402C4000084B1B7813F0020FE9D04FF0FF3401E04FF0FF3400F080F900E00424204610BD540600202247004008B5FFF7A7FF034610B9FFF7C9FF0346184608BD08B502F0D1
:402C8000A7FB0F4A137843F0080313701032137843F008031370C8220A4B1A700A4A137843F0100313701032137843F010031370064B1B7813F0200FFAD002F08DFB08BD19
:402CC000A043004001470040AC4300400047004001BE704710B5044605E0084B186802F06FFBA4F50044B4F5004FF6D8034B586800FB04F002F064FB10BD00BF5C81FF1F62
:402D000008B5034B1B7A00FB03F002F059FB08BD5C81FF1F70B504460E46074B1D681F2802D90020FFF7D4FF04F01F04103455F8240045F8246070BD08ED00E038B5044694
:402D40000D46072902D90020FFF7C2FF1F2C02D90020FFF7BDFF04F01F0000F1604000F564406D01EDB2057038BD00BF134B1B78DBB20360124A127843EA02230360114ADC
:402D8000127843EA024303600F4A127843EA026303600E4B1B78DBB243600D4A127843EA022343600B4A127843EA024343600A4A127843EA02634360704700BF0301004920
:402DC00004010049EC460040020100490101004900010049050100490601004908B502F0F7FA064A137843F0080313701032137843F00803137002F0EFFA08BDA043004006
:402E000070B506460D4600240CE00120FFF778FF064B1B7813F0010FF7D0054B1B7833550134E4B2AC42F3D3204670BD2247004020470040114B1B7813F0020F19D010B4F5
:402E40000F4BB6241C70D5241C7002241C7002331B7813F0020F0ED1094B1870002304E0CC5C0748047001339BB29342F8D3072002E004207047092010BC70472247004078
:402E80002047004030B4104C247814F0020F15D00E4CB6252570D8252570052525700234247814F0020F0BD1084C2070080A2070C9B2217022702370072002E0042000E0F3
:402EC000092030BC704700BF22470040204700400C4B1B7813F0020F0FD00B4BB6221A70E1221A700E221A7002331B7813F0020F05D1054B187007207047042070470920AF
:402F0000704700BF224700402047004010B502F05FFA0F4B1B78A3B901220D4B1A700D4B1B6813F0010F0ED00A4A136823F00103136000BF00BF00BF0122054B5A600024BA
:402F400002E0042400E0002402F046FA204610BD380300200400084008B502F039FA0A4B00221A705B68012B0AD1084A136843F00103136000BF00BF00BF0022024B5A60AD
:402F800002F02AFA08BD00BF3803002004000840074B1B7813F0020F08D0064BB6221A70E0221A700D221A7007207047042070472247004020470040024B1878C0F38000EE
:402FC000704700BF21510040024B1878C0F34000704700BF0151004010B50222114B1A7081220E3B1A70082202331A702A2211331A70002401331C704FF400420A4B1A6051
:4030000007210F20FFF79AFE08490F20FFF782FE1022074B1A70074B1C70074B1C70074B1C7010BDD649004080E100E08D300000560600205A0600205C06002058060020E7
:4030400008B502F0C5F9064A137843F0040313701032137843F00403137002F0BDF908BDA543004008B5074B1B7823B9FFF7B4FF0122044B1A70FFF7E3FF4FF40042024B5F
:403080001A6008BD4003002000E100E038B5A54B1C78A54B1B7813F0400F00F03A81E4B214F0010F00F01D819F4B1B78453B052B00F21481DFE813F0060082001201120158
:4030C0000600DF0004F0DF0504F00A04082C42D1954B1B78DBB2452B35D1944B1B7813F0FF0F10D0924B1B681B78DBB2914A137004228C4B1A7001228F4B1A7046228A4BC8
:403100001A702C46EDE08D4B1B7813F0020F0DD08B4A137843F00A0313706022824B1A704FF40042874B1A602C46DAE0864A137843F0100313701022844B1A700422023B5F
:403140001A702C46CDE00022764B1A704A22764B1A702C46C5E00A2C2BD1794A137843F0A0031370754B1B7813F0020F14D06E4B1B7813F0080F01D0092300E00A23704A1D
:4031800011780B4313706022674B1A704FF400426C4B1A602C46A4E06B4A137843F0100313701022694B1A700422023B1A702C4697E00020FFF78CFD2C4692E014F0020F64
:4031C00036D15D4B1A78D2B2584B1B78DBB29A4210D2594A1378DBB255490968CB5CDBB254490B7004214F4B197013780133DBB2137076E0514B1B7813F0020F0CD0504ACD
:40320000137843F00A0313706022474B1A704FF400424C4B1A6064E04B4A137843F0100313701022494B1A700422023B1A7058E0424B1B7813F0020F0CD0414A137843F011
:403240009A0313706022384B1A704FF400423D4B1A6046E03C4A137843F01003137010223A4B1A700422023B1A70354A137843F09003137035E0364A1378DBB235490868FC
:403280002C490978C9B2C15413780133DBB213701278D2B2304B1B78DBB29A4203D21022204B1A701DE0254B1B7813F0020F0CD0234A137843F00903137060221A4B1A701D
:4032C0004FF400421F4B1A600BE01F4A137843F0100313700022134B1A7002E00020FFF7F7FC14F0200F1CD00F4B1B7813F0080F01D0012300E00223114A11780B431370F3
:40330000114A137803F0EF0313701022064B1A7038BD054B1B7813F0100F02D11022024B1A7038BDD7490040560600205B06002060060020D8490040580600205906002026
:403340005A06002080E100E0D6490040D94900405C06002064060020680600201A4B1B78DBB2102B29D1194B1B7813F0080F26D14FF40042164B1A604000C0B229B140F053
:4033800001004922104B1A7002E045220E4B1A70104B1870012201331A700F4B1B7813F0010FFAD00C4B1B7803F00A030A2B08D11022054B1A70032070470220704701202A
:4033C00070470020704700BF56060020D949004080E100E0D8490040D74900400A4B1B7813F0040F0ED01023074A13700421023A1170064A1370064B1B7813F0210FFAD027
:403400000020704702207047D949004056060020D7490040114B1B7813F0040F1BD0104B18700422013B1A7046220E4B1A700E4B1B7813F0010FFAD00B4B1B7813F0020FCE
:4034400004D16022074B1A70002070476022054B1A70032070470220704700BFD9490040D849004056060020D7490040114B1B7813F0040F1BD0104B1B78DBB2492B05D120
:4034800000220E4B1A704A220B4B1A700B4B1B7813F0010FFAD00A4B1B78DBB218B11021064A117004E06021034A117000E0002318467047D949004056060020D74900402C
:4034C000D8490040044A137803F0FD03400000F002001843107070472051004008B5FFF7C3FBFFF7CBFB08BD08B5FFF7F7FF08BD38B504460D46FFF771FC15F0800F48D130
:40350000FFF704FD002846D1102221464020FFF791FC07282FD1214B1B7813F0020FFAD01E4B1B7813F0020F06D01C4B1B789B0805D04FF0FF3403E04FF0FF3400E00024AA
:40354000E4B9174A5378127829464020FFF79AFC072816D1114B1B7813F0020FFAD00F4B1B7813F0020F0FD00C4B1B789B080DD04FF0FF340AE04FF0FF3407E04FF0FF3449
:4035800004E04FF0FF3401E04FF0FF34FFF7E4FC02E0012400E00424204638BD2247004054060020F8B501F013FF0746404A137843F0010313701032137843F001031370AC
:4035C00001263C4B1E700225943B1D7002F5E2521B32137803F07F0313700020FFF790FB354C237803F0F9032370344A137803F0DF0313702378334323703046FFF780FBE6
:403600002820FFF77DFB2E4B1A7802F07F021A701A7802F0BF021A7023782B4323702846FFF76EFB237843F0040323700024254B1C7001331C70384601F0CEFE07211720B2
:40364000FFF77CFB20491720FFF764FB07211820FFF774FB1D491820FFF75CFB07211520FFF76CFB1A491520FFF754FB07212046FFF764FB17492046FFF74CFB072130461D
:40368000FFF75CFB14493046FFF744FB07212846FFF754FB11492846FFF73CFB07210C20FFF74CFB0E490C20FFF734FBF8BD00BFA54300409D60004094430040126000400A
:4036C000F8510040846000403D410000253F00003941000099400000C9400000FD4000004541000008B5214B18700023204A1370204A1370204A1370204A1370204A1370A7
:40370000204A1370204A1370204B4FF400021A604FF080721A604FF400121A6001221A6002221A6004221A6011B1012906D00BE0174A137803F0FE0313700AE0144A13784D
:4037400043F00103137004E0114A137843F00103137003220F4B1A708022203B1A70012001F02EFE04220C4B1A7008BD8506002088060020A4060020A70600209C060020BF
:40378000A6060020A90600208406002000E100E009600040286000401260004038B504460D46064B1B7823B9FFF7FCFE0122034B1A7029462046FFF795FF38BD41030020F3
:4037C00000230A4A13700A4A13700A4A13700A4A13700A4A13700A4A13700A4A13700322094B1A708022203B1A70704788060020A4060020A70600209C060020A6060020B1
:40380000A90600208406002028600040014B1878704700BFA7060020064B1B7813F0FF0F05D0044B1878C0B200221A7070470020704700BFA406002000EB40008300024A50
:4038400013445878704700BFAC060020431EDBB2072B0BD8064B00011A18185C00F00F00537843EA0020023880B2704700207047FC5F0040431EDBB2072B3CD8F0B407460D
:4038800000EB4004A3001C4C2344DB889BB2C3F500739A4208D900EB400293002344DA8892B2C2F5007292B200EB4004A300124C2344DB7843EA1223104D04012E192B5520
:4038C000D3B2737039B909E0CE5C3D010C4C665501339BB200E000239A42F5D8420002449300054A134400225A705A79D2B20001044B1A54F0BC7047AC060020FC5F00404B
:4039000078600040FE5F0040431EDBB2072B0BD8420002449300054A134400225A705A79D2B20001024B1A54704700BFAC060020FE5F004070B5D9B1054614460E46C8B109
:40394000082819D8FFF782FFA04203D22846FFF77DFF0446002305E02901094A525CF25401339BB2A342F7D32846FFF7CDFF04E0002402E0002400E00024204670BD00BF91
:403980007860004010B4FF2400230EE0094AD25C02EB42029100084A11448A7AD2B2824201D11C4602230133DBB2012BEED9204610BC704774060020AC06002010B5204C2E
:4039C0002079FFF7DFFF237813F0800F0ED06378DBB2212B2FD11B4B07221A80C0EBC000194A1044586000F00BFB10BD144B5B78DBB2202B02D0222B10D01EE0114A072349
:403A00001380C0EBC00310490B4453600F4A135C43F00103135400F01BFB10BD084B9B780B4A22F81030094A135C43F00203135400F0A4F910BD002010BD002010BD00BF88
:403A400000600040900600206C81FF1F6C0600208006002010B500241F4B1C701F4B1C705C700AE01E4B185DC0B2431EDBB2072B01D8FFF749FF0134E4B2012CF2D9194B74
:403A80001B7813F0FF0F1AD0154B1B7813F0FF0F17D0154B1B7813F0FF0F14D0114B1B78DBB2082B11D80E4B1B78DBB2082B0ED80D4B1B78DBB2082B0BD8002010BD0120DF
:403AC00010BD012010BD012010BD012010BD012010BD012010BD00BF420300206C06002078060020700600207406002070B506460D460F4B1B780F4AD45CE4B204EB4402CA
:403B000093000D4A13441B899BB28B4209D204EB44029300084A13441D89ADB20020FFF7D7F82A4631462046FFF7A4FE70BD00BF4203002070060020AC06002008B5034BA7
:403B40001B78034AD05CFFF777FE08BD420300207806002008B5034B1B78034AD05CFFF76BFE08BD420300207006002008B5084B1B78084AD35CDBB203EB43018A00064914
:403B80000A44128992B201461846FFF7D3FE08BD4203002078060020AC0600200A4B1B7813F0FF0F0CD1094B1B78094AD25C12F0FF0F07D0064AD05CC0B20021D1547047C2
:403BC000002070470020704788060020420300206C060020C37803F0030390F9020000280FDA032B06D002F001030B48C15442F001020EE0C2F380030848C15442F0040248
:403C000007E0032B05D0C2F340030548C15442F002021046704700BF7006002074060020780600201D4B19781D4A13889BB20B449BB2138000220FE01A494B681B78DBB2B2
:403C4000194883544B6801334B600132D2B20B889BB2013B9BB20B80124B1B889BB20BB1072AE9D90D4B1B78DBB2082B00D05AB10E490B7883F080030B700F210C4B1970F2
:403C800002210C4B197004E0022309490B7009490B70094B1A70014B1A707047840600208606002090060020006000401A070020A506002088060020A80600200222074B49
:403CC0001A708022064B1A700F22064B1A700023054A1370054A137001207047880600201A070020A506002084060020A806002008B5FFF797FF08BD10B4194B197801F028
:403D00000F010239C9B2174A13889BB20B449BB21380002011E0144A5468144B1B5CDBB223705368013353600130C0B20139C9B213889BB2013B9BB213800B4B1B889BB2E0
:403D40000BB10029E7D10A4B19700A4A137883F0800313700B22084B1A7010BC704700BF29600040860600209006002000600040A80600201A070020A50600200623064A06
:403D80001370064A13708022054B1A700022054B1A700120704700BF88060020A50600201A070020A8060020064B9B6843B1054B9A6810709A6804490988518000229A602F
:403DC000704700BF900600208606002008B5134B1A78D2B21A701B78DBB213F0800F02D00F4A137008BD0220FFF7DEFF0D4B1B7803F06003202B05D0402B06D043B900F088
:403E000091FC06E001F0ECFA03E000F035FE00E0002010B90322024B1A7008BD28600040A50600200060004008B5094B1978094A13889BB20B449BB213800022064B1A706C
:403E40000120FFF7B1FF0322044B1A7008BD00BF840600208606002088060020A506002008B50B4B1B78DBB2042B06D0062B07D0022B0BD1FFF7D8FF08BDFFF73DFF08BD58
:403E80000320FFF791FF0322024B1A7008BD00BF88060020A506002008B50022044B1A700120FFF781FF0322024B1A7008BD00BF88060020A506002008B50B4B1B7813F06F
:403EC000FF0F07D0084A137843F0800307490B70002313700022064B1A700120FFF764FF0322044B1A7008BDA60600200860004088060020A506002008B5094B1B78DBB281
:403F0000042B06D0062B07D0022B07D1FFF7F0FE08BDFFF7C1FF08BDFFF7CEFF08BD00BF8806002008B5284B1B78DBB213F0100F48D013F0800F0CD003F00F03012B16D146
:403F4000FFF744FF214B1B7813F0800F11D1012312E013F0400F03D0FFF7CEFF01230BE013F0200F07D0FFF77BFF012304E0002302E0002300E0002323B3134B1B7813F012
:403F8000800F1FD1124B1B78124A12781343124A13701278D2B2934214D10C4B1B78DBB2094A127812F0800F07D1084B1B78DBB2054A1370137803F00F03044A1278D2B2C1
:403FC0009342EAD108BD00BF28600040A50600201A070020A8060020296000400022064B1A80064B9B682BB1044A916800230B7092685380704700BF86060020900600207B
:4040000008B50F4B1B889BB213B9FFF757FE15E002220C4B1A7000220B4B1A70FFF7DEFF0A4AD179937943EA0123054A128892B2934201D2024A1380FFF7F4FD012008BD17
:4040400090060020880600201A0700200060004008B504220B4B1A7080220B4B1A70FFF7BDFF0A4AD179937943EA0123084A128892B2934201D2064A13800B22054B1A7047
:40408000012008BD880600201A0700200060004090060020A50600200122094B1A700F3B9B7C084B1B7B03F00303934204D0054AD37B83F08003D3730122024B5A73704750
:4040C0000B600040AC06002002220A4B1A700F3B93F82230084B1B7E03F00303012B04D0054AD37E83F08003D3760122024B5A76704700BF0B600040AC06002004220C4BA5
:404100001A700F3B93F832300A4B93F8243003F00303012B06D0074A92F8273083F0800382F827300122034B83F82520704700BF0B600040AC060020704700BF08B5FFF749
:404140003FFB08BD08B500F0FBFF08BD70B588B0054603AC174E0FCE0FC43368237035B322232B7003236B7001A8FEF7FFFD002402231AE008AA224412F81C2C08A901EB8D
:40418000121111F8141CE954581C00212954981C02F00F0208AE324412F8142C2A54DA1CA9540134E4B20433DBB2212BE2D908B070BD00BF9876000010B401233EE0194609
:4041C0001A010C242148845403EB4300820020480244527912F0FF0F13D003EB430082001B480244127912F0800F04D01801194A024494700AE01801164A02440820907031
:4042000004E01801134A0244802090704800084482000F480244D488E4B208010B4901448C71D088C0F30720C871D088C0B20871D288C2F307224A710133DBB2082BBED9CE
:40424000FF22054B1A7010BC704700BF70600040AC060020FC5F00400A600040074B1A78074B03EBC2035B681A7C824204D9C00010301844406870470020704785060020BA
:40428000EC7C0000F8B5404B1B7813F0FF0F79D03D4B18780138C0B2FFF7E0FF047AC2683A4B1878C0B200236AE01178884264D13749095CC9B25578A9425ED1917801F074
:4042C0007F01D67806F00306DFF8C8E04D000D44AF000EEB07054FF0000C85F803C092F802C085F804C092F803C00EF807C097882F8192F90250002D0DDA012E01D10727FF
:4043000000E00D274E000E44B500224E35446F7101266E700CE0012E01D1052700E009274E000E44B5001B4E35446F7100266E70DFF868E00F010EEB07060125B57001FA87
:4043400005F529448D00134929440D89C5F307250EF807500D89EDB27570CE88F6B20E4D3D44AE71CE88C6F30726EE71CE88F6B22E71C988C1F30721697108320133DBB25C
:40438000A34292D3F8BD00BFA70600209C06002018070020AC06002070600040FC5F0040034B1A78034B03EBC2035868704700BF85060020EC7C000008B5084B18780138F1
:4043C000C0B2FFF74BFF30B142681279023200EBC203586808BD002008BD00BFA70600202DE9F047002310E0724D5900CA189600AC190022AA55A270E2702281A272627058
:4044000034462C4462710133DBB2082BECD940B90AE000226849CA546849CA540133DBB200E00023012BF4D9654B1B7813F0FF0F00F0BD80624B18780138C0B2FFF70EFF3A
:4044400080464368DB7913F0400F05D05D4A137843F00103137004E05A4A137803F0FE03137098F808704FF0000A01266FE0D8F80C50002467E0AB7803F07F039E425FD1D4
:40448000314606EB460083004A4803441B899BB2A888834206D206EB460E4FEA8E03454A134418812B784448C35CDBB26878834246D195F802C0DFF8FCE04B000B449800DB
:4044C0000EEB000383F804C0EB780EF80030EB7803F0030395F90200002813DA012B02D14FF0070901E04FF00D09DFF8C8E04B0003EB010C4FEA8C00704480F805900121F6
:40450000417012E0012B02D14FF0050901E04FF00909DFF8A0E04B0003EB010C4FEA8C00704480F8059000214170AB790A2B01D0022B05D1524631462846FFF74BFB8246B7
:4045400008350134E4B2BC4295D30136F6B2082E8DD9D8F80C0000220CE0837803F07F0310F8084B03EB43039900124B19448C720132D2B2BA42F0D3FFF71EFF124B1860BA
:40458000002301210FE00B4D4A00501884002C44E380228992B213449BB203F0010213449BB20131C9B20829EDD9FFF705FEBDE8F08700BFAC060020180700208C060020FE
:4045C000A7060020A9060020A006002008B5154B1B7903F07F035A1ED2B2072A20D8590019448A0010490A44917841F0010191700021D170517841F002015170127912F03D
:40460000800F05D01B01094A1A448D23937004E01B01064A1A4489239370FFF7AFFB08BD002008BD00600040AC060020FC5F0040264B1B7903F07F035A1ED2B2072A43D820
:4046400010B5590019448A0021490A44917801F0FE0191700021D17019017F241D484454517801F0FD015170127912F0800F14D003EB43018A0016490A445278D2B2012A0C
:4046800005D11B0102461A440C23937019E01B01104A1A440D23937013E003EB43018A000B490A445278D2B2012A05D11B01094A1A440823937004E01B01064A1A440923BB
:4046C0009370FFF75BFB10BD0020704700600040AC060020FC5F004010B50E4B1C79E4B20D4B18780138C0B2FFF7B8FD43681B799C4201D9022C0AD8084A135DDBB208498C
:404700000B55044B9B78DBB21355012010BD002010BD00BF00600040A7060020180700208C06002010B59C4B1B78DBB200219B4A118013F0800F00F0AD80974A5278D2B289
:404740000A2A00F27481DFE812F06900720172017201720172010B007201920072019A008D4BDB78DBB2012B09D1FFF719FE42688A4B5A6012221A80FFF742FC10BD864BEC
:40478000DB78DBB2022B13D1834B9878FFF766FD002800F04E814268804B5A605A68D1785A68927842EA01221A80FFF729FC10BD794BDB78DBB2032B05D02CE00A78114489
:4047C0000133DBB201E000237549734A9278D2B2934203D20A7812F0FF0FEFD16E4B9B7813F0FF0F0BD06C4B9B78DBB26D4A127C934204D16C4C2046FFF7A8FC21460B784F
:4048000013F0FF0F00F017810B78644A13805160FFF7F6FB10BD00F0E3FD10BD13F0030317D0022B40F009815C490B805A4B1B7903F07F0303EB43039A005C4B1A44927887
:40484000D2B25B4B1A7000225A704B60FFF7D8FB10BD524902230B80564B1A78D2B2544B1A7000225A704B60FFF7CAFB10BD4B4B01221A80504A5A60FFF7C2FB10BD474A55
:4048800001231380444B1B794C490B445360FFF7B7FB10BD404A5278013A0A2A00F2CF80DFE812F04C00CD009800CD000B00CD00CD00CD001300CD003000374B9B78DBB223
:4048C0003F4A1370FFF75AFA10BD334B9B7803F0FF041BB1601EC0B2FFF7C0FC04B110B9002C40F0AE80344B1B78DBB29C4206D0314B1C700120334B1870FFF771FDFFF7BC
:404900003DFA10BDFFF7E8FE002800F09C80224A1379DBB21279D2B22B490A702B4AD25CD2B22649CB5CDBB29A4204D00122254B1A70FFF7A7FCFFF721FA10BD03F003035A
:40494000012B17D04BB1022B7FD1134B9B7813F0FF0F7CD1FFF76CFE10BD0F4B9B78DBB2012B76D1134A137803F0FD031370FFF705FA10BD084B1B79DBB2012B6BD8064BEE
:4049800098781B79DBB21249CA5C22EA0002CA54FFF7F4F910BD00BF0060004090060020547D0000387E000028070020AC06002044030020A9060020A7060020180700206A
:4049C000A6060020A40600209C0600208C0600201C07002003F00303012B17D04BB1022B3BD1224B9B7813F0FF0F38D1FFF7EEFD10BD1E4B9B78DBB2012B32D11C4A1378B8
:404A000043F002031370FFF7B9F910BD174B1B79DBB2012B27D8154B98781B79DBB21549CA5C22EA0002CA54FFF7A8F910BD002010BD002010BD002010BD002010BD00201F
:404A400010BD002010BD002010BD002010BD002010BD002010BD002010BD002010BD002010BD002010BD002010BD00BF00600040A90600201C070020044B1B7813F0800F42
:404A800001D0024B5B780020704700BF0060004010B59DF80840012C51D1013809282ED8DFE800F0052D2D052D2D0F192D230F2B03D92548007840B222E02448007840B2BC
:404AC0001EE00F2B03D92248007840B218E02148007840B214E00F2B03D91F48007840B20EE01E48007840B20AE00F2B03D91C48007840B204E01B48007840B200E00020EB
:404B000001EB401101FB02F1C90B8AB20D2B0BD8C3F10E0289B211418AB2611E124800EB810101338B7005E0631E0F4901EB83030F219970013C0C4B23F8242010BD0020D3
:404B4000FEF7C6F810BD00BF180100491C010049190100491D0100491A0100491E0100491B0100491F01004948030020F8B5074600F02EFC06460D4D2B7843F003032B702E
:404B80000B4C237843F0030323700A4B1F700320FEF7B6F82B7803F0FC032B70237803F0FC032370304600F017FCF8BDF8460040F946004092580040F8B500222F4B1A7114
:404BC000012859D134222E4B1A70052202331A70082201331A70002401331C7001331C702D2201331A7002331C7001331C7001331C7001250A331D70142203F527631A7017
:404C0000092201331A700A2701331F7001331C70112203331A70122201331A7001331D70022602331E70222201331A70282201331A70EB2201331A704420FFF797FF582207
:404C4000104B1A7001331C7005331E7001331E7001331C7001331C704FF4FA520A4B1A602946032000F08CFA2946384600F014FB06491D20FEF74EF8F8BD00BF480300208F
:404C8000004E00409458004024070020CD4E0000F0B583B0284D01272F70284E00247471102000F05BFA102000F0E4FA07211D20FEF744F80420224B187001331C70073325
:404CC0001C70204A137843F0180313701E4B1C7003F2F5231C7001331C700A22A3F209331A7001331C7002331C70122205331A70132201331A7004331C701422A3F68C23E2
:404D00001A7000970E2347F2E97248F6B651FFF7BFFE2B78013B06EB83039A780B4B1A702B78013B36F82320094B1A802878FFF743FF03B0F0BD00BF8681FF1F4803002088
:404D400096580040075B0040935800400E4E00400C4E004070B500F03BFB06462A4B1B782A4B1A7842F001021A701A7842F010021A7010331A7842F001021A701A7842F0E5
:404D800010021A70224D2B7843F002032B70214C237843F0020323701F4A137843F0030313700320FDF7ACFF2B7803F0FD032B70237803F0FD032370184A137843F00603B2
:404DC00013707A22164B1A70164A137843F0010313701032137843F0010313700F3A137843F0010313701032137843F0010313704FF000530C4A1360A2F5C072136030465B
:404E000000F0EAFA70BD00BF8681FF1FAA430040F8460040F9460040915800407758004082580040A143004080E200E008B5084B9B794BB9064BDB7913F0FF0F01D1FFF705
:404E400027FF0122024B9A71FFF784FF08BD00BF48030020044A137803F0F303800000F00C001843107070479B580040024A137843F0010313707047004E00400E4B1B7864
:404E800003F00303012B03D80C4B188880B209E00A4A12780A49087842EA0020032B01D1084B1B78084B1B7913F0FF0F02D00022054B5A7100B27047144E0040104E00404D
:404EC000114E0040124E004048030020704700BF014B1B681865704708ED00E04001C0B2014B1870704700BF04E400E01022014B1A60704700E100E01022014B1A607047D6
:404F000080E100E010B50446FFF7F6FF2046FFF7DFFF0720FFF7E2FFFFF7E8FF10BD00BF054A137843F0010313701032137843F001031370704700BFA8430040054B1A78F7
:404F400002F0FD021A701A7800F0020010431870704700BF20580040014B1870704700BF805B0040064B1B78C3F3810303F19243063393F82031DBB2024A1370704700BFF6
:404F8000205800400846004008B5064B1A7802F0F3021A701A7800F00C0010431870FFF7E1FF08BD2058004010B50024054B1C7001331C702046FFF7E7FF2046FFF7BEFFFE
:404FC00010BD00BF2058004008B5074B1B7823B9FFF7EAFF0122044B1A70FFF7A1FF6420FFF7BAFF08BD00BF50030020F8B5254A137843F01003137002F50342DA32137811
:4050000003F0FE0313703F2308321370043213701D4D4FF48074224629461C4801F099F8224629461A4801F094F8224619491A4801F08FF84FF4007422461849184801F098
:4050400088F822461749184801F083F8174C184E04F14007354620686168A268E3680FC510342E46BC42F5D10024124B1C70032000F056F8204600F05BF8F8220E4B1A7092
:40508000F8BD00BFA6430040EC7B000000C4004000C50040AC76000000C60040EC79000000C00040EC77000000C20040AC77000000C700408CC7004084C70040084A1378CC
:4050C00043F0100313701032137843F01003137002F50342CA32137843F0010313707047A643004008B5054B1B7823B9FFF77EFF0122024B1A70FFF7E1FF08BD51030020FC
:4051000010B9054B18887047012802D1034B188870470020704700BFA9C70040ADC7004000F01F00014B1870704700BF98C7004000F00F00014B1870704700BF9CC7004080
:40514000024B1878C0F38010704700BF8F450040014B188880B2704780400040034B1A7800F0F80010431870704700BF82400040024B187800F00700704700BF8240004049
:4051800070B505460E46FFF7F3FF0446FFF7E0FFA84256D02B4B1B7803F0010294B900B185B938B9284B1D80284A137803F0BF03137070BD254A137843F040031370224B16
:4051C0001D8070BD22B3002321490B7001240F310C7004310B700C390B7803F07F030B701A4B1B7813F0080F00D08DB9194B18800721013B1970164B1B7813F0010FFAD1DC
:4052000010490B7803F0FE030B700021104B19700C4B1B7813F0010F0DD00E4B1D800EB1032200E001220A4B1A70094B1B7813F0010FFAD170BD044B1D8002490B78134386
:405240000B7070BDA2430040804000408240004001400040024000404FF00052014B1A60704700BF00E100E0014B188880B2704700410040034B1A7800F0F80010431870D5
:40528000704700BF02410040024B187800F00700704700BF0241004070B505460E46FFF7F3FF0446FFF7E0FFA84256D02B4B1B7803F0010294B900B185B938B9284B1D8011
:4052C000284A137803F0BF03137070BD254A137843F040031370224B1D8070BD22B3002321490B70012413310C7004390B7008390B7803F07F030B701A4B1B7813F0080FE2
:4053000000D08DB9194B18800721013B1970164B1B7813F0010FFAD110490B7803F0FE030B700021104B19700C4B1B7813F0010F0DD00E4B1D800EB1032200E001220A4B40
:405340001A70094B1B7813F0010FFAD170BD044B1D8002490B7813430B7070BDA143004000410040024100400140004002400040014B1B68D864704708ED00E04001C0B284
:40538000014B1870704700BF03E400E00822014B1A60704700E100E00822014B1A60704780E100E010B50446FFF7F6FF2046FFF7DFFF0720FFF7E2FFFFF7E8FF10BD00BFF1
:4053C0000230800803D000BF01380046FCD17047EFF3108072B6704780F31088704700BF08B5124B1B7803F00303012B02D0022B04D00FE00D4B1B79DBB20CE00B4B1B79A9
:4054000003F07F0303EB43039A00094B1A44937ADBB200E00023074A1268D35C022B02D1FEF7CCFA08BD002008BD00BF00600040AC060020A006002081F0004102E000BF31
:4054400083F0004330B54FEA41044FEA430594EA050F08BF90EA020F1FBF54EA000C55EA020C7FEA645C7FEA655C00F0E2804FEA5454D4EB5555B8BF6D420CDD2C4480EA61
:40548000020281EA030382EA000083EA010180EA020281EA0303362D88BF30BD11F0004F4FEA01314FF4801C4CEA113102D0404261EB410113F0004F4FEA03334CEA1333F5
:4054C00002D0524263EB430394EA050F00F0A780A4F10104D5F1200E0DDB02FA0EFC22FA05F2801841F1000103FA0EF2801843FA05F359410EE0A5F120050EF1200E012A4A
:4055000003FA0EFC28BF4CF0020C43FA05F3C01851EBE37101F0004507D54FF0000EDCF1000C7EEB00006EEB0101B1F5801F1BD3B1F5001F0CD349085FEA30004FEA3C0C78
:4055400004F101044FEA445212F5800F80F09A80BCF1004F08BF5FEA500C50F1000041EB045141EA050130BD5FEA4C0C404141EB010111F4801FA4F10104E9D191F0000F22
:4055800004BF01460020B1FA81F308BF2033A3F10B03B3F120020CDA0C3208DD02F1140CC2F10C0201FA0CF021FA02F10CE002F11402D8BFC2F1200C01FA02F120FA0CFCC3
:4055C000DCBF41EA0C019040E41AA2BF01EB0451294330BD6FEA04041F3C1CDA0C340EDC04F11404C4F1200220FA04F001FA02F340EA030021FA04F345EA030130BDC4F13D
:405600000C04C4F1200220FA02F001FA04F340EA0300294630BD21FA04F0294630BD94F0000F83F4801306BF81F480110134013D4EE77FEA645C18BF7FEA655C29D094EAE0
:40564000050F08BF90EA020F05D054EA000C04BF1946104630BD91EA030F1EBF0021002030BD5FEA545C05D14000494128BF41F0004130BD14F580043CBF01F5801130BDCD
:4056800001F0004545F0FE4141F470014FF0000030BD7FEA645C1ABF194610467FEA655C1CBF0B46024650EA013406BF52EA033591EA030F41F4002130BD00BF90F0000F53
:4056C00004BF0021704730B54FF4806404F132044FF000054FF0000150E700BF90F0000F04BF0021704730B54FF4806404F1320410F0004548BF40424FF000013EE700BF0B
:4057000042004FEAE2014FEA31014FEA02701FBF12F07F4393F07F4F81F06051704792F0000F14BF93F07F4F704730B54FF4607401F0004521F0004120E700BF50EA010236
:4057400008BF704730B54FF000050AE050EA010208BF704730B511F0004502D5404261EB41014FF4806404F132045FEA915C3FF4DCAE4FF003025FEADC0C18BF03325FEABC
:40578000DC0C18BF033202EBDC02C2F1200300FA03FC20FA02F001FA03FE40EA0E0021FA02F11444C1E600BF70B54FF0FF0C4CF4E06C1CEA11541DBF1CEA135594EA0C0F06
:4057C00095EA0C0F00F0DEF82C4481EA030621EA4C5123EA4C5350EA013518BF52EA033541F4801143F4801338D0A0FB02CE4FF00005E1FB02E506F00042E0FB03E54FF012
:405800000006E1FB03569CF0000F18BF4EF0010EA4F1FF04B6F5007F64F5407404D25FEA4E0E6D4146EB060642EAC62141EA55514FEAC52040EA5E504FEACE2EB4F1FD0C7C
:4058400088BFBCF5E06F1ED8BEF1004F08BF5FEA500E50F1000041EB045170BD06F0004646EA010140EA020081EA0301B4EB5C04C2BFD4EB0C0541EA045170BD41F48011C4
:405880004FF0000E013C00F3AB8014F1360FDEBF002001F0004170BDC4F10004203C35DA0C341BDC04F11404C4F1200500FA05F320FA04F001FA05F240EA020001F0004247
:4058C00021F0004110EBD37021FA04F642EB06015EEA430E08BF20EAD37070BDC4F10C04C4F1200500FA04F320FA05F001FA04F240EA020001F0004110EBD37041F1000196
:405900005EEA430E08BF20EAD37070BDC4F1200500FA05F24EEA020E20FA04F301FA05F243EA020321FA04F001F0004121FA04F220EA020000EBD3705EEA430E08BF20EA4F
:40594000D37070BD94F0000F0FD101F00046400041EB010111F4801F08BF013CF7D041EA060195F0000F18BF704703F00046520043EB030313F4801F08BF013DF7D043EA7E
:405980000603704794EA0C0F0CEA135518BF95EA0C0F0CD050EA410618BF52EA4306D1D181EA030101F000414FF0000070BD50EA410606BF1046194652EA430619D094EA70
:4059C0000C0F02D150EA013613D195EA0C0F05D152EA03361CBF104619460AD181EA030101F0004141F0FE4141F470014FF0000070BD41F0FE4141F4780170BD70B54FF042
:405A0000FF0C4CF4E06C1CEA11541DBF1CEA135594EA0C0F95EA0C0F00F0A7F8A4EB050481EA030E52EA03354FEA013100F088804FEA03334FF0805545EA131343EA1263F3
:405A40004FEA022245EA111545EA10654FEA00260EF000419D4208BF964244F1FD0404F5407402D25B084FEA3202B61A65EB03055B084FEA32024FF480104FF4002CB6EB52
:405A8000020E75EB030E22BFB61A754640EA0C005B084FEA3202B6EB020E75EB030E22BFB61A754640EA5C005B084FEA3202B6EB020E75EB030E22BFB61A754640EA9C00BB
:405AC0005B084FEA3202B6EB020E75EB030E22BFB61A754640EADC0055EA060E18D04FEA051545EA16754FEA06164FEAC30343EA52734FEAC2025FEA1C1CC0D111F4801F01
:405B00000BD141EA00014FF000004FF0004CB6E711F4801F04BF01430020B4F1FD0C88BFBCF5E06F3FF6AFAEB5EB030C04BFB6EB020C5FEA500C50F1000041EB045170BDEF
:405B40000EF0004E4EEA113114EB5C04C2BFD4EB0C0541EA045170BD41F480114FF0000E013C90E645EA060E8DE60CEA135594EA0C0F08BF95EA0C0F3FF43BAF94EA0C0F78
:405B80000AD150EA01347FF434AF95EA0C0F7FF425AF104619462CE795EA0C0F06D152EA03353FF4FDAE1046194622E750EA410618BF52EA43067FF4C5AE50EA41047FF466
:405BC0000DAF52EA43057FF4EBAE12E74FF0FF3C06E000BF4FF0010C02E000BF4FF0010C4DF804CD4FEA410C7FEA6C5C4FEA430C18BF7FEA6C5C1BD001B050EA410C0CBFBD
:405C000052EA430C91EA030F02BF90EA020F0020704710F1000F91EA030F58BF994208BF90422CBFD8176FEAE37040F0010070474FEA410C7FEA6C5C02D150EA013C07D1BA
:405C40004FEA430C7FEA6C5CD6D152EA033CD3D05DF8040B704700BF8446104662468C461946634600E000BF01B5FFF7B7FF002848BF10F1000F01BD4DF808EDFFF7F4FF09
:405C80000CBF012000205DF808FB00BF4DF808EDFFF7EAFF34BF012000205DF808FB00BF4DF808EDFFF7E0FF94BF012000205DF808FB00BF4DF808EDFFF7CEFF94BF012032
:405CC00000205DF808FB00BF4DF808EDFFF7C4FF34BF012000205DF808FB00BF4A0011D212F5001211D20DD56FF47873B3EB62520ED44FEAC12343F0004343EA505323FA22
:405D000002F070474FF00000704750EA013002D14FF0FF3070474FF0000070477BB972B90029BEBF00204FF0004106E008BF00281CBF6FF000414FF0FF3000F0CDB9ADF1F4
:405D4000080C6DE904CE002909DB002B1ADB00F04DF8DDF804E0DDE9022304B07047404261EB4101002B1BDB00F040F8DDF804E0DDE9022304B0404261EB4101524263EBD3
:405D800043037047524263EB430300F02FF8DDF804E0DDE9022304B0404261EB41017047524263EB430300F021F8DDF804E0DDE9022304B0524263EB4303704753B94AB911
:405DC000002908BF00281CBF4FF0FF314FF0FF3000F082B9ADF1080C6DE904CE00F006F8DDF804E0DDE9022304B070472DE9F04F8C460C460546099E002B4FD18A421746F2
:405E00006BD9B2FA82FEBEF1000F0BD0CEF1200520FA05F501FA0EF345EA030C02FA0EF700FA0EF5390CBCFBF1F0BAB201FB10C300FB02F84FEA154C4CEA0344A04509D93E
:405E4000E41900F1FF3380F02881A04540F2258102383C44C8EB0404B4FBF1F301FB134C03FB02F2ACB244EA0C418A4209D9C91903F1FF3480F00F818A4240F20C81023B7F
:405E800039448A1A43EA00400021002E63D022FA0EF2002386E80C00BDE8F08F8B4207D9002E56D0002186E811000846BDE8F08FB3FA83F1002940F09380A34202D38242D7
:405EC00000F2FE80851A64EB03039C460120002E41D086E82010BDE8F08F12B90127B7FBF2F7B7FA87FEBEF1000F36D1E41B4FEA17481FFA87F90121B4FBF8F308FB13446B
:405F000009FB03F24FEA154C4CEA0444A24207D9E41903F1FF3002D2A24200F2D3800346A41AB4FBF8F008FB104809FB00F9ACB244EA0842914507D9D21900F1FF3402D20A
:405F4000914500F2BA802046C9EB020240EA03409BE731463046BDE8F08F07FA0EF7CEF1200C24FA0CF34FEA1748B3FBF8FA1FFA87F908FB1A3520FA0CFC04FA0EF40AFBA9
:405F800009FB4CEA040C4FEA1C4242EA05439B4500FA0EF50AD9DB190AF1FF3280F08B809B4540F28880AAF1020A3B44CBEB0303B3FBF8F008FB103300FB09F41FFA8CFCC0
:405FC0004CEA03439C4207D9DB1900F1FF326ED29C426CD902383B441C1B40EA0A418BE7C1F1200E8B4022FA0EFC4CEA030C24FA0EF74FEA1C49B7FBF9FA1FFA8CF309FBFF
:406000001A7720FA0EF88C400AFB03F548EA04044FEA144848EA0747BD4202FA01F200FA01FB09D917EB0C070AF1FF3041D2BD423FD9AAF1020A67447F1BB7FBF9F509FBD8
:40604000157705FB03F3A4B244EA0747BB4208D917EB0C0705F1FF3027D2BB4225D9023D674445EA0A40A0FB0289FF1A4F4545464C4614D329D066B3BBEB050367EB040769
:4060800007FA0EFECB40CF404EEA030386E888000021BDE8F08F2346F3E61846DAE6B8EB020569EB0C040138E5E70546D9E7104692E78246C0E7924678E702383A4443E76B
:4060C000084604E7023B3C442AE7C345E7D33C46D1E73146BDE8F08F704700BF014B1868704700BFE881FF1F0E4B70B51E460E4C0025E41AA410A54204D056F82530984773
:406100000135F8E701F0BCFE084B094C1E46E41AA4100025A54204D056F8253098470135F8E770BD8C7E00008C7E00008C7E0000947E000010B501390244904207D010F817
:40614000013B11F8014FA342F7D0181B10BD002010BD10B5431E0A44914204D011F8014B03F8014FF8E710BD03460244934202D003F8011BFAE770470EB400B54FF4027178
:406180009CB0ADF814106FF00041049107914FF6FF711DAB02900690084853F8042BADF81610006802A9019300F064F8029B00221A701CB05DF804EB03B07047E881FF1F86
:4061C0002DE9F0478E6882469E420C46914698463ED88A8912F4906F3AD02568096902236F1A656905EB450595FBF3F57B1C43449D4238BF1D4653050FD5294600F040FB1B
:40620000064698B13A462169FFF7A3FFA38923F4906343F08003A38113E02A4600F08EFB064670B92169504600F0DEFA0C23CAF80030A3894FF0FF3043F04003A381BDE8E4
:40624000F08726613E44266046466561ED1BA560464528BF464649463246206800F0A8FAA36800209B1BA36023681E442660BDE8F08700002DE9F04F9DB003938B89804615
:406280001C060D4616460DD50B695BB9402100F0F7FA2860286118B90C23C8F80030CDE040236B610023099320238DF82930DFF89CB130238DF82A3037463C4614F8013B07
:4062C0001BB9B7EB060910D003E0252BF9D02746F3E74B46324629464046FFF771FF013000F0A780099B4B4409933B78002B00F0A08000234FF0FF32049307930592069399
:406300008DF853301A930126052221784E4800F041FA671C049B38B14B4A3C46801A06FA00F018430490EFE7D90644BF20228DF853201A0744BF2B228DF8532022782A2A1C
:4063400003D0079A00210A200BE0039A111D12680391002A10DA524243F00200079204900BE027463B780134303B092B03D800FB02320121F5E701B107923B782E2B1ED163
:406380007B782A2B0AD1039B02371A1D1B680392002BB8BF4FF0FF33059310E0002319460593781C0A2407463A780130303A092A03D804FB01210123F5E703B105910322E5
:4063C0003978224800F0E6F940B14023CBEB000003FA00F0049B013718430490397806221B487E1C8DF8281000F0D4F988B1194B33B9039B073323F007030833039314E063
:4064000003AB00932A46144B04A94046AFF3008007E003AB00932A460F4B04A9404600F093F8B0F1FF3F824603D0099B5344099342E7AB895B0601D4099801E04FF0FF3083
:406440001DB0BDE8F08F00BF4C7E0000527E0000567E000000000000C16100002DE9F04791461F460A698B6806469342B8BF1346C9F8003091F843200C46DDF8208012B195
:406480000133C9F800302368990642BFD9F800300233C9F80030256815F0060510D104F1190A07E00123524639463046C04701301AD00135E368D9F800209B1A9D42F1DB43
:4064C00094F843302268003318BF012392060FD5E118302081F843005A1C94F845102244023382F8431003E04FF0FF30BDE8F08704F1430239463046C0470130F4D0226883
:40650000D9F80050E36802F00602042A08BF5D1B2269A3680CBF25EAE57500259342C4BF9B1AED184FF000091A344D4509D00123224639463046C0470130D5D009F1010924
:40654000F3E70020BDE8F0872DE9F04317460A7E85B06E2A984606460C460C9B01F1430E00F0AE8011D8632A22D009D8002A00F0BB80582A40F0CA8081F84520834955E00D
:40658000642A1ED0692A1CD0C0E0732A00F0B08009D86F2A2ED0702A40F0B8800A6842F020020A603EE0752A24D0782A3AD0ADE01A6801F14205111D1960136884F8423024
:4065C000A8E021681A6811F0800F02D0111D196008E011F0400F02F10401196002D0B2F9003000E01368002B3CDA2D225B4284F8432037E021681A6811F0800F02D0111D90
:40660000196007E011F0400F02F10401196001D0138800E01368227E5C496F2A14BF0A2208221BE078225A4984F845202268186812F0800F00F104051D6003D1550601D53B
:40664000038800E00368D00744BF42F0200222601BB9226822F0200222601022002084F8430001E049490A226568002DA56008DB206820F0040020602BB9002D7DD17546B8
:406680000CE0002B79D07546B3FBF2F002FB1033CB5C05F8013D03460028F5D1082A0BD12368DA0708D5236962689A42DEBF302305F8013C05F1FF35C5EB0E0323612EE026
:4066C00008681A6810F0800F496903D0101D1860136808E010F0400F02F104001860136801D0198000E0196000232361754616E01A68111D1960156800216268284600F049
:4067000049F808B1401B6060636804E004F1420584F8422001232361002384F84330CDF800803B4603AA21463046FFF797FE013002D14FF0FF3026E023692A46394630467D
:40674000C0470130F5D023689B0710D5002504F1190907E001234A4639463046C0470130E7D00135E368039A9B1A9D42F2DBE068039B9842B8BF184605E00B7804F1420597
:4067800084F842308AE705B0BDE8F0835D7E00006E7E000010B5C9B202449042034605D01C7801308C42F8D1184610BD002010BD884210B501EB020301D8421E0BE098427E
:4067C000FBD28118D21AD34204D013F8014D01F8014DF8E710BD994204D011F8014B02F8014FF8E710BD000038B50546002944D051F8043C0C1F002BB8BFE41800F0D4F895
:406800001E4A1368114613B96360146030E0A3420DD92268A018834201BF18685B681218226063600C6023E0A24203D813465A68002AF9D118681918A1420BD1216801444C
:4068400058188242196013D110685268014419605A600DE002D90C232B6009E021686018824201BF106852680918216062605C602846BDE8384000F098B838BD5803002060
:4068800070B5CD1C25F0030508350C2D38BF0C25002D064601DBA94202D90C23336046E000F082F8234B1C681A462146A1B10B685B1B0ED40B2B03D90B60CC18CD501EE050
:4068C0008C420BBF63684B681360636018BF0C4615E00C464968E9E7174C23681BB9304600F052F820602946304600F04DF8431C18D0C41C24F00304A0420DD12560304652
:4069000000F053F804F10B00231D20F00700C31A0ED05A42E25070BD211A304600F034F80130EBD10C233360304600F03EF8002070BD00BF5803002054030020F8B50746FF
:4069400015460E4621B91146BDE8F840FFF798BF1AB9FFF749FF2846F8BD00F027F885420ED929463846FFF78BFF044650B131462A46FFF7EEFB31463846FFF735FF01E09E
:406980003046F8BD2046F8BD38B5064C0023054608462360FCF794F8431C02D1236803B12B6038BD4C0700207047704751F8040C0028BEBF091851F8043CC018043870474F
:4069C0000000000028F4FF7F0100000049444C45000000002530386C64000000303030303030303000000000313030303030303000000000303038393130303000000000EE
:406A00004C4544004B455900434C4344000000005553425541525400524144494F00000031323334353637380000000043616C6962726174650000004465627567204D6FFF
:406A40006465000093FEFF006BFEFF0000030000E0030000DFF8FF003BF7FF00E60E00008211000017E4FF0023E0FF00553000003336000015B1FF0072A8FF001F7B00007F
:406A8000D7870000A746FF00C033FF00960F01003B2C01002779FE004E4CFE00B52E0200AD78020053D9FC007054FC0038BC0400F3D205002D10F80029D9F4002C22130014
:406AC000CF773900CF7739002C22130029D9F4002D10F800F3D2050038BC04007054FC0053D9FC00AD780200B52E02004E4CFE002779FE003B2C0100960F0100C033FF0020
:406B0000A746FF00D78700001F7B000072A8FF0015B1FF00333600005530000023E0FF0017E4FF0082110000E60E00003BF7FF00DFF8FF00E0030000000300006BFEFF00CD
:406B400093FEFF0093FEFF006BFEFF0000030000E0030000DFF8FF003BF7FF00E60E00008211000017E4FF0023E0FF00553000003336000015B1FF0072A8FF001F7B0000B7
:406B8000D7870000A746FF00C033FF00960F01003B2C01002779FE004E4CFE00B52E0200AD78020053D9FC007054FC0038BC0400F3D205002D10F80029D9F4002C22130013
:406BC000CF773900CF7739002C22130029D9F4002D10F800F3D2050038BC04007054FC0053D9FC00AD780200B52E02004E4CFE002779FE003B2C0100960F0100C033FF001F
:406C0000A746FF00D78700001F7B000072A8FF0015B1FF00333600005530000023E0FF0017E4FF0082110000E60E00003BF7FF00DFF8FF00E0030000000300006BFEFF00CC
:406C400093FEFF001B1F00002B1F000045190000470A000058EFFF00BFC7FF00D796FF006065FF003C41FF00433BFF002263FF002AC2FF0055560000200F0100A1CD0100A4
:406C80009C68020042B40200558C02006FDE0100C1B10000042AFF001C84FD00660CFC004810FB00D5CDFA002B65FB0007CFFC0016DBFE00F6360100CD7C03009C46050060
:406CC00058420600584206009C460500CD7C0300F636010016DBFE0007CFFC002B65FB00D5CDFA004810FB00660CFC001C84FD00042AFF00C1B100006FDE0100558C0200DE
:406D000042B402009C680200A1CD0100200F0100555600002AC2FF002263FF00433BFF003C41FF006065FF00D796FF00BFC7FF0058EFFF00470A0000451900002B1F0000AF
:406D40001B1F00001B1F00002B1F000045190000470A000058EFFF00BFC7FF00D796FF006065FF003C41FF00433BFF002263FF002AC2FF0055560000200F0100A1CD0100F9
:406D80009C68020042B40200558C02006FDE0100C1B10000042AFF001C84FD00660CFC004810FB00D5CDFA002B65FB0007CFFC0016DBFE00F6360100CD7C03009C4605005F
:406DC00058420600584206009C460500CD7C0300F636010016DBFE0007CFFC002B65FB00D5CDFA004810FB00660CFC001C84FD00042AFF00C1B100006FDE0100558C0200DD
:406E000042B402009C680200A1CD0100200F0100555600002AC2FF002263FF00433BFF003C41FF006065FF00D796FF00BFC7FF0058EFFF00470A0000451900002B1F0000AE
:406E40001B1F000066FFFF0001FEFF0020FCFF00BDFAFF00E9FBFF00CA010000D60C00001E1A0000CE220000EC1D00008E04000047D7FF0036A2FF00C27CFF00ED82FF00B3
:406E8000EDC8FF000F4D00005BEE0000B26E0100C38301005AF400000BB9FF00E312FE00B18BFC00AAD9FB00C0AAFC007A66FF00C9FB0300F1CE090087D20F00EFC7140051
:406EC0002F9517002F951700EFC7140087D20F00F1CE0900C9FB03007A66FF00C0AAFC00AAD9FB00B18BFC00E312FE000BB9FF005AF40000C3830100B26E01005BEE00006B
:406F00000F4D0000EDC8FF00ED82FF00C27CFF0036A2FF0047D7FF008E040000EC1D0000CE2200001E1A0000D60C0000CA010000E9FBFF00BDFAFF0020FCFF0001FEFF0080
:406F400066FFFF0066FFFF0001FEFF0020FCFF00BDFAFF00E9FBFF00CA010000D60C00001E1A0000CE220000EC1D00008E04000047D7FF0036A2FF00C27CFF00ED82FF0088
:406F8000EDC8FF000F4D00005BEE0000B26E0100C38301005AF400000BB9FF00E312FE00B18BFC00AAD9FB00C0AAFC007A66FF00C9FB0300F1CE090087D20F00EFC7140050
:406FC0002F9517002F951700EFC7140087D20F00F1CE0900C9FB03007A66FF00C0AAFC00AAD9FB00B18BFC00E312FE000BB9FF005AF40000C3830100B26E01005BEE00006A
:407000000F4D0000EDC8FF00ED82FF00C27CFF0036A2FF0047D7FF008E040000EC1D0000CE2200001E1A0000D60C0000CA010000E9FBFF00BDFAFF0020FCFF0001FEFF007F
:4070400066FFFF0036FFFF00A3FDFF007EFCFF00F1FDFF00F0030000D60C0000AB11000053090000A2F0FF0032D2FF00D8C5FF0010E3FF00512B0000A67B00005A960000D7
:40708000B7480000929AFF0086E4FE0058AFFE00DF5EFF0041D500007352020037BF0200715401002049FE006213FB005DF2F90094DBFC004C4E0400F0B70E006DD9180027
:4070C0003B171F003B171F006DD91800F0B70E004C4E040094DBFC005DF2F9006213FB002049FE007154010037BF02007352020041D50000DF5EFF0058AFFE0086E4FE002F
:40710000929AFF00B74800005A960000A67B0000512B000010E3FF00D8C5FF0032D2FF00A2F0FF0053090000AB110000D60C0000F0030000F1FDFF007EFCFF00A3FDFF0084
:4071400036FFFF0036FFFF00A3FDFF007EFCFF00F1FDFF00F0030000D60C0000AB11000053090000A2F0FF0032D2FF00D8C5FF0010E3FF00512B0000A67B00005A96000006
:40718000B7480000929AFF0086E4FE0058AFFE00DF5EFF0041D500007352020037BF0200715401002049FE006213FB005DF2F90094DBFC004C4E0400F0B70E006DD9180026
:4071C0003B171F003B171F006DD91800F0B70E004C4E040094DBFC005DF2F9006213FB002049FE007154010037BF02007352020041D50000DF5EFF0058AFFE0086E4FE002E
:40720000929AFF00B74800005A960000A67B0000512B000010E3FF00D8C5FF0032D2FF00A2F0FF0053090000AB110000D60C0000F0030000F1FDFF007EFCFF00A3FDFF0083
