:400000000080002011000000091500000915000008B5044B1A6803F53F5302331A6001F075FA00BFFA46004010B5054C237833B9044B13B10448AFF300800123237010BDCB
:40004000A881FF1F00000000B04B0000084B10B51BB108480849AFF300800848036803B910BD074B002BFBD0BDE81040184700BF00000000B04B0000AC81FF1F0881FF1F0B
:400080000000000000F1080343604FF0FF328260C360036100230360704700BF00230361704700BF43684B609A688A609A68516099600861036801330360704730B40D6866
:4000C000B5F1FF3F01D1026907E000F1080200E01A4653681C68AC42FAD953684B6099608A605160086103680133036030BC704703694268816891608268416851605A68BF
:40010000824201D182685A6000220261186801381860704706480068006880F3088862B661B6BFF34F8FBFF36F8F00DF00BF000008ED00E04FF0807340F8043C40F8081C0F
:40014000034B40F80C3C40F8202C4038704700BFA1010000074B19680868B0E8F00F80F30988BFF36F8F4FF0000080F311884EF00D0E70479882FF1F4FF08052034B1A60A3
:40018000BFF34F8FBFF36F8F704700BF04ED00E0EFF311804FF0A00181F311887047002008B5FFF7F5FFFEE708B5FFF7F1FF044A136801331360BFF34F8FBFF36F8F08BDDD
:4001C0000C81FF1F80F31188704700BF08B5044A1368013B136013B90020FFF7F3FF08BD0C81FF1FEFF30980BFF36F8F0D4B1A6820E9F00F10602DE908404FF0A00080F33C
:40020000118800F08FFC4FF0000080F31188BDE8084019680868B0E8F00F80F30988BFF36F8F70479882FF1F08B5FFF7B1FF00F03BFB18B14FF08052024B1A600020FFF707
:40024000C1FF08BD04ED00E0034A044B1A600722043B1A60704700BFCF01010014E000E008B5094B1A6842F460021A601A6842F060421A60FFF7E8FF0022044B1A60FFF7E2
:4002800049FFFFF78DFF00BF20ED00E00C81FF1F10B50446FFF788FFA26BE36B9A4201D1012400E00024FFF791FF204610BD00BF10B50446FFF778FFA36B0BB9012400E094
:4002C0000024FFF783FF204610BD00BF38B504461546026C3AB903685BBB406800F070FD002363602CE06DB9806804F0B9FBA268236C1344A360626893421CD32368A36040
:4003000000201DE0C06804F0ABFB236C5B42E2681A44E26021688A4202D262681344E360022D0AD1A36B53B1A36B013BA363002006E0002004E0002002E0002000E00020A3
:40034000A36B0133A36338BD026C72B110B5C3681344C3604468A34201D30368C36003460846D96804F07CFB10BD704710B50446FFF71AFF0BE0636A63B104F1240000F098
:4003800051FC08B100F0BCFCA36C013BA364A36C002BF0DC4FF0FF33A364FFF717FFFFF703FF0BE0236963B104F1100000F03AFC08B100F0A5FC636C013B6364636C002BEF
:4003C000F0DC4FF0FF336364FFF700FF10BD00BFF0B585B004460F4601921E460025FFF7E3FEA26BE36B9A4201D3022E16D1204639463246FFF76AFF636A43B104F1240054
:4004000000F010FC012805D1FFF7B6FE02E008B1FFF7B2FEFFF7DAFE012042E0019B1BB9FFF7D4FE00203CE01DB902A800F032FC0125FFF7CBFE00F02DFAFFF7B5FE636C3F
:40044000B3F1FF3F01D100236364A36CB3F1FF3F01D10023A364FFF7B9FE02A801A900F023FCC0B92046FFF713FF70B104F11000019900F0ABFB2046FFF778FF00F096FA51
:400480000028ACD1FFF778FEA9E72046FFF76EFF00F08CFAA3E72046FFF768FF00F086FA002005B0F0BD00BF38B54C2000F0F2FC0446C8B10025456005608560C560856343
:4004C0000123C36305644FF0FF33436483641030FFF7D8FD04F12400FFF7D4FD204629462A462B46FFF774FF204638BDF0B585B004460F4601921E460025FFF755FEA36BF9
:4005000033B3E56820463946FFF71EFF96B9A36B013BA363236813B900F094FC6060236993B104F1100000F07DFB01280CD1FFF723FE09E0E560636A33B104F1240000F018
:4005400071FB08B1FFF718FEFFF740FE01204BE0019B1BB9FFF73AFE002045E01DB902A800F098FB0125FFF731FE00F093F9FFF71BFE636CB3F1FF3F01D100236364A36C92
:40058000B3F1FF3F01D10023A364FFF71FFE02A801A900F089FB08BB2046FFF789FEB8B1236833B9FFF700FE606800F0B1FBFFF70DFE04F12400019900F008FB2046FFF7A1
:4005C000D5FE00F0F3F9002897D1FFF7D5FD94E72046FFF7CBFE00F0E9F98EE72046FFF7C5FE00F0E3F9002005B0F0BD094B9B6A1B680BB9012300E0002323B14FF0FF3295
:40060000044BDA627047034B9A6AD268D2685268DA627047C481FF1F10B50446006B00F093FC204600F090FC10BD00BF70B506460C4619B9800000F02DFC044654B150204E
:4006400000F028FC054608B1046304E0204600F07BFC00E0002525B1286BA521B20004F00AFA284670BD00BF70B504461546002306E0C85CE21882F83400CA5C12B1013356
:400680000B2BF6D9002384F83F30042D00D90425E562256400266664201DFFF7FFFC04F11800FFF7FBFC2461C5F10505A5616462A66484F84C6070BD70B5002407E004EB7D
:4006C00084039B0010481844FFF7DCFC0134042CF5D90E4C04F194063046FFF7D3FC04F1A8052846FFF7CEFC04F11400FFF7CAFC04F1BC00FFF7C6FC2046FFF7C3FCA662DE
:40070000C4F8D05070BD00BFF481FF1FC481FF1F38B504460E4BD3F8D4205060D3F8D830984208D20A4BD3F8D000D3F8D4100431FFF7C4FC38BD064DA86AD5F8D4100431AB
:40074000FFF7BCFCEB6A9C4200D2EC6238BD00BFC481FF1F2DE9F04782B081468A46164698460B9F10460C99FFF760FF002854D00446036B06F18045013D03EB850525F08C
:400780000705009651460A9A0D9BFFF76DFF284649464246FFF7CEFC206007B13C60FFF703FD284BD3F8DC200132C3F8DC20D3F8D4304BB9234BC3F8D440D3F8DC30012B0C
:4007C00010D1FFF779FF0DE01E4BD3F8E0304BB91C4BD3F8D430DB6A0A9A934202D8194BC3F8D440174AD2F8E4300133C2F8E430E36A012505FA03F0D2F8E8100143C2F80E
:40080000E810303203EB830080001044211DFFF749FCFFF7DBFC2C4601E04FF0FF34012C0CD1084BD3F8E03043B1064BD3F8D430DB6A0A9A934201D2FFF79EFC204602B089
:40084000BDE8F087C481FF1F00B585B0002300930193029303930C480C496422FFF77AFF01280DD1FFF794FC094B4FF0FF32DA620122C3F8E0200022C3F8D820FFF7F0FCDA
:4008800005B05DF804FB00BF1D0B0000B84B0000C481FF1F034AD2F8F0300133C2F8F030704700BFC481FF1F2DE9F0413E4BD3F8F030002B66D13C4BD3F8D8200132C3F86F
:4008C000D820D3F8D880B8F1000F0CD19A6AD3F8D0109962C3F8D020D3F8F4200132C3F8F420FFF783FE304BDB6A984503D200273CE0012700E000272B4B9B6A1B680BB9F5
:40090000012300E0002323B14FF0FF32264BDA622CE0254B9B6ADB68DC686368984502D2214AD36222E0261D3046FFF7E1FBA36A1BB104F11800FFF7DBFBE06A012383400B
:40094000194DD5F8E8201343C5F8E83005F1300300EB8000800018443146FFF7A3FBE26AD5F8D430DB6A9A42C3D2C5E70E4AD2F8D430DB6A03EB83039B0013441B6B012B94
:4009800008D808E0084AD2F8F8300133C2F8F830002700E00127044BD3F8FC3003B101273846BDE8F08100BFC481FF1F70B5FFF7FBFB304BD3F8F020013AC3F8F020D3F8D6
:4009C000F030002B4ED12B4BD3F8DC3033BB00244BE0284C236ADD6805F11800FFF788FB2E1D3046FFF784FBE86A01238340D4F8E8201343C4F8E83004F1300300EB800036
:400A0000800018443146FFF74DFBEA6AD4F8D430DB6A9A4202D30122C4F8FC20154B5B69002BD6D1134BD3F8F8306BB911E0FFF73BFF18B101220F4BC3F8FC200D4AD2F846
:400A4000F830013BC2F8F8300A4BD3F8F830002BEDD1084BD3F8FC30012B05D1FFF78CFB012402E0002400E00024FFF7AFFB204670BD00BFC481FF1F10B5F0B10446FFF70C
:400A800009FF104BD3F8D8201444D3F8D4000430FFF72EFB58B90B4BD3F8D420D16A01228A40D3F8E81021EA0202C3F8E8202046FFF72EFEFFF77AFF00E0002008B9FFF735
:400AC0005BFB10BDC481FF1F38B51FE0FFF7E2FE114BD3F8BC40FFF769FFBCB1FFF764FB0D4CD4F8C830DD68281DFFF701FBD4F8DC30013BC4F8DC30D4F8EC30013BC4F816
:400B0000EC30FFF763FB2846FFF786FD024BD3F8EC30002BDAD138BDC481FF1F08B5FFF7D3FFFCE7274BD3F8F03023B10122254BC3F8FC20704710B5224B0022C3F8FC2017
:400B4000D3F8D4301B6B1A68B2F1A53F0BD15A68B2F1A53F07D19A68B2F1A53F03D1DB68B3F1A53F07D0174BD3F8D400D3F8D410343100F0C1FC1348D0F8E830B3FA83F3FB
:400B8000DBB2C3F11F039A00D118890001444C6B64684C631A44920002443832944206D1606803EB83018900074A0A445060054A03EB83039B0013445B6BDB68C2F8D43074
:400BC00010BD00BFC481FF1FF481FF1F38B50D46134CD4F8D4101831FFF770FAD4F8D4000430FFF785FA50B9D4F8D420D16A01228A40D4F8E81021EA0202C4F8E820B5F104
:400C0000FF3F06D10648D0F8D4100431FFF74AFA38BD034BD3F8D8002844FFF779FD38BDC481FF1F38B5C368DC6804F118052846FFF75EFA154BD3F8F030ABB9251D284697
:400C4000FFF756FAE36A01229A401048D0F8E8100A43C0F8E820303003EB83039B0018442946FFF71FFA03E009482946FFF71AFAE26A064BD3F8D430DB6A9A4204D901203E
:400C8000024BC3F8FC0038BD002038BDC481FF1FD881FF1F034BD3F8F4200260D3F8D83043607047C481FF1F38B504460D46FFF77BFA124BD3F8D8202B68B3F1FF3F14D0BF
:400CC00020680E49D1F8F410884202D0616891420DD96168501A83420BD98A1A13442B602046FFF7D7FF002404E0002402E0012400E00124FFF76AFA204638BDC481FF1F46
:400D00000122024BC3F8FC20704700BFC481FF1F002850D038B50346C16A274AD2F8D420D26A914246D28269002A06DB224AD2F8D420D26AC2F1050282615969DA6A02EBA8
:400D4000820292001D480244914201D1012200E0002252B31D461C1D2046FFF7C9F978B9EA6A02EB82039B0013490B441B6B3BB901239340D1F8E82022EA0303C1F8E830C7
:400D80000D48D0F8D430DB6AEB6201229A40D0F8E8100A43C0F8E820303003EB83039B0018442146FFF77EF938BD034AD2F8D420D26ADA6238BD7047C481FF1FF481FF1FFD
:400DC000002837D038B50346426C013A4264C06A196C884230D08ABB1C461D1D2846FFF787F978B9E26A02EB82039B0014490B441B6B3BB901239340D1F8E82022EA030337
:400E0000C1F8E830236CE362C3F10502A261012404FA03F10A48D0F8E8200A43C0F8E820303003EB83039B0018442946FFF73AF9204638BD00207047002038BD002038BD4A
:400E4000C481FF1F064BD3F8D4302BB1044BD3F8D420536C01335364014BD3F8D4007047C481FF1F094A22F00702094BC3F838290020C3F83C0947F6F871C3F84419C3F8DF
:400E80004009516003F5146313607047CC82FF1F8CF9FF1F70B50446FFF7FCFC264BD3F848392BB9FFF7DEFF0122234BC3F8482934B1083414F0070F02D024F0070408349A
:400EC000621E47F6F6739A422BD81B49D1F8383901F6381101E0194613465A68A24202D21A68002AF7D1154A93421CD00D6808351A680A605A68121B102A0CD91E197260B3
:400F00005C6074680E4900E011460A685068A042FAD332600E6059680A4A13685B1A136002E0002500E00025FFF740FD0DB900F0E7FA284670BD00BF8CF9FF1FCC02002079
:400F4000C40200201081FF1FD0B170B50546A0F10806FFF79FFC55F8044C0A4A00E01A4613685968A142FAD345F8083C166055F8041C054A13680B441360FFF717FD70BD77
:400F8000704700BFC40200201081FF1F0FB430B5C3B00F4B1B68ABB147AB419301A84FF48071469A00F00AF901AC08E000F0BEFF0028FBD0651C207800F098FF2C4623787A
:400FC000002BF3D143B0BDE8304004B0704700BFE002002010B50020022100F07DFD002406E000F0FBFD0A4B18601B681BB90134084B9C42F5D9064B1B6813B100F004FF87
:4010000001E000F0A1FD0448FFF7C0FF10BD00BFE00200207F841E00C04B00000E4B1B68CBB130B583B00D48FFF7B0FF00F072FF05460028F7D006E00DF10700012100F084
:4010400081FF013400E00024A542F5D80448FFF79DFF03B030BD7047E0020020D84B0000F44B000070B582B004460E460568284601A9002203F08EFD0246019B9D4207D0B6
:4010800000F10043013B13F1030F03D9002002E0002000E001203260019B236002B070BD2DE9F04391B09DF960E083EAE374A4EBE3744FFA84F8023CE4B2222C04D9002825
:4010C00079D00023037076E08EEAEE77A7EBEE777FB282EAE275A5EBE275002B03DB002A01DA1546FFE7002600E06646B5FBF8F408FB145406F1010C092C03D8303404F098
:40110000FF0402E0573404F0FF040DF14009B14409F8404CB5FBF8F5BCF13F0F04D9002849D00023037046E0002DDED165460C68D4B1002A18DA002B16DABEF1000F05DAB9
:401140002D2404700C68013C0C600130B51C0BE0BEF1000F01DB202400E0302404700C68013C0C60013F01300C68002C18BFAF42EED8C4B1002A16DA002B14DABEF1000FF8
:4011800011DB2D2303700B68013B0B6001300AE00CF1FF3C10AB634413F8403C03700B68013B0B6001300B6813B1BCF1000FEFD108B10023037011B0BDE8F08370B586B036
:4011C000044603911D4605929CE0252B40F09080531C05935278302A03D101330593FF2600E0012605A804A9FFF73CFF10B19DF8101000E00021059B1A786C2A01D1013344
:401200000593059B1B78642B29D005D8622B4ED009D8252B58D060E0752B2ED0782B39D0732B5AD10AE02A780435039B002B5BD02270039B013B0393013455E02B68043536
:4012400005E02370039B013B039313460134039A002A49D05A1C1B78002BF2D144E02A68043501FB06F149B20091204603A96FF00903FFF715FF044636E02A68043501FB05
:4012800006F149B20091204603A90A23FFF708FF044629E02A68043501FB06F149B20091204603A91023FFF7FBFE04461CE02A68043501FB06F149B20091204603A90223D7
:4012C000FFF7EEFE04460FE0039B6BB125232370039B013B0393013406E0039A22B12370039B013B03930134059B0133059309E0039A22B12370039B013B03930134059B6E
:4013000001330593059A1378002B7FF45EAF04B12370204606B070BD08B500F057FAC043C0B200F047FA4FF47A70FFF7A5FBF4E72DE9704388B0444B186800214FF0FF3298
:401340000B46FFF7D3F84148FFF720FE002419E000F0E0FD18B93220FFF78EFBF8E70DF11B00012100F0EEFD0DF11B00012100F097FD9DF81B300D2B06D008AA224402F87E
:40138000183C01340E2CE3D908AB1C44002304F8183C08A802AB40F81C3D07A9FFF762FE002841D0079900293EDD2948FFF7EEFD002633E0304603F005F88046894620462B
:4013C00003F000F802460B464046494603F08AF902460B4602F0AAFE19A3D3E9002303F057F801F04FFD00221A4B02F09FFE0022194B03F04DF803F0E5FA054617482946D2
:40140000FFF7C4FD002403E01548FFF7BFFD0134A542F9D81348FFF7B9FD0136079CA642C8DD1148FFF7B2FD074B186800210A460B46FEF7CDFF3220FFF71EFB7BE700BFAF
:40144000182D4454FB210940E4020020FC4B00000C4C00000000F03F000034401C4C0000244C0000284C00002C4C0000AFF30080034B044ADA62044A9A63044ADA63704797
:401480000080FF1F55010000E50100002902000000B585B0FFF7ECFF62B6FFF79BFDFFF7BDFD0120FFF700F80E4B18600123009300240194029403940B480C4980222346D6
:4014C000FFF748F902230093019402940394084808494FF480622346FFF73CF9FFF7B4F9FEE700BFE402002019130000304C000031130000344C000008B5FEF749FEFEE74A
:4015000008B5FEF745FEFEE7FEE700BF08B5104E104D16E029686B68AC68002204E051F8040B43F8040B0432A242F8D1E868002203E0002143F8041B04328242F9D11035E3
:40154000013E002EE6D103F065FAFFF7A1FFFEE701000000E050000008B5124A124B1A60124A136843F40073136000230AE0032B03D80F4A52F8231000E00E490E4A42F8B0
:40158000231001332F2BF2D90C4B1A780C4B1A70094A0C4B1A6000F0A3F800220A4B1A6008BD00BF0004FA050CED00E014ED00E000000000091500000080FF1FBC760040C6
:4015C0000481FF1F08ED00E00081FF1FFEE700BFF0B40022174611E050F82760F3B226F0FF0608E001EB420511F812406D78A5550132013BDBB2002BF4D101370B2FEBD916
:40160000F0BC7047064B1B78DBB203F00701054A11701B09013213704422034B1A707047CF0100496E5800407658004038B506221E4B1A705222A3F580731A701C4B1B7884
:40164000DBB21C4A137040F621321B4B1A8041F25122023B1A80002419250CE0174B1B7803F0010343EA440404F003044FF4F07000F0B6F8013D0DB1032CEFD115B9032027
:40168000FFF7A4FF0E4A4FF4807313800723137000230C490B704820023108701370053213700222084B1A7038BD00BF004300400F010049A146004022420040254200407D
:4016C00004400040064000400140004008B50A46002103F0D0F908BD08B503F0C1F908BD10B572B6274C61232370FFF79FFF01232370254A137843F00403137000240CE0F8
:40170000224963001A1952000A4423445B00C8589188FFF7DBFF0134E4B2072CF0D94FF090401B49FFF754FF1A4A137843F0020313701032137843F002031370164C23788B
:4017400043F040032370A2F58632513A137843F010031370114812490A22FFF7BDFF114811490822FFF7B8FF104A137843F008031370FFF747FF0E4821460E22FFF7ACFFA6
:4017800010BD00BF00480040E84600403C4C00003000004803500140A0430040F05100406C000048225100407800004822430040B0430040044A137803F0FD03400000F074
:4017C000020018431070704720510040024B1878C0F34000704700BF21510040000000000230800803D000BF01380046FCD17047EFF3108072B6704780F31088704700BF8B
:4018000001BE704708B5034B1B7A03FB00F0FFF7E7FF08BD1481FF1F70B504460E46074B1D681F2802D90020FFF7EAFF04F01F04103455F8240045F8246070BD08ED00E006
:4018400038B504460D46072902D90020FFF7D8FF1F2C02D90020FFF7D3FF04F01F0000F1604000F564406D01EDB2057038BD00BF134B1B78DBB20360124A127843EA02234C
:401880000360114A127843EA024303600F4A127843EA026303600E4B1B78DBB243600D4A127843EA022343600B4A127843EA024343600A4A127843EA02634360704700BFC4
:4018C0000301004904010049EC4600400201004901010049000100490501004906010049F8B5FFF785FF0746404A137843F0010313701032137843F00103137001263C4BE3
:401900001E700225943B1D7002F5E2521B32137803F07F0313700020FFF774FF354C237803F0F9032370344A137803F0DF0313702378334323703046FFF764FF2820FFF762
:4019400061FF2E4B1A7802F07F021A701A7802F0BF021A7023782B4323702846FFF752FF237843F0040323700024254B1C7001331C703846FFF740FF17200721FFF760FF30
:4019800017202049FFF748FF18200721FFF758FF18201D49FFF740FF15200721FFF750FF15201A49FFF738FF20460721FFF748FF20461749FFF730FF30460721FFF740FFDA
:4019C00030461449FFF728FF28460721FFF738FF28461149FFF720FF0C200721FFF730FF0C200E49FFF718FFF8BD00BFA54300409D6000409443004012600040F851004023
:401A000084600040D9240000A9220000D52400001D2400005524000091240000E124000008B5214B18700023204A1370204A1370204A1370204A1370204A1370204A1370EB
:401A4000204A1370204B4FF400021A604FF080721A604FF400121A6001221A6002221A6004221A6011B1012906D00BE0174A137803F0FE0313700AE0144A137843F00103E0
:401A8000137004E0114A137843F00103137003220F4B1A708022203B1A700120FFF7A0FE04220C4B1A7008BD93030020920300200403002005030020060300209603002072
:401AC000070300200303002000E100E009600040286000401260004038B505460C46064B1B7823B9FFF7FCFE0122034B1A7028462146FFF795FF38BDD802002000230A4AB8
:401B000013700A4A13700A4A13700A4A13700A4A13700A4A13700A4A13700322094B1A708022203B1A707047920300200403002005030020060300209603002007030020C7
:401B4000030300202860004008B5FFF751FE1B4A137803F07F0313700A32137803F0FB031370A2F5E3520D3A137803F0FE0313701032137803F0FE031370FFF73DFE104B6D
:401B80004FF400021A604FF080721A604FF400121A6001221A6002221A6004221A600023084A1370084A1370084A1370084A1370084A1370084A137008BD00BF08600040C4
:401BC00080E100E00403002005030020060300209603002007030020D8020020014B1878704700BF0503002000EB40008000024B18444078704700BF24030020431EDBB21E
:401C0000072B0BD8064B00011A18185C00F00F00537843EA0020023880B2704700207047FC5F0040431EDBB2072B3BD8F0B4074600EB40039B001C4C2344DB889BB2C3F5C7
:401C400000739A4207D900EB40039B002344DA88C2F5007292B200EB40039B00124C2344DB7843EA1223114D04012E192B55D3B2737039B909E0CE5C3D010D4C66550133D6
:401C80009BB200E000239342F5D3430003449B00054A134400225A705A79D2B20001054B1A54F0BC704700BF24030020FC5F004078600040FE5F0040431EDBB2072B0BD8AE
:401CC000430003449B00054A134400225A705A79D2B20001024B1A54704700BF24030020FE5F004070B5D9B1054614460E46C8B1082819D8FFF782FFA04203D22846FFF7EC
:401D00007DFF0446002305E02901094A525CF25401339BB2A342F7D32846FFF7CDFF04E0002402E0002400E00024204670BD00BF7860004010B4FF2400220EE00A4B9B5C45
:401D400003EB43039B0009490B449B78DBB2834201D1144602220132D2B2012AEED920465DF8044B704700BFF00200202C03002010B5204C2079FFF7DDFF237813F0800FEB
:401D80000ED06378DBB2212B2FD11B4B07221A80C0EBC000194A1044586000F0F3FA10BD144B5B78DBB2202B02D0222B10D01EE0114A07231380C0EBC00310490B445360FC
:401DC0000F4A135C43F00103135400F003FB10BD084B9B780B4A22F81030094A135C43F00203135400F08EF910BD002010BD002010BD00BF00600040140300202481FF1FD5
:401E0000F8020020FC02002010B500241F4B1C701F4B1C705C700AE01E4B185DC0B2431EDBB2072B01D8FFF747FF0134E4B2012CF2D9194B1B7813F0FF0F1AD0154B1B78B2
:401E400013F0FF0F17D0154B1B7813F0FF0F14D0114B1B78DBB2082B11D80E4B1B78DBB2082B0ED80D4B1B78DBB2082B0BD8002010BD012010BD012010BD012010BD0120F2
:401E800010BD012010BD012010BD00BFD9020020F8020020EC020020E8020020F002002070B506460D460E4B1B780E4AD45CE4B204EB44039B000C4A13441B899BB28B4271
:401EC00008D204EB44039B0013441D89ADB20020FFF796FC204631462A46FFF7A3FE70BDD9020020E80200202403002000B583B002A901F8010D054B1B78054AD05C0122BB
:401F0000FFF790FE03B05DF804FB00BFD9020020E802002008B5034B1B78034AD05CFFF763FE08BDD9020020EC02002008B5034B1B78034AD05CFFF757FE08BDD9020020F4
:401F4000E802002008B503460A46044909780448405C1946FFF7C6FE08BD00BFD9020020EC020020C37803F0030390F9020000280FDA032B06D002F001030B48C15442F041
:401F800001020EE0C2F380030848C15442F0040207E0032B05D0C2F340030548C15442F002021046704700BFE8020020F0020020EC0200201C4B19781C4A13880B449BB256
:401FC000138000230EE01A4A51680978C9B21948C1545168013151600133DBB21188013989B21180124A128892B20AB1072BEAD90D4A1278D2B2082A00D05BB10E490A787C
:4020000082F080020A700F210C4A117002210C4A117004E0022209490A7009490A70094A1370014A1370704703030020900300201403002000600040080300200203002036
:4020400092030020200300200222074B1A708022064B1A700F22064B1A700023054A1370054A137001207047920300200803002002030020030300202003002008B5FFF71F
:4020800099FF08BD10B4184B197801F00F010239C9B2164A13880B449BB21380002010E0134B5C68134A125CD2B222705A6801325A600130C0B20139C9B21A88013A92B2EF
:4020C0001A800B4B1B889BB20BB10029E8D10A4B19700A4A137883F0800313700B22084B1A705DF8044B704729600040900300201403002000600040200300200803002006
:40210000020300200623064A1370064A13708022054B1A700022054B1A700120704700BF92030020020300200803002020030020064B9B6843B1054B9A6810709A680449EB
:402140000988518000229A60704700BF140300209003002008B5134B1A78D2B21A701B78DBB213F0800F02D00F4A137008BD0220FFF7DEFF0D4B1B7803F06003202B05D04B
:40218000402B06D043B900F095FC06E000F04EFE03E000F037FE00E0002010B90322024B1A7008BD28600040020300200060004008B5084B1978084A13880B449BB2138063
:4021C0000022064B1A700120FFF7B2FF0322044B1A7008BD0303002090030020920300200203002008B50B4B1B78DBB2042B06D0062B07D0022B0BD1FFF7DAFF08BDFFF7D1
:4022000041FF08BD0320FFF793FF0322024B1A7008BD00BF920300200203002008B50022044B1A700120FFF783FF0322024B1A7008BD00BF920300200203002008B50B4BD6
:402240001B7813F0FF0F07D0084A137843F0800307490B70002313700022064B1A700120FFF766FF0322044B1A7008BD9603002008600040920300200203002008B5094B57
:402280001B78DBB2042B06D0062B07D0022B07D1FFF7F4FE08BDFFF7C1FF08BDFFF7CEFF08BD00BF9203002008B5284B1B78DBB213F0100F48D013F0800F0CD003F00F03CB
:4022C000012B16D1FFF746FF214B1B7813F0800F11D1012312E013F0400F03D0FFF7CEFF01230BE013F0200F07D0FFF77BFF012304E0002302E0002300E0002323B3134B30
:402300001B7813F0800F1FD1124B1B78124A12781343124A13701278D2B29A4214D10C4B1B78DBB2094A127812F0800F07D1084B1B78DBB2054A1370137803F00F03044ACE
:402340001278D2B29342EAD108BD00BF28600040020300200803002020030020296000400022064B1A80064B9B682BB1044A916800230B7092685380704700BF90030020FF
:402380001403002008B50F4B1B889BB213B9FFF75BFE15E002220C4B1A7000220B4B1A70FFF7DEFF0A4AD179937943EA0123054A128892B29A4201D9024A1380FFF7FAFD4B
:4023C000012008BD1403002092030020080300200060004008B504220B4B1A7080220B4B1A70FFF7BDFF0A4AD179937943EA0123084A128892B29A4201D9064A13800B2258
:40240000054B1A70012008BD92030020080300200060004014030020020300200A4A137803F0FE031370094B9B7C094B1B7B03F00303012B04D0064AD37B83F08003D37382
:402440000122034B5A7370470B600040FC5F0040240300200B4A137803F0FD0313700A4B93F82230094B1B7E03F00303012B04D0064AD37E83F08003D3760122034B5A764B
:40248000704700BF0B600040FC5F0040240300200D4A137803F0FB0313700C4B93F832300B4B93F8243003F00303012B06D0084A92F8273083F0800382F827300122044BE3
:4024C00083F82520704700BF0B600040FC5F004024030020704700BF08B5FFF70FFB08BD08B500F09BFC08BD70B588B0054603AC174E0FCE0FC43368237035B322232B70B6
:4025000003236B7001A8FFF7B3F9002402231AE008AA224412F81C2C08A901EB121111F8141CE954581C00212954981C02F00F0208AE324412F8142C2A54DA1CA954013487
:40254000E4B20433DBB2212BE2D908B070BD00BF6C4C000010B401223DE0114613010C242148C45402EB42039B00204803445B7913F0FF0F12D002EB42039B0003441B7993
:4025800013F0800F04D01001194B03449C700AE01001174B03440820987004E01001144B0344802098704B000B449B000F480344DC88E4B208010C4901448C71D888C0F356
:4025C0000720C871D888C0B20871DB88C3F307234B710132D2B2082ABFD9FF22054B1A705DF8044B704700BF7060004024030020FC5F00400A600040074B1B78074A02EBDC
:40260000C30253681A7C824203D903EBC003586970470020704700BF93030020804C0000F8B5404B1B7813F0FF0F79D03D4B18780138C0B2FFF7E0FF047AC2683A4B187829
:40264000C0B200236AE01178814264D13749095CC9B25578A9425ED1917801F07F01D67806F00306DFF8C8E04D000D44AD000EEB05074FF0000C87F803C092F802C087F8C5
:4026800004C092F803C00EF805C095883D8192F90250002D0DDA012E01D1072700E00D274D000D44AD00224E35446F7101266E700CE0012E01D1052700E009274D000D444F
:4026C000AD001B4E35446F7100266E70DFF868E00F010EEB07060125B57001FA05F529448900134D29440D89C5F307250EF807500D89EDB27570CE88F6B20E4D3D44AE7145
:40270000CE88C6F30726EE71CE88F6B22E71C988C1F30721697108320133DBB2A34292D3F8BD00BF0503002006030020100300202403002070600040FC5F0040034B1A784B
:40274000034B03EBC2035868704700BF93030020804C000008B5074B18780138C0B2FFF74BFF28B14268127900EBC203586908BD002008BD050300202DE9F84300220EE064
:402780006F4E53009D18AD00741900217155A170E1702181A172617061710132D2B2082AEED940B90AE000226649CA546649CA540133DBB200E00023012BF4D9634B1B782C
:4027C00013F0FF0F00F0B980604B18780138C0B2FFF712FF80464368DB7913F0400F05D05B4A137843F00103137004E0584A137803F0FE03137098F808704FF000090126DD
:402800006CE0D8F80C50002464E0AB7803F07F039E425CD1314606EB46039B00484803441B899BB2A888834205D206EB46039B00434A134418812B784248C35CDBB2687828
:40284000834244D195F802C03D484B000B449B0000EB030E8EF804C095F803E000F803E0EB7803F0030395F90200002811DA012B02D14FF0070C01E04FF00D0CDFF8C0E0E4
:402880004B0058188000704480F805C00123437012E0012B02D14FF0050C01E04FF0090C27484FEA410E0EEB01039B00034483F805C0194600234B70AB790A2B01D0022BF5
:4028C00005D1284631464A46FFF74CFB814608350134E4B2BC4298D30136F6B2082E90D9D8F80C0000220CE0837803F07F0310F8084B03EB43039B0016490B449C70013229
:40290000D2B2BA42F0D3FFF725FF134B1860002301210EE00A4C4A00501880002044C380028913449BB203F0010213449BB20131C9B20829EED9FFF70DFEBDE8F88300BFB4
:4029400024030020100300200003002005030020070300202C0300200C03002008B5154B1A7902F07F02531EDBB2072B20D8530013449B0010490B44997841F00101997065
:402980000021D970597841F0020159701B7913F0800F05D01201094B13448D229A7004E01201064B134489229A70FFF7ABFB08BD002008BD0060004024030020FC5F004051
:4029C000264B1B7903F07F035A1ED2B2072A43D810B55A001A44920021490A44917801F0FE0191700021D17019017F241D484454517801F0FD015170127912F0800F14D0BF
:402A000003EB4302920016490A445278D2B2012A05D11B0102461A440C23937019E01B01104A1A440D23937013E003EB430292000B490A445278D2B2012A05D11B01094AC9
:402A40001A440823937004E01B01064A1A4409239370FFF757FB10BD002070470060004024030020FC5F004010B50E4B1C79E4B20D4B18780138C0B2FFF7BEFD43681B79B3
:402A80009C4201D9022C0AD8084A135DDBB208490B55044B9B78DBB21355012010BD002010BD00BF0060004005030020100300200003002010B59B4B1B78DBB200219A4A6F
:402AC000118013F0800F00F0AD80964A5278D2B20A2A00F27281DFE812F06900700170017001700170010B007001920070019A008C4BDB78DBB2012B09D1FFF71FFE426855
:402B0000894B5A6012221A80FFF73CFC10BD854BDB78DBB2022B13D1824B9878FFF76CFD002800F04C8142687F4B5A605A68D1785A68927842EA01221A80FFF723FC10BD8C
:402B4000784BDB78DBB2032B05D02CE00A7811440133DBB201E000237449724A9278D2B29A4203D90A7812F0FF0FEFD16D4B9B7813F0FF0F0BD06B4B9B78DBB26C4A127CA5
:402B8000934204D16B4C2046FFF7AEFC21460B7813F0FF0F00F015810B78634A13805160FFF7F0FB10BD00F041F910BD13F0030317D0022B40F007815B490B80594B1B79D8
:402BC00003F07F0303EB43039B005B4A13449A78D2B25A4B1A7000225A704B60FFF7D2FB10BD514902230B80554B1A78D2B2534B1A7000225A704B60FFF7C4FB10BD4A4BD3
:402C000001221A804F4A5A60FFF7BCFB10BD464A01231380434B1B794B490B445360FFF7B1FB10BD3F4A5278013A0A2A00F2CD80DFE812F04B00CB009600CB000B00CB0085
:402C4000CB00CB001300CB003000364B9B78DBB23E4A1370FFF756FA10BD324B9B7803F0FF041BB1601EC0B2FFF7C6FC04B110B9002C40F0AC80334B1B78DBB29C4206D01F
:402C8000304B1C700120324B1870FFF775FDFFF739FA10BDFFF7E8FE002800F09A80214A1379DBB21279D2B22A490A702A4AD25C2549C95CD3B28B4204D00122244B1A7084
:402CC000FFF7AEFCFFF71EFA10BD03F00303012B17D04BB1022B7ED1124B9B7813F0FF0F7BD1FFF76DFE10BD0E4B9B78DBB2012B75D1134A137803F0FD031370FFF702FA1F
:402D000010BD084B1B79DBB2012B6AD8054B98781B79DBB21149CA5C22EA0002CA54FFF7F1F910BD0060004014030020E84C0000CC4D00009803002024030020DC020020E6
:402D4000070300200503002010030020960300200403002006030020000300209403002003F00303012B17D04BB1022B3BD1224B9B7813F0FF0F38D1FFF7F0FD10BD1E4BF7
:402D80009B78DBB2012B32D11C4A137843F002031370FFF7B7F910BD174B1B79DBB2012B27D8154B98781B79DBB21549CA5C22EA0002CA54FFF7A6F910BD002010BD0020C7
:402DC00010BD002010BD002010BD002010BD002010BD002010BD002010BD002010BD002010BD002010BD002010BD002010BD002010BD002010BD00BF006000400703002074
:402E000094030020044B1B7813F0800F01D0024B5B780020704700BF00600040024B1878C0F38010704700BF8F45004008B5124B1B7803F00303012B02D0022B04D00FE002
:402E40000D4B1B79DBB20CE00B4B1B7903F07F0303EB43039B00094A13449B78DBB200E00023074A1268D35C022B02D1FEF780FF08BD002008BD00BF006000402C030020AC
:402E80000C03002030B5224A21F00043934287B01BDD204A934205DD02460B4601F044F907B030BD02AA00F037F800F0030001281ED0022811D010B3DDE90201DDE9042355
:402EC00000F03EFA01F10041EAE7002300930022002300F05DFF07B030BD01230093DDE90201DDE9042300F053FF01F10041D7E7DDE90201DDE9042300F022FAD0E701247D
:402F0000DDE90201DDE90423009400F041FFC7E7FB21E93FFFFFEF7F2DE9F04F924C21F00047A7428FB00E467FDD14468F4A974226DC83A3D3E90023002940F39D8101F0D8
:402F4000F3F88B4B80469F42894600F083807EA3D3E9002301F0E8F802460B464046C4E90023494601F0E0F877A3D3E9002301F0DBF80125C4E9020128460FB0BDE8F08F2B
:402F80007C4A974240F383807B4A974258DC3D15A5F21645A7EB05518B46824601F012FD01F010FA8046894642464B4650465946CDE9088901F0B8F80022704B01F068FAAF
:402FC0008B46824601F0FEFC01F0FCF98046894642464B4650465946CDE90A8901F0A4F80022664B01F054FA00220023CDE90C0101F0B6FC002800F06781002340464946B9
:40300000002201F0ADFC002814BF012302235C480221019000912A4608A8214600F0B4FA002EC0F24781054606E0C2E9000100250024C2E90245002528460FB0BDE8F08F4C
:4030400002460B4601F070F80025C4E90201C4E90001F1E73EA3D3E9002301F065F83EA3D3E9002306460F4601F05EF802460B463046C4E90023394601F056F836A3D3E91B
:40308000002301F051F80125C4E90201D4E700F037FF33A3D3E900238046894601F0F8F90022384B01F042F801F08CFC054601F089F923A3D3E90023CDE9040101F0E8F997
:4030C00002460B464046494601F02EF81EA3D3E9002382468B46DDE9040101F0D9F91F2DCDE902015046594650DC274B6A1E53F82230BB424AD0DDE9022301F015F80246FF
:403100000B4681468846C4E900234A4643465046594601F009F8DDE9022301F005F802460B46002EC4E9022386DA4A4608F1004301F1004184E80C00E160A0606D427BE7FE
:4031400000004054FB21F93F3163621A61B4D03D0000601A61B4D03D7370032E8A19A33B83C8C96D305FE43FFB21E93F7BD90240FB21F93FFB213941FFFFEF7F00007041F0
:40318000604E00000000E03FE04D0000DDE9022300F0CAFF88463F15C8F30A53FB1A102B8146C4E90001B0DD59A3D3E90023DDE9040101F06DF98046894642464B465046A4
:4031C000594600F0B1FFCDE90601DDE906235046594600F0A9FF42464B4600F0A5FF4EA3D3E9002380468946DDE9040101F050F942464B4600F098FFCDE90201DDE90223BC
:40320000DDE9060100F090FF0B4602468846C1F30A517F1A312F8146C4E9002374DD40A3D3E90023DDE9040101F032F980468946DDE9060142464B4600F076FF82468B46C9
:40324000DDE9060152465B4600F06EFF42464B4600F06AFF34A3D3E9002380468946DDE9040101F015F942464B4600F05DFFCDE90201504659463EE700F058FF2E4B804666
:403280009F42894622D02AA3D3E9002300F04EFF02460B464046C4E90023494600F044FF23A3D3E9002300F041FF4FF0FF35C4E90201C1E66268E36802F1004203F10043B2
:4032C00045426260E360B7E60323A0E610A3D3E9002300F02BFF10A3D3E9002306460F4600F024FF02460B463046C4E90023394600F01AFF08A3D3E9002300F017FF4FF0D1
:40330000FF35C4E9020197E6DDE906ABFDE600BF0000601A61B4D03D7370032E8A19A33B0000002E8A19A33BC14920259A837B393163621A61B4D03DFB21F93FAFF300806B
:403340002DE9F04F21F00047B7F1795F85B00C4692469B4605466BDA01F034FB002800F0E7802A4623462846214601F091F874A3D3E900238046894601F08AF872A3D3E9BA
:40338000002300F0D3FE42464B4601F081F870A3D3E9002300F0C8FE42464B4601F078F86DA3D3E9002300F0C1FE42464B4601F06FF86BA3D3E9002300F0B6FE42464B46CB
:4033C00001F066F868A3D3E9002300F0AFFE42464B4601F05DF8CDE90001404649460022634B01F055F8DDE9002306460F464046494601F04DF85246804689465B462846AD
:40340000214601F045F802460B464046494600F08BFE02460B463046394600F085FE02460B460020534900F07FFE05B0BDE8F08F02460B4601F02CF841A3D3E900238046FD
:40344000894601F025F840A3D3E9002300F06EFE42464B4601F01CF83DA3D3E9002300F063FE42464B4601F013F83BA3D3E9002300F05CFE42464B4601F00AF838A3D3E964
:40348000002300F051FE42464B4601F001F836A3D3E9002300F04AFE4B46424600F0F8FF354BCDE900019F4297DD344B00229F4238DCA7F5001300202E4916461F4600F09E
:4034C00033FECDE90201404649460022284B00F0DFFF32463B4600F027FEDDE9002306460F464046494600F0D3FF5246804689465B462846214600F0CBFF02460B4640467F
:40350000494600F011FE02460B463046394600F00BFE02460B46DDE9020100F005FE05B0BDE8F08F164B0026CDE90223154FCAE71049002005B0BDE8F08F00BFAFF300809E
:40354000D43888BEE9FAA8BDC4B1B4BD9EEE213EAD529C804F7E923E9015CB19A001FA3E7751C1166CC1563F4C5555555555A53F0000E03F0000F03F3233D33F0000E93F9F
:403580000000E73F0000D23F2DE9F04F9E467E4DD41E85FB0465E417C4EBA504ADF51D7D24EAE4742546A69E0D940C93E343774C03EB430354F8264002EBC3032746099485
:4035C0000EF1FF3426460394F41904900A910893A5EB060516D42C44013422AEA79F08E057F8250000F0EEFE0135A542E6E9020108D0002DF4DA013500200021A542E6E958
:403600000201F6D1099B002B31DB099A0C9B74A901EBC20BC3EB4373039A24A9DB0001EBC20800930DF5E479039B002BC0F297814446049B0026A3F1080A009B002708EB37
:403640000305FAE9022374E8020100F021FF02460B463046394600F069FDAC4206460F46EFD1E9E90267D94508F10808DCD1099B10A99B4603F18043013B9B001A1D0A4438
:403680000B440F920E934FEACB039CA91A460693BBF1000F0B4453E9284528DD0DF5E87A0AEB02060FAF0022394B2046294600F0EFFE01F087F900F085FE0022354B8046B9
:4036C000894600F0E5FE02460B462046294600F02BFD01F077F976E9022347F8040F4946404600F023FD564504460D46DBD1DDF82090204629464A4600F092FC00224FF099
:403700007F5304460D4600F0C3FE00F0FDFB0022214B00F0BDFE02460B462046294600F003FD04460D4601F04DF9804600F04AFE02460B46204629464C4600F0F5FC002C0B
:4037400006460F4640F3F1800BF1FF3110AB53F82130C9F1180043FA00F202FA00F55D1B10A8C9F1170340F8215090441D41002D3FDDBBF1000F08F1010840F3848200224F
:4037800014460FA912E000BFABAAAA2A684F00000000703E0000704100002040C3F180700BB108600124013293450DDD51F8043F002CF3D0C3F1FF13013203F57F439345BF
:4037C0000B604FF00104F1DC089B002B0EDD012B00F0B380022B09D10BF1FF3210AB53F8223010A9C3F3150341F82230022D00F08380304639460022002301F0B1F8002889
:4038000000F0C980099B0BF1FF3A53450DDC10AB0F9803EB8B03002253F8041D834242EA0102F9D1002A40F01482099B10AA013B52F82330002B40F024820E9A012352F88D
:40384000041D01330029FAD05B441A460B930BF1010393424DDC0D9A4FF0000803EB02090B9A0C9B09F180495B44CBEB020BA79A09F1FF3902EB890200924FEACB02DB00AF
:40388000059224AA02EB030B0793069B74AA02EB030A009B002653F8040F0027009300F091FD039BEBE80201002B1BDB079B03EB0804069B08EB030524AB1C441D44049B02
:4038C000A3F10809F9E9022374E8020100F0E0FD02460B463046394600F028FCAC4206460F46EFD1059B08F108089845EAE90267CFD1DDF82CB0C6E632463B460020BF491F
:4039000000F012FC06460F46002C3FF472AF089A0020BA4900F084FB02460B463046394600F002FC06460F4663E711D10BF1FF3310AA52F82350ED1519E70BF1FF3210AB5C
:4039400053F8223010A9C3F3160341F822304DE70022AB4B01F022F858B9054649E700260027E9E90267D94508F108087FF45CAE7DE6BBF1000F08F10108C8BF02253FF784
:40398000FEAE32463B4600209C4900F0CDFB022506460F462DE7089B30465A4239460395CDF8148000F03CFB0022964B04460D4600F0F4FF002800F0E1810022924B20461B
:4039C000294600F065FD00F0FDFF064600F0FAFC00228C4B00F05CFD0B4602462946204600F0A2FB00F0EEFF089B0BF1010A1833089310AB43F82B0043F82A60089A002096
:403A00007E4900F00DFBBAF1000F04460D46C0F2CA800AF101034FEAC30874AF10AA009302EB830907EB080659F8040D00F0CAFC22462B4600F02CFD002266E90201724B4D
:403A40002046294600F024FDBE4204460D46EBD1A8F1080806EB08039B460DF59879CDF818A0DDF824A04FF00008CDF81090BAF1000FC0F29580B8F1000FC0F29180DFF8D9
:403A80008C915D4600260027002401E0444510DCF9E90223F5E8020100F0FAFC02460B463046394600F042FB0134A24506460F46ECDA049BABF1080B03EBC803C3E900675A
:403AC000009B08F101089845D1D1A69BDDF818A0DDF81090032B3BD8DFE813F0410004000400D70000273E46009B09EBC304384674E90223314600F019FB4C4507460E468E
:403B0000F5D1039B002B00F08B80D9E900010A9D334606F100463A466E602F6000F004FBBAF1000F03460CDD01261C46F9E90223204600F0FBFA0136B2450346F5DA039A65
:403B40000AB101F100411C460D460A9BC3E90245059B03F007000DF51D7DBDE8F08F00231946009A09EBC2091C4679E90223204600F0DCFA0AF1FF3ABAF1FF3F0346F3D196
:403B8000039A0AB101F100411C460D460A9BC3E90045059B03F007000DF51D7DBDE8F08F0026002785E7A69B032BD1D8DFE803F04E3030020DF59879039A00231E46002A39
:403BC00000F0C8800A9FD9F80800D9F80440D9F80C203B61059BD9F8001006F1004604F1004402F10042B86003F007007E617C60FA6039600DF51D7DBDE8F08F0000F03F82
:403C00000000E03F000070410000703E704F0000039B00273E460DF59879002B7FF475AFD9E9000135463C4633460A9E3A46C6E9004500F079FABAF1000F03463FF774AF15
:403C40001C460D460A9BC3E9024581E70023194696E7089A10AB53F82A30183A0395CDF814800892002B7FF4C9AE10AB03EB8A0353F8041D0AF1FF3A183A0029F8D00892E9
:403C8000BCE60123E0E500249EE5BAF1000F93DD4FEACA0809EB08039B46D3E900677BE9022330463946CDE9002300F03FFA04460D46DDE9000122462B4600F035FA024676
:403CC0000B463046394600F031FACB4526462F46CBE90201CBE90045E1D1BAF1010F7FF76BAF09EB08039A46D3E900670DF59C7B7AE902231046194632463B46CDE90001BD
:403D000000F014FA04460D46DDE9000122462B4600F00AFA32463B4600F008FADA4526462F46CAE90201CAE90045E1D100231E4608F108044C4450AD184674E90223314699
:403D400000F0F4F9AC4203460E46F5D1039A002A7FF438AFD9E90045D9E90289184631460A9A059BC2E9040103F00700C2E90045C2E902890DF51D7DBDE8F08F2046294622
:403D800000F020FE10ABDA4643F82B0036E600BF2DE9F04F21F00046B6F1795F85B00C4690469946054604DA00F00CFE002800F083802A4623462846214600F069FB2A46C2
:403DC000234606460F4600F063FB3FA3D3E9002382468B463046394600F05AFB3CA3D3E9002300F0A1F932463B4600F051FB3AA3D3E9002300F09AF932463B4600F048FBEF
:403E000037A3D3E9002300F08FF932463B4600F03FFB35A3D3E9002300F088F90E9BCDE900019BB3404649460022334B00F030FBDDE90023CDE902015046594600F028FB9E
:403E400002460B46DDE9020100F06EF932463B4600F01EFB42464B4600F066F924A3D3E9002306460F465046594600F011FB02460B463046394600F059F902460B462846D0
:403E8000214600F051F905B0BDE8F08FDDE900233046394600F0FCFA15A3D3E9002300F043F952465B4600F0F3FA2A46234600F03DF905B0BDE8F08F2846214605B0BDE8E4
:403EC000F08F00BFAFF300807CD5CF5A3AD9E53DEB9C2B8AE6E55A3E7DFEB157E31DC73ED561C119A0012A3FA6F810111111813F495555555555C53F0000E03FAFF300809A
:403F000021F00041704700BF2DE9F047C1F30A58A8F2FF36132E0B4604460D460246894607461DDC002E40DBDFF8F08048FA06F808EA010E5EEA020217D035A3D3E9002340
:403F400000F0F4F80022002300F032FD20B1002D40DB29EA0805002738462946BDE8F087332E06DDB6F5806F2FD020461946BDE8F087A8F213424FF0FF3A2AFA02FA1AEA4F
:403F8000000FF2D022A3D3E9002300F0CFF80022002300F00DFD0028DED0002D1FDB4D4627EA0A0738462946D8E719A3D3E9002300F0BCF80022002300F0FAFC0028CBD00B
:403FC000002D1ADB00273D46C6E702460B4600F0ADF8CCE74FF4801333419944B9E7142E08D0C8F5866808F10308012303FA08F31F19D4D309F10109D1E725F00042064B78
:40400000224318BF1D460027A6E700BFAFF300809C7500883CE4377E0000F0BFFFFF0F00F8B5C1F30A5604460D460B46174616BB21F00043034332D00022314B00F028FAF9
:40404000304A044697420D460B4637DB40F2FE72C1F30A56363E3E44964215DD24A1D1E9000122462B4600F053F821A3D3E9002300F00EFAF8BD40F2FF72964224D040F2F2
:40408000FE723E449642E9DC002E09DD23F0FF4323F4E00343EA065520462946F8BDF8BD16F1350F15DA4CF250339F42D6DC12A1D1E9000122462B4600F02AF80EA3D3E9F3
:4040C000002300F0E5F9F8BD02460B4600F02EF8F8BD23F0FF4323F4E003363643EA0655204629460022084B00F0D2F9F8BD00BF9C7500883CE4377E59F3F8C21F6EA50153
:4041000000005043B03CFFFF0000903CAFF3008003F0004321F0004243EA0201704700BF81F0004102E000BF83F0004330B54FEA41044FEA430594EA050F08BF90EA020F14
:404140001FBF54EA000C55EA020C7FEA645C7FEA655C00F0E2804FEA5454D4EB5555B8BF6D420CDD2C4480EA020281EA030382EA000083EA010180EA020281EA0303362D60
:4041800088BF30BD11F0004F4FEA01314FF4801C4CEA113102D0404261EB410113F0004F4FEA03334CEA133302D0524263EB430394EA050F00F0A780A4F10104D5F1200E69
:4041C0000DDB02FA0EFC22FA05F2801841F1000103FA0EF2801843FA05F359410EE0A5F120050EF1200E012A03FA0EFC28BF4CF0020C43FA05F3C01851EBE37101F0004583
:4042000007D54FF0000EDCF1000C7EEB00006EEB0101B1F5801F1BD3B1F5001F0CD349085FEA30004FEA3C0C04F101044FEA445212F5800F80F09A80BCF1004F08BF5FEAA1
:40424000500C50F1000041EB045141EA050130BD5FEA4C0C404141EB010111F4801FA4F10104E9D191F0000F04BF01460020B1FA81F308BF2033A3F10B03B3F120020CDA79
:404280000C3208DD02F1140CC2F10C0201FA0CF021FA02F10CE002F11402D8BFC2F1200C01FA02F120FA0CFCDCBF41EA0C019040E41AA2BF01EB0451294330BD6FEA04048A
:4042C0001F3C1CDA0C340EDC04F11404C4F1200220FA04F001FA02F340EA030021FA04F345EA030130BDC4F10C04C4F1200220FA02F001FA04F340EA0300294630BD21FAC4
:4043000004F0294630BD94F0000F83F4801306BF81F480110134013D4EE77FEA645C18BF7FEA655C29D094EA050F08BF90EA020F05D054EA000C04BF1946104630BD91EA17
:40434000030F1EBF0021002030BD5FEA545C05D14000494128BF41F0004130BD14F580043CBF01F5801130BD01F0004545F0FE4141F470014FF0000030BD7FEA645C1ABFC7
:40438000194610467FEA655C1CBF0B46024650EA013406BF52EA033591EA030F41F4002130BD00BF90F0000F04BF0021704730B54FF4806404F132044FF000054FF000018E
:4043C00050E700BF90F0000F04BF0021704730B54FF4806404F1320410F0004548BF40424FF000013EE700BF42004FEAE2014FEA31014FEA02701FBF12F07F4393F07F4F0D
:4044000081F06051704792F0000F14BF93F07F4F704730B54FF4607401F0004521F0004120E700BF50EA010208BF704730B54FF000050AE050EA010208BF704730B511F07E
:40444000004502D5404261EB41014FF4806404F132045FEA915C3FF4DCAE4FF003025FEADC0C18BF03325FEADC0C18BF033202EBDC02C2F1200300FA03FC20FA02F001FA6C
:4044800003FE40EA0E0021FA02F11444C1E600BF70B54FF0FF0C4CF4E06C1CEA11541DBF1CEA135594EA0C0F95EA0C0F00F0DEF82C4481EA030621EA4C5123EA4C5350EADC
:4044C000013518BF52EA033541F4801143F4801338D0A0FB02CE4FF00005E1FB02E506F00042E0FB03E54FF00006E1FB03569CF0000F18BF4EF0010EA4F1FF04B6F5007F3B
:4045000064F5407404D25FEA4E0E6D4146EB060642EAC62141EA55514FEAC52040EA5E504FEACE2EB4F1FD0C88BFBCF5E06F1ED8BEF1004F08BF5FEA500E50F1000041EB35
:40454000045170BD06F0004646EA010140EA020081EA0301B4EB5C04C2BFD4EB0C0541EA045170BD41F480114FF0000E013C00F3AB8014F1360FDEBF002001F0004170BDDF
:40458000C4F10004203C35DA0C341BDC04F11404C4F1200500FA05F320FA04F001FA05F240EA020001F0004221F0004110EBD37021FA04F642EB06015EEA430E08BF20EA25
:4045C000D37070BDC4F10C04C4F1200500FA04F320FA05F001FA04F240EA020001F0004110EBD37041F100015EEA430E08BF20EAD37070BDC4F1200500FA05F24EEA020EFF
:4046000020FA04F301FA05F243EA020321FA04F001F0004121FA04F220EA020000EBD3705EEA430E08BF20EAD37070BD94F0000F0FD101F00046400041EB010111F4801F23
:4046400008BF013CF7D041EA060195F0000F18BF704703F00046520043EB030313F4801F08BF013DF7D043EA0603704794EA0C0F0CEA135518BF95EA0C0F0CD050EA410638
:4046800018BF52EA4306D1D181EA030101F000414FF0000070BD50EA410606BF1046194652EA430619D094EA0C0F02D150EA013613D195EA0C0F05D152EA03361CBF1046AF
:4046C00019460AD181EA030101F0004141F0FE4141F470014FF0000070BD41F0FE4141F4780170BD70B54FF0FF0C4CF4E06C1CEA11541DBF1CEA135594EA0C0F95EA0C0F2F
:4047000000F0A7F8A4EB050481EA030E52EA03354FEA013100F088804FEA03334FF0805545EA131343EA12634FEA022245EA111545EA10654FEA00260EF000419D4208BFEB
:40474000964244F1FD0404F5407402D25B084FEA3202B61A65EB03055B084FEA32024FF480104FF4002CB6EB020E75EB030E22BFB61A754640EA0C005B084FEA3202B6EB6B
:40478000020E75EB030E22BFB61A754640EA5C005B084FEA3202B6EB020E75EB030E22BFB61A754640EA9C005B084FEA3202B6EB020E75EB030E22BFB61A754640EADC00FE
:4047C00055EA060E18D04FEA051545EA16754FEA06164FEAC30343EA52734FEAC2025FEA1C1CC0D111F4801F0BD141EA00014FF000004FF0004CB6E711F4801F04BF01435E
:404800000020B4F1FD0C88BFBCF5E06F3FF6AFAEB5EB030C04BFB6EB020C5FEA500C50F1000041EB045170BD0EF0004E4EEA113114EB5C04C2BFD4EB0C0541EA045170BDF9
:4048400041F480114FF0000E013C90E645EA060E8DE60CEA135594EA0C0F08BF95EA0C0F3FF43BAF94EA0C0F0AD150EA01347FF434AF95EA0C0F7FF425AF104619462CE765
:4048800095EA0C0F06D152EA03353FF4FDAE1046194622E750EA410618BF52EA43067FF4C5AE50EA41047FF40DAF52EA43057FF4EBAE12E74FF0FF3C06E000BF4FF0010C12
:4048C00002E000BF4FF0010C4DF804CD4FEA410C7FEA6C5C4FEA430C18BF7FEA6C5C1BD001B050EA410C0CBF52EA430C91EA030F02BF90EA020F0020704710F1000F91EABA
:40490000030F58BF994208BF90422CBFD8176FEAE37040F0010070474FEA410C7FEA6C5C02D150EA013C07D14FEA430C7FEA6C5CD6D152EA033CD3D05DF8040B704700BF3B
:404940008446104662468C461946634600E000BF01B5FFF7B7FF002848BF10F1000F01BD4DF808EDFFF7F4FF0CBF012000205DF808FB00BF4DF808EDFFF7EAFF34BF012024
:4049800000205DF808FB00BF4DF808EDFFF7E0FF94BF012000205DF808FB00BF4DF808EDFFF7CEFF94BF012000205DF808FB00BF4DF808EDFFF7C4FF34BF012000205DF8E2
:4049C00008FB00BF4FEA410212F5001215D211D56FF47873B3EB625212D94FEAC12343F0004343EA505311F0004F23FA02F018BF404270474FF00000704750EA013005D1FF
:404A000011F0004008BF6FF0004070474FF00000704700BF0E4B70B51E460E4C0025E41AA410A54204D056F8253098470135F8E700F044FB084B094C1E46E41AA4100025EC
:404A4000A54204D056F8253098470135F8E770BDC8500000C8500000C8500000D050000010B5431E0A44914204D011F8014B03F8014FF8E710BD03460244934202D003F8B7
:404A8000011BFAE7704700002DE9F0470F46404CD4F800903D4615F801EB09EB0E04667806F0080404F0FF060CB12F46F2E774462D2C03D1BD1C7C78012603E02B2C04BF7A
:404AC0007C78BD1C13B1102B0AD15AE0302C56D12C7804F0DF04582C4CD16C7810230235002E14BF4FF000486FF00048B8FBF3FA0027BE4603FB1A8809EB040C9CF801C0F5
:404B00001CF0040F01D0303C0BE01CF0030C1BD0BCF1010F0CBF4FF0370C4FF0570CCCEB04049C4210DAB7F1FF3F0AD0D64506D801D1444503DC03FB0E4E012701E04FF060
:404B4000FF3715F8014BD7E77C1C73460AD1002E4FF0220114BF4FF000436FF0004301602AB911E00EB1CEF100036AB107B1691E116009E03024002BB2D10823B0E70A23DA
:404B8000AEE7302CACD1A3E71846BDE8F08700BFA481FF1F30B505460C461346034A294610682246BDE83040FFF76EBFA081FF1F000000000000000049444C450000000075
:404BC0005468697320697320612044756D6D792054782E0D0A0000005075736820616E79204B657920746F2053746172742E2E2E0D0000000D0A4F4B210D0A00456E7465B5
:404C00007220546379633F20000000000A0D54637963203D2025640A0D0000002533642000000000200000002A0A0D000A0D00004C45440055534255415254000051004049
:404C40002000305100404000C0510040100000000140001000140140000800400140000A004C01400002005001402000303132333435363738394142434445460000000097
:404C800001000000884C000001000000CC4D0000000000000000000001000000A04C000001000000884D000003000000CC4C00000000000000000000000000000000000027
:404CC00000000000C84C0000020A000000008103080002000100820240000A000100030240000A0002030000040309042C0343007900700072006500730073002000530043
:404D000065006D00690063006F006E0064007500630074006F007200100355005300420055004100520054003803430044004300200043006F006D006D0075006E00690031
:404D400063006100740069006F006E00200049006E007400650072006600610063006500260343004400430020004400610074006100200049006E007400650072006600EF
:404D80006100630065000000090243000201018032090400000102020103052400100104240202052406000105240100010705810308000A09040100020A000004070582A1
:404DC0000240000007050302400000001201000202000008B40432F20100010280010000FB21F93FFB2109407CD91240FB2119407A6A1F407CD92240BBFD2540FB2129402F
:404E00003A462C407A6A2F405C4731407CD932409C6B3440BBFD3540DB8F3740FB2139401BB43A403A463C405AD83D407A6A3F404C7E40405C4741406C1042407CD94240A0
:404E40008CA243409C6B4440AC344540BBFD4540CBC64640DB8F4740EB584840FB21494083F9A200444E6E00FC291500D1572700DD34F50062DBC0003C99950041904300B4
:404E80006351FE00BBDEAB00B761C5003A6E2400D24D42004906E00009EA2E001C92D100EB1DFE0029B11C00E83EA700F535820044BB2E009CE98400B4267000417E5F0010
:404EC000D6913900538339009CF439008B5F840028F9BD00F81F3B00DEFF97000F980500112FEF000A5A8B006D1F6D00CF7E360009CB2700464FB7009E663F002DEA5F00E2
:404F0000BA277500E5EBC7003D7BF100F739070092528A00FB6BEA001FB15F00085D8D00300356007BFC4600F0AB6B0020BCCF0036F49A00E3A91D005E619100081BE60008
:404F400085996500A0145F008D40680080D8FF0027734D0006063100CA561500C9A873007BE260006B8CC0000200000003000000040000000600000000000040FB21F93FBB
:404F8000000000002D44743E000000809846F83C0000006051CC783B00000080831BF0390000004020257A38000000802282E336000000001DF369354300002020202020C0
:404FC0002020202028282828282020202020202020202020202020202020208810101010101010101010101010101004040404040404040404101010101010104141414115
:405000004141010101010101010101010101010101010101010110101010101042424242424202020202020202020202020202020202020202021010101020000000000066
:405040000000000000000000000000000000000000000000000000000000000000000000000000000000000000000000000000000000000000000000000000000000000030
:40508000000000000000000000000000000000000000000000000000000000000000000000000000000000000000000000000000000000000000000000000000F8B500BF84
:4050C000F8BC08BC9E4670474D00000059150000F8B500BFF8BC08BC9E46704729000000F05000000881FF1FA00000001882000000000000AAAAAAAAF87F00000000E88092
:40510000D0010100420000008014EF0300C2010000000800C201000000080000A120000000000200000000000000000000000000000000000000000000000000000000007C
:405140000000000000000000B84F00000000000000000000000000000000000000000000000000000000000000000000000000000000000000000000000000000000000028
:4051800000000000000000004081FF1FBA4F000000000000000000000000000000000000000000000000000000000000000000000000000000000000000000000000000007
:4051C00000000000000000000000000000000000000000000000000000000000000000000000000000000000000000000000000000000000000000000000000000000000AF
:40520000000000000000000000000000000000000000000000000000000000000000000000000000000000000000000000000000000000000000000000000000000000006E
:40524000000000000000000000000000000000000000000000000000000000000000000000000000000000000000000000000000000000000000000000000000000000002E
:4052800000000000000000000000000000000000000000000000000000000000000000000000000000000000000000000000000000000000000000000000000000000000EE
:020000040003F7
:0200000480007A
:4000000001450040015200400217014002190140034001400341014003420140034301400447014004480140024C0140015101407E027C40EA02EE0AEA02EE0A3381364072
:40004000CC709F01A640A7809F01A640A7809F01A640A78008080B040F40C20EAE40AF81EA40EE50AC08AF44002A00004000000000000000C00000000002020000000000A4
:400080000000000000000000000000000000000000000000000000000000000000000000000000000000000000000000000000000000000000000000000000000000000040
:4000C0000000000000000000000000000000000000000000000000000000000000000000000000000000000000000000000000000000000000000000000000000000000000
:4001000000000000000000000000000000000000000000000000000000000000000000000000000000000000000000000000000000000000000000000000000000000000BF
:40014000000000000000000000000000000000000000000000000000000000000000000000000000000000000000000000000000000000000000000000000000000000007F
:0200000490006A
:0400000000004005B7
:0200000490105A
:04000000BC90ACAF55
:0200000490303A
:0200000064E9B1
:0200000490402A
:4000000000000000000000000000000000000000000000000000000000000000000000000000000000000000000000000000000000000000000000000000000000000000C0
:400040000000000000000000000000000000000000000000000000000000000000000000000000000000000000000000000000000000000000000000000000000000000080
:400080000000000000000000000000000000000000000000000000000000000000000000000000000000000000000000000000000000000000000000000000000000000040
:4000C0000000000000000000000000000000000000000000000000000000000000000000000000000000000000000000000000000000000000000000000000000000000000
:0200000490501A
:0C00000000012E16106900012E3575520B
:00000001FF