:400000000080002011000000B1190000B119000008B5044B1A6803F53F5302331A6001F0E1FC00BFFA46004010B5054C237833B9044B13B10448AFF300800123237010BD05
:40004000D081FF1F000000006C4D0000084B10B51BB108480849AFF300800848036803B910BD074B002BFBD0BDE81040184700BF000000006C4D0000D481FF1F0881FF1F3F
:400080000000000000F1080343604FF0FF328260C360036100230360704700BF00230361704700BF43684B609A688A609A68516099600861036801330360704730B40D6866
:4000C000B5F1FF3F01D1026907E000F1080200E01A4653681C68AC42FAD953684B6099608A605160086103680133036030BC704703694268816891608268416851605A68BF
:40010000824201D182685A6000220261186801381860704706480068006880F3088862B661B6BFF34F8FBFF36F8F00DF00BF000008ED00E04FF0807340F8043C40F8081C0F
:40014000034B40F80C3C40F8202C4038704700BFA1010000074B19680868B0E8F00F80F30988BFF36F8F4FF0000080F311884EF00D0E7047C082FF1F4FF08052034B1A607B
:40018000BFF34F8FBFF36F8F704700BF04ED00E0EFF311804FF0A00181F311887047002008B5FFF7F5FFFEE708B5FFF7F1FF044A136801331360BFF34F8FBFF36F8F08BDDD
:4001C0000C81FF1F80F31188704700BF08B5044A1368013B136013B90020FFF7F3FF08BD0C81FF1FEFF30980BFF36F8F0D4B1A6820E9F00F10602DE908404FF0A00080F33C
:40020000118800F01BFD4FF0000080F31188BDE8084019680868B0E8F00F80F30988BFF36F8F7047C082FF1F08B5FFF7B1FF00F0C7FB18B14FF08052024B1A600020FFF7C6
:40024000C1FF08BD04ED00E0034A044B1A600722043B1A60704700BFCF01010014E000E008B5094B1A6842F460021A601A6842F060421A60FFF7E8FF0022044B1A60FFF7E2
:4002800049FFFFF78DFF00BF20ED00E00C81FF1F10B50446FFF788FFA26BE36B9A4201D1012400E00024FFF791FF204610BD00BF10B50446FFF778FFA36B0BB9012400E094
:4002C0000024FFF783FF204610BD00BF38B504461546026C3AB903685BBB406800F0FCFD002363602CE06DB9806804F019F9A268236C1344A360626893421CD32368A36056
:4003000000201DE0C06804F00BF9236C5B42E2681A44E26021688A4202D262681344E360022D0AD1A36B53B1A36B013BA363002006E0002004E0002002E0002000E0002045
:40034000A36B0133A36338BD026C72B110B5C3681344C3604468A34201D30368C36003460846D96804F0DCF810BD704710B50446FFF71AFF0BE0636A63B104F1240000F03B
:40038000DDFC08B100F048FDA36C013BA364A36C002BF0DC4FF0FF33A364FFF717FFFFF703FF0BE0236963B104F1100000F0C6FC08B100F031FD636C013B6364636C002BBD
:4003C000F0DC4FF0FF336364FFF700FF10BD00BF38B504460D46FFF7E7FE2168E26B236C03FB021060600020A063A160013A02FB0313E3604FF0FF336364A36455B9236950
:4004000083B104F1100000F099FC01280AD1FFF7B3FE07E004F11000FFF734FE04F12400FFF730FEFFF7D2FE012038BD70B506460D4619B101FB00F0013000E000204C30FF
:4004400000F0B4FD044658B10DB9206002E000F14C030360E663256420460121FFF7B8FF204670BDF0B585B004460F4601921E460025FFF799FEA26BE36B9A4201D3022EC6
:4004800016D1204639463246FFF720FF636A43B104F1240000F052FC012805D1FFF76CFE02E008B1FFF768FEFFF790FE012042E0019B1BB9FFF78AFE00203CE01DB902A804
:4004C00000F074FC0125FFF781FE00F06FFAFFF76BFE636CB3F1FF3F01D100236364A36CB3F1FF3F01D10023A364FFF76FFE02A801A900F065FCC0B92046FFF7C9FE70B12A
:4005000004F11000019900F0EDFB2046FFF72EFF00F0D8FA0028ACD1FFF72EFEA9E72046FFF724FF00F0CEFAA3E72046FFF71EFF00F0C8FA002005B0F0BD00BF38B54C201C
:4005400000F034FD0446C8B10025456005608560C56085630123C36305644FF0FF33436483641030FFF78EFD04F12400FFF78AFD204629462A462B46FFF774FF204638BDF3
:400580002DE9F04104460F4690461D46FFF700FE0646A26BE36B9A4201D3022D1BD1204639462A46FFF792FEA36CB3F1FF3F0DD1636A93B104F1240000F0C0FB78B1B8F165
:4005C000000F0ED00124C8F800400BE0A36C0133A364012406E0002404E0012402E0012400E001243046FFF7EDFD2046BDE8F081F0B585B004460F4601921E460025FFF713
:40060000D3FDA36B33B3E56820463946FFF79CFE96B9A36B013BA363236813B900F09EFC6060236993B104F1100000F087FB01280CD1FFF7A1FD09E0E560636A33B104F13F
:40064000240000F07BFB08B1FFF796FDFFF7BEFD01204BE0019B1BB9FFF7B8FD002045E01DB902A800F0A2FB0125FFF7AFFD00F09DF9FFF799FD636CB3F1FF3F01D10023C4
:400680006364A36CB3F1FF3F01D10023A364FFF79DFD02A801A900F093FB08BB2046FFF707FEB8B1236833B9FFF77EFD606800F0BBFBFFF78BFD04F12400019900F012FB13
:4006C0002046FFF753FE00F0FDF9002897D1FFF753FD94E72046FFF749FE00F0F3F98EE72046FFF743FE00F0EDF9002005B0F0BD10B50446FFF758FDA46BFFF767FD204604
:4007000010BD00BF094B9B6A1B680BB9012300E0002323B14FF0FF32044BDA627047034B9A6AD268D2685268DA627047EC81FF1F10B50446006B00F093FC204600F090FC07
:4007400010BD00BF70B506460C4619B9800000F02DFC044654B1502000F028FC054608B1046304E0204600F07BFC00E0002525B1286BA521B20003F0DEFE284670BD00BFC1
:4007800070B504461546002306E0C85CE21882F83400CA5C12B101330B2BF6D9002384F83F30042D00D90425E562256400266664201DFFF773FC04F11800FFF76FFC2461E2
:4007C000C5F10505A5616462A66484F84C6070BD70B5002407E004EB84039B0010481844FFF750FC0134042CF5D90E4C04F194063046FFF747FC04F1A8052846FFF742FCC8
:4008000004F11400FFF73EFC04F1BC00FFF73AFC2046FFF737FCA662C4F8D05070BD00BF1C82FF1FEC81FF1F38B504460E4BD3F8D4205060D3F8D830984208D20A4BD3F856
:40084000D000D3F8D4100431FFF738FC38BD064DA86AD5F8D4100431FFF730FCEB6A9C4200D2EC6238BD00BFEC81FF1F2DE9F04782B081468A46164698460B9F10460C99B1
:40088000FFF760FF002854D00446036B06F18045013D03EB850525F00705009651460A9A0D9BFFF76DFF284649464246FFF742FC206007B13C60FFF777FC284BD3F8DC2041
:4008C0000132C3F8DC20D3F8D4304BB9234BC3F8D440D3F8DC30012B10D1FFF779FF0DE01E4BD3F8E0304BB91C4BD3F8D430DB6A0A9A934202D8194BC3F8D440174AD2F84B
:40090000E4300133C2F8E430E36A012505FA03F0D2F8E8100143C2F8E810303203EB830080001044211DFFF7BDFBFFF74FFC2C4601E04FF0FF34012C0CD1084BD3F8E030B3
:4009400043B1064BD3F8D430DB6A0A9A934201D2FFF712FC204602B0BDE8F087EC81FF1F00B585B0002300930193029303930C480C496422FFF77AFF01280DD1FFF708FC11
:40098000094B4FF0FF32DA620122C3F8E0200022C3F8D820FFF764FC05B05DF804FB00BF350C0000784D0000EC81FF1F034AD2F8F0300133C2F8F030704700BFEC81FF1F8F
:4009C0002DE9F0413E4BD3F8F030002B66D13C4BD3F8D8200132C3F8D820D3F8D880B8F1000F0CD19A6AD3F8D0109962C3F8D020D3F8F4200132C3F8F420FFF783FE304BCA
:400A0000DB6A984503D200273CE0012700E000272B4B9B6A1B680BB9012300E0002323B14FF0FF32264BDA622CE0254B9B6ADB68DC686368984502D2214AD36222E0261D0A
:400A40003046FFF755FBA36A1BB104F11800FFF74FFBE06A01238340194DD5F8E8201343C5F8E83005F1300300EB8000800018443146FFF717FBE26AD5F8D430DB6A9A42D0
:400A8000C3D2C5E70E4AD2F8D430DB6A03EB83039B0013441B6B012B08D808E0084AD2F8F8300133C2F8F830002700E00127044BD3F8FC3003B101273846BDE8F08100BFAC
:400AC000EC81FF1F70B5FFF76FFB304BD3F8F020013AC3F8F020D3F8F030002B4ED12B4BD3F8DC3033BB00244BE0284C236ADD6805F11800FFF7FCFA2E1D3046FFF7F8FAE2
:400B0000E86A01238340D4F8E8201343C4F8E83004F1300300EB8000800018443146FFF7C1FAEA6AD4F8D430DB6A9A4202D30122C4F8FC20154B5B69002BD6D1134BD3F8B3
:400B4000F8306BB911E0FFF73BFF18B101220F4BC3F8FC200D4AD2F8F830013BC2F8F8300A4BD3F8F830002BEDD1084BD3F8FC30012B05D1FFF700FB012402E0002400E00B
:400B80000024FFF723FB204670BD00BFEC81FF1F10B5F0B10446FFF709FF104BD3F8D8201444D3F8D4000430FFF7A2FA58B90B4BD3F8D420D16A01228A40D3F8E81021EA7B
:400BC0000202C3F8E8202046FFF72EFEFFF77AFF00E0002008B9FFF7CFFA10BDEC81FF1F38B51FE0FFF7E2FE114BD3F8BC40FFF769FFBCB1FFF7D8FA0D4CD4F8C830DD6885
:400C0000281DFFF775FAD4F8DC30013BC4F8DC30D4F8EC30013BC4F8EC30FFF7D7FA2846FFF786FD024BD3F8EC30002BDAD138BDEC81FF1F08B5FFF7D3FFFCE7274BD3F855
:400C4000F03023B10122254BC3F8FC20704710B5224B0022C3F8FC20D3F8D4301B6B1A68B2F1A53F0BD15A68B2F1A53F07D19A68B2F1A53F03D1DB68B3F1A53F07D0174B78
:400C8000D3F8D400D3F8D410343100F0D1FD1348D0F8E830B3FA83F3DBB2C3F11F039A00D118890001444C6B64684C631A44920002443832944206D1606803EB830189006F
:400CC000074A0A445060054A03EB83039B0013445B6BDB68C2F8D43010BD00BFEC81FF1F1C82FF1F38B50D46134CD4F8D4101831FFF7E4F9D4F8D4000430FFF7F9F950B926
:400D0000D4F8D420D16A01228A40D4F8E81021EA0202C4F8E820B5F1FF3F06D10648D0F8D4100431FFF7BEF938BD034BD3F8D8002844FFF779FD38BDEC81FF1F38B5C36847
:400D4000DC6804F118052846FFF7D2F9154BD3F8F030ABB9251D2846FFF7CAF9E36A01229A401048D0F8E8100A43C0F8E820303003EB83039B0018442946FFF793F903E0C8
:400D800009482946FFF78EF9E26A064BD3F8D430DB6A9A4204D90120024BC3F8FC0038BD002038BDEC81FF1F0082FF1F034BD3F8F4200260D3F8D83043607047EC81FF1FEB
:400DC00038B504460D46FFF7EFF9124BD3F8D8202B68B3F1FF3F14D020680E49D1F8F410884202D0616891420DD96168501A83420BD98A1A13442B602046FFF7D7FF002490
:400E000004E0002402E0012400E00124FFF7DEF9204638BDEC81FF1F0122024BC3F8FC20704700BFEC81FF1F002850D038B50346C16A274AD2F8D420D26A914246D28269B9
:400E4000002A06DB224AD2F8D420D26AC2F1050282615969DA6A02EB820292001D480244914201D1012200E0002252B31D461C1D2046FFF73DF978B9EA6A02EB82039B0021
:400E800013490B441B6B3BB901239340D1F8E82022EA0303C1F8E8300D48D0F8D430DB6AEB6201229A40D0F8E8100A43C0F8E820303003EB83039B0018442146FFF7F2F8D3
:400EC00038BD034AD2F8D420D26ADA6238BD7047EC81FF1F1C82FF1F002837D038B50346426C013A4264C06A196C884230D08ABB1C461D1D2846FFF7FBF878B9E26A02EB78
:400F000082039B0014490B441B6B3BB901239340D1F8E82022EA0303C1F8E830236CE362C3F10502A261012404FA03F10A48D0F8E8200A43C0F8E820303003EB83039B0079
:400F400018442946FFF7AEF8204638BD00207047002038BD002038BDEC81FF1F064BD3F8D4302BB1044BD3F8D420536C01335364014BD3F8D4007047EC81FF1F094A22F0DD
:400F80000702094BC3F838290020C3F83C0947F6F871C3F84419C3F84009516003F5146313607047F482FF1FB4F9FF1F70B50446FFF7FCFC264BD3F848392BB9FFF7DEFF5C
:400FC0000122234BC3F8482934B1083414F0070F02D024F007040834621E47F6F6739A422BD81B49D1F8383901F6381101E0194613465A68A24202D21A68002AF7D1154A03
:4010000093421CD00D6808351A680A605A68121B102A0CD91E1972605C6074680E4900E011460A685068A042FAD332600E6059680A4A13685B1A136002E0002500E00025B7
:40104000FFF740FD0DB900F0F7FB284670BD00BFB4F9FF1FF4020020EC0200201081FF1FD0B170B50546A0F10806FFF79FFC55F8044C0A4A00E01A4613685968A142FAD35F
:4010800045F8083C166055F8041C054A13680B441360FFF717FD70BD704700BFEC0200201081FF1F704700BF70B582B000268DF80760354601F010FE044601F005FE00EB54
:4010C0004400C0B2B04212D0032806D1022E04D19DF8073001338DF80730032806D1012E04D19DF80730013B8DF8073006460135ADB2312D0FD99DF807305BB1084B186807
:401100000DF1070100221346FFF7ACF900258DF8075000E000250320FFF73AFDCAE700BF3803002070B50646134B1D785878002101F09AFF012000F083FF45F0FC0001F0DE
:40114000EFFF05F00F0545F00C04204601F0E8FF44EA0614E4B244F0040001F0E1FF012000F06EFF04F0FB0001F0DAFF012000F067FF01F0B9FF70BD1481FF1F38B505469F
:40118000184B1C785878002101F06EFF012000F057FF44F0010001F0C3FF04F0FD0040F0010001F0BDFF002000F04AFF04F00D0343F00104204601F0B3FF44EA0514E4B250
:4011C00044F0040001F0ACFF012000F039FF04F0F90001F0A5FF012000F032FF01F084FF38BD00BF1481FF1F08B5012000F028FF08BD00BF10B50446FFF7F6FF2009FFF7A1
:40120000BDFF04F00F00FFF7B9FF10BD38B505460078012404E0FFF7EDFF285D0134E4B20028F8D138BD00BF10B50446FFF7DCFF2009FFF777FF04F00F00FFF773FF10BD37
:4012400008B5282000F0E6FE0320FFF76BFF052000F0E0FE0320FFF765FF0F2000F0DAFE0320FFF75FFF012000F0D4FE0220FFF759FF052000F0CEFE0620FFF7D5FF0E20E2
:40128000FFF7D2FF2C20FFF7CFFF0820FFF7CCFF0120FFF7C9FF0C20FFF7C6FF0320FFF7C3FF052000F0B6FE08BD00BF08B50C20FFF7BAFF0122014B1A7008BD0003002007
:4012C00008B5054B5B7823B9FFF7BAFF0122024B5A70FFF7EBFF08BD0003002008B5032819D8DFE800F002070D1381F08000FFF79BFF08BDA1F14000C0B2FFF795FF08BDEF
:40130000A1F16C00C0B2FFF78FFF08BDA1F12C00C0B2FFF789FF08BD002303E00021034AD1540133012BF9D9704700BF2803002008B530B901F0B8FC80F0010000F0010048
:4013400008BD012806D101F0B7FC10F0010F03D1012002E0002000E00020C0B208BD00BF10B50022324B1A6059E0C0B2FFF7E0FF2F4B18711B682F4AD45C052C4BD8DFE85F
:4013800004F003090E13273B003018BF0120294AD05440E000B10220264AD0543BE000B10320244AD05436E0234A52F82300234900221346FFF756F81D4B1A6803EB82016D
:4013C000002088601B7903B104231A498B5422E070B1174A02EB83029268322A00D905241449CC54124901EB830301329A6012E00021104AD1540EE00F4A52F823000F49D1
:4014000000221346FFF72EF8094B1A681B7903B1234608498B54064A136801331360044B18680128A1D90A20FFF7B2FB99E700BF0403002028030020300300201681FF1FF4
:4014400008B5012000F00AFD6420FFF7A1FB002000F004FD4FF46170FFF79AFBF1E700BFF0B589B0744B186806901B798DF81C309DF8180000F076FE9DF8190000F072FE03
:401480009DF81A0000F06EFE9DF81B0000F06AFE9DF81C0000F066FE6420FFF779FB674E306800214FF0FF320B46FFF7A1F8644C01A8216803F06CF800200146FFF70EFFC5
:4014C00001A8FFF7A3FE01200021FFF707FF5D48FFF79CFE2569236A1D44AD00306800210A460B46FEF7BEFF6420FFF751FB00273E46524B186800214FF0FF320B46FFF79E
:4015000077F8514B1868FFF7F3F850B14E4B18680DF1020100221346FFF76AF89DF902301D444A4B18680DF1030100221346FFF75FF8D0B10136F6B2032E00D9002644482D
:40154000FFF764FE3E4C01A854F8261003F020F800200146FFF7C2FE01A8FFF757FE04EB86042569236A1D44AD00BD4254D00024204629462EA3D3E9002302F0C9FC2346B4
:4015800014E0DA00C2F12004B2F1200E20FA02F201FA04F442EA040203D441FA0EFE42EA0E0208AC1C4404F8082C0133032BE8D96A1E284B9A4223D89DF8180000F0D2FD83
:4015C0009DF8190000F0CEFD9DF81A0000F0CAFD9DF81B0000F0C6FD9DF81C0000F0C2FD00F098FD10F0010FFAD02A46002D00DAEA1C01A81849921002F0A6FF2F4604E0E1
:4016000001AB164A07CA83E8070001200521FFF765FE01A8FFF7FAFD084B186800210A460B46FEF71FFF6420FFF7B2FA61E700BF4059730700000000804D00002C03002021
:401640001881FF1F8C4D00003803002030030020944D0000FE596202A84D0000B44D000000B583B0164B1B7813F0080F0FD0002001F094FA00B202A941F8040DE822104B1A
:401680001A70104B186800221346FEF779FF0C4B1B7813F0100F0FD0012001F07FFA00B202A941F8080DF022054B1A70054B586800221346FEF764FF03B05DF804FB00BF27
:4016C00084C700403C030020034B044ADA62044A9A63044ADA6370470080FF1F55010000E50100002902000000B585B0FFF7ECFF62B601F03FFBFFF7E3FDFFF7D3FCFFF7F7
:401700000BFE00F0FDFD0120FEF718FF384B1860082001210022FEF789FE364B1860012001460022FEF782FE334C2060012001460022FEF77BFE6060082004210022FEF793
:4017400075FE2E4C2060082004210022FEF76EFE606000200146FFF7C1FD2948FFF756FD01200021FFF7BAFD2648FFF74FFD4FF47A7000F04FFC0325009500240194029484
:4017800003942148214980222346FFF76FF800950194029403941E481E494FF480722346FFF764F800950194029403941A481B4980222346FFF75AF80223009301940294F0
:4017C0000394174817494FF400722346FFF74EF801230093019402940394134813494FF480622346FFF742F8FFF7BAF8FEE700BF2C03002038030020300300203C030020A3
:40180000C04D0000D04D000041140000DC4D0000A9100000E04D000061130000E44D000061140000E84D0000C9180000EC4D000008B5FEF7ADFCFEE708B5FEF7A9FCFEE735
:4018400038B5022001214FF48042134601F05CF8044600F0A1FB05460221FF22032300F0B5FB284645F6A0314CF2A07200F0C2FB2046294600F060FB2046012100F014FB4B
:4018800038BD00BF38B5022001214FF48042134601F058F8044600F07FFB05460221FF22032300F093FB284645F6A2314CF2A47200F0A0FB2046294600F03EFB20460121DC
:4018C00000F0F2FA38BD00BF10B582B0FFF7B8FFFFF7D8FF01F0CAF801F036FD00F014FE01F000F801F09CFC01F04AF92D4A137843F0030313700320012101F061F90C20EE
:40190000012101F05DF93020022101F059F9C020022101F055F90120014601F063F90220012101F05FF9204801F09CF900F0B0FE00F074FF1D4B1868FEF7DAFE0028F9D06F
:401940001A4B5868FEF7D4FE0028F3D0012001F079FC164C206801A900221346FEF748FE6068694600221346FEF742FE019B83F00204009B83F002031C44204601F0A0FF1A
:4019800001F002FD02F09CFA401000F17D04E4B2204600F06FFF204601F00AFC002001F051FCC7E798C70040611600003C030020FEE700BF08B5094B1A681044084BC31AFA
:4019C000B3F5805F02DC054B186005E002F07CFD0C2303604FF0FF32104608BD4881FF1F9003002008B5104E104D16E029686B68AC68002204E051F8040B43F8040B0432EF
:401A0000A242F8D1E868002203E0002143F8041B04328242F9D11035013E002EE6D102F059FDFFF761FEFEE7010000005455000008B5134A134B1A60134A136843F400735C
:401A4000136000230AE0032B03D8104A52F8231000E00F490F4A42F8231001332F2BF2D90D4B1A780D4B1A700A4A0D4B1A6000F047F900F0FFF900220A4B1A6008BD00BF30
:401A80000004FA050CED00E014ED00E000000000B11900000080FF1FBC7600400481FF1F08ED00E00081FF1FFEE700BFF0B40022174611E050F82760F3B226F0FF0608E049
:401AC00001EB420511F812406D78A5550132013BDBB2002BF4D101371B2FEBD9F0BC704738B50322304B1A801F2330490B7002310A802F4A137005222E4B1A801823063122
:401B00000B7002310A802C4A13704121023211800232137041F2110102321180023213700622264B1A705222A3F580731A70244B1B78DBB2234A137040F62132224B1A801A
:401B400041F25122023B1A80002419250CE01F4B1B7803F0010343EA440404F003044FF4F07001F001FC013D0DB1032CEFD115B90320FFF799FF164A4FF4807313800723E8
:401B80001370002313490B704820023108701370053213700222104B1A70104A137843F03F03137038BD00BF804000408240004086400040884000408E400040004300401D
:401BC0000F010049A14600402242004025420040044000400640004001400040A243004008B50A46002102F0A6FC08BDF8B5364B1B78DBB2354E3478E4B2354F3D78EDB2F8
:401C000003F00701334A11701B090132137044F00303337045F003033B7061222E4B1A7048F240022F331A801022C1331A70092103F26F631970402328490B7002310B70E9
:401C400006310B7002310B702021254801704FF0800E043080F800E00420DFF890C08CF800000CF1080C8CF800300CF1040C8CF800E0DFF87CE08EF800204FF0010E0CF163
:401C80004C0C8CF800E00CF10B0C8CF800E0DFF864E08EF800200EF1030E8EF80030114B18700333197005331A7003331970C0222D331A700A2000F0C3F93D7034704422EC
:401CC000094B1A70F8BD00BFCF010049F8460040F94600406E5800400D51004001590040205A0040205B004076580040285A0040385A0040C05A004008B502F011FC08BD4C
:401D000010B572B63E4C61232370FFF7E9FE012323703C4A137843F00403137000240CE0394963001A1952000A4423445B00C8589188FFF755FF0134E4B2072CF0D90024BB
:401D40000BE03149A3001A1952000A44106B516B8022FFF7D1FF0134E4B2002CF1D04FF090402A49FFF7A2FE0322294B1A8029480421FFF735FF28480421FFF731FF274AFA
:401D8000137843F0020313701032137843F002031370234C237843F040032370A2F58632513A137843F0100313701E481E490822FFF7A2FF1D481E490822FFF79DFF1D4899
:401DC0001D490822FFF798FF1C481D490822FFF793FF1C481C490A22FFF78EFF1B481C490822FFF789FF1B4A137843F008031370FFF7FCFE184821460E22FFF77DFF10BD8B
:401E000000480040E8460040444E00007000004848580040007600400876004003500140A043004002510040D4030048C2510040DC030048F2510040E403004812510040D6
:401E4000EC03004820510040F4030048325100400004004822430040B0430040044A137803F0FD03400000F00200184310707047205100400B4A7F2313708021517007E050
:401E8000DA0002F1804202F5F042013BDBB21370002BF5D1DB0003F1804303F5F04300221A7070474C81FF1F172815D831B103010A495A5C42F020025A5405E003010749CC
:401EC0005A5C02F0DF025A540001044A835C43F00103835400207047012070471070004017280BD80001064A835C03F0F10301F0070143EA410181540020704701207047DB
:401F00001070004041F6FF73994201D14FF4005141F6FF739A4201D14FF40052172808D8C00000F1804000F5EC408180C280002070470120704700BF172805D8034B03EB51
:401F40000010417200207047012070471070004017281BD810B4C00000F1804404F5EC44D201D2B201F07F01114321709DF804201201D2B203F00F03134363709DF80830A3
:401F800003F00F03A3700020E07001E0012070475DF8044B704700BF10B501F0EDF90A4B5B78182B0BD9084A1478013B5370E30003F1804303F5F0431B78137000E0FF2420
:401FC00001F0DEF9204610BD4C81FF1F10F0800F0CD111F4704F0BD1C00000F1804000F5F04001808270C37000207047012070470120704710F0800F08D1C00000F1804053
:4020000000F5F0408180C280002070470120704701BE704710B5044605E0084B186801F0A3F9A4F50044B4F5004FF6D8034B586800FB04F001F098F910BD00BF5481FF1F1E
:4020400008B5034B1B7A03FB00F001F08DF908BD5481FF1F70B504460E46074B1D681F2802D90020FFF7D4FF04F01F04103455F8240045F8246070BD08ED00E038B5044638
:402080000D46072902D90020FFF7C2FF1F2C02D90020FFF7BDFF04F01F0000F1604000F564406D01EDB2057038BD00BF0822014B1A60704700E100E00422014B1A60704775
:4020C00000E100E008B501F057F90B4A137843F0200313700232137843F010031370013A137843F01003137001F04AF9FFF7DEFFFFF7E2FF08BD00BF956500400822014B3F
:402100001A60704780E100E00422014B1A60704780E100E010B5FFF7F1FF064B1C78064A137803F009031C4300231370FFF7BEFF204610BD676500404D03002010B5FFF7BD
:40214000E3FF064B1B78064A147804F040041C4300231370FFF7B0FF204610BD666500405A03002010B504462A4B1A7802F0FF0312B1013BDBB200E00423274A1278D2B204
:402180009342F1D0FFF7BAFF244B1978244A137803F009030B4313701E4B1B781E4A1278DBB2934207D11E4B1B7813F0040F02D01C4B1C702BE0184A13780133DBB21370D6
:4021C0001378DBB2042B02D90022134B1A70124B1B78104A1278DBB293420ED10D4A13780133DBB213701378DBB2042B02D90022084B1A7001220C4B1A70074B1B78DBB2E1
:402200000A4AD4540A4A137843F004031370FFF74DFF10BD5603002058030020676500404D0300204565004055030020480300208765004008B501E00A4B1B780A4B1B78A0
:4022400013F0200FF8D101F097F8084B1A7842F001021A701A7802F0FE021A7001F090F808BD00BF55650040666500409565004010B50F22174B1A70174C082323600320DF
:402280000721FFF7FBFE03201449FFF7E3FE0423236002200721FFF7F1FE02201049FFF7D9FEFFF7C7FF00240E4B1C700E4B1C700E4B1C700E4B1C700E4B1C700E4B1C7051
:4022C000FFF728FFFFF73AFF0C4B1C702022013B1A7010BD8565004080E100E01D230000B9230000440300205903002057030020550300205603002058030020876500405E
:4023000008B5054B1B7823B9FFF7B2FF0122024B1A70FFF7D7FE08BD1403002028E01E4B19781E4A137803F009030B431370137813F0040F23D01A4B1B7813F0FF0F0CD17A
:40234000184A13780133DBB213701378DBB2042B06D90022134B1A7002E00022104B1A70104B1B78DBB2104AD35CDBB20F4A13700C4B1B780E4A1278DBB29342CFD1094B84
:402380001B780B4A1278DBB2934204D1094A137803F0FB0313707047676500404D030020550300205603002048030020456500405803002087650040204B1A7820490B7819
:4023C00003F0400313430B7031E01E4B1A78D2B21D490B780133DBB20B700B78DBB2042B02D90021184B1970174B1B7817490978DBB28B420ED115490B780133DBB20B70CE
:402400000B78DBB2042B02D90021104B197001210F4B19700C4B1B78DBB20E49CA54074B1A7807490B7803F0400313430B70044B1B7813F0200FC8D1704700BF66650040A0
:402440005A0300205565004057030020590300204403002050030020054A137843F0010313701032137843F001031370704700BFA74300400F490B7803F0FC0200F0030398
:4024800013430B7001280AD10B4B1B78DBB20B4A13700B4B1B78DBB2013213707047094B1B78DBB2054A1370074B1B78DBB201321370704740580040100100493046004009
:4024C00014010049AD010049B501004908B50120FFF7D0FF0B4B1A7802F0DF021A701A7802F0FB021A701A7842F008021A7003F287231A7802F0E7021A701A7842F01002D1
:402500001A7008BD4058004008B5054B1B7823B9FFF7DCFF0122024B1A70FFF79DFF08BD1503002008B50A280FD00C2802D0082806D102E04FF4805209E04FF4807206E0C8
:402540000020FFF765FD002201E04FF480620021094B198042F2107303FB02F303F6C413064A82FB0302DB17C3EBE223044A1360044B198008BD00BF5C030020AD8BDB6895
:40258000600300205E03002010B500F0F5FE04461E4A137843F0010313701032137843F001031370193A137843F0040313701032137843F00403137002F5AA52113213780B
:4025C00043F0030313700422114B1A70013B1A7802F0BF021A701A7842F003021A700E22053B1A700222A3F597530C3B1A70094A137843F0080313700A20FFF721FD012244
:40260000054B1A60204600F0BBFE10BDAB43004006590040275B004080E200E010B504460A280DD00C2802D0082804D101E0C42207E0442205E00020FFF7EAFCC42200E03F
:402640008422034B1A702046FFF76CFF10BD00BF0259004008B5102000F012FB00200721FFF70CFD00200749FFF7F4FC064A137843F0060313700C20FFF7D0FF0022034B6C
:402680001A8008BDAD260000015900406403002008B5054B1B7823B9FFF7DCFF0122024B1A70FFF771FF08BD16030020704700BF08B50A280FD00C2802D0082806D102E0E9
:4026C0004FF4805209E04FF4807206E00020FFF79FFC002201E04FF480620021094B198042F2107303FB02F303F6C413064A82FB0302DB17C3EBE223044A1360044B198040
:4027000008BD00BF70030020AD8BDB68680300206C03002038B500F02FFE04461E4A137843F0020313701032137843F002031370193A137843F0080313701032137843F0C4
:402740000803137002F5AA521932137843F0030313700422114B1A70013B1A7802F0BF021A701A7842F003021A700E22053B1A700225A3F59753123B1D70094A137843F04E
:40278000080313700A20FFF75BFC064B1D60204600F0F6FD38BD00BFAB4300400E5900402F5B004080E200E010B504460A280DD00C2802D0082804D101E0C42207E044222B
:4027C00005E00020FFF724FCC42200E08422034B1A702046FFF76CFF10BD00BF0A59004008B5102000F056FA01200721FFF746FC01200749FFF72EFC064A137843F006032E
:4028000013700C20FFF7D0FF0022034B1A8008BD39280000095900406E03002008B5054B1B7823B9FFF7DCFF0122024B1A70FFF771FF08BD17030020704700BF054A1378C5
:4028400043F0010313701032137843F001031370704700BFA8430040054B1A7802F0FD021A701A7800F0020010431870704700BF20580040014B1870704700BF805B004027
:40288000064B1B78C3F3810303F19243063393F82031DBB2024A1370704700BF205800400846004008B5064B1A7802F0F3021A701A7800F00C0010431870FFF7E1FF08BDEF
:4028C0002058004010B50024054B1C7001331C700420FFF7E7FF2046FFF7BEFF10BD00BF2058004008B5074B1B7823B9FFF7EAFF0122044B1A70FFF7A1FF7D20FFF7BAFF03
:4029000008BD00BF18030020F0B583B086460F4616461D460A4C0023237000930193184671463A46FFF714FB207831462A46FFF7E9FA20780221FFF7D3FA207803B0F0BD85
:402940006481FF1FF0B583B086460F4616461D460A4C0120207000230093019371463A46FFF7F6FA207831462A46FFF7CBFA20780221FFF7B5FA207803B0F0BD6581FF1F98
:40298000084A137843F0040313701032137843F00403137002F5A5521E32137843F0800313707047A9430040044A137803F0FC0300F0030018431070704700BF095800405E
:4029C00010B487B00446194B03AA1868596803C2197A11706A4653F80C0F596803C21B7A1370082C1ED812490B7803F08003DBB20B70087806AB1C4414F80C3C14F8182CF8
:402A0000920002F00C02134303430B70094A137803F0F3031370117814F8183C0B4343F00C03137007B05DF8044B7047804E00000A5800400958004008B50C22084B1A70BC
:402A4000084A137843F0200313700022064B1A700120FFF7B5FF0120FFF7A6FF08BD00BF08580040095800400A58004008B5054B1B7823B9FFF7E0FF0122024B1A70FFF774
:402A80007FFF08BD19030020F8B5254A137843F01003137002F50342DA32137803F0FE0313703F2308321370043213701D4D4FF480741D482946224601F032FD1B48294636
:402AC000224601F02DFD1A481A49224601F028FD4FF4007418481949224601F021FD18481849224601F01CFD174C184E04F14007354620686168A268E3680FC510342E463B
:402B0000BC42F5D10024124B1C70032000F07AF8204600F07FF8F8220E4B1A70F8BD00BFA6430040D853000000C4004000C5004000C60040984E000000C00040D85100008F
:402B400000C20040D84F0000984F000000C700408CC7004084C70040084A137843F0100313701032137843F01003137002F50342CA32137843F0010313707047A643004087
:402B800008B5054B1B7823B9FFF77EFF0122024B1A70FFF7E1FF08BD1A03002018B9064B188880B27047012803D1044B188880B270470020704700BFA9C70040ADC70040DA
:402BC0008B00DBB219430B01DBB21943044B1A7822EA00021A701A780140114319707047B0C70040012904D1054B1A7810431870704721B9024A137823EA0000107070476D
:402C0000B4C7004000F01F00014B1870704700BF98C7004000F00F00014B1870704700BF9CC70040024B1B68C3F8B000704700BF08ED00E04001C0B2014B1870704700BF72
:402C40001CE400E04FF08052014B1A60704700BF00E100E04FF08052014B1A60704700BF80E100E010B50446FFF7F4FF2046FFF7D9FF0720FFF7DEFFFFF7E4FF10BD00BF4D
:402C8000034B1A7800F0F80010431870704700BF8A400040034B1A7800F0F80010431870704700BF8E400040024B1878C0F3C000704700BF21510040024B1878C0F30010B2
:402CC000704700BF21510040024B1878C0F38010704700BF21510040024B1878C0F34010704700BF2151004010B50222114B1A7081220E3B1A70082202331A702A2211339E
:402D00001A70002401331C704FF400420A4B1A600F200721FFF7B2F90F200849FFF79AF91022074B1A70074B1C70074B1C70074B1C7010BDD649004080E100E09D2D0000F1
:402D40007203002076030020780300207403002008B500F011FB064A137843F0040313701032137843F00403137000F009FB08BDA543004008B5074B1B7823B9FFF7B4FF10
:402D80000122044B1A70FFF7E3FF4FF40042024B1A6008BD1B03002000E100E038B5A44B1C78E4B2A34B1B7813F0400F00F0378114F0010F00F01B819E4B1B78453B052BE2
:402DC00000F21281DFE813F006008200100110010600DE0004F0DF0504F00A04082C42D1944B1B78DBB2452B35D1934B1B7813F0FF0F10D0914B1B681B78DBB2904A137022
:402E000004228B4B1A7001228E4B1A704622894B1A702C46EBE08C4B1B7813F0020F0DD08A4A137843F00A0313706022814B1A704FF40042864B1A602C46D8E0854A1378DA
:402E400043F0100313701022834B1A700422023B1A702C46CBE00022754B1A704A22754B1A702C46C3E00A2C2BD1784A137843F0A0031370744B1B7813F0020F14D06D4BE4
:402E80001B7813F0080F01D0092300E00A236F4A11780B4313706022664B1A704FF400426B4B1A602C46A2E06A4A137843F0100313701022684B1A700422023B1A702C460C
:402EC00095E00020FFF7A4F82C4690E014F0020F35D15C4B1B78584A1278DBB2934210D2584A1378DBB255490968CB5CDBB254490B7004214E4B197013780133DBB2137059
:402F000075E0514B1B7813F0020F0CD04F4A137843F00A0313706022464B1A704FF400424B4B1A6063E04B4A137843F0100313701022494B1A700422023B1A7057E0424BD7
:402F40001B7813F0020F0CD0404A137843F09A0313706022374B1A704FF400423C4B1A6045E03C4A137843F01003137010223A4B1A700422023B1A70344A137843F0900356
:402F8000137034E0354A1378DBB2354908682C490978C9B2C15413780133DBB213701378304A1278DBB2934203D21022204B1A701DE0254B1B7813F0020F0CD0234A1378CB
:402FC00043F00903137060221A4B1A704FF400421F4B1A600BE01F4A137843F0100313700022134B1A7002E00020FFF711F814F0200F1CD00F4B1B7813F0080F01D0012367
:4030000000E00223114A11780B431370114A137803F0EF0313701022064B1A7038BD054B1B7813F0100F02D11022024B1A7038BDD749004072030020770300207C03002082
:40304000D849004074030020750300207603002080E100E0D6490040D94900407803002080030020840300201A4B1B78DBB2102B29D1194B1B7813F0080F26D14FF40042F9
:40308000164B1A604000C0B229B140F001004922104B1A7002E045220E4B1A70104B1870012201331A700F4B1B7813F0010FFAD00C4B1B7803F00A030A2B08D11022054BF4
:4030C0001A700320704702207047012070470020704700BF72030020D949004080E100E0D8490040D74900400A4B1B7813F0040F0ED01023074A13700421023A1170064A17
:403100001370064B1B7813F0210FFAD00020704702207047D949004072030020D7490040114B1B7813F0040F1BD0104B18700422013B1A7046220E4B1A700E4B1B7813F02B
:40314000010FFAD00B4B1B7813F0020F04D16022074B1A70002070476022054B1A70032070470220704700BFD9490040D849004072030020D7490040054A137843F00203D6
:4031800013701032137843F002031370704700BFA8430040054B1A7802F0FD021A701A7800F0020010431870704700BF24580040014B1870704700BF815B0040064B1B782B
:4031C000C3F3810303F19243063393F83031DBB2024A1370704700BF245800400946004008B5064B1A7802F0F3021A701A7800F00C0010431870FFF7E1FF08BD24580040B9
:4032000010B50024054B1C7001331C700420FFF7E7FF2046FFF7BEFF10BD00BF2458004008B5074B1B7823B9FFF7EAFF0122044B1A70FFF7A1FF7D20FFF7BAFF08BD00BFE9
:403240001C030020044A137803F0FB03800000F0040018431070704710510040084A137843F0080313701032137843F00803137002F5A5521E32137843F0800313707047B9
:40328000A9430040044A137803F0FC0300F0030018431070704700BF0D58004010B487B00446194B03AA1868596803C2197A11706A4653F80C0F596803C21B7A1370082CD6
:4032C0001ED812490B7803F08003DBB20B70087806AB1C4414F80C3C14F8182C920002F00C02134303430B70094A137803F0F3031370117814F8183C0B4343F00C03137058
:4033000007B05DF8044B7047D85400000E5800400D58004008B50C22084B1A70084A137843F0200313700022064B1A700120FFF7B5FF0120FFF7A6FF08BD00BF0C580040DA
:403340000D5800400E58004008B5054B1B7823B9FFF7E0FF0122024B1A70FFF77FFF08BD1D030020000000000230800803D000BF01380046FCD17047EFF3108072B670479E
:4033800080F31088704700BF2DE9F0478AB006460F4600F04FF8DFF898A004469AF900300D4601330FD03046394600F009F950B14FF000084FF000093046394642464B4626
:4033C00000F056FD20B9204629460AB0BDE8F08716499AF8004001220023CDE90467CDE9026701910092089364B9CDE90689684600F012F980B1089B9BB9DDE906010AB0D6
:40340000BDE8F0874046494642464B4600F0E8FB022CCDE90601EAD101F056F821230360E9E701F051F8089B0360E6E7F05400006681FF1F2DE9F041604E0C46B6460E402C
:40344000764505460B4600F098800029024676DD5FEA215E00F08180AEF2FF3EC3F313031EF0010F43F480135ED100273C46D10F01EB43034FEA6E0E520016204FF4001164
:4034800065189D424FEAD2764FEA420202DC5B1B6C180F44013806EB43034FEA5101EFD1844620264FF000410AE0A34220D0D50F013E4FEA510105EB43034FEA420220D02C
:4034C0009C420CEB0105F0DA002D05EB010C09DBA0461B1B954288BF03F1FF334446521B0844E4E7BCF1000FF2DB04F10108F0E7954217D8002D05EB010C48DB9846002339
:40350000ECE7134315D140087B1003F17F5303F50013FA0703EB0E57394648BF40F00040BDE8F0811C46C2E7D10F01EB430352009BE7411C31D000F001031844E3E721F0FE
:4035400000460643ECD079BB8E46D30AAEF1150E5205002BF9D0DC0222D400215B00D80201F10101FAD5C1F10100C1F1200422FA04F4234386448A406EE702460B4600F0AC
:4035800005FA2A46234600F04FF8BDE8F081BCF1000FAADAA0460023A0E701373046B3E7202401200021E2E702460B4600F03AF802460B4600F014FBB2E700BF0000F07F65
:4035C00010B431F0004408D0114BA1F580129A4208D804205DF8044B704718B902205DF8044B704701F1FF41094B01F5E0019942EFD9B4F5801F01D20320EBE7054B9C427F
:4036000001D00020E6E7B0FA80F04009E2E700BFFFFFDF7F0000F07F0020704781F0004102E000BF83F0004330B54FEA41044FEA430594EA050F08BF90EA020F1FBF54EA52
:40364000000C55EA020C7FEA645C7FEA655C00F0E2804FEA5454D4EB5555B8BF6D420CDD2C4480EA020281EA030382EA000083EA010180EA020281EA0303362D88BF30BD53
:4036800011F0004F4FEA01314FF4801C4CEA113102D0404261EB410113F0004F4FEA03334CEA133302D0524263EB430394EA050F00F0A780A4F10104D5F1200E0DDB02FAC4
:4036C0000EFC22FA05F2801841F1000103FA0EF2801843FA05F359410EE0A5F120050EF1200E012A03FA0EFC28BF4CF0020C43FA05F3C01851EBE37101F0004507D54FF057
:40370000000EDCF1000C7EEB00006EEB0101B1F5801F1BD3B1F5001F0CD349085FEA30004FEA3C0C04F101044FEA445212F5800F80F09A80BCF1004F08BF5FEA500C50F12A
:40374000000041EB045141EA050130BD5FEA4C0C404141EB010111F4801FA4F10104E9D191F0000F04BF01460020B1FA81F308BF2033A3F10B03B3F120020CDA0C3208DDFE
:4037800002F1140CC2F10C0201FA0CF021FA02F10CE002F11402D8BFC2F1200C01FA02F120FA0CFCDCBF41EA0C019040E41AA2BF01EB0451294330BD6FEA04041F3C1CDA67
:4037C0000C340EDC04F11404C4F1200220FA04F001FA02F340EA030021FA04F345EA030130BDC4F10C04C4F1200220FA02F001FA04F340EA0300294630BD21FA04F02946BD
:4038000030BD94F0000F83F4801306BF81F480110134013D4EE77FEA645C18BF7FEA655C29D094EA050F08BF90EA020F05D054EA000C04BF1946104630BD91EA030F1EBF96
:403840000021002030BD5FEA545C05D14000494128BF41F0004130BD14F580043CBF01F5801130BD01F0004545F0FE4141F470014FF0000030BD7FEA645C1ABF194610460C
:403880007FEA655C1CBF0B46024650EA013406BF52EA033591EA030F41F4002130BD00BF90F0000F04BF0021704730B54FF4806404F132044FF000054FF0000150E700BF58
:4038C00090F0000F04BF0021704730B54FF4806404F1320410F0004548BF40424FF000013EE700BF42004FEAE2014FEA31014FEA02701FBF12F07F4393F07F4F81F06051EC
:40390000704792F0000F14BF93F07F4F704730B54FF4607401F0004521F0004120E700BF50EA010208BF704730B54FF000050AE050EA010208BF704730B511F0004502D58F
:40394000404261EB41014FF4806404F132045FEA915C3FF4DCAE4FF003025FEADC0C18BF03325FEADC0C18BF033202EBDC02C2F1200300FA03FC20FA02F001FA03FE40EA68
:403980000E0021FA02F11444C1E600BF70B54FF0FF0C4CF4E06C1CEA11541DBF1CEA135594EA0C0F95EA0C0F00F0DEF82C4481EA030621EA4C5123EA4C5350EA013518BF05
:4039C00052EA033541F4801143F4801338D0A0FB02CE4FF00005E1FB02E506F00042E0FB03E54FF00006E1FB03569CF0000F18BF4EF0010EA4F1FF04B6F5007F64F5407446
:403A000004D25FEA4E0E6D4146EB060642EAC62141EA55514FEAC52040EA5E504FEACE2EB4F1FD0C88BFBCF5E06F1ED8BEF1004F08BF5FEA500E50F1000041EB045170BDCB
:403A400006F0004646EA010140EA020081EA0301B4EB5C04C2BFD4EB0C0541EA045170BD41F480114FF0000E013C00F3AB8014F1360FDEBF002001F0004170BDC4F10004B3
:403A8000203C35DA0C341BDC04F11404C4F1200500FA05F320FA04F001FA05F240EA020001F0004221F0004110EBD37021FA04F642EB06015EEA430E08BF20EAD37070BD79
:403AC000C4F10C04C4F1200500FA04F320FA05F001FA04F240EA020001F0004110EBD37041F100015EEA430E08BF20EAD37070BDC4F1200500FA05F24EEA020E20FA04F369
:403B000001FA05F243EA020321FA04F001F0004121FA04F220EA020000EBD3705EEA430E08BF20EAD37070BD94F0000F0FD101F00046400041EB010111F4801F08BF013C3B
:403B4000F7D041EA060195F0000F18BF704703F00046520043EB030313F4801F08BF013DF7D043EA0603704794EA0C0F0CEA135518BF95EA0C0F0CD050EA410618BF52EA34
:403B80004306D1D181EA030101F000414FF0000070BD50EA410606BF1046194652EA430619D094EA0C0F02D150EA013613D195EA0C0F05D152EA03361CBF104619460AD193
:403BC00081EA030101F0004141F0FE4141F470014FF0000070BD41F0FE4141F4780170BD70B54FF0FF0C4CF4E06C1CEA11541DBF1CEA135594EA0C0F95EA0C0F00F0A7F8E5
:403C0000A4EB050481EA030E52EA03354FEA013100F088804FEA03334FF0805545EA131343EA12634FEA022245EA111545EA10654FEA00260EF000419D4208BF964244F178
:403C4000FD0404F5407402D25B084FEA3202B61A65EB03055B084FEA32024FF480104FF4002CB6EB020E75EB030E22BFB61A754640EA0C005B084FEA3202B6EB020E75EB13
:403C8000030E22BFB61A754640EA5C005B084FEA3202B6EB020E75EB030E22BFB61A754640EA9C005B084FEA3202B6EB020E75EB030E22BFB61A754640EADC0055EA060E26
:403CC00018D04FEA051545EA16754FEA06164FEAC30343EA52734FEAC2025FEA1C1CC0D111F4801F0BD141EA00014FF000004FF0004CB6E711F4801F04BF01430020B4F1F7
:403D0000FD0C88BFBCF5E06F3FF6AFAEB5EB030C04BFB6EB020C5FEA500C50F1000041EB045170BD0EF0004E4EEA113114EB5C04C2BFD4EB0C0541EA045170BD41F4801103
:403D40004FF0000E013C90E645EA060E8DE60CEA135594EA0C0F08BF95EA0C0F3FF43BAF94EA0C0F0AD150EA01347FF434AF95EA0C0F7FF425AF104619462CE795EA0C0F9C
:403D800006D152EA03353FF4FDAE1046194622E750EA410618BF52EA43067FF4C5AE50EA41047FF40DAF52EA43057FF4EBAE12E74FF0FF3C06E000BF4FF0010C02E000BF16
:403DC0004FF0010C4DF804CD4FEA410C7FEA6C5C4FEA430C18BF7FEA6C5C1BD001B050EA410C0CBF52EA430C91EA030F02BF90EA020F0020704710F1000F91EA030F58BF3D
:403E0000994208BF90422CBFD8176FEAE37040F0010070474FEA410C7FEA6C5C02D150EA013C07D14FEA430C7FEA6C5CD6D152EA033CD3D05DF8040B704700BF844610464F
:403E400062468C461946634600E000BF01B5FFF7B7FF002848BF10F1000F01BD4DF808EDFFF7F4FF0CBF012000205DF808FB00BF4DF808EDFFF7EAFF34BF012000205DF8DA
:403E800008FB00BF4DF808EDFFF7E0FF94BF012000205DF808FB00BF4DF808EDFFF7CEFF94BF012000205DF808FB00BF4DF808EDFFF7C4FF34BF012000205DF808FB00BFA0
:403EC0004FEA410212F5001215D211D56FF47873B3EB625212D94FEAC12343F0004343EA505311F0004F23FA02F018BF404270474FF00000704750EA013005D111F000408B
:403F000008BF6FF0004070474FF00000704700BF7BB972B90029BEBF00204FF0004106E008BF00281CBF6FF000414FF0FF3000F03BB882B0EC462DE9005000F005F8DDF8DD
:403F400004E002B00CBC70472DE9F041069C904606460F461D4600F029F808FB01FCA8FB002300FB05C5B21A2B4467EB03038646C4E90023BDE8F0812DE9F843089E174634
:403F8000804689461D4600F067F900FB05F3A0FB074507FB0137B8EB04043D4469EB0505C6E90045BDE8F883704700BF00292DE9F043C0F2A8800026002BC0F29E8081465D
:403FC0008E4690469C46174604460D46002B3DD18A4259D9B2FA82F33BB1C3F120029D4020FA02F29F4015439C40390CB5FBF1F01FFA87FE01FB10550EFB00F3220C42EAF8
:404000000545AB4209D9ED1900F1FF3280F00B81AB4240F2088102383D44ED1AB5FBF1F301FB13550EFB03FEA4B244EA0545AE4508D9ED1903F1FF3280F0F780AE4540F2FE
:40404000F480023B43EA0043002203E08B420FD900221346341C18BF012460424FF0000565EB45015840514000196941BDE8F083B3FA83F2002A40F089808B4202D3804532
:4040800000F2E2800123E5E712B90123B3FBF2F7B7FA87F8B8F1000F3BD1ED1B4FEA174C1FFA87FE0122B5FBFCF00CFB10550EFB00F3210C41EA0545AB4207D9ED1900F173
:4040C000FF3102D2AB4200F2C3800846ED1AB5FBFCF30CFB13550EFB03FEA4B244EA0545AE4507D9ED1903F1FF3102D2AE4500F2AD800B4643EA0043ACE752426FEA06062F
:4041000063EB43035BE7404261EB41014FF0FF3652E707FA08F7C8F1200225FA02F34FEA174CB3FBFCF11FFA87FE0CFB113324FA02F205FA08F50EFB01F92A43100C40EA19
:404140000343994504FA08F407D9DB1901F1FF3078D2994576D902393B44C9EB0303B3FBFCF00CFB10330EFB00F592B242EA03439D4207D9DB1900F1FF325FD29D425DD98E
:4041800002383B445D1B40EA01428CE7C2F1200328FA03F10CFA02FC41EA0C0C4FEA1C402EFA03F1B1FBF0F51FFA8CF700FB151129FA03F30EFA02FE07FB05F943EA0E0E52
:4041C0004FEA1E4343EA0141894508FA02F808D911EB0C0105F1FF3332D2894530D9023D6144C9EB0101B1FBF0F300FB131107FB03F71FFA8EFE4EEA014E774508D91EEBE9
:404200000C0E03F1FF3117D2774515D9023BE64443EA0543A3FB0889C7EB0E0ECE4509D305D0002216E71046F7E613460AE794404445F6D2013BF4E70B46E9E71046A1E739
:404240001D46CEE7014688E7134603E7023B51E702383D443AE700BF2DE9F043002B44D18A42154604464FD9B2FA82F70E464FB1C7F12003B94020FA03F602FA07F50E4352
:4042800000FA07F42F0CB6FBF7F01FFA85FE07FB10620EFB00F1260C46EA0243994209D95B1900F1FF3280F0EE80994240F2EB8002382B44591AB1FBF7F307FB13110EFBFB
:4042C00003FEA4B244EA01418E4508D9491903F1FF3280F0DA808E4540F2D780023B43EA004000263146BDE8F0838B4247D8B3FA83F6002E48D18B4202D3824200F2CF8037
:4043000001203146BDE8F08312B90125B5FBF2F5B5FA85FCBCF1000F78D1491B2F0C1FFA85FE0126B1FBF7F007FB10110EFB00F2230C43EA01418A4207D9491900F1FF332E
:4043400002D28A4200F2BC801846891AB1FBF7F307FB13110EFB03FEA4B244EA0142964508D9521903F1FF3180F09180964540F28E80023B43EA00403146BDE8F08300269B
:4043800030463146BDE8F083C6F1200422FA04F5B3402B4321FA04F74FEA1348B7FBF8FC1FFA83F908FB1C7720FA04FE01FA06F509FB0CF44EEA05054FEA154E4EEA0747B2
:4043C000BC4202FA06F204D9FF180CF1FF3168D38C463F1BB7FBF8F408FB147709FB04F9ADB245EA0741894504D9C91804F1FF355DD32C4644EA0C44A4FB0223C9EB0101F1
:40440000994249D345D0204600266BE7CCF1200405FA0CF521FA04F32A0CB3FBF2F61FFA85FE02FB163820FA04F701FA0CF10EFB06F90F433C0C44EA0843994500FA0CF4EC
:4044400007D95B1906F1FF3138D2994536D9023E2B44C9EB0303B3FBF2F002FB10330EFB00F1BFB247EA0343994207D95B1900F1FF3721D299421FD902382B441746591A1A
:4044800040EA06464EE7104614E7134627E70B4670E7B0409042B6D2601E002622E7304620E7BC4294D9ACF1020C1F4491E789459FD9023C19449DE73846DFE70E46C8E7E0
:4044C0000238294441E700BF014B1868704700BFC881FF1F0E4B70B51E460E4C0025E41AA410A54204D056F8253098470135F8E701F01EF8084B094C1E46E41AA410002536
:40450000A54204D056F8253098470135F8E770BD3C5500003C5500003C5500004455000010B5431E0A44914204D011F8014B03F8014FF8E710BD03460244934202D003F818
:40454000011BFAE7704700000EB400B54FF402719CB0ADF814106FF00041049107914FF6FF711DABADF81610084953F8042B02900690086802A9019300F06CF8029B00227B
:404580001A701CB05DF804EB03B07047C881FF1F034611F8012B03F8012B002AF9D170472DE9F0478E688246B3420C469046994640D38A8912F4906F3AD0256809690223E0
:4045C0006F1A656905EB450595FBF3F57B1C4B449D4238BF1D4653050FD5294600F030FB064698B121693A46FFF79AFFA38923F4906343F08003A38113E02A4600F076FB8B
:40460000064670B95046216900F0D6FA0C23CAF80030A3894FF0FF3043F04003A381BDE8F08726613E4426604E466561ED1BA560B14500D24E4632462068414600F0A0FA51
:40464000A36800209B1BA36023681E442660BDE8F08700002DE9F0439DB003938B8906461C060D4690460CD50B6953B9402100F0E7FA2860286110B90C233360CCE04023B2
:404680006B610023099320238DF8293030238DF82A3043461C4613F8012B1AB9B4EB08090FD002E0252AF5D1F8E73046294642464B46FFF775FF013000F0A980099B4B44DD
:4046C00009932378002B00F0A28000234FF0FF3204930793059206938DF853301A9304F101084446DFF8489121784846052200F039FA08F10108049B30B1C9EB000001229B
:40470000824013430493ECE7D80644BF20228DF85320190744BF2B228DF8532022782A2A02D0079923460EE0039A0134111D12680391002ABBBF524243F00203079207920D
:40474000B8BF04930AE01C4622780133303A092A03D80A2000FB0121F5E7079123782E2B1AD163782A2B0AD1039B02341A1D1B680392002BB8BF4FF0FF3305930CE0611CBD
:4047800000220C4623780131303B092B03D80A2000FB0232F5E70592DFF8988021784046032200F0DFF938B1049AC8EB00004023834013430493013421781A48062204F1DD
:4047C00001088DF8281000F0CDF988B1164B33B9039B073323F007030833039313E003AB0093304604A92A46104BAFF3008007E003AB0093304604A92A460C4B00F092F821
:40480000421C074603D0099B3B44099341E7AB895B0601D4099801E04FF0FF301DB0BDE8F08300BF0455000000000000A1450000FA540000005500002DE9F84391461F46A6
:404840008A680B6906469342B8BF1346C9F8003091F843200C46DDF8208012B10133C9F800302368990642BFD9F800300233C9F80030256815F006051CD094F843302268F1
:40488000003318BF012392061FD5E118302081F843005A1C94F845102244023382F8431013E03046394604F119020123C047013007D00135E368D9F800209B1A9D42F0DB7E
:4048C000DBE74FF0FF30BDE8F8833046394604F14302C0470130F4D02268D9F80050E36802F00602042A08BF5D1B2269A3680CBF25EAE57500259342C4BF9B1AED184FF0A0
:404900000009A9450ADA3046394604F11A020123C0470130D5D009F10109F2E70020BDE8F88300002DE9FF410C461746227E98466E2A06460A9B01F1430100F0B08012D82C
:40494000632A23D00AD8002A00F0BD80582A40F0CC8084F84520DFF804E257E0642A1ED0692A1CD0C1E0732A00F0B18009D86F2A2ED0702A40F0B980226842F02002226076
:404980003FE0752A24D0782A3BD0AEE01A6804F14205111D1960136884F84230A9E020681A6810F0800F02D0101D186008E010F0400F02F10400186002D0B2F9003000E070
:4049C0001368002B3EDA2D225B4284F8432039E020681A6810F0800F02D0101D186007E010F0400F02F10400186001D0138800E01368227EDFF864E16F2A0CBF08220A2223
:404A00001CE07822DFF858E184F845202268186812F0800F00F104051D6003D1550601D5038800E00368D00744BF42F0200222601BB9226822F0200222601022002084F870
:404A4000430002E0DFF814E10A226568002DA8BF2068A560A4BF20F00400206003B965B10D46B3FBF2F002FB10331EF8033005F8013D03460028F4D100E00D46082A0BD144
:404A80002368DA0708D5236962689A42DEBF302305F8013C05F1FF35491B21612EE025681A6815F0800F606903D0151D1D60136808E015F0400F02F104051D60136801D0C9
:404AC000188000E01860002323610D4616E01A68111D1960156800212846626800F042F808B1401B6060636804E004F1420584F8422001232361002384F84330CDF8008011
:404B00003046214603AA3B46FFF796FE013002D14FF0FF301FE0304639462A462369C0470130F5D023689B0705D4E068039B9842B8BF18460FE00025E368039A9B1A9D4256
:404B4000F3DA3046394604F119020123C0470130DED00135F0E704B0BDE8F0810B5500001C55000010B5C9B202449042034605D01C7801308C42F8D1184610BD002010BDC7
:404B8000814210B501EB020301D3421E0BE09842FBD28118D21AD34204D013F8014D01F8014DF8E710BD994204D011F8014B02F8014FF8E710BD000030B500293CD051F89F
:404BC000042C0B1F1D49002AB8BF9B180A680C4612B95A600B6030BD93420DD219685818904201BF5A5852181A60426823605A6030BD994203D80A4651680029F9D1146831
:404C000015199D420AD11B682344D0188842136012D10868034413604B680CE002D90C23036030BD1C681819884201BF08684968001918605960536030BD00BF2403002027
:404C400070B5CC1C24F0030408340C2C38BF0C24002C064603DA0C233360002070BD8C42F9D3204A136810461946A1B10A68121B0ED40B2A03D90A608B188C501FE08B4240
:404C80000BBF5A684A6802605A6018BF0B4616E00B464968E9E7144D2B681BB9304600F04BF828603046214600F046F8421C0346D1D0C51C25F0030585420AD11C6003F14E
:404CC0000B001A1D20F00700821A0AD05142995070BD3046E91A00F02FF80130BBD02B46ECE770BD2403002020030020F8B5074615460E4621B91146BDE8F840FFF7A0BFE9
:404D00001AB9FFF759FF2846F8BD00F025F8A8420ED238462946FFF793FF044650B131462A46FFF7FDFB38463146FFF745FF01E03046F8BD2046F8BD38B5064C00230546C0
:404D400008462360FCF736FE431C02D1236803B12B6038BD8803002051F8040C0028BEBF091851F8043CC01804387047000000003CF2FF7F0100000049444C450000000061
:404D8000F8084C0700000000759B0000467265713A000000202020202020202020202020202020200000000025376C645B487A5D000000004572726F7220205B487A5D005E
:404DC00053696D706C655F5344525F52780000006765742073746172746564004C454400524F54004B45590044445200524144494F0000004E484B31202020202020202073
:404E000020202020000000004E484B32202020202020202020202020000000005442432020202020202020202020202000000000424541434F4E20202020202020202020FE
:404E400000000000C8490040190040510040300000000140001000140140800000150140000700400140000A004C0140000200500140200080140140540300488000000085
:404E800001112131416153637300000008090101050707040400000021F8050144F80B4067F81B8081F80501A6F81901C2F807018561922109F9290121F9050188A2A2212A
:404EC00000000000000000000000000000000000000000000000000000000000000000000000000000000000000000000000000000000000000000000000000000000000B2
:404F00000000000000000000000000000000000000000000000000000000000000000000000000000000000000000000000000000000000000000000000000000000000071
:404F40000000000000000000000000000000000000000000000000000000000000000000000000000000000000000000000000000000000000000000000000000000000031
:404F8000000000000000000000000000000000000000000000000000BF1F00000000000000000000FF3F000040200000402000000000000000000000000000000000000015
:404FC000000000000000000000000000000000000000000000000000AAFEFF0067FEFF00EBFDFF0069FDFF0022FDFF0071FDFF00C7FEFF00B3010000E1060000190F000048
:40500000391B0000302C0000F042000061600000538500006AB200000DE8000056260100036D01006EBB010087100200D46A020076C802003E270300B884030048DE0300E3
:40504000473104001F7B04006FB9040022EA0400910B0500941C0500941C0500910B050022EA04006FB904001F7B04004731040048DE0300B88403003E27030076C80200C8
:40508000D46A0200871002006EBB0100036D0100562601000DE800006AB200005385000061600000F0420000302C0000391B0000190F0000E1060000B3010000C7FEFF00EC
:4050C00071FDFF0022FDFF0069FDFF00EBFDFF0067FEFF00AAFEFF00AAFEFF0067FEFF00EBFDFF0069FDFF0022FDFF0071FDFF00C7FEFF00B3010000E1060000190F000065
:40510000391B0000302C0000F042000061600000538500006AB200000DE8000056260100036D01006EBB010087100200D46A020076C802003E270300B884030048DE0300E2
:40514000473104001F7B04006FB9040022EA0400910B0500941C0500941C0500910B050022EA04006FB904001F7B04004731040048DE0300B88403003E27030076C80200C7
:40518000D46A0200871002006EBB0100036D0100562601000DE800006AB200005385000061600000F0420000302C0000391B0000190F0000E1060000B3010000C7FEFF00EB
:4051C00071FDFF0022FDFF0069FDFF00EBFDFF0067FEFF00AAFEFF0000000000000000000000000000000000000000000000000000000000000000000000000000000000CD
:40520000000000000000000000000000000000000000000000000000000000000000000000000000000000000000000000000000000000000000000000000000000000006E
:40524000000000000000000000000000000000000000000000000000000000000000000000000000000000000000000000000000000000000000000000000000000000002E
:4052800000000000000000000000000000000000000000000000000000000000000000000000000000000000000000000000000000000000000000000000000000000000EE
:4052C00000000000000000000000000000000000000000000000000000000000000000000000000000000000000000000000000000000000000000000000000000000000AE
:40530000000000000000000000000000000000000000000000000000000000000000000000000000000000000000000000000000000000000000000000000000000000006D
:40534000000000000000000000000000000000000000000000000000000000000000000000000000000000000000000000000000000000000000000000000000000000002D
:4053800000000000000000000000000000000000000000000000000000000000000000000000000000000000000000000000000000000000000000000000000000000000ED
:4053C0000000000000000000000000000000000000000000000000002013002561178026010080260100802601008026E00E8026C20C8026020080066587186D6409183E7E
:4054000000008026032080262102187FE60E8026C80C8026000080066B87186D6A09183E00008026012080262102187F000000000000000000000000000000000000000042
:40544000000000000000000000000000000000000000000000000000000000000000000000000000000000000000000000000000000000000000000000000000000000002C
:4054800000000000000000000000000000000000000000000000000000000000000000000000000000000000000000000000000000000000000000000000000000000000EC
:4054C00000000000000000000000000000000000000000000000000001112131416153637300000008090101050707040400000073717274000000004300232D302B200077
:40550000686C4C006566674546470030313233343536373839414243444546003031323334353637383961626364656600000000F8B500BFF8BC08BC9E4670474D00000077
:40554000311A0000F8B500BFF8BC08BC9E46704729000000685500000881FF1FC8000000C08100000000000000000000AAAAAAAAF87F000008270100F44D0000084E0000E5
:405580001C4E0000304E000078980D00E89D1000E039130028F9060000000000000000000000000020030000900300207F800000030000000000E880D001010042000000AA
:4055C0008014EF03FFFF01000000000000000000000000000000000000000000000000000000000000000000F85400000000000000000000000000000000000000000000DA
:40560000000000000000000000000000000000000000000000000000000000000000000000000000000000006881FF1F000000000000000000000000000000000000000063
:40564000000000000000000000000000000000000000000000000000000000000000000000000000000000000000000000000000000000000000000000000000000000002A
:4056800000000000000000000000000000000000000000000000000000000000000000000000000000000000000000000000000000000000000000000000000000000000EA
:4056C00000000000000000000000000000000000000000000000000000000000000000000000000000000000000000000000000000000000000000000000000000000000AA
:405700000000000000000000000000000000000000000000000000000000000000000000000000000000000000000000000000000000000000000000000000000000000069
:020000040003F7
:0200000480007A
:4000000005520040025B00400165004002030140030501400307014002090140020B01400E14014041150140451601403517014004190140041B01400A400140064101407E
:400040000C420140094301400244014001450140064601400547014010480140204901401A4C01400B4D014002500140035101400880098018086002614127842F84850F6A
:400080009C80AC809C80E240EA049C80E602EE04E602EE04E240EA0409080B0115021705190D1B022108330E37013B083F4059045C405F010402060207280D0A0E020F0821
:4000C00017151D821E012010224823202402257C27082B802F8A31283609371038103DA83E0245AA4D024E085620578567106E026F1F760282108380850288088B018C04F8
:4001000090049310941096A19C089D029E229F1DA52CA601AE04AF80B608C0F0C2F0C470CAB1CCE6CEF4D0F0D220D840E001E640E822EA01EC6802100533074C080209493F
:400140000A080B960DE01002120D14011555160217AA180219021A041B0D1C1D200D2210241D281D2C1D300F330F341037F039803A023B083E1054405604580459045B04FC
:400180005C445D405F018404870289048A03920C9402950499049A019E10A501A603B010B208B302B403B501B604B704BE40BF40D409D604D804D904DB04DC84DD40DF11AB
:4001C0000010010804100502064009440A440D280E8213381602171519081A441B801E801F10200422042301254027202B203128372838143C103D8858085AA16080630196
:400200006501666067207A088101860487209C80C056C2FFC4F4CA02CC66CE76D60FD8F9DE04E080E220E440E602E080E220E440E602E001E822EA01EC28300233203402D0
:40024000361039043C406D046E20CCF0CE6094409504A402A720AC02EE403E1053108F20902094409504A402A720A810CE20D420EA2085049020950496109720A402A84095
:40028000E640EE202B02CA08A3021A201B048E10AB02C608E202422044018404AB04D006250238603C40800287908A018B208D20902096109720A402C880CE30E220E65074
:4002C000130217041B2021204C105380562071087E01830485088E20902092029F02A380A520A720AA10B102B302B410C430C640C810D280D460DC80DE20E080E240EA80DB
:400300001220132014801C0835083820670878107D208620888089088C108E209C019E20A404C40EC601CC01CE08D801DE03E001E204E40271028110A102A510AB20AD0272
:40034000AF04B011DC01E804EC0410101A1000FF03C0100A049A0000561309640A2110D8843800C0019A000007FC38036098000284000000040280008000040084020098A8
:40038000009800027F000013000F80E0020000A0000040002603100004D0FCEB3EFFFFFF2200F048040000000000022804040404444400010000C00040021012C002001278
:4003C0004002400200000000000000000000000000000000000000000000750000484B004B0000000000000000001000008F8F00800000007800007A020000000000000084
:40040000000A0A000A00C0000000000000000000000000000000000000000000000000000000000000000000000000000000000000000000000000000000000000000000DE
:40044000000000000000000000000000000000000000000000000000000000000000000000000000000000000000000000000000000000000000000000000000000000007C
:40048000000000000000000000000000000000000000000000000000000000000000000000000000000000000000000000000000000000000000000000000000000000003C
:4004C00000000000000000000000000000000000000000000000000000000000000000000000000000000000000000000000000000000000000000000000000000000000FC
:4005000000000000000000000000000000000000000000000000000000000000000000000000000000000000000000000000000000000000000000000000000000000000BB
:0200000490006A
:0400000000004005B7
:0200000490105A
:04000000BC90ACAF55
:0200000490303A
:02000000267D5B
:0200000490402A
:4000000000000000000000000000000000000000000000000000000000000000000000000000000000000000000000000000000000000000000000000000000000000000C0
:400040000000000000000000000000000000000000000000000000000000000000000000000000000000000000000000000000000000000000000000000000000000000080
:400080000000000000000000000000000000000000000000000000000000000000000000000000000000000000000000000000000000000000000000000000000000000040
:4000C0000000000000000000000000000000000000000000000000000000000000000000000000000000000000000000000000000000000000000000000000000000000000
:0200000490501A
:0C00000000012E16106900012E3736E6B4
:00000001FF