:400000000080002011000000F5110000F511000008B5044B1A6803F53F5302331A6001F003F900BFFA46004010B5054C237833B9044B13B10448AFF300800123237010BD6E
:40004000B081FF1F00000000643E0000084B10B51BB108480849AFF300800848036803B910BD074B002BFBD0BDE81040184700BF00000000643E0000B481FF1F0881FF1FAD
:400080000000000000F1080343604FF0FF328260C360036100230360704700BF00230361704700BF43684B609A688A609A68516099600861036801330360704730B40D6866
:4000C000B5F1FF3F01D1026907E000F1080200E01A4653681C68AC42FAD953684B6099608A605160086103680133036030BC704703694268816891608268416851605A68BF
:40010000824201D182685A6000220261186801381860704706480068006880F3088862B661B6BFF34F8FBFF36F8F00DF00BF000008ED00E04FF0807340F8043C40F8081C0F
:40014000034B40F80C3C40F8202C4038704700BFA1010000074B19680868B0E8F00F80F30988BFF36F8F4FF0000080F311884EF00D0E7047A082FF1F4FF08052034B1A609B
:40018000BFF34F8FBFF36F8F704700BF04ED00E0EFF311804FF0A00181F311887047002008B5FFF7F5FFFEE708B5FFF7F1FF044A136801331360BFF34F8FBFF36F8F08BDDD
:4001C0000C81FF1F80F31188704700BF08B5044A1368013B136013B90020FFF7F3FF08BD0C81FF1FEFF30980BFF36F8F0D4B1A6820E9F00F10602DE908404FF0A00080F33C
:40020000118800F08FFC4FF0000080F31188BDE8084019680868B0E8F00F80F30988BFF36F8F7047A082FF1F08B5FFF7B1FF00F03BFB18B14FF08052024B1A600020FFF7FF
:40024000C1FF08BD04ED00E0034A044B1A600722043B1A60704700BFCF01010014E000E008B5094B1A6842F460021A601A6842F060421A60FFF7E8FF0022044B1A60FFF7E2
:4002800049FFFFF78DFF00BF20ED00E00C81FF1F10B50446FFF788FFA26BE36B9A4201D1012400E00024FFF791FF204610BD00BF10B50446FFF778FFA36B0BB9012400E094
:4002C0000024FFF783FF204610BD00BF38B504461546026C3AB903685BBB406800F070FD002363602CE06DB9806803F09DF9A268236C1344A360626893421CD32368A3605F
:4003000000201DE0C06803F08FF9236C5B42E2681A44E26021688A4202D262681344E360022D0AD1A36B53B1A36B013BA363002006E0002004E0002002E0002000E00020C2
:40034000A36B0133A36338BD026C72B110B5C3681344C3604468A34201D30368C36003460846D96803F060F910BD704710B50446FFF71AFF0BE0636A63B104F1240000F0B7
:4003800051FC08B100F0BCFCA36C013BA364A36C002BF0DC4FF0FF33A364FFF717FFFFF703FF0BE0236963B104F1100000F03AFC08B100F0A5FC636C013B6364636C002BEF
:4003C000F0DC4FF0FF336364FFF700FF10BD00BFF0B585B004460F4601921E460025FFF7E3FEA26BE36B9A4201D3022E16D1204639463246FFF76AFF636A43B104F1240054
:4004000000F010FC012805D1FFF7B6FE02E008B1FFF7B2FEFFF7DAFE012042E0019B1BB9FFF7D4FE00203CE01DB902A800F032FC0125FFF7CBFE00F02DFAFFF7B5FE636C3F
:40044000B3F1FF3F01D100236364A36CB3F1FF3F01D10023A364FFF7B9FE02A801A900F023FCC0B92046FFF713FF70B104F11000019900F0ABFB2046FFF778FF00F096FA51
:400480000028ACD1FFF778FEA9E72046FFF76EFF00F08CFAA3E72046FFF768FF00F086FA002005B0F0BD00BF38B54C2000F0F2FC0446C8B10025456005608560C560856343
:4004C0000123C36305644FF0FF33436483641030FFF7D8FD04F12400FFF7D4FD204629462A462B46FFF774FF204638BDF0B585B004460F4601921E460025FFF755FEA36BF9
:4005000033B3E56820463946FFF71EFF96B9A36B013BA363236813B900F094FC6060236993B104F1100000F07DFB01280CD1FFF723FE09E0E560636A33B104F1240000F018
:4005400071FB08B1FFF718FEFFF740FE01204BE0019B1BB9FFF73AFE002045E01DB902A800F098FB0125FFF731FE00F093F9FFF71BFE636CB3F1FF3F01D100236364A36C92
:40058000B3F1FF3F01D10023A364FFF71FFE02A801A900F089FB08BB2046FFF789FEB8B1236833B9FFF700FE606800F0B1FBFFF70DFE04F12400019900F008FB2046FFF7A1
:4005C000D5FE00F0F3F9002897D1FFF7D5FD94E72046FFF7CBFE00F0E9F98EE72046FFF7C5FE00F0E3F9002005B0F0BD094B9B6A1B680BB9012300E0002323B14FF0FF3295
:40060000044BDA627047034B9A6AD268D2685268DA627047CC81FF1F10B50446006B00F093FC204600F090FC10BD00BF70B506460C4619B9800000F02DFC044654B1502046
:4006400000F028FC054608B1046304E0204600F07BFC00E0002525B1286BA521B20002F0EEFF284670BD00BF70B504461546002306E0C85CE21882F83400CA5C12B101336F
:400680000B2BF6D9002384F83F30042D00D90425E562256400266664201DFFF7FFFC04F11800FFF7FBFC2461C5F10505A5616462A66484F84C6070BD70B5002407E004EB7D
:4006C00084039B0010481844FFF7DCFC0134042CF5D90E4C04F194063046FFF7D3FC04F1A8052846FFF7CEFC04F11400FFF7CAFC04F1BC00FFF7C6FC2046FFF7C3FCA662DE
:40070000C4F8D05070BD00BFFC81FF1FCC81FF1F38B504460E4BD3F8D4205060D3F8D830984208D20A4BD3F8D000D3F8D4100431FFF7C4FC38BD064DA86AD5F8D41004319B
:40074000FFF7BCFCEB6A9C4200D2EC6238BD00BFCC81FF1F2DE9F04782B081468A46164698460B9F10460C99FFF760FF002854D00446036B06F18045013D03EB850525F084
:400780000705009651460A9A0D9BFFF76DFF284649464246FFF7CEFC206007B13C60FFF703FD284BD3F8DC200132C3F8DC20D3F8D4304BB9234BC3F8D440D3F8DC30012B0C
:4007C00010D1FFF779FF0DE01E4BD3F8E0304BB91C4BD3F8D430DB6A0A9A934202D8194BC3F8D440174AD2F8E4300133C2F8E430E36A012505FA03F0D2F8E8100143C2F80E
:40080000E810303203EB830080001044211DFFF749FCFFF7DBFC2C4601E04FF0FF34012C0CD1084BD3F8E03043B1064BD3F8D430DB6A0A9A934201D2FFF79EFC204602B089
:40084000BDE8F087CC81FF1F00B585B0002300930193029303930C480C496422FFF77AFF01280DD1FFF794FC094B4FF0FF32DA620122C3F8E0200022C3F8D820FFF7F0FCD2
:4008800005B05DF804FB00BF1D0B0000683E0000CC81FF1F034AD2F8F0300133C2F8F030704700BFCC81FF1F2DE9F0413E4BD3F8F030002B66D13C4BD3F8D8200132C3F8BC
:4008C000D820D3F8D880B8F1000F0CD19A6AD3F8D0109962C3F8D020D3F8F4200132C3F8F420FFF783FE304BDB6A984503D200273CE0012700E000272B4B9B6A1B680BB9F5
:40090000012300E0002323B14FF0FF32264BDA622CE0254B9B6ADB68DC686368984502D2214AD36222E0261D3046FFF7E1FBA36A1BB104F11800FFF7DBFBE06A012383400B
:40094000194DD5F8E8201343C5F8E83005F1300300EB8000800018443146FFF7A3FBE26AD5F8D430DB6A9A42C3D2C5E70E4AD2F8D430DB6A03EB83039B0013441B6B012B94
:4009800008D808E0084AD2F8F8300133C2F8F830002700E00127044BD3F8FC3003B101273846BDE8F08100BFCC81FF1F70B5FFF7FBFB304BD3F8F020013AC3F8F020D3F8CE
:4009C000F030002B4ED12B4BD3F8DC3033BB00244BE0284C236ADD6805F11800FFF788FB2E1D3046FFF784FBE86A01238340D4F8E8201343C4F8E83004F1300300EB800036
:400A0000800018443146FFF74DFBEA6AD4F8D430DB6A9A4202D30122C4F8FC20154B5B69002BD6D1134BD3F8F8306BB911E0FFF73BFF18B101220F4BC3F8FC200D4AD2F846
:400A4000F830013BC2F8F8300A4BD3F8F830002BEDD1084BD3F8FC30012B05D1FFF78CFB012402E0002400E00024FFF7AFFB204670BD00BFCC81FF1F10B5F0B10446FFF704
:400A800009FF104BD3F8D8201444D3F8D4000430FFF72EFB58B90B4BD3F8D420D16A01228A40D3F8E81021EA0202C3F8E8202046FFF72EFEFFF77AFF00E0002008B9FFF735
:400AC0005BFB10BDCC81FF1F38B51FE0FFF7E2FE114BD3F8BC40FFF769FFBCB1FFF764FB0D4CD4F8C830DD68281DFFF701FBD4F8DC30013BC4F8DC30D4F8EC30013BC4F80E
:400B0000EC30FFF763FB2846FFF786FD024BD3F8EC30002BDAD138BDCC81FF1F08B5FFF7D3FFFCE7274BD3F8F03023B10122254BC3F8FC20704710B5224B0022C3F8FC200F
:400B4000D3F8D4301B6B1A68B2F1A53F0BD15A68B2F1A53F07D19A68B2F1A53F03D1DB68B3F1A53F07D0174BD3F8D400D3F8D410343100F037FB1348D0F8E830B3FA83F386
:400B8000DBB2C3F11F039A00D118890001444C6B64684C631A44920002443832944206D1606803EB83018900074A0A445060054A03EB83039B0013445B6BDB68C2F8D43074
:400BC00010BD00BFCC81FF1FFC81FF1F38B50D46134CD4F8D4101831FFF770FAD4F8D4000430FFF785FA50B9D4F8D420D16A01228A40D4F8E81021EA0202C4F8E820B5F1F4
:400C0000FF3F06D10648D0F8D4100431FFF74AFA38BD034BD3F8D8002844FFF779FD38BDCC81FF1F38B5C368DC6804F118052846FFF75EFA154BD3F8F030ABB9251D28468F
:400C4000FFF756FAE36A01229A401048D0F8E8100A43C0F8E820303003EB83039B0018442946FFF71FFA03E009482946FFF71AFAE26A064BD3F8D430DB6A9A4204D901203E
:400C8000024BC3F8FC0038BD002038BDCC81FF1FE081FF1F034BD3F8F4200260D3F8D83043607047CC81FF1F38B504460D46FFF77BFA124BD3F8D8202B68B3F1FF3F14D0A7
:400CC00020680E49D1F8F410884202D0616891420DD96168501A83420BD98A1A13442B602046FFF7D7FF002404E0002402E0012400E00124FFF76AFA204638BDCC81FF1F3E
:400D00000122024BC3F8FC20704700BFCC81FF1F002850D038B50346C16A274AD2F8D420D26A914246D28269002A06DB224AD2F8D420D26AC2F1050282615969DA6A02EBA0
:400D4000820292001D480244914201D1012200E0002252B31D461C1D2046FFF7C9F978B9EA6A02EB82039B0013490B441B6B3BB901239340D1F8E82022EA0303C1F8E830C7
:400D80000D48D0F8D430DB6AEB6201229A40D0F8E8100A43C0F8E820303003EB83039B0018442146FFF77EF938BD034AD2F8D420D26ADA6238BD7047CC81FF1FFC81FF1FED
:400DC000002837D038B50346426C013A4264C06A196C884230D08ABB1C461D1D2846FFF787F978B9E26A02EB82039B0014490B441B6B3BB901239340D1F8E82022EA030337
:400E0000C1F8E830236CE362C3F10502A261012404FA03F10A48D0F8E8200A43C0F8E820303003EB83039B0018442946FFF73AF9204638BD00207047002038BD002038BD4A
:400E4000CC81FF1F064BD3F8D4302BB1044BD3F8D420536C01335364014BD3F8D4007047CC81FF1F094A22F00702094BC3F838290020C3F83C0947F6F871C3F84419C3F8CF
:400E80004009516003F5146313607047D482FF1F94F9FF1F70B50446FFF7FCFC264BD3F848392BB9FFF7DEFF0122234BC3F8482934B1083414F0070F02D024F0070408348A
:400EC000621E47F6F6739A422BD81B49D1F8383901F6381101E0194613465A68A24202D21A68002AF7D1154A93421CD00D6808351A680A605A68121B102A0CD91E197260B3
:400F00005C6074680E4900E011460A685068A042FAD332600E6059680A4A13685B1A136002E0002500E00025FFF740FD0DB900F05DF9284670BD00BF94F9FF1FD4020020F4
:400F4000CC0200201081FF1FD0B170B50546A0F10806FFF79FFC55F8044C0A4A00E01A4613685968A142FAD345F8083C166055F8041C054A13680B441360FFF717FD70BD6F
:400F8000704700BFCC0200201081FF1F08B5012000F0F2FA4FF4FA70FFF76EFD002000F0EBFA4FF47A70FFF767FDF0E710B50020022100F069FC002406E000F0E7FC084B76
:400FC00018601B681BB90134064B9C42F5D9044B1B6813B100F0FAFD10BD00F08DFC10BD040300207F841E000E4B1B68CBB130B583B00D4800F036FE00F082FE054600284C
:40100000F7D006E00DF10700012100F085FE013400E00024A542F5D8044800F023FE03B030BD704704030020703E00008C3E0000F0B587B002F006F9FFF7B8FFFFF7D4FFE6
:4010400002F014F9424800F00DFE0026354634463746404B186800214FF0FF320B46FFF745FA3D4800F0FEFD00F04AFE18B93220FFF702FDF8E70DF11700012100F04CFE22
:401080009DF81730433B302B1FD8DFE803F01D1E1B1E1E1E1E1E1E1E1E1E1E1E1E1E191E1E1E1E1E1E1E1E1E1E1E1E1E1E1E1D1E1B1E1E1E1E1E1E1E1E1E1E1E1E1E19001E
:4010C000012402E0012600E00125012002F0D6F890B365B102F0EAF802F010F9024601A81E4902F0B5FA01A800F0BCFD002594B916E002F0DBF802F001F9024601A81749FE
:4011000002F0A6FA01A800F0ADFD4FF4FA70FFF7B3FC013400E00024132CEAD900240BE056B101A80E493A4602F092FA01A800F099FD0137FFB20026064B186800210A46B9
:401140000B46FFF745F93220FFF796FC81E700BF943E000008030020A43E0000E03E0000F43E0000034B044ADA62044A9A63044ADA6370470080FF1F55010000E50100007B
:401180002902000000B585B0FFF7ECFF62B60120FFF78AF90E4B18600123009300240194029403940B480C4980222346FFF7D2FA02230093019402940394084808494FF446
:4011C00080622346FFF7C6FAFFF73EFBFEE700BF080300208D0F00000C3F000031100000103F000008B5FEF7D3FFFEE708B5FEF7CFFFFEE7FEE700BF08B5094B1A68104420
:40120000084BC31A802B02DC054B186005E002F0DFF90C2303604FF0FF32104608BD00BF1481FF1FF003002008B5104E104D16E029686B68AC68002204E051F8040B43F85D
:40124000040B0432A242F8D1E868002203E0002143F8041B04328242F9D11035013E002EE6D102F0BBF9FFF78DFFFEE7010000002441000008B5124A124B1A60124A136845
:4012800043F40073136000230AE0032B03D80F4A52F8231000E00E490E4A42F8231001332F2BF2D90C4B1A780C4B1A70094A0C4B1A6000F0EBF800220A4B1A6008BD00BF9A
:4012C0000004FA050CED00E014ED00E000000000F51100000080FF1FBC7600400481FF1F08ED00E00081FF1FFEE700BFF0B40022174611E050F82760F3B226F0FF0608E0D5
:4013000001EB420511F812406D78A5550132013BDBB2002BF4D10137152FEBD9F0BC70470A4B1B78DBB203F00701094A11701B09013213700122074B1A70102203F6F31363
:401340001A704422A3F28A231A707047CF0100496E5800400D51004008B50A46002102F06EF908BD08B502F05FF908BD38B500242C4B1C80502202331A702B482B490422C3
:40138000FFF7F0FF06222A4B1A705222A3F580731A70284B1B78DBB2274A137040F62132264B1A8041F25122023B1A8019250CE0234B1B7803F0010343EA440404F003046E
:4013C0004FF4F07000F0E4F8013D0DB1032CEFD115B90320FFF788FF1A4A4FF48073138007231370002318490B704820023108701370053213700222144B1A7004220A338C
:401400001A70134A137843F001031370013A137843F001031370013A137843F08003137038BD00BF8040004000410040DC000048004300400F010049A14600402242004001
:4014400025420040044000400640004001400040A2430040012807D8044B53F820201844017A13780B431370704700BF183F0000012808D8044B53F820201844017A1378EE
:4014800023EA010313707047183F000038B572B62A4C61232370FFF769FF01232370284A137843F00403137000240AE0254963001A1952000A44D068118AFFF74DFF01341D
:4014C000E4B2072CF2D94FF090401F49FFF70EFF0A251E4B1D701E4A137843F0020313701032137843F0020313701A4C237843F040032370A2F58632513A137843F01003CE
:401500001370154815490822FFF72CFF144815492A46FFF727FF144814490822FFF722FF134A137843F008031370FFF7F9FE114821460E22FFF716FF38BD00BF0048004015
:40154000E8460040183F0000580000488358004003500140A043004002510040C0000048F0510040C800004822510040D400004822430040B0430040044A137803F0FD0395
:40158000400000F00200184310707047205100400230800803D000BF01380046FCD17047EFF3108072B6704780F31088704700BF01BE704708B5034B1B7A03FB00F0FFF79B
:4015C000E7FF08BD1881FF1F70B504460E46074B1D681F2802D90020FFF7EAFF04F01F04103455F8240045F8246070BD08ED00E038B504460D46072902D90020FFF7D8FFBD
:401600001F2C02D90020FFF7D3FF04F01F0000F1604000F564406D01EDB2057038BD00BF134B1B78DBB20360124A127843EA02230360114A127843EA024303600F4A127810
:4016400043EA026303600E4B1B78DBB243600D4A127843EA022343600B4A127843EA024343600A4A127843EA02634360704700BF0301004904010049EC46004002010049AD
:4016800001010049000100490501004906010049F8B5FFF785FF0746404A137843F0010313701032137843F00103137001263C4B1E700225943B1D7002F5E2521B3213786A
:4016C00003F07F0313700020FFF774FF354C237803F0F9032370344A137803F0DF0313702378334323703046FFF764FF2820FFF761FF2E4B1A7802F07F021A701A7802F0CD
:40170000BF021A7023782B4323702846FFF752FF237843F0040323700024254B1C7001331C703846FFF740FF17200721FFF760FF17202049FFF748FF18200721FFF758FFD4
:4017400018201D49FFF740FF15200721FFF750FF15201A49FFF738FF20460721FFF748FF20461749FFF730FF30460721FFF740FF30461449FFF728FF28460721FFF738FFF3
:4017800028461149FFF720FF0C200721FFF730FF0C200E49FFF718FFF8BD00BFA54300409D6000409443004012600040F851004084600040AD2200007D200000A9220000BD
:4017C000F12100002922000065220000B522000008B5214B18700023204A1370204A1370204A1370204A1370204A1370204A1370204A1370204B4FF400021A604FF0807284
:401800001A604FF400121A6001221A6002221A6004221A6011B1012906D00BE0174A137803F0FE0313700AE0144A137843F00103137004E0114A137843F00103137003223E
:401840000F4B1A708022203B1A700120FFF7A0FE04220C4B1A7008BDB7030020B603002028030020290300202A030020BA0300202B0300202703002000E100E00960004006
:40188000286000401260004038B505460C46064B1B7823B9FFF7FCFE0122034B1A7028462146FFF795FF38BDE002002000230A4A13700A4A13700A4A13700A4A13700A4A50
:4018C00013700A4A13700A4A13700322094B1A708022203B1A707047B603002028030020290300202A030020BA0300202B030020270300202860004008B5FFF751FE1B4A15
:40190000137803F07F0313700A32137803F0FB031370A2F5E3520D3A137803F0FE0313701032137803F0FE031370FFF73DFE104B4FF400021A604FF080721A604FF4001245
:401940001A6001221A6002221A6004221A600023084A1370084A1370084A1370084A1370084A1370084A137008BD00BF0860004080E100E028030020290300202A030020A0
:40198000BA0300202B030020E0020020014B1878704700BF2903002000EB40008000024B18444078704700BF48030020431EDBB2072B0BD8064B00011A18185C00F00F0075
:4019C000537843EA0020023880B2704700207047FC5F0040431EDBB2072B3BD8F0B4074600EB40039B001C4C2344DB889BB2C3F500739A4207D900EB40039B002344DA8855
:401A0000C2F5007292B200EB40039B00124C2344DB7843EA1223114D04012E192B55D3B2737039B909E0CE5C3D010D4C665501339BB200E000239342F5D3430003449B00C7
:401A4000054A134400225A705A79D2B20001054B1A54F0BC704700BF48030020FC5F004078600040FE5F0040431EDBB2072B0BD8430003449B00054A134400225A705A7954
:401A8000D2B20001024B1A54704700BF48030020FE5F004070B5D9B1054614460E46C8B1082819D8FFF782FFA04203D22846FFF77DFF0446002305E02901094A525CF25455
:401AC00001339BB2A342F7D32846FFF7CDFF04E0002402E0002400E00024204670BD00BF786000400246002001E0013080B2135C002BFAD1704700BF10B4FF2400220EE08C
:401B00000A4B9B5C03EB43039B0009490B449B78DBB2834201D1144602220132D2B2012AEED920465DF8044B704700BF140300205003002010B5204C2079FFF7DDFF23782A
:401B400013F0800F0ED06378DBB2212B2FD11B4B07221A80C0EBC000194A1044586000F0FBFA10BD144B5B78DBB2202B02D0222B10D01EE0114A07231380C0EBC0031049A6
:401B80000B4453600F4A135C43F00103135400F00BFB10BD084B9B780B4A22F81030094A135C43F00203135400F096F910BD002010BD002010BD00BF0060004038030020A4
:401BC0002881FF1F1C0300202003002010B500241F4B1C701F4B1C705C700AE01E4B185DC0B2431EDBB2072B01D8FFF73DFF0134E4B2012CF2D9194B1B7813F0FF0F1AD0E1
:401C0000154B1B7813F0FF0F17D0154B1B7813F0FF0F14D0114B1B78DBB2082B11D80E4B1B78DBB2082B0ED80D4B1B78DBB2082B0BD8002010BD012010BD012010BD01202F
:401C400010BD012010BD012010BD012010BD00BFE10200201C030020100300200C030020140300202DE9F8438046224B1B78224AD65CF6B2FFF736FF05460027344606EBCE
:401C800046039B001D4A13441B899BB2AB4208D206EB46039B001344B3F808901FFA89F900E0A946304608EB07014A46FFF792FEC9EB0505ADB245B906EB46039B000F4A21
:401CC00013441B899BB2994510D14F44BFB204EB44039B00094A13445B7813F0FF0FF6D025B9304600210A46FFF774FE002DC5D1BDE8F883E10200200C0300204803002007
:401D000008B5034B1B78034AD05CFFF745FE08BDE10200201003002008B503460A46044909780448405C1946FFF7B4FE08BD00BFE102002010030020C37803F0030390F9CE
:401D4000020000280FDA032B06D002F001030B48C15442F001020EE0C2F380030848C15442F0040207E0032B05D0C2F340030548C15442F002021046704700BF0C03002081
:401D800014030020100300201C4B19781C4A13880B449BB2138000230EE01A4A51680978C9B21948C1545168013151600133DBB21188013989B21180124A128892B20AB100
:401DC000072BEAD90D4A1278D2B2082A00D05BB10E490A7882F080020A700F210C4A117002210C4A117004E0022209490A7009490A70094A1370014A1370704727030020EE
:401E0000B403002038030020006000402C03002026030020B6030020440300200222074B1A708022064B1A700F22064B1A700023054A1370054A137001207047B6030020F7
:401E40002C03002026030020270300204403002008B5FFF799FF08BD10B4184B197801F00F010239C9B2164A13880B449BB21380002010E0134B5C68134A125CD2B222705D
:401E80005A6801325A600130C0B20139C9B21A88013A92B21A800B4B1B889BB20BB10029E8D10A4B19700A4A137883F0800313700B22084B1A705DF8044B70472960004018
:401EC000B40300203803002000600040440300202C030020260300200623064A1370064A13708022054B1A700022054B1A700120704700BFB6030020260300202C030020C2
:401F000044030020064B9B6843B1054B9A6810709A6804490988518000229A60704700BF38030020B403002008B5134B1A78D2B21A701B78DBB213F0800F02D00F4A137090
:401F400008BD0220FFF7DEFF0D4B1B7803F06003202B05D0402B06D043B900F095FC06E001F00AFB03E000F037FE00E0002010B90322024B1A7008BD286000402603002009
:401F80000060004008B5084B1978084A13880B449BB213800022064B1A700120FFF7B2FF0322044B1A7008BD27030020B4030020B60300202603002008B50B4B1B78DBB2C6
:401FC000042B06D0062B07D0022B0BD1FFF7DAFF08BDFFF741FF08BD0320FFF793FF0322024B1A7008BD00BFB60300202603002008B50022044B1A700120FFF783FF032279
:40200000024B1A7008BD00BFB60300202603002008B50B4B1B7813F0FF0F07D0084A137843F0800307490B70002313700022064B1A700120FFF766FF0322044B1A7008BD55
:40204000BA03002008600040B60300202603002008B5094B1B78DBB2042B06D0062B07D0022B07D1FFF7F4FE08BDFFF7C1FF08BDFFF7CEFF08BD00BFB603002008B5284BFE
:402080001B78DBB213F0100F48D013F0800F0CD003F00F03012B16D1FFF746FF214B1B7813F0800F11D1012312E013F0400F03D0FFF7CEFF01230BE013F0200F07D0FFF786
:4020C0007BFF012304E0002302E0002300E0002323B3134B1B7813F0800F1FD1124B1B78124A12781343124A13701278D2B29A4214D10C4B1B78DBB2094A127812F0800F2B
:4021000007D1084B1B78DBB2054A1370137803F00F03044A1278D2B29342EAD108BD00BF28600040260300202C03002044030020296000400022064B1A80064B9B682BB1B5
:40214000044A916800230B7092685380704700BFB40300203803002008B50F4B1B889BB213B9FFF75BFE15E002220C4B1A7000220B4B1A70FFF7DEFF0A4AD179937943EA3D
:402180000123054A128892B29A4201D9024A1380FFF7FAFD012008BD38030020B60300202C0300200060004008B504220B4B1A7080220B4B1A70FFF7BDFF0A4AD1799379A2
:4021C00043EA0123084A128892B29A4201D9064A13800B22054B1A70012008BDB60300202C0300200060004038030020260300200A4A137803F0FE031370094B9B7C094B57
:402200001B7B03F00303012B04D0064AD37B83F08003D3730122034B5A7370470B600040FC5F0040480300200B4A137803F0FD0313700A4B93F82230094B1B7E03F0030321
:40224000012B04D0064AD37E83F08003D3760122034B5A76704700BF0B600040FC5F0040480300200D4A137803F0FB0313700C4B93F832300B4B93F8243003F00303012B22
:4022800006D0084A92F8273083F0800382F827300122044B83F82520704700BF0B600040FC5F004048030020704700BF08B5FFF7FDFA08BD08B500F09BFC08BD70B588B0AA
:4022C000054603AC174E0FCE0FC43368237035B322232B7003236B7001A8FFF7A1F9002402231AE008AA224412F81C2C08A901EB121111F8141CE954581C00212954981CF6
:4023000002F00F0208AE324412F8142C2A54DA1CA9540134E4B20433DBB2212BE2D908B070BD00BF543F000010B401223DE0114613010C242148C45402EB42039B00204891
:4023400003445B7913F0FF0F12D002EB42039B0003441B7913F0800F04D01001194B03449C700AE01001174B03440820987004E01001144B0344802098704B000B449B002D
:402380000F480344DC88E4B208010C4901448C71D888C0F30720C871D888C0B20871DB88C3F307234B710132D2B2082ABFD9FF22054B1A705DF8044B704700BF7060004082
:4023C00048030020FC5F00400A600040074B1B78074A02EBC30253681A7C824203D903EBC003586970470020704700BFB7030020683F0000F8B5404B1B7813F0FF0F79D0EF
:402400003D4B18780138C0B2FFF7E0FF047AC2683A4B1878C0B200236AE01178814264D13749095CC9B25578A9425ED1917801F07F01D67806F00306DFF8C8E04D000D44BC
:40244000AD000EEB05074FF0000C87F803C092F802C087F804C092F803C00EF805C095883D8192F90250002D0DDA012E01D1072700E00D274D000D44AD00224E35446F7153
:4024800001266E700CE0012E01D1052700E009274D000D44AD001B4E35446F7100266E70DFF868E00F010EEB07060125B57001FA05F529448900134D29440D89C5F307252B
:4024C0000EF807500D89EDB27570CE88F6B20E4D3D44AE71CE88C6F30726EE71CE88F6B22E71C988C1F30721697108320133DBB2A34292D3F8BD00BF290300202A030020DB
:40250000340300204803002070600040FC5F0040034B1A78034B03EBC2035868704700BFB7030020683F000008B5074B18780138C0B2FFF74BFF28B14268127900EBC2034E
:40254000586908BD002008BD290300202DE9F84300220EE06F4E53009D18AD00741900217155A170E1702181A172617061710132D2B2082AEED940B90AE000226649CA5421
:402580006649CA540133DBB200E00023012BF4D9634B1B7813F0FF0F00F0B980604B18780138C0B2FFF712FF80464368DB7913F0400F05D05B4A137843F00103137004E06F
:4025C000584A137803F0FE03137098F808704FF0000901266CE0D8F80C50002464E0AB7803F07F039E425CD1314606EB46039B00484803441B899BB2A888834205D206EB6A
:4026000046039B00434A134418812B784248C35CDBB26878834244D195F802C03D484B000B449B0000EB030E8EF804C095F803E000F803E0EB7803F0030395F902000028F8
:4026400011DA012B02D14FF0070C01E04FF00D0CDFF8C0E04B0058188000704480F805C00123437012E0012B02D14FF0050C01E04FF0090C27484FEA410E0EEB01039B0066
:40268000034483F805C0194600234B70AB790A2B01D0022B05D1284631464A46FFF74CFB814608350134E4B2BC4298D30136F6B2082E90D9D8F80C0000220CE0837803F0E9
:4026C0007F0310F8084B03EB43039B0016490B449C700132D2B2BA42F0D3FFF725FF134B1860002301210EE00A4C4A00501880002044C380028913449BB203F00102134430
:402700009BB20131C9B20829EED9FFF70DFEBDE8F88300BF480300203403002024030020290300202B030020500300203003002008B5154B1A7902F07F02531EDBB2072B0B
:4027400020D8530013449B0010490B44997841F0010199700021D970597841F0020159701B7913F0800F05D01201094B13448D229A7004E01201064B134489229A70FFF733
:40278000ABFB08BD002008BD0060004048030020FC5F0040264B1B7903F07F035A1ED2B2072A43D810B55A001A44920021490A44917801F0FE0191700021D17019017F2481
:4027C0001D484454517801F0FD015170127912F0800F14D003EB4302920016490A445278D2B2012A05D11B0102461A440C23937019E01B01104A1A440D23937013E003EBCD
:40280000430292000B490A445278D2B2012A05D11B01094A1A440823937004E01B01064A1A4409239370FFF757FB10BD002070470060004048030020FC5F004010B50E4B48
:402840001C79E4B20D4B18780138C0B2FFF7BEFD43681B799C4201D9022C0AD8084A135DDBB208490B55044B9B78DBB21355012010BD002010BD00BF006000402903002005
:40288000340300202403002010B59B4B1B78DBB200219A4A118013F0800F00F0AD80964A5278D2B20A2A00F27281DFE812F06900700170017001700170010B0070019200AE
:4028C00070019A008C4BDB78DBB2012B09D1FFF71FFE4268894B5A6012221A80FFF73CFC10BD854BDB78DBB2022B13D1824B9878FFF76CFD002800F04C8142687F4B5A60EC
:402900005A68D1785A68927842EA01221A80FFF723FC10BD784BDB78DBB2032B05D02CE00A7811440133DBB201E000237449724A9278D2B29A4203D90A7812F0FF0FEFD196
:402940006D4B9B7813F0FF0F0BD06B4B9B78DBB26C4A127C934204D16B4C2046FFF7AEFC21460B7813F0FF0F00F015810B78634A13805160FFF7F0FB10BD00F0FDFD10BD45
:4029800013F0030317D0022B40F007815B490B80594B1B7903F07F0303EB43039B005B4A13449A78D2B25A4B1A7000225A704B60FFF7D2FB10BD514902230B80554B1A7833
:4029C000D2B2534B1A7000225A704B60FFF7C4FB10BD4A4B01221A804F4A5A60FFF7BCFB10BD464A01231380434B1B794B490B445360FFF7B1FB10BD3F4A5278013A0A2AC3
:402A000000F2CD80DFE812F04B00CB009600CB000B00CB00CB00CB001300CB003000364B9B78DBB23E4A1370FFF756FA10BD324B9B7803F0FF041BB1601EC0B2FFF7C6FC64
:402A400004B110B9002C40F0AC80334B1B78DBB29C4206D0304B1C700120324B1870FFF775FDFFF739FA10BDFFF7E8FE002800F09A80214A1379DBB21279D2B22A490A70E5
:402A80002A4AD25C2549C95CD3B28B4204D00122244B1A70FFF7AEFCFFF71EFA10BD03F00303012B17D04BB1022B7ED1124B9B7813F0FF0F7BD1FFF76DFE10BD0E4B9B7839
:402AC000DBB2012B75D1134A137803F0FD031370FFF702FA10BD084B1B79DBB2012B6AD8054B98781B79DBB21149CA5C22EA0002CA54FFF7F1F910BD006000403803002003
:402B0000D03F0000B4400000C403002048030020E40200202B0300202903002034030020BA030020280300202A03002024030020B803002003F00303012B17D04BB1022B7D
:402B40003BD1224B9B7813F0FF0F38D1FFF7F0FD10BD1E4B9B78DBB2012B32D11C4A137843F002031370FFF7B7F910BD174B1B79DBB2012B27D8154B98781B79DBB215490B
:402B8000CA5C22EA0002CA54FFF7A6F910BD002010BD002010BD002010BD002010BD002010BD002010BD002010BD002010BD002010BD002010BD002010BD002010BD002025
:402BC00010BD002010BD002010BD00BF006000402B030020B8030020044B1B7813F0800F01D0024B5B780020704700BF00600040024B1878C0F38010704700BF8F45004061
:402C000038B59DF81040651EEDB2032D4AD80138092826D8DFE800F00525250525250D15251D0F2B02D9214800781BE02048007818E00F2B02D91F48007813E01E4800789F
:402C400010E00F2B02D91D4800780BE01C48007808E00F2B02D91B48007803E01A48007800E0002040B201EB401101FB02F2D20B91B20D2B0BD8C3F10E0192B20A4191B227
:402C8000124A02EB8402013302F8023C05E00F4B03EB84030F2203F8022C013C0B4B23F8241038BD0020FEF783FC38BD180100491C010049190100491D0100491A01004975
:402CC0001E0100491B0100491F010049E8020020F8B50746FEF764FC06460D4D2B7843F003032B700B4C237843F0030323700A4B1F700320FEF75EFC2B7803F0FC032B70E4
:402D0000237803F0FC0323703046FEF74DFCF8BDF8460040F9460040925800402DE9F04104460022C34B1A7401285BD13822C24B1A700423C14A1370062101321170002599
:402D400001321570013215700F210132117002321570013215700132157001260A321670142102F527621170013213701822B44B1A7001331D701123B24A13701221013264
:402D800011700132157002321670013213701922AD4B1A70972201331A704420FFF798FF5822AA4B1A7001331D70052205331A70022201331A7001331D7001331D702846D0
:402DC00000F0C6FA2A22A24B1A606520314600F0E3FA40F29B10314600F062FB1D209D49FEF7F2FB022C60D13822934B1A70042202331A70062201331A70002501331D702F
:402E000001331D703F2201331A7002331D7001331D7001331D7001260A331E70502203F527631A70272201331A702C2201331A7001331D70552203331A705A2201331A70B9
:402E40004FF00508013383F8008002331E70112201331A70192701331F70972201331A704420FFF735FF5822784B1A7001331D70053383F80080022201331A7001331D70BD
:402E800001331D70284600F063FA4FF47A42704B1A603846314600F07FFA6620314600F0FFFA1D206C49FEF78FFB032C60D13822614B1A70042202331A70062201331A70F2
:402EC000002501331D7001331D703F2201331A7002331D7001331D7001331D7001260A331E70502203F527631A70272201331A702C2201331A7001331D70552203331A704D
:402F00005A2201331A704FF00508013383F8008002331E70112201331A70192701331F70972201331A704420FFF7D2FE5822474B1A7001331D70053383F8008002220133A2
:402F40001A7001331D7001331D70284600F000FA4FF47A423E4B1A603846314600F01CFA6620314600F09CFA1D203C49FEF72CFB042C5DD13822304B1A70042202331A70ED
:402F8000062201331A70002401331C7001331C703F2201331A7002331C7001331C7001331C7001250A331D70502203F527631A70272201331A702C2201331A7001331C70E6
:402FC000552203331A705A2201331A70052701331F7002331D70112201331A70192601331E70972201331A704420FFF771FE5822164B1A7001331C7005331F700222013339
:403000001A7001331C7001331C70204600F0A0F94FF47A420E4B1A603046294600F0BCF96620294600F03CFA1D200D49FEF7CCFABDE8F081E8020020004E0040024E004094
:40304000865800408A5800409058004094580040BC0300202133000025330000293300002D3300002DE9F04182B0394D4FF0010885F80080374E00247474102000F07AF90D
:40308000102000F0FBF91D200721FEF7B1FA0427314B1F7001331C7007331C702F4A137843F0180313702E4B1C7003F2F5231C7001331C700A22A3F209331A7001331C70C1
:4030C00002331C70122205331A70132201331A7004331C701422A3F68C231A70CDF8008003204FF400410A460823FFF789FD02230093204649F2DA014FF400421023FFF796
:403100007FFD03230093204649F2DA014FF400421023FFF775FD0097204649F2DA014FF400421023FFF76CFD2B7806EB830313F8022C0C4B1A702B78013B36F823200A4BBB
:403140001A802878FFF7EAFD02B0BDE8F08100BF4481FF1FE802002096580040075B0040935800400E4E00400C4E004070B5FEF717FA06462A4B1B782A4B1A7842F00102D8
:403180001A701A7842F010021A7010331A7842F001021A701A7842F010021A70224D2B7843F002032B70214C237843F0020323701F4A137843F0030313700320FEF7FAF9BE
:4031C0002B7803F0FD032B70237803F0FD032370184A137843F0060313707A22164B1A70164A137843F0010313701032137843F0010313700F3A137843F00103137010324E
:40320000137843F0010313704FF000530C4A1360A2F5C07213603046FEF7C6F970BD00BF4481FF1FAA430040F8460040F9460040915800407758004082580040A143004019
:4032400080E200E008B5084B9B7C4BB9064BDB7C13F0FF0F01D1FFF705FF0122024B9A74FFF784FF08BD00BFE8020020024A137843F0010313707047004E0040094B1B7C16
:4032800013F0FF0F03D0074B5B7CDBB203E0064B1B7803F00103012B01D00028EED01846704700BFE8020020014E00400E4B1B7803F00303012B03D80C4B188880B209E068
:4032C0000A4A12780A49087842EA0020032B01D1084B1B78084B1B7C13F0FF0F02D00022054B5A7400B27047144E0040104E0040114E0040124E0040E8020020064B1B6818
:40330000C01A4FF47A7303FB00F0044B1B6890FBF3F000B2704700BFC0030020BC030020704700BF704700BF704700BF704700BF10B5002404E02046FEF79AF80134E4B20E
:40334000012CF8D9FF22014B1A7010BD4581FF1F10B50446FFF7ECFF2046FEF77BF8014B1C7010BD4581FF1F014B188880B2704780400040034B1A7800F0F80010431870E8
:40338000704700BF82400040024B187800F00700704700BF8240004070B505460E46FFF7F3FF0446FFF7E0FF854256D02B4B1B7803F0010294B900B185B938B9284B1D8055
:4033C000284A137803F0BF03137070BD254A137843F040031370224B1D8070BD22B3002321490B7001240F310C7004310B700C390B7803F07F030B701A4B1B7813F0080F09
:4034000000D08DB9194B18800721013B1970164B1B7813F0010FFAD110490B7803F0FE030B700021104B19700C4B1B7813F0010F0DD00E4B1D800EB1032200E001220A4B5F
:403440001A70094B1B7813F0010FFAD170BD044B1D8002490B7813430B7070BDA243004080400040824000400140004002400040014B188880B2704700410040034B1A78B8
:4034800000F0F80010431870704700BF02410040024B187800F00700704700BF0241004070B505460E46FFF7F3FF0446FFF7E0FF854256D02B4B1B7803F0010294B900B1CE
:4034C00085B938B9284B1D80284A137803F0BF03137070BD254A137843F040031370224B1D8070BD22B3002321490B70012413310C7004390B7008390B7803F07F030B70D3
:403500001A4B1B7813F0080F00D08DB9194B18800721013B1970164B1B7813F0010FFAD110490B7803F0FE030B700021104B19700C4B1B7813F0010F0DD00E4B1D800EB1C9
:40354000032200E001220A4B1A70094B1B7813F0010FFAD170BD044B1D8002490B7813430B7070BDA14300400041004002410040014000400240004008B5124B1B7803F0CF
:403580000303012B02D0022B04D00FE00D4B1B79DBB20CE00B4B1B7903F07F0303EB43039B00094A13449B78DBB200E00023074A1268D35C022B02D1FEF7BCFA08BD0020AD
:4035C00008BD00BF006000405003002030030020014B1868704700BFA881FF1F0E4B70B51E460E4C0025E41AA410A54204D056F8253098470135F8E700F082FD084B094CDC
:403600001E46E41AA4100025A54204D056F8253098470135F8E770BD0C4100000C4100000C4100001441000010B5431E0A44914204D011F8014B03F8014FF8E710BD0346E4
:403640000244934202D003F8011BFAE7704700000EB400B54FF402719CB0ADF814106FF00041049107914FF6FF711DABADF81610084953F8042B02900690086802A90193B5
:4036800000F064F8029B00221A701CB05DF804EB03B07047A881FF1F2DE9F0478E688246B3420C469046994640D38A8912F4906F3AD02568096902236F1A656905EB4505C3
:4036C00095FBF3F57B1C4B449D4238BF1D4653050FD5294600F030FB064698B121693A46FFF7A2FFA38923F4906343F08003A38113E02A4600F076FB064670B9504621698E
:4037000000F0D6FA0C23CAF80030A3894FF0FF3043F04003A381BDE8F08726613E4426604E466561ED1BA560B14500D24E4632462068414600F0A0FAA36800209B1BA36011
:4037400023681E442660BDE8F08700002DE9F0439DB003938B8906461C060D4690460CD50B6953B9402100F0E7FA2860286110B90C233360CCE040236B61002309932023D7
:403780008DF8293030238DF82A3043461C4613F8012B1AB9B4EB08090FD002E0252AF5D1F8E73046294642464B46FFF775FF013000F0A980099B4B4409932378002B00F068
:4037C000A28000234FF0FF3204930793059206938DF853301A9304F101084446DFF8489121784846052200F039FA08F10108049B30B1C9EB00000122824013430493ECE77A
:40380000D80644BF20228DF85320190744BF2B228DF8532022782A2A02D0079923460EE0039A0134111D12680391002ABBBF524243F0020307920792B8BF04930AE01C4644
:4038400022780133303A092A03D80A2000FB0121F5E7079123782E2B1AD163782A2B0AD1039B02341A1D1B680392002BB8BF4FF0FF3305930CE0611C00220C4623780131E5
:40388000303B092B03D80A2000FB0232F5E70592DFF8988021784046032200F0DFF938B1049AC8EB00004023834013430493013421781A48062204F101088DF8281000F077
:4038C000CDF988B1164B33B9039B073323F007030833039313E003AB0093304604A92A46104BAFF3008007E003AB0093304604A92A460C4B00F092F8421C074603D0099BC4
:403900003B44099341E7AB895B0601D4099801E04FF0FF301DB0BDE8F08300BFD44000000000000099360000CA400000D04000002DE9F84391461F468A680B690646934235
:40394000B8BF1346C9F8003091F843200C46DDF8208012B10133C9F800302368990642BFD9F800300233C9F80030256815F006051CD094F843302268003318BF01239206C1
:403980001FD5E118302081F843005A1C94F845102244023382F8431013E03046394604F119020123C047013007D00135E368D9F800209B1A9D42F0DBDBE74FF0FF30BDE87E
:4039C000F8833046394604F14302C0470130F4D02268D9F80050E36802F00602042A08BF5D1B2269A3680CBF25EAE57500259342C4BF9B1AED184FF00009A9450ADA304633
:403A0000394604F11A020123C0470130D5D009F10109F2E70020BDE8F88300002DE9FF410C461746227E98466E2A06460A9B01F1430100F0B08012D8632A23D00AD8002A00
:403A400000F0BD80582A40F0CC8084F84520DFF804E257E0642A1ED0692A1CD0C1E0732A00F0B18009D86F2A2ED0702A40F0B980226842F0200222603FE0752A24D0782ABD
:403A80003BD0AEE01A6804F14205111D1960136884F84230A9E020681A6810F0800F02D0101D186008E010F0400F02F10400186002D0B2F9003000E01368002B3EDA2D22C6
:403AC0005B4284F8432039E020681A6810F0800F02D0101D186007E010F0400F02F10400186001D0138800E01368227EDFF864E16F2A0CBF08220A221CE07822DFF858E199
:403B000084F845202268186812F0800F00F104051D6003D1550601D5038800E00368D00744BF42F0200222601BB9226822F0200222601022002084F8430002E0DFF814E134
:403B40000A226568002DA8BF2068A560A4BF20F00400206003B965B10D46B3FBF2F002FB10331EF8033005F8013D03460028F4D100E00D46082A0BD12368DA0708D523696F
:403B800062689A42DEBF302305F8013C05F1FF35491B21612EE025681A6815F0800F606903D0151D1D60136808E015F0400F02F104051D60136801D0188000E0186000239A
:403BC00023610D4616E01A68111D1960156800212846626800F042F808B1401B6060636804E004F1420584F8422001232361002384F84330CDF800803046214603AA3B4628
:403C0000FFF796FE013002D14FF0FF301FE0304639462A462369C0470130F5D023689B0705D4E068039B9842B8BF18460FE00025E368039A9B1A9D42F3DA3046394604F1B9
:403C400019020123C0470130DED00135F0E704B0BDE8F081DB400000EC40000010B5C9B202449042034605D01C7801308C42F8D1184610BD002010BD814210B501EB02039E
:403C800001D3421E0BE09842FBD28118D21AD34204D013F8014D01F8014DF8E710BD994204D011F8014B02F8014FF8E710BD000030B500293CD051F8042C0B1F1D49002A3D
:403CC000B8BF9B180A680C4612B95A600B6030BD93420DD219685818904201BF5A5852181A60426823605A6030BD994203D80A4651680029F9D1146815199D420AD11B68BF
:403D00002344D0188842136012D10868034413604B680CE002D90C23036030BD1C681819884201BF08684968001918605960536030BD00BF0003002070B5CC1C24F003049D
:403D400008340C2C38BF0C24002C064603DA0C233360002070BD8C42F9D3204A136810461946A1B10A68121B0ED40B2A03D90A608B188C501FE08B420BBF5A684A680260D7
:403D80005A6018BF0B4616E00B464968E9E7144D2B681BB9304600F04BF828603046214600F046F8421C0346D1D0C51C25F0030585420AD11C6003F10B001A1D20F00700A4
:403DC000821A0AD05142995070BD3046E91A00F02FF80130BBD02B46ECE770BD00030020FC020020F8B5074615460E4621B91146BDE8F840FFF7A0BF1AB9FFF759FF28460B
:403E0000F8BD00F025F8A8420ED238462946FFF793FF044650B131462A46FFF705FC38463146FFF745FF01E03046F8BD2046F8BD38B5064C0023054608462360FDF7DCF9BB
:403E4000431C02D1236803B12B6038BDE803002051F8040C0028BEBF091851F8043CC018043870470000000049444C45000000005075736820616E79204B657920746F2041
:403E800053746172742E2E2E0D0000000D0A4F4B210D0A00434F4D20506F7274204F70656E0D0A0063203A20414443202873696E676C65292C2073203A20414443202832F4
:403EC000302074696D6573292C2065203A20456D756C61746564446174610D0A0000000053616D706C653A20256C75206D560D0A00000000456D756C617465642044617414
:403F0000613A202578200D0A000000004C4544005553425541525400035B00402443004040000000105100401000305100404000C0510040100000000140001000140140B9
:403F4000000800400140000A004C01400002005001402000303132333435363738394142434445460000000001000000703F000001000000B4400000000000000000000027
:403F800001000000883F0000010000007040000003000000B43F00000000000000000000000000000000000000000000B03F0000020A000000008103080002000100820284
:403FC00040000A000100030240000A0002030000040309042C0343007900700072006500730073002000530065006D00690063006F006E0064007500630074006F00720077
:40400000100355005300420055004100520054003803430044004300200043006F006D006D0075006E00690063006100740069006F006E00200049006E00740065007200AA
:404040006600610063006500260343004400430020004400610074006100200049006E0074006500720066006100630065000000090243000201018032090400000102025D
:404080000103052400100104240202052406000105240100010705810308000A09040100020A0000040705820240000007050302400000001201000202000008B40432F25F
:4040C00001000102800100004300232D302B2000686C4C00656667454647003031323334353637383941424344454600303132333435363738396162636465660000000005
:40410000F8B500BFF8BC08BC9E4670474D00000075120000F8B500BFF8BC08BC9E46704729000000384100000881FF1FA8000000408200000000000000000000AAAAAAAA52
:40414000F87F0000F00300200000E880D0010100420000008014EF0300C2010000000800C201000000080000A1200000000002000000000001FF000000000000000000005A
:40418000000000000000000000000000000000000000000000000000C8400000000000000000000000000000000000000000000000000000000000000000000000000000F7
:4041C0000000000000000000000000000000000000000000000000004881FF1F000000000000000000000000000000000000000000000000000000000000000000000000D8
:40420000000000000000000000000000000000000000000000000000000000000000000000000000000000000000000000000000000000000000000000000000000000007E
:40424000000000000000000000000000000000000000000000000000000000000000000000000000000000000000000000000000000000000000000000000000000000003E
:4042800000000000000000000000000000000000000000000000000000000000000000000000000000000000000000000000000000000000000000000000000000000000FE
:4042C00000000000000000000000000000000000000000000000000000000000000000000000000000000000000000000000000000000000000000000000000000000000BE
:020000040003F7
:0200000480007A
:40000000014500400152004001090140040A0140010B0140011501400217014002190140011B014003400140034101400342014003430140024401400145014003460140A8
:40004000074701400648014001490140034C0140024D0140015101407E027C40B502B802BE01D804DF011D02EC10EA02EE0AEA02EE0AEC1033813640CC709F01A640A7800A
:400080009F01A640A7809F01A640A7807C01DE01940145089401D00108080B040F40A508B401C20EEC082510AE40AF81C820EA40EE50B510A508AC08AF44B508EC08002A17
:4000C00000000000000001004000000000000000C000000000020200000000009C011801000000000000000000000000000000000000000000000000000000000000000045
:4001000000000000000000000000000000000000000000000000000000000000000000000000000000000000000000000000000000000000000000000000000000000000BF
:40014000000000000000000000000000000000000000000000000000000000000000000000000000000000000000000000000000000000000000000000000000000000007F
:40018000000000000000000000000000000000000000000000000000000000000000000000000000000000000000000000000000000000000000000000000000000000003F
:4001C00000000000000000000000000000000000000000000000000000000000000000000000000000000000000000000000000000000000000000000000000000000000FF
:0200000490006A
:0400000000004005B7
:0200000490105A
:04000000BC90ACAF55
:0200000490303A
:02000000158564
:0200000490402A
:4000000000000000000000000000000000000000000000000000000000000000000000000000000000000000000000000000000000000000000000000000000000000000C0
:400040000000000000000000000000000000000000000000000000000000000000000000000000000000000000000000000000000000000000000000000000000000000080
:400080000000000000000000000000000000000000000000000000000000000000000000000000000000000000000000000000000000000000000000000000000000000040
:4000C0000000000000000000000000000000000000000000000000000000000000000000000000000000000000000000000000000000000000000000000000000000000000
:0200000490501A
:0C00000000012E16106900012E2E25EEC6
:00000001FF