:400000000080002011000000052900000529000008B5044B1A6803F53F5302331A6002F08BFC00BFFA46004010B5054C237833B9044B13B10448AFF300800123237010BD92
:400040006082FF1F0000000054690000084B10B51BB108480849AFF300800848036803B910BD074B002BFBD0BDE81040184700BF00000000546900006482FF1F0881FF1F15
:400080000000000000F1080343604FF0FF328260C360036100230360704700BF00230361704700BF43684B609A688A609A68516099600861036801330360704730B40D6866
:4000C000B5F1FF3F01D1026907E000F1080200E01A4653681C68AC42FAD953684B6099608A605160086103680133036030BC704703694268816891608268416851605A68BF
:40010000824201D182685A6000220261186801381860704706480068006880F3088862B661B6BFF34F8FBFF36F8F00DF00BF000008ED00E04FF0807340F8043C40F8081C0F
:40014000034B40F80C3C40F8202C4038704700BFA1010000074B19680868B0E8F00F80F30988BFF36F8F4FF0000080F311884EF00D0E70475083FF1F4FF08052034B1A60EA
:40018000BFF34F8FBFF36F8F704700BF04ED00E0EFF311804FF0A00181F311887047002008B5FFF7F5FFFEE708B5FFF7F1FF044A136801331360BFF34F8FBFF36F8F08BDDD
:4001C0000C81FF1F80F31188704700BF08B5044A1368013B136013B90020FFF7F3FF08BD0C81FF1FEFF30980BFF36F8F0D4B1A6820E9F00F10602DE908404FF0A00080F33C
:40020000118800F0E3FC4FF0000080F31188BDE8084019680868B0E8F00F80F30988BFF36F8F70475083FF1F08B5FFF7B1FF00F08FFB18B14FF08052024B1A600020FFF7A6
:40024000C1FF08BD04ED00E0034A044B1A600722043B1A60704700BFCF01010014E000E008B5094B1A6842F460021A601A6842F060421A60FFF7E8FF0022044B1A60FFF7E2
:4002800049FFFFF78DFF00BF20ED00E00C81FF1F10B50446FFF788FFA26BE36B9A4201D1012400E00024FFF791FF204610BD00BF10B50446FFF778FFA36B0BB9012400E094
:4002C0000024FFF783FF204610BD00BF38B504461546026C3AB903685BBB406800F0C4FD002363602CE06DB9806805F005FFA268236C1344A360626893421CD32368A3609B
:4003000000201DE0C06805F0F7FE236C5B42E2681A44E26021688A4202D262681344E360022D0AD1A36B53B1A36B013BA363002006E0002004E0002002E0002000E0002053
:40034000A36B0133A36338BD026C72B110B5C3681344C3604468A34201D30368C36003460846D96805F0C8FE10BD704710B50446FFF71AFF0BE0636A63B104F1240000F048
:40038000A5FC08B100F010FDA36C013BA364A36C002BF0DC4FF0FF33A364FFF717FFFFF703FF0BE0236963B104F1100000F08EFC08B100F0F9FC636C013B6364636C002B9E
:4003C000F0DC4FF0FF336364FFF700FF10BD00BF38B504460D46FFF7E7FE2168E26B236C03FB021060600020A063A160013A02FB0313E3604FF0FF336364A36455B9236950
:4004000083B104F1100000F061FC01280AD1FFF7B3FE07E004F11000FFF734FE04F12400FFF730FEFFF7D2FE012038BD70B506460D4619B101FB00F0013000E000204C3037
:4004400000F07CFD044658B10DB9206002E000F14C030360E663256420460121FFF7B8FF204670BDF0B585B004460F4601921E460025FFF799FEA26BE36B9A4201D3022EFE
:4004800016D1204639463246FFF720FF636A43B104F1240000F01AFC012805D1FFF76CFE02E008B1FFF768FEFFF790FE012042E0019B1BB9FFF78AFE00203CE01DB902A83C
:4004C00000F03CFC0125FFF781FE00F037FAFFF76BFE636CB3F1FF3F01D100236364A36CB3F1FF3F01D10023A364FFF76FFE02A801A900F02DFCC0B92046FFF7C9FE70B1D2
:4005000004F11000019900F0B5FB2046FFF72EFF00F0A0FA0028ACD1FFF72EFEA9E72046FFF724FF00F096FAA3E72046FFF71EFF00F090FA002005B0F0BD00BF38B54C20FC
:4005400000F0FCFC0446C8B10025456005608560C56085630123C36305644FF0FF33436483641030FFF78EFD04F12400FFF78AFD204629462A462B46FFF774FF204638BD2C
:40058000F0B585B004460F4601921E460025FFF70BFEA36B33B3E56820463946FFF7D4FE96B9A36B013BA363236813B900F09EFC6060236993B104F1100000F087FB012809
:4005C0000CD1FFF7D9FD09E0E560636A33B104F1240000F07BFB08B1FFF7CEFDFFF7F6FD01204BE0019B1BB9FFF7F0FD002045E01DB902A800F0A2FB0125FFF7E7FD00F0B0
:400600009DF9FFF7D1FD636CB3F1FF3F01D100236364A36CB3F1FF3F01D10023A364FFF7D5FD02A801A900F093FB08BB2046FFF73FFEB8B1236833B9FFF7B6FD606800F0CF
:40064000BBFBFFF7C3FD04F12400019900F012FB2046FFF78BFE00F0FDF9002897D1FFF78BFD94E72046FFF781FE00F0F3F98EE72046FFF77BFE00F0EDF9002005B0F0BDB1
:4006800010B50446FFF790FDA46BFFF79FFD204610BD00BF094B9B6A1B680BB9012300E0002323B14FF0FF32044BDA627047034B9A6AD268D2685268DA6270477C82FF1F39
:4006C00010B50446006B00F093FC204600F090FC10BD00BF70B506460C4619B9800000F02DFC044654B1502000F028FC054608B1046304E0204600F07BFC00E0002525B19B
:40070000286BA521B20005F002FD284670BD00BF70B504461546002306E0C85CE21882F83400CA5C12B101330B2BF6D9002384F83F30042D00D90425E5622564002666649E
:40074000201DFFF7ABFC04F11800FFF7A7FC2461C5F10505A5616462A66484F84C6070BD70B5002407E004EB84039B0010481844FFF788FC0134042CF5D90E4C04F19406FE
:400780003046FFF77FFC04F1A8052846FFF77AFC04F11400FFF776FC04F1BC00FFF772FC2046FFF76FFCA662C4F8D05070BD00BFAC82FF1F7C82FF1F38B504460E4BD3F8F6
:4007C000D4205060D3F8D830984208D20A4BD3F8D000D3F8D4100431FFF770FC38BD064DA86AD5F8D4100431FFF768FCEB6A9C4200D2EC6238BD00BF7C82FF1F2DE9F0478E
:4008000082B081468A46164698460B9F10460C99FFF760FF002854D00446036B06F18045013D03EB850525F00705009651460A9A0D9BFFF76DFF284649464246FFF77AFC58
:40084000206007B13C60FFF7AFFC284BD3F8DC200132C3F8DC20D3F8D4304BB9234BC3F8D440D3F8DC30012B10D1FFF779FF0DE01E4BD3F8E0304BB91C4BD3F8D430DB6ACD
:400880000A9A934202D8194BC3F8D440174AD2F8E4300133C2F8E430E36A012505FA03F0D2F8E8100143C2F8E810303203EB830080001044211DFFF7F5FBFFF787FC2C469E
:4008C00001E04FF0FF34012C0CD1084BD3F8E03043B1064BD3F8D430DB6A0A9A934201D2FFF74AFC204602B0BDE8F0877C82FF1F00B585B0002300930193029303930C4889
:400900000C496422FFF77AFF01280DD1FFF740FC094B4FF0FF32DA620122C3F8E0200022C3F8D820FFF79CFC05B05DF804FB00BFC50B0000606900007C82FF1F034AD2F85F
:40094000F0300133C2F8F030704700BF7C82FF1F2DE9F0413E4BD3F8F030002B66D13C4BD3F8D8200132C3F8D820D3F8D880B8F1000F0CD19A6AD3F8D0109962C3F8D0205D
:40098000D3F8F4200132C3F8F420FFF783FE304BDB6A984503D200273CE0012700E000272B4B9B6A1B680BB9012300E0002323B14FF0FF32264BDA622CE0254B9B6ADB685D
:4009C000DC686368984502D2214AD36222E0261D3046FFF78DFBA36A1BB104F11800FFF787FBE06A01238340194DD5F8E8201343C5F8E83005F1300300EB800080001844F9
:400A00003146FFF74FFBE26AD5F8D430DB6A9A42C3D2C5E70E4AD2F8D430DB6A03EB83039B0013441B6B012B08D808E0084AD2F8F8300133C2F8F830002700E00127044B5D
:400A4000D3F8FC3003B101273846BDE8F08100BF7C82FF1F70B5FFF7A7FB304BD3F8F020013AC3F8F020D3F8F030002B4ED12B4BD3F8DC3033BB00244BE0284C236ADD6816
:400A800005F11800FFF734FB2E1D3046FFF730FBE86A01238340D4F8E8201343C4F8E83004F1300300EB8000800018443146FFF7F9FAEA6AD4F8D430DB6A9A4202D30122DE
:400AC000C4F8FC20154B5B69002BD6D1134BD3F8F8306BB911E0FFF73BFF18B101220F4BC3F8FC200D4AD2F8F830013BC2F8F8300A4BD3F8F830002BEDD1084BD3F8FC3093
:400B0000012B05D1FFF738FB012402E0002400E00024FFF75BFB204670BD00BF7C82FF1F10B5F0B10446FFF709FF104BD3F8D8201444D3F8D4000430FFF7DAFA58B90B4B79
:400B4000D3F8D420D16A01228A40D3F8E81021EA0202C3F8E8202046FFF72EFEFFF77AFF00E0002008B9FFF707FB10BD7C82FF1F38B51FE0FFF7E2FE114BD3F8BC40FFF785
:400B800069FFBCB1FFF710FB0D4CD4F8C830DD68281DFFF7ADFAD4F8DC30013BC4F8DC30D4F8EC30013BC4F8EC30FFF70FFB2846FFF786FD024BD3F8EC30002BDAD138BD5D
:400BC0007C82FF1F08B5FFF7D3FFFCE7274BD3F8F03023B10122254BC3F8FC20704710B5224B0022C3F8FC20D3F8D4301B6B1A68B2F1A53F0BD15A68B2F1A53F07D19A6897
:400C0000B2F1A53F03D1DB68B3F1A53F07D0174BD3F8D400D3F8D410343100F0C3FC1348D0F8E830B3FA83F3DBB2C3F11F039A00D118890001444C6B64684C631A449200BF
:400C400002443832944206D1606803EB83018900074A0A445060054A03EB83039B0013445B6BDB68C2F8D43010BD00BF7C82FF1FAC82FF1F38B50D46134CD4F8D4101831FD
:400C8000FFF71CFAD4F8D4000430FFF731FA50B9D4F8D420D16A01228A40D4F8E81021EA0202C4F8E820B5F1FF3F06D10648D0F8D4100431FFF7F6F938BD034BD3F8D800F6
:400CC0002844FFF779FD38BD7C82FF1F38B5C368DC6804F118052846FFF70AFA154BD3F8F030ABB9251D2846FFF702FAE36A01229A401048D0F8E8100A43C0F8E820303015
:400D000003EB83039B0018442946FFF7CBF903E009482946FFF7C6F9E26A064BD3F8D430DB6A9A4204D90120024BC3F8FC0038BD002038BD7C82FF1F9082FF1F034BD3F8C9
:400D4000F4200260D3F8D830436070477C82FF1F38B504460D46FFF727FA124BD3F8D8202B68B3F1FF3F14D020680E49D1F8F410884202D0616891420DD96168501A8342D8
:400D80000BD98A1A13442B602046FFF7D7FF002404E0002402E0012400E00124FFF716FA204638BD7C82FF1F0122024BC3F8FC20704700BF7C82FF1F002850D038B503468B
:400DC000C16A274AD2F8D420D26A914246D28269002A06DB224AD2F8D420D26AC2F1050282615969DA6A02EB820292001D480244914201D1012200E0002252B31D461C1D5A
:400E00002046FFF775F978B9EA6A02EB82039B0013490B441B6B3BB901239340D1F8E82022EA0303C1F8E8300D48D0F8D430DB6AEB6201229A40D0F8E8100A43C0F8E82009
:400E4000303003EB83039B0018442146FFF72AF938BD034AD2F8D420D26ADA6238BD70477C82FF1FAC82FF1F002837D038B50346426C013A4264C06A196C884230D08ABBE9
:400E80001C461D1D2846FFF733F978B9E26A02EB82039B0014490B441B6B3BB901239340D1F8E82022EA0303C1F8E830236CE362C3F10502A261012404FA03F10A48D0F8E8
:400EC000E8200A43C0F8E820303003EB83039B0018442946FFF7E6F8204638BD00207047002038BD002038BD7C82FF1F064BD3F8D4302BB1044BD3F8D420536C01335364A3
:400F0000014BD3F8D40070477C82FF1F094A22F00702094BC3F838290020C3F83C0947F6F871C3F84419C3F84009516003F51463136070478483FF1F44FAFF1F70B50446F9
:400F4000FFF7FCFC264BD3F848392BB9FFF7DEFF0122234BC3F8482934B1083414F0070F02D024F007040834621E47F6F6739A422BD81B49D1F8383901F6381101E01946C7
:400F800013465A68A24202D21A68002AF7D1154A93421CD00D6808351A680A605A68121B102A0CD91E1972605C6074680E4900E011460A685068A042FAD332600E60596855
:400FC0000A4A13685B1A136002E0002500E00025FFF740FD0DB900F0E9FA284670BD00BF44FAFF1F840300207C0300201081FF1FD0B170B50546A0F10806FFF79FFC55F849
:40100000044C0A4A00E01A4613685968A142FAD345F8083C166055F8041C054A13680B441360FFF717FD70BD704700BF7C0300201081FF1F70B582B000268DF80760354611
:4010400002F0CAFA044602F0BFFA00EB4400C0B2B04212D0032806D1022E04D19DF8073001338DF80730032806D1012E04D19DF80730013B8DF8073006460135ADB2312D84
:401080000FD99DF807305BB1084B18680DF1070100221346FFF7E6F900258DF8075000E000250320FFF73CFDCAE700BFDC05002070B50646134B1D785878002102F054FCE7
:4010C000012001F0D7FE45F0FC0002F0A9FC05F00F0545F00C04204602F0A2FC44EA0614E4B244F0040002F09BFC012001F0C2FE04F0FB0002F094FC012001F0BBFE02F05E
:4011000073FC70BD1481FF1F38B50546184B1C785878002102F028FC012001F0ABFE44F0010002F07DFC04F0FD0040F0010002F077FC002001F09EFE04F00D0343F001045F
:40114000204602F06DFC44EA0514E4B244F0040002F066FC012001F08DFE04F0F90002F05FFC012001F086FE02F03EFC38BD00BF1481FF1F08B5012001F07CFE08BD00BF78
:4011800010B50446FFF7F6FF2009FFF7BDFF04F00F00FFF7B9FF10BD38B505460078012404E0FFF7EDFF285D0134E4B20028F8D138BD00BF10B50446FFF7DCFF2009FFF74D
:4011C00077FF04F00F00FFF773FF10BD08B5282001F03AFE0320FFF76BFF052001F034FE0320FFF765FF0F2001F02EFE0320FFF75FFF012001F028FE0220FFF759FF05203B
:4012000001F022FE0620FFF7D5FF0E20FFF7D2FF2C20FFF7CFFF0820FFF7CCFF0120FFF7C9FF0C20FFF7C6FF0320FFF7C3FF052001F00AFE08BD00BF08B50C20FFF7BAFFE4
:401240000122014B1A7008BD9003002008B5054B5B7823B9FFF7BAFF0122024B5A70FFF7EBFF08BD9003002008B5032819D8DFE800F002070D1381F08000FFF79BFF08BD01
:40128000A1F14000C0B2FFF795FF08BDA1F16C00C0B2FFF78FFF08BDA1F12C00C0B2FFF789FF08BD08B50021FFF7DEFF0148FFF773FF08BD6869000008B530B902F074F972
:4012C00080F0010000F0010008BD012806D102F073F910F0010F03D1012002E0002000E00020C0B208BD00BF10B50022324B1A6059E0C0B2FFF7E0FF2F4B18711B682F4A0F
:40130000D45C052C4BD8DFE804F003090E13273B003018BF0120294AD05440E000B10220264AD0543BE000B10320244AD05436E0234A52F82300234900221346FFF792F8C1
:401340001D4B1A6803EB8201002088601B7903B104231A498B5422E070B1174A02EB83029268322A00D905241449CC54124901EB830301329A6012E00021104AD1540EE014
:401380000F4A52F823000F4900221346FFF76AF8094B1A681B7903B1234608498B54064A136801331360044B18680128A1D90A20FFF7B6FB99E700BF94030020CC030020EB
:4013C000A80500201681FF1F08B5012002F054FB6420FFF7A5FB002002F04EFB4FF46170FFF79EFBF1E700BF70B5574B1B7813F0010F2DD00222554B1A7004F047F8544B13
:401400001B88C01A80B210F4004F02D04FF6FF7200E0012213444E4A13804E4B1B7803FB00F39BB29CB24C490878421C4B4D25F8104002F01F020A70494A127882F08002CF
:4014400048490A7014F4004F70D05C42A4B26DE001223E4B1A7004F019F8434B1B88C01A80B210F4004F02D04FF6FF7200E0012213443D4A1380374B1D7805FB00F085B284
:40148000ACB23A4B1B78032B24D0394B1B7853B1314B1A78314B33F81260012004F09EF9301A80B209E02C4B1A782C4B33F81260012004F093F9304480B2C2B22D4B1A7067
:4014C000000A01331870EDB203331D70230A2A4A137025E014F4004F01D06C42A4B222B292020023194611E0002A06DB42FA03F041FA03F5521B014405E042FA03F041FA26
:4015000003F52A44091A0133DBB20E460F2BEBD9B612F2B2174B1A70C6F3072601331E70094B1B7813B90122144B1A70064A13780133137023B2124AB2F90020934201DD0F
:401540000F4B1C8070BD00BFBA05002078650040FE0300209C0500208C05002004050020AAC70040805B0040340600208E050020E0050020A1C70040A6C70040F00300208B
:40158000B8050020034B044ADA62044A9A63044ADA6370470080FF1F55010000E50100002902000008B5FEF7F3FDFEE708B5FEF7EFFDFEE770B5C6B03F22464B1A70044679
:4015C00030B9454845494FF4007204F095FD10E0012806D1404842494FF4007204F08CFD07E0022808D13C483E494FF4007204F083FD00210B462FE0032806D136483A49D5
:401600004FF4007204F078FDF3E7042806D1324836494FF4007204F06FFDEAE70528E8D12D4833494FF4007204F066FDE1E7314A52F82320481CC0B206AD6A54411CC9B2FE
:4016400016122E54481CC0B212146A54411CC9B200222A540133DBB23F2BE8D9264806A94FF4807204F048FD00221A4B1A70042C26D8DFE804F0030A11181F0001AB1F4AB3
:4016800092E8030083E803001AE001AB1C4A92E8030083E8030013E001AB1A4A92E8030083E803000CE001AB174A92E8030083E8030005E001AB154A92E8030083E803009B
:4016C00001200521FFF7D0FD01A8FFF765FD46B070BD00BF8CC7004000C20040187400001872000018700000186E0000186C0000D07900001876000000C3004098690000E5
:40170000A0690000A8690000B0690000B869000000B587B0264B1870431EDBB2012B03D9052803D1012202E0012200E00022214B1A70022801D0062803D103221E4B1A7044
:4017400004E0012802D801221B4B1A7003281FD8DFE800F002091017184B93E803000190ADF808101AE0164B93E803000190ADF8081013E0134B93E803000190ADF80810F1
:401780000CE0114B93E803000190ADF8081005E00E4B93E803000190ADF8081001200021FFF762FD01A8FFF7F7FC07B05DF804FB8E050020E00500209D050020C069000034
:4017C000C8690000D0690000D8690000E069000010B40A4A002423460AE00178303902FB01440749A1FB0212D2080133DBB20130072BF2D920465DF8044B7047809698000A
:40180000CDCCCCCC0000000070B588B04E4B186806901B798DF81C304C484D49082204F05BFC002800F08A804848FFF7D1FF494B1B7863B9A0F5C333A03B474A934206D901
:40184000424B434A1168526819605A6076E0404B3E4A1168526819605A60404B1860404B83FB0032C317C3EB62133E4A126802FB03F33D4E86FB0326DB17C3EB2633034474
:401880003A4A127802EB4202D20039490A4456681E4400242046B10029A3D3E9002304F017F9234612E0DA00C2F12005A2F1200420FA02F201FA05F52A4321FA04F4224391
:4018C00008AC1C4404F8082C0133DBB2032BEAD9013E284B9E4222D80022274B1A709DF8180001F081FC9DF8190001F07DFC9DF81A0001F079FC9DF81B0001F075FC9DF859
:401900001C0001F071FC01F047FC10F0010FFAD001A81A49114B1A6804F002FC04E001AB174A07CA83E8070000200521FFF79CFC01A8FFF731FC012001F086FA08B070BDF8
:4019400040597307000000007C69000094050020D0050020D8050020608B7800B40500201F85EB51CC05002089B5F814000500202081FF1FFE5962029C050020E8690000BC
:40198000F4690000AFF30080F0B587B00546184E184B1B7803EB4303DB003344164817499A6804F0BDFBFFF72FFF6F007B19DB00334403F11004187D114B1870FFF7A8FE9D
:4019C0006079104B1870FFF7F5FD7919C90001A8314404F0C9FB00200146FFF745FC01A8FFF7DAFB0022084B1A6007B0F0BD00BF1881FF1F0005002094050020006A0000EF
:401A00008E0500209D0500208405002030B587B00024484B1C6001200D21FFF725FC4648FFF7BAFB454B1C702046FFF7ADFF2024434B186800214FF0FF320B46FEF7A0FDB0
:401A4000404B1868FEF71CFED8B13E4B18680DF1170100221346FEF793FD384B1B7803EB4303DB00384A13441D699DF91720374B1B683748374905FB023204F051FBFFF7E5
:401A8000C3FE354B18680DF1160100221346FEF777FD68B1294A13780133DBB21370062B02D90022254B1A70244B1878FFF76CFF294B58680DF1160100221346FEF760FD73
:401AC00068B11E4B1B781BB906221C4B1A7002E0013B1A4A1370194B1878FFF755FF013CE4B214F0070F06D1124A1C4B197813685B1A403313608CB90E4C2268684618497B
:401B0000C2F3870204F00CFB01200D21FFF7ACFB6846FFF741FB002323602024084B186800210A460B46FEF79DFC6420FEF7F8FF7EE700BF84050020086A000000050020BF
:401B4000C4050020DC0500201881FF1FB405002094050020006A0000A80500209C0500200C6A000010B586B0642001F06DF901F009FC01F07FFDFFF769FB01F007FD03F049
:401B800003FD03F01DFE03F08DFD03F057FC03F0D5FE424803F024FD03F070FC642001F053F90020FFF77EFB0120FFF77BFB01203B4B1870FFF7ACFD4FF4A063394A13808A
:401BC000394A13800422394B1A70002001F00CFB002001F009FB002001F006FB002001F003FB002001F000FB01F058FF642001F02BF9002306E02E4AD2F8A820D15C2D4AA9
:401C0000D1540133072BF6D92A4B1B78302B09D001F0E4F82848002101F044FF2748012101F040FF0024264B1C60C82001F00CF962B6234606E01E4AD2F8AC20D15C214ACF
:401C4000D1540133072BF6D91E48FFF7C1FD1E4B1B1A1B4A136003F57A73B3F5FA6F02D90022174B1A60194A194B03CB10605160FFF7CAFD174B1B7803EB4303DB0001A88B
:401C800015490B4A1A4404F04BFA00200146FFF7EBFA01A8FFF780FA06B010BDE91300009D05002034060020FE0300209E0500201881FF1FF4030020146A0000206A00002A
:401CC000CC050020BC050020404B4C0094050020286A000000050020346A000000B585B0FFF750FCFFF73EFF0120FEF727FC334B1860082001210022FEF798FB304B1860B8
:401D0000012001460022FEF791FB2E4C2060012001460022FEF78AFB6060012001460022FEF784FB284B18604FF47A7001F08CF803250095002401940294039423482449D4
:401D400080222346FEF75AFD00950194029403942048214980222346FEF750FD00950194029403941D481E4980222346FEF746FD022500950194029403941A481A494FF4AA
:401D800000722346FEF73AFD0095019402940394164817494FF400722346FEF72FFD0095019402940394134813494FF400722346FEF724FDFEF79CFDFEE700BFC40500206B
:401DC000DC050020A8050020A0050020C9130000386A0000351000003C6A0000E9120000406A00000D1A0000446A0000512000004C6A00000D220000546A000008B5554BFC
:401E00009B783F3B2F2B00F29380DFE803F072919191919191919191919191919191919191919191919191919191919191919191919118309149919191919191913C464AD2
:401E4000464B03CB10605160454A464B03CB106051600022444B1A60FFF7D6FC434A444B03CB106051601B781372092363E00122404B1A703D4A404B03CB106051601B8872
:401E800013810A2357E000F0A9FF3C48002101F009FE00284ED11922394B1A7000234AE000F09CFF3548012101F0FCFD08BB1922334B1A70284A294B03CB10605160284AB7
:401EC000284B03CB10605160002307E02D4AD2F8AC20D15C2C4AD1540133DBB2072BF5D92948FFF775FC294B1B1A1F4A1360FFF78BFC002307E0234AD2F8A820D15C1B4A6B
:401F0000D1540133DBB2072BF5D92022174B1A72002309E003F109021A49D1F8AC10C85C124988540133DBB2072BF3D9112302E0002300E000235BB10C480022C25400F0BA
:401F40009DFC134800F09AFC00F0D8FC0028FBD008BD00BFD0030020D00500205C6A000094050020686A0000CC050020E4050020746A0000D8050020806A0000D3030020BE
:401F8000FC0300201881FF1FBC050020404B4C008C6A0000F8B502F0F7F800284FD0284800F082FC002504E0254B5B5D1BB10135EDB20F2DF8D900243FE0214B1A5D21487C
:401FC00001784B1CDBB203701F4842543B2A2ED10378242B17D143782A2B14D1002707551A4E306839464FF0FF323B46FEF7C8FAFFF704FF306839463A463B46FEF732FA1D
:40200000104B1F7017E0114E306800214FF0FF320B46FEF7B5FA00F001F9306800210A460B46FEF71FFA0022064B1A7003E003F01F03044A13700134E4B2AC42BDD3F8BD2C
:402040000004002036060020D0030020C405002038B50020022101F07BFE002406E001F00BFF214B18601B681BB901341F4B9C42F5D91D4B1B681BB102F014F801242EE0F7
:4020800001F09EFEFAE702F0A7F810F0010F26D0174800F0F3FB642000F0D6FE154D284600F0ECFB144C204600F0E8FB134800F0E5FB134800F0E2FB204600F0DFFB11487A
:4020C00000F0DCFB204600F0D9FB284600F0D6FB0D4800F0D3FB0D4800F0D0FB0024002CD1D1FFF757FFFCE7880500207F841E00906A0000A46A0000E46A0000246B0000C9
:40210000646B0000A46B0000E46B00008C6A000008B5344B1B78002B63D00022314B1A70314B1B785BB1013BDBB22F4A13701BB9002000F0F1FD02E0012000F0EDFD2B4B22
:402140001B781BB100222A4B1A8013E0284BB3F90030B3F5605F0DDD264A13789B0803EB4303DBB213709B080133234A137003221D4B1A702149B1F900001D4AB2F9003026
:40218000034403EBD373C3F34F030B80002111801B490A78013AD2B20A7012BB194A1178174A1170184A127812B14FF4805201E04FF420521BB2934207DA0E4B1B78FF2BB2
:4021C00009D001330B4A137005E00A4B1B7813B1013B084A1370074B1B789B080133064A137008BDF0030020FC030020A4050020B80500208D0500209C0500209005002004
:40220000B00500209E050020A505002008B5FFF77FFF0120FEF784FCF9E700BFF0B583B0B74A1178537803EB012344F64412934200F0D48135DC44F24162934200F0DE80E0
:4022400013DC44F24E12934274D004DC44F24912934264D0B4E244F24722934275D044F25342934200F08F80AAE244F25462934200F0FD800ADC44F24262934200F0DD80BC
:4022800044F25262934200F0E78099E244F25762934200F0F78044F25472934200F073818EE244F64262934200F0F8811BDC44F65332934200F0C1810ADC44F64612934217
:4022C00000F0948144F63232934200F0AB8177E244F64B42934200F0BD8144F64452934200F0C3816CE245F25302934200F0FD810ADC45F24102934200F0DD8145F2430232
:40230000934200F0E3815BE245F24122934200F0F28145F25132934200F0168250E2784B9B783B2B40F04E82764B1868764B186004235EE2724B9B783B2B40F04582734B14
:402340001868714B1860042353E2714B1B78714AA2FB03239B08C3F11603DBB26A496E4A1068086012790A716C4AA2FB0302D20802F13000887002EB8202A3EB420330333E
:40238000CB70052335E266490B780133DBB2614AA2FB0302D20802EB4202A3EB8203DBB20B70032B07D8584A5E4B03CB106051601B8813811AE0072B0CD8534B5A4A1068F5
:4023C000186012791A71594A1168C3F8051012795A720BE04C4B564A1068186012791A71544A1168C3F8051012795A72464B8022DA729A723B221A730D23FAE1404B9B7888
:402400003B2B0FD1404C4C4B07CB206061601B88A3814A4B1A685B68C4F80520C4F809300E23E6E1454A364B53F8051F5B6811605360FFF7E9F90023DBE1314B9B783B2B9F
:4024400040F0C481304C3E4B07CB20606160A2601B88A3810E23CCE1294B9B783B2B40F0B781384B1868284B18600423C1E1244B9B783B2B40F0AE81334B1868224B1860F2
:402480000423B6E11E4B9B783B2B6BD12F4B1B7843B91D4A2E4B03CB106051601B7813720923A6E1012B08D1174A2A4B03CB106051601B78137209239BE1022B08D1124AB1
:4024C000254B03CB106051601B781372092390E1032B08D10C4A214B03CB106051601B781372092385E1042B40F07681064A1C4B03CB106051601B781372092379E100BF0D
:40250000D003002018770000E4050020207700009C050020ABAAAAAA28770000CDCCCCCCC8050020307700003C770000F703002044770000BF0500204C77000094050020C3
:402540005C7700006C770000747700009D0500207C7700008877000094770000A0770000AC770000AA4B9B79313BDBB2A94A1370052B02D90022A74B1A70A64B1878FFF729
:4025800019F8002335E1A24B9B783B2B18D16846A149A24B1A7803F0C3FDA14B00981860BDF804109DF8062099809A719D4B1B780BB1302300E03123994A5371072318E18C
:4025C000934A1379303B95490B705379302B14BF00230123934A137000230AE1904B924A1068186092889A80062302E18F4E8C4C06F1200735460FCD20606160A260E36068
:402600002E461034BD42F5D12A88AB782280A370834B874A11685268C3F80510C3F809202323E6E07A4B9B783B2B40F0D780814B18687B4B18600423DBE0754B9B783B2B97
:4026400040F0CE80764B7C4A1068186092889A800623CEE06E4B9B783B2B40F0C380774B18686F4B18600423C3E0694B9B783B2B09D16B4A724B18681060724B1B7831335A
:4026800093700423B5E0A3F13100C0B2FFF740F8604B1878FEF78EFF0023AAE05C4B9B783B2B40F0A1805E4B674A1068186012791A7105239DE0564B9B783B2B40F09680B6
:4026C000624B1868564B1860042392E0504B9B783B2B40F08D80524B5D4A106818609188927999809A71072383E05A4B18684C4B186004237DE0464B9B783B2B0FD1484B6C
:40270000554A1068186012791A71544B1B780BB1312300E03023424AD370052369E03C4BDB78312B14BF002301234C4A137000224B490A704B490A700BB1012000E00420B7
:4027400002F090FE002354E0314B9B783B2B21D13349454B186808609B888B80434B1878434AA2FB0032530903F130028A70642202FB1303DBB23F4AA2FB0302D20802F165
:402780003000C87002EB8202A3EB420330330B7106232EE0303B03EB830303EB83039A001B49CB78303B03EB830302EB430303F0FE030A791344303B2C4A1370002318E064
:4027C000002316E0002314E0002312E0002310E000230EE000230CE009230AE0002308E0002306E0002304E0002302E0002300E000235BB10A480022C25400F03FF81E48E2
:4028000000F03CF800F07AF80028FBD003B0F0BDD00300209D050020B87700009E050020E4050020A4050020C4770000CC77000094050020F0770000F877000000780000C1
:40284000087800008E0500201078000018780000207800002878000030780000A50500208D0500209C050020387800009F0500201F85EB51CDCCCCCC8C6A000010B5044666
:40288000084B1B686BB101F08BFC0028FBD0204603F072FCC1B2402900D94021204601F04DFC10BD8805002030B583B0054600241DE001F069FC18B90A2000F0C5FAF8E761
:4028C0000DF10700012101F077FC0DF10700012101F034FC9DF807300D2B05D100232B550548FFF7CBFF04E02B550134E4B2FD2CDFD903B030BD00BF8C6A000008B501F068
:402900004FFC08BDFEE700BF08B5094B1A681044084BC31AB3F5805F02DC054B186005E003F0AEFB0C2303604FF0FF32104608BDC881FF1F5007002008B5104E104D16E0B5
:4029400029686B68AC68002204E051F8040B43F8040B0432A242F8D1E868002203E0002143F8041B04328242F9D11035013E002EE6D103F08BFBFFF7B1F9FEE70100000058
:402980008C80000008B5124A124B1A60124A136843F40073136000230AE0032B03D80F4A52F8231000E00E490E4A42F8231001332F2BF2D90C4B1A780C4B1A70094A0C4B72
:4029C0001A6000F003F900220A4B1A6008BD00BF0004FA050CED00E014ED00E000000000052900000080FF1FBC7600400481FF1F08ED00E00081FF1FFEE700BFF0B4002280
:402A0000174611E050F82760F3B226F0FF0608E001EB420511F812406D78A5550132013BDBB2002BF4D101371D2FEBD9F0BC7047154B1B78DBB203F00701144A11701B094F
:402A40000132137044F22022114B1A80202302F1804202F61D72137010220E490A7001210D48017018300270303003700430027040200A4A1070033211700132137044220C
:402A8000074B1A70704700BFCF0100496E5800400C510040FD510040805A0040005B00407658004008B50A46002103F030FB08BD08B503F021FB08BD38B50322344B1A80EA
:402AC0001F2334490B7002310A80334A13700024324B1C80502202331A70412202331A80182202331A702E482E490422FFF7E0FF06222D4B1A705222A3F580731A702B4B35
:402B00001B78DBB22A4A137040F62132294B1A8041F25122023B1A8019250CE0264B1B7803F0010343EA440404F003044FF4F07002F092FF013D0DB1032CEFD115B90320D3
:402B4000FFF75AFF1D4A4FF4807313800723137000231B490B704820023108701370053213700222174B1A7004220A331A70164A137843F00F031370013A137843F001032A
:402B80001370013A137843F08003137038BD00BF80400040824000408640004088400040004100407C040048004300400F010049A1460040224200402542004004400040B4
:402BC0000640004001400040A243004038B572B63C4C61232370FFF76FFF012323703A4A137843F00403137000240CE0374963001A1952000A4423445B00C8589188FFF757
:402C000051FF0134E4B2072CF0D900240BE02F49A3001A1952000A44106B516B8022FFF747FF0134E4B2002CF1D04FF090402849FFF7E4FE0A24274B1C7040F20312393B74
:402C40001A80254A137843F0020313701032137843F002031370214D2B7843F040032B70A2F58632513A137843F0100313701C481C490822FFF71CFF1B481C490822FFF741
:402C800017FF1B481B492246FFF712FF1A481B490822FFF70DFF1A481A492246FFF708FF19481A492246FFF703FF194A137843F008031370FFF7BCFE164829460E22FFF736
:402CC000F7FE38BD00480040E846004040780000780000488358004003500140A04300400251004040040048C251004048040048F051004050040048125100405C0400483C
:402D00002051004064040048305100407004004822430040B0430040044A137803F0FE0300F0010018431070704700BF2051004010B500F00DF900F0A5F9D0B900F0E4F97E
:402D40000446072812D102E0012000F093F80A4B1B7813F0020FF7D0074B1B7813F0020F04D0054B1B789B0800D1002400F0B0F900E00424204610BD2247004010B500F03C
:402D8000E7F800F07FF910BB012000F05DF9072818D11048022100F0EDF802280AD102E0012000F067F80C4B1B7813F0020FF7D0002409E0084B1B7813F0020FE9D04FF017
:402DC000FF3401E04FF0FF3400F082F900E00424204610BD380600202247004008B5FFF7A7FF034610B9FFF7C9FF0346184608BD08B502F039FE0F4A137843F00803137080
:402E00001032137843F008031370C8220A4B1A700A4A137843F0100313701032137843F010031370064B1B7813F0200FFAD002F01FFE08BDA043004001470040AC4300406F
:402E40000047004001BE704710B5044605E0084B186802F001FEA4F50044B4F5004FF6D8034B586800FB04F002F0F6FD10BD00BFCC81FF1F08B5034B1B7A03FB00F002F0A1
:402E8000EBFD08BDCC81FF1F70B504460E46074B1D681F2802D90020FFF7D4FF04F01F04103455F8240045F8246070BD08ED00E038B504460D46072902D90020FFF7C2FF5A
:402EC0001F2C02D90020FFF7BDFF04F01F0000F1604000F564406D01EDB2057038BD00BF134B1B78DBB20360124A127843EA02230360114A127843EA024303600F4A12784E
:402F000043EA026303600E4B1B78DBB243600D4A127843EA022343600B4A127843EA024343600A4A127843EA02634360704700BF0301004904010049EC46004002010049D4
:402F40000101004900010049050100490601004908B502F089FD064A137843F0080313701032137843F00803137002F081FD08BDA043004070B506460D4600240CE0012071
:402F8000FFF778FF064B1B7813F0010FF7D0054B1B7833550134E4B2AC42F3D3204670BD2247004020470040124B1B7813F0020F19D010B4104BB6241C70D5241C700224FC
:402FC0001C7002331B7813F0020F0ED10A4B1870002304E0CC5C0848047001339BB29342F8D3072002E00420704709205DF8044B704700BF224700402047004030B4104CE2
:40300000247814F0020F15D00E4CB6252570D8252570052525700234247814F0020F0BD1084C2070080A2070C9B2217022702370072002E0042000E0092030BC704700BFCD
:4030400022470040204700400C4B1B7813F0020F0FD00B4BB6221A70E1221A700E221A7002331B7813F0020F05D1054B187007207047042070470920704700BF2247004099
:403080002047004010B502F0EFFC0F4B1B78A3B901220D4B1A700D4B1B6813F0010F0ED00A4A136823F00103136000BF00BF00BF0122054B5A60002402E0042400E00024B8
:4030C00002F0D6FC204610BDA40300200400084008B502F0C9FC0A4B00221A705B68012B0AD1084A136843F00103136000BF00BF00BF0022024B5A6002F0BAFC08BD00BF7E
:40310000A403002004000840074B1B7813F0020F08D0064BB6221A70E0221A700D221A70072070470420704722470040204700400222014B1A60704700E100E00122014BD9
:403140001A60704700E100E008B502F08DFC0B4A137843F020031370FF32137843F0100313700132137843F01003137002F080FCFFF7DEFFFFF7E2FF08BD00BF9964004087
:403180000222014B1A60704780E100E00122014B1A60704780E100E010B5FFF7F1FF064B1C78064A137803F009031C4300231370FFF7BEFF204610BD68650040450600207F
:4031C00010B5FFF7E3FF064B1B78064A147804F040041C4300231370FFF7B0FF204610BD696500405206002010B504462A4B1A7802F0FF0312B1013BDBB200E00423274AC9
:403200001278D2B29342F1D0FFF7BAFF244B1978244A137803F009030B4313701E4B1B781E4A1278DBB2934207D11E4B1B7813F0040F02D01C4B1C702BE0184A1378013347
:40324000DBB213701378DBB2042B02D90022134B1A70124B1B78104A1278DBB293420ED10D4A13780133DBB213701378DBB2042B02D90022084B1A7001220C4B1A70074B60
:403280001B78DBB20A4AD4540A4A137843F004031370FFF74DFF10BD4E060020500600206865004045060020496400404D060020400600208865004008B501E00A4B1B78EC
:4032C0000A4B1B7813F0200FF8D102F0CDFB084B1A7842F001021A701A7802F0FE021A7002F0C6FB08BD00BF59640040696500409964004010B50F22174B1A70174C022396
:40330000236001200721FFF7D3FD01201449FFF7BBFD0123236000200721FFF7C9FD00201049FFF7B1FDFFF7C7FF00240E4B1C700E4B1C700E4B1C700E4B1C700E4B1C70AE
:403340000E4B1C70FFF728FFFFF73AFF0C4B1C70202201331A7010BD8964004080E100E0A13300003D3400003C060020510600204F0600204D0600204E060020500600200E
:403380008865004008B5054B1B7823B9FFF7B2FF0122024B1A70FFF7D7FE08BDAC03002028E01E4B19781E4A137803F009030B431370137813F0040F23D01A4B1B7813F010
:4033C000FF0F0CD1184A13780133DBB213701378DBB2042B06D90022134B1A7002E00022104B1A70104B1B78DBB2104AD35CDBB20F4A13700C4B1B780E4A1278DBB29342FD
:40340000CFD1094B1B780B4A1278DBB2934204D1094A137803F0FB031370704768650040450600204D0600204E06002040060020496400405006002088650040204B1A7894
:4034400020490B7803F0400313430B7031E01E4B1A78D2B21D490B780133DBB20B700B78DBB2042B02D90021184B1970174B1B7817490978DBB28B420ED115490B78013359
:40348000DBB20B700B78DBB2042B02D90021104B197001210F4B19700C4B1B78DBB20E49CA54074B1A7807490B7803F0400313430B70044B1B7813F0200FC8D1704700BF13
:4034C0006965004052060020596400404F060020510600203C06002048060020054A137843F0020313701032137843F002031370704700BFA74300400F490B7803F0FC0204
:4035000000F0030313430B7001280AD10B4B1B78DBB20B4A13700B4B1B78DBB2013213707047094B1B78DBB2054A1370074B1B78DBB2013213707047415800401101004936
:403540003246004015010049AF010049B701004908B50120FFF7D0FF0B4B1A7802F0DF021A701A7802F0FB021A701A7842F008021A7003F28E231A7802F0E7021A701A78C0
:4035800042F010021A7008BD4158004008B5054B1B7823B9FFF7DCFF0122024B1A70FFF79DFF08BDAD030020024B1878C0F34000704700BF31510040024B1878C0F3C000D9
:4035C000704700BF31510040024B1878C0F38010704700BF21510040024B1878C0F34010704700BF2151004010B50222114B1A7081220E3B1A70082202331A702A22113385
:403600001A70002401331C704FF400420A4B1A600F200721FFF74CFC0F200849FFF734FC1022074B1A70074B1C70074B1C70074B1C7010BDD649004080E100E09D360000A5
:403640005306002056060020580600205406002008B502F009FA064A137843F0040313701032137843F00403137002F001FA08BDA543004008B5074B1B7823B9FFF7B4FF88
:403680000122044B1A70FFF7E3FF4FF40042024B1A6008BDAE03002000E100E038B5A44B1C78E4B2A34B1B7813F0400F00F0378114F0010F00F01B819E4B1B78453B052B46
:4036C00000F21281DFE813F006008200100110010600DE0004F0DF0504F00A04082C42D1944B1B78DBB2452B35D1934B1B7813F0FF0F10D0914B1B681B78DBB2904A137019
:4037000004228B4B1A7001228E4B1A704622894B1A702C46EBE08C4B1B7813F0020F0DD08A4A137843F00A0313706022814B1A704FF40042864B1A602C46D8E0854A1378D1
:4037400043F0100313701022834B1A700422023B1A702C46CBE00022754B1A704A22754B1A702C46C3E00A2C2BD1784A137843F0A0031370744B1B7813F0020F14D06D4BDB
:403780001B7813F0080F01D0092300E00A236F4A11780B4313706022664B1A704FF400426B4B1A602C46A2E06A4A137843F0100313701022684B1A700422023B1A702C4603
:4037C00095E00020FFF73EFB2C4690E014F0020F35D15C4B1B78584A1278DBB2934210D2584A1378DBB255490968CB5CDBB254490B7004214E4B197013780133DBB21370B3
:4038000075E0514B1B7813F0020F0CD04F4A137843F00A0313706022464B1A704FF400424B4B1A6063E04B4A137843F0100313701022494B1A700422023B1A7057E0424BCE
:403840001B7813F0020F0CD0404A137843F09A0313706022374B1A704FF400423C4B1A6045E03C4A137843F01003137010223A4B1A700422023B1A70344A137843F090034D
:40388000137034E0354A1378DBB2354908682C490978C9B2C15413780133DBB213701378304A1278DBB2934203D21022204B1A701DE0254B1B7813F0020F0CD0234A1378C2
:4038C00043F00903137060221A4B1A704FF400421F4B1A600BE01F4A137843F0100313700022134B1A7002E00020FFF7ABFA14F0200F1CD00F4B1B7813F0080F01D00123C2
:4039000000E00223114A11780B431370114A137803F0EF0313701022064B1A7038BD054B1B7813F0100F02D11022024B1A7038BDD749004053060020570600205C060020CF
:40394000D849004054060020550600205606002080E100E0D6490040D94900405806002060060020640600201A4B1B78DBB2102B29D1194B1B7813F0080F26D14FF400429E
:40398000164B1A604000C0B229B140F001004922104B1A7002E045220E4B1A70104B1870012201331A700F4B1B7813F0010FFAD00C4B1B7803F00A030A2B08D11022054BEB
:4039C0001A700320704702207047012070470020704700BF53060020D949004080E100E0D8490040D74900400A4B1B7813F0040F0ED01023074A13700421023A1170064A2A
:403A00001370064B1B7813F0210FFAD00020704702207047D949004053060020D7490040114B1B7813F0040F1BD0104B18700422013B1A7046220E4B1A700E4B1B7813F03E
:403A4000010FFAD00B4B1B7813F0020F04D16022074B1A70002070476022054B1A70032070470220704700BFD9490040D849004053060020D7490040044A137803F0FD032F
:403A8000400000F002001843107070472051004008B5FFF7A3F9FFF7ABF908BD08B5FFF7F7FF08BD38B504460D46FFF751FA15F0800F48D1FFF7E6FA002846D14020214621
:403AC0001022FFF771FA07282FD1214B1B7813F0020FFAD01E4B1B7813F0020F06D01C4B1B789B0805D04FF0FF3403E04FF0FF3400E00024E4B9174B402029461A785B78D1
:403B0000FFF77CFA072816D1114B1B7813F0020FFAD00F4B1B7813F0020F0FD00C4B1B789B080DD04FF0FF340AE04FF0FF3407E04FF0FF3404E04FF0FF3401E04FF0FF341C
:403B4000FFF7C6FA02E0012400E00424204638BD2247004038060020F8B501F085FF0646404A137843F0010313701032137843F00103137001273C4B1F700225943B1D7099
:403B800002F5E2521B32137803F07F0313700020FFF770F9354C237803F0F9032370344A137803F0DF03137023783B4323703846FFF760F92820FFF75DF92E4B1A7802F082
:403BC0007F021A701A7802F0BF021A7023782B4323702846FFF74EF9237843F0040323700023254A137001321370304601F040FF17200721FFF75CF917202049FFF744F94E
:403C000018200721FFF754F918201D49FFF73CF915200721FFF74CF915201A49FFF734F928460721FFF744F928461749FFF72CF903200721FFF73CF903201449FFF724F90A
:403C400004200721FFF734F904201149FFF71CF90C200721FFF72CF90C200E49FFF714F9F8BD00BFA54300409D6000409443004012600040F8510040846000406D47000054
:403C80005545000069470000C9460000F94600002D4700007547000008B5214B18700023204A1370204A1370204A1370204A1370204A1370204A1370204A1370204B4FF43F
:403CC00000021A604FF080721A604FF400121A6004221A6008221A6010221A6011B1012906D00BE0174A137803F0FE0313700AE0144A137843F00103137004E0114A137877
:403D000043F00103137003220F4B1A708022203B1A70012001F0A0FE04220C4B1A7008BD8106002084060020A0060020A306002098060020A2060020A506002080060020E6
:403D400000E100E009600040286000401260004038B505460C46064B1B7823B9FFF7FCFE0122034B1A7028462146FFF795FF38BDAF03002000230A4A13700A4A13700A4ADF
:403D800013700A4A13700A4A13700A4A13700A4A13700322094B1A708022203B1A70704784060020A0060020A306002098060020A2060020A50600208006002028600040EB
:403DC00008B501F051FE224A137803F07F0313700A32137803F0FB031370A2F5E3520D3A137803F0FE0313701032137803F0FE031370184B1A7842F080021A701A7842F04C
:403E000040021A7001F034FE134B4FF400021A604FF080721A604FF400121A6004221A6008221A6010221A6001F0FAFC4FF480520A4B1A6000230A4A13700A4A13700A4A1C
:403E400013700A4A13700A4A13700A4A137008BD08600040F851004080E100E080E200E0A0060020A306002098060020A2060020A5060020AF030020014B1878704700BFBD
:403E8000A306002000EB40008000024B18444078704700BFA8060020431EDBB2072B0BD8064B00011A18185C00F00F00537843EA0020023880B2704700207047FC5F004042
:403EC000431EDBB2072B3BD8F0B4074600EB40039B001C4C2344DB889BB2C3F500739A4207D900EB40039B002344DA88C2F5007292B200EB40039B00124C2344DB7843EA62
:403F00001223114D04012E192B55D3B2737039B909E0CE5C3D010D4C665501339BB200E000239342F5D3430003449B00054A134400225A705A79D2B20001054B1A54F0BCC9
:403F4000704700BFA8060020FC5F004078600040FE5F0040431EDBB2072B0BD8430003449B00054A134400225A705A79D2B20001024B1A54704700BFA8060020FE5F0040FF
:403F800070B5D9B1054614460E46C8B1082819D8FFF782FFA04203D22846FFF77DFF0446002305E02901094A525CF25401339BB2A342F7D32846FFF7CDFF04E0002402E0A4
:403FC000002400E00024204670BD00BF7860004010B4FF2400220EE00A4B9B5C03EB43039B0009490B449B78DBB2834201D1144602220132D2B2012AEED920465DF8044B14
:40400000704700BF70060020B006002010B5204C2079FFF7DDFF237813F0800F0ED06378DBB2212B2FD11B4B07221A80C0EBC000194A1044586000F0FBFA10BD144B5B785C
:40404000DBB2202B02D0222B10D01EE0114A07231380C0EBC00310490B4453600F4A135C43F00103135400F00BFB10BD084B9B780B4A22F81030094A135C43F002031354EB
:4040800000F096F910BD002010BD002010BD00BF006000408C060020DC81FF1F680600207C06002010B500241F4B1C701F4B1C705C700AE01E4B185DC0B2431EDBB2072B23
:4040C00001D8FFF747FF0134E4B2012CF2D9194B1B7813F0FF0F1AD0154B1B7813F0FF0F17D0154B1B7813F0FF0F14D0114B1B78DBB2082B11D80E4B1B78DBB2082B0ED8F9
:404100000D4B1B78DBB2082B0BD8002010BD012010BD012010BD012010BD012010BD012010BD012010BD00BFB003002068060020740600206C0600207006002070B506461D
:404140000D460E4B1B780E4AD45CE4B204EB44039B000C4A13441B899BB28B4208D204EB44039B0013441D89ADB20020FEF76AFE204631462A46FFF7A3FE70BDB00300203E
:404180006C060020A806002008B5034B1B78034AD05CFFF777FE08BDB00300207406002008B5034B1B78034AD05CFFF76BFE08BDB00300206C06002008B503460A460449A8
:4041C00009780448405C1946FFF7DAFE08BD00BFB0030020740600200A4B1B7813F0FF0F0CD1094B1B78094AD25C12F0FF0F07D0064AD05CC0B20021D15470470020704751
:404200000020704784060020B003002068060020C37803F0030390F9020000280FDA032B06D002F001030B48C15442F001020EE0C2F380030848C15442F0040207E0032B5D
:4042400005D0C2F340030548C15442F002021046704700BF6C06002070060020740600201C4B19781C4A13880B449BB2138000230EE01A4A51680978C9B21948C1545168CA
:40428000013151600133DBB21188013989B21180124A128892B20AB1072BEAD90D4A1278D2B2082A00D05BB10E490A7882F080020A700F210C4A117002210C4A117004E032
:4042C000022209490A7009490A70094A1370014A1370704780060020820600208C0600200060004016070020A106002084060020A40600200222074B1A708022064B1A7012
:404300000F22064B1A700023054A1370054A1370012070478406002016070020A106002080060020A406002008B5FFF799FF08BD10B4184B197801F00F010239C9B2164AD5
:4043400013880B449BB21380002010E0134B5C68134A125CD2B222705A6801325A600130C0B20139C9B21A88013A92B21A800B4B1B889BB20BB10029E8D10A4B19700A4A88
:40438000137883F0800313700B22084B1A705DF8044B704729600040820600208C06002000600040A406002016070020A10600200623064A1370064A13708022054B1A70B8
:4043C0000022054B1A700120704700BF84060020A106002016070020A4060020064B9B6843B1054B9A6810709A6804490988518000229A60704700BF8C06002082060020FB
:4044000008B5134B1A78D2B21A701B78DBB213F0800F02D00F4A137008BD0220FFF7DEFF0D4B1B7803F06003202B05D0402B06D043B900F089FC06E001F01EFB03E000F0D1
:404440002BFE00E0002010B90322024B1A7008BD28600040A10600200060004008B5084B1978084A13880B449BB213800022064B1A700120FFF7B2FF0322044B1A7008BD15
:40448000800600208206002084060020A106002008B50B4B1B78DBB2042B06D0062B07D0022B0BD1FFF7DAFF08BDFFF741FF08BD0320FFF793FF0322024B1A7008BD00BF3A
:4044C00084060020A106002008B50022044B1A700120FFF783FF0322024B1A7008BD00BF84060020A106002008B50B4B1B7813F0FF0F07D0084A137843F0800307490B701D
:40450000002313700022064B1A700120FFF766FF0322044B1A7008BDA20600200860004084060020A106002008B5094B1B78DBB2042B06D0062B07D0022B07D1FFF7F4FE8D
:4045400008BDFFF7C1FF08BDFFF7CEFF08BD00BF8406002008B5284B1B78DBB213F0100F48D013F0800F0CD003F00F03012B16D1FFF746FF214B1B7813F0800F11D1012328
:4045800012E013F0400F03D0FFF7CEFF01230BE013F0200F07D0FFF77BFF012304E0002302E0002300E0002323B3134B1B7813F0800F1FD1124B1B78124A12781343124A95
:4045C00013701278D2B29A4214D10C4B1B78DBB2094A127812F0800F07D1084B1B78DBB2054A1370137803F00F03044A1278D2B29342EAD108BD00BF28600040A1060020D8
:4046000016070020A4060020296000400022064B1A80064B9B682BB1044A916800230B7092685380704700BF820600208C06002008B50F4B1B889BB213B9FFF75BFE15E0D4
:4046400002220C4B1A7000220B4B1A70FFF7DEFF0A4AD179937943EA0123054A128892B29A4201D9024A1380FFF7FAFD012008BD8C06002084060020160700200060004097
:4046800008B504220B4B1A7080220B4B1A70FFF7BDFF0A4AD179937943EA0123084A128892B29A4201D9064A13800B22054B1A70012008BD840600201607002000600040CB
:4046C0008C060020A10600200122094B1A700F3B9B7C084B1B7B03F00303934204D0054AD37B83F08003D3730122024B5A7370470B600040A806002002220A4B1A700F3BC1
:4047000093F82230084B1B7E03F00303012B04D0054AD37E83F08003D3760122024B5A76704700BF0B600040A806002004220C4B1A700F3B93F832300A4B93F8243003F044
:404740000303012B06D0074A92F8273083F0800382F827300122034B83F82520704700BF0B600040A8060020704700BF08B5FFF701FB08BD08B501F053F808BD70B588B013
:40478000054603AC174E0FCE0FC43368237035B322232B7003236B7001A8FEF7A1FB002402231AE008AA224412F81C2C08A901EB121111F8141CE954581C00212954981C10
:4047C00002F00F0208AE324412F8142C2A54DA1CA9540134E4B20433DBB2212BE2D908B070BD00BF7C78000010B401223DE0114613010C242148C45402EB42039B0020484C
:4048000003445B7913F0FF0F12D002EB42039B0003441B7913F0800F04D01001194B03449C700AE01001174B03440820987004E01001144B0344802098704B000B449B0048
:404840000F480344DC88E4B208010C4901448C71D888C0F30720C871D888C0B20871DB88C3F307234B710132D2B2082ABFD9FF22054B1A705DF8044B704700BF706000409D
:40488000A8060020FC5F00400A600040074B1B78074A02EBC30253681A7C824203D903EBC003586970470020704700BF81060020D07E0000F8B5404B1B7813F0FF0F79D033
:4048C0003D4B18780138C0B2FFF7E0FF047AC2683A4B1878C0B200236AE01178814264D13749095CC9B25578A9425ED1917801F07F01D67806F00306DFF8C8E04D000D44D8
:40490000AD000EEB05074FF0000C87F803C092F802C087F804C092F803C00EF805C095883D8192F90250002D0DDA012E01D1072700E00D274D000D44AD00224E35446F716E
:4049400001266E700CE0012E01D1052700E009274D000D44AD001B4E35446F7100266E70DFF868E00F010EEB07060125B57001FA05F529448900134D29440D89C5F3072546
:404980000EF807500D89EDB27570CE88F6B20E4D3D44AE71CE88C6F30726EE71CE88F6B22E71C988C1F30721697108320133DBB2A34292D3F8BD00BFA30600209806002008
:4049C00014070020A806002070600040FC5F0040034B1A78034B03EBC2035868704700BF81060020D07E000008B5074B18780138C0B2FFF74BFF28B14268127900EBC203AF
:404A0000586908BD002008BDA30600202DE9F84300220EE06F4E53009D18AD00741900217155A170E1702181A172617061710132D2B2082AEED940B90AE000226649CA54BF
:404A40006649CA540133DBB200E00023012BF4D9634B1B7813F0FF0F00F0B980604B18780138C0B2FFF712FF80464368DB7913F0400F05D05B4A137843F00103137004E08A
:404A8000584A137803F0FE03137098F808704FF0000901266CE0D8F80C50002464E0AB7803F07F039E425CD1314606EB46039B00484803441B899BB2A888834205D206EB85
:404AC00046039B00434A134418812B784248C35CDBB26878834244D195F802C03D484B000B449B0000EB030E8EF804C095F803E000F803E0EB7803F0030395F90200002814
:404B000011DA012B02D14FF0070C01E04FF00D0CDFF8C0E04B0058188000704480F805C00123437012E0012B02D14FF0050C01E04FF0090C27484FEA410E0EEB01039B0081
:404B4000034483F805C0194600234B70AB790A2B01D0022B05D1284631464A46FFF758FB814608350134E4B2BC4298D30136F6B2082E90D9D8F80C0000220CE0837803F0F8
:404B80007F0310F8084B03EB43039B0016490B449C700132D2B2BA42F0D3FFF725FF134B1860002301210EE00A4C4A00501880002044C380028913449BB203F0010213444B
:404BC0009BB20131C9B20829EED9FFF70DFEBDE8F88300BFA80600201407002088060020A3060020A5060020B00600209C06002008B5154B1A7902F07F02531EDBB2072BAD
:404C000020D8530013449B0010490B44997841F0010199700021D970597841F0020159701B7913F0800F05D01201094B13448D229A7004E01201064B134489229A70FFF74E
:404C4000B7FB08BD002008BD00600040A8060020FC5F0040264B1B7903F07F035A1ED2B2072A43D810B55A001A44920021490A44917801F0FE0191700021D17019017F242D
:404C80001D484454517801F0FD015170127912F0800F14D003EB4302920016490A445278D2B2012A05D11B0102461A440C23937019E01B01104A1A440D23937013E003EBE8
:404CC000430292000B490A445278D2B2012A05D11B01094A1A440823937004E01B01064A1A4409239370FFF763FB10BD0020704700600040A8060020FC5F004010B50E4BF5
:404D00001C79E4B20D4B18780138C0B2FFF7BEFD43681B799C4201D9022C0AD8084A135DDBB208490B55044B9B78DBB21355012010BD002010BD00BF00600040A3060020A3
:404D4000140700208806002010B59B4B1B78DBB200219A4A118013F0800F00F0AD80964A5278D2B20A2A00F27281DFE812F06900700170017001700170010B00700192007E
:404D800070019A008C4BDB78DBB2012B09D1FFF71FFE4268894B5A6012221A80FFF748FC10BD854BDB78DBB2022B13D1824B9878FFF76CFD002800F04C8142687F4B5A60FB
:404DC0005A68D1785A68927842EA01221A80FFF72FFC10BD784BDB78DBB2032B05D02CE00A7811440133DBB201E000237449724A9278D2B29A4203D90A7812F0FF0FEFD1A6
:404E00006D4B9B7813F0FF0F0BD06B4B9B78DBB26C4A127C934204D16B4C2046FFF7AEFC21460B7813F0FF0F00F015810B78634A13805160FFF7FCFB10BD00F01DFE10BD33
:404E400013F0030317D0022B40F007815B490B80594B1B7903F07F0303EB43039B005B4A13449A78D2B25A4B1A7000225A704B60FFF7DEFB10BD514902230B80554B1A7842
:404E8000D2B2534B1A7000225A704B60FFF7D0FB10BD4A4B01221A804F4A5A60FFF7C8FB10BD464A01231380434B1B794B490B445360FFF7BDFB10BD3F4A5278013A0A2ABA
:404EC00000F2CD80DFE812F04B00CB009600CB000B00CB00CB00CB001300CB003000364B9B78DBB23E4A1370FFF762FA10BD324B9B7803F0FF041BB1601EC0B2FFF7C6FC74
:404F000004B110B9002C40F0AC80334B1B78DBB29C4206D0304B1C700120324B1870FFF775FDFFF745FA10BDFFF7E8FE002800F09A80214A1379DBB21279D2B22A490A70F4
:404F40002A4AD25C2549C95CD3B28B4204D00122244B1A70FFF7AEFCFFF72AFA10BD03F00303012B17D04BB1022B7ED1124B9B7813F0FF0F7BD1FFF76DFE10BD0E4B9B7848
:404F8000DBB2012B75D1134A137803F0FD031370FFF70EFA10BD084B1B79DBB2012B6AD8054B98781B79DBB21149CA5C22EA0002CA54FFF7FDF910BD006000408C060020AF
:404FC000387F00001C80000024070020A8060020B4030020A5060020A306002014070020A2060020A006002098060020880600201807002003F00303012B17D04BB1022B31
:405000003BD1224B9B7813F0FF0F38D1FFF7F0FD10BD1E4B9B78DBB2012B32D11C4A137843F002031370FFF7C3F910BD174B1B79DBB2012B27D8154B98781B79DBB215491A
:40504000CA5C22EA0002CA54FFF7B2F910BD002010BD002010BD002010BD002010BD002010BD002010BD002010BD002010BD002010BD002010BD002010BD002010BD002034
:4050800010BD002010BD002010BD00BF00600040A506002018070020044B1B7813F0800F01D0024B5B780020704700BF0060004010B59DF80840012C4AD10138092826D8F3
:4050C000DFE800F00525250525250D15251D0F2B02D9214800781BE02048007818E00F2B02D91F48007813E01E48007810E00F2B02D91D4800780BE01C48007808E00F2B9E
:4051000002D91B48007803E01A48007800E0002040B201EB401101FB02F1C90B8AB20D2B0BD8C3F10E0289B211418AB2124901EB8401013301F8023C05E00F4B03EB84033B
:405140000F2103F8021C013C0B4B23F8242010BD0020FDF777FE10BD180100491C010049190100491D0100491A0100491E0100491B0100491F010049B8030020F8B50746D0
:4051800000F072FC06460D4D2B7843F003032B700B4C237843F0030323700A4B1F700320FDF768FE2B7803F0FC032B70237803F0FC032370304600F05BFCF8BDF846004015
:4051C000F946004092580040F8B500222F4B1A71012859D134222E4B1A70052202331A70082201331A70002401331C7001331C702D2201331A7002331C7001331C70013352
:405200001C7001250A331D70142203F527631A70092201331A700A2701331F7001331C70112203331A70122201331A7001331D70022602331E70222201331A702822013302
:405240001A70EB2201331A704420FFF797FF5822104B1A7001331C7005331E7001331E7001331C7001331C704FF4FA520A4B1A600320294600F0F4FA3846294600F07EFB9E
:405280001D200649FDF700FEF8BD00BFB8030020004E00409458004020070020DD540000F0B583B0284D01272F70284E00247471102000F0C3FA102000F04EFB1D200721B1
:4052C000FDF7F6FD0420224B187001331C7007331C70204A137843F0180313701E4B1C7003F2F5231C7001331C700A22A3F209331A7001331C7002331C70122205331A7016
:40530000132201331A7004331C701422A3F68C231A70009748F6B65147F2E9720E23FFF7C7FE2B7806EB830313F8022C0B4B1A702B78013B36F82320094B1A802878FFF74C
:4053400043FF03B0F0BD00BFF881FF1FB803002096580040075B0040935800400E4E00400C4E004070B500F07FFB06462A4B1B782A4B1A7842F001021A701A7842F01002AA
:405380001A7010331A7842F001021A701A7842F010021A70224D2B7843F002032B70214C237843F0020323701F4A137843F0030313700320FDF75EFD2B7803F0FD032B7064
:4053C000237803F0FD032370184A137843F0060313707A22164B1A70164A137843F0010313701032137843F0010313700F3A137843F0040313701032137843F00403137012
:405400004FF000530C4A1360A2F5C0721360304600F02EFB70BD00BFF881FF1FAA430040F8460040F9460040915800407758004082580040A143004080E200E008B5084BD1
:405440009B794BB9064BDB7913F0FF0F01D1FFF727FF0122024B9A71FFF784FF08BD00BFB8030020044A137803F0F303800000F00C001843107070479B580040024A137843
:4054800043F0010313707047004E00400E4B1B7803F00303012B03D80C4B188880B209E00A4A12780A49087842EA0020032B01D1084B1B78084B1B7913F0FF0F02D0002220
:4054C000054B5A7100B27047144E0040104E0040114E0040124E0040B8030020704700BF054A137843F0080313701032137843F008031370704700BFA8430040054B1A78AC
:4055000002F0FD021A701A7800F0020010431870704700BF2C580040014B1870704700BF835B0040064B1B78C3F3810303F19243063393F83831DBB2024A1370704700BF09
:405540002C5800400B46004008B5064B1A7802F0F3021A701A7800F00C0010431870FFF7E1FF08BD2C58004010B50024054B1C7001331C702046FFF7E7FF2046FFF7BEFF1D
:4055800010BD00BF2C58004008B5074B1B7823B9FFF7EAFF0122044B1A70FFF7A1FF7D20FFF7BAFF08BD00BFC0030020014B1B685865704708ED00E04001C0B2014B18705A
:4055C000704700BF05E400E02022014B1A60704700E100E02022014B1A60704780E100E010B50446FFF7F6FF2046FFF7DFFF0720FFF7E2FFFFF7E8FF10BD00BF054A137877
:4056000043F0010313701032137843F001031370704700BFA8430040054B1A7802F0FD021A701A7800F0020010431870704700BF20580040014B1870704700BF805B004039
:40564000064B1B78C3F3810303F19243063393F82031DBB2024A1370704700BF205800400846004008B5064B1A7802F0F3021A701A7800F00C0010431870FFF7E1FF08BD01
:405680002058004010B50024054B1C7001331C702046FFF7E7FF2046FFF7BEFF10BD00BF2058004008B5074B1B7823B9FFF7EAFF0122044B1A70FFF7A1FF6420FFF7BAFFEC
:4056C00008BD00BFC1030020F8B5254A137843F01003137002F50342DA32137803F0FE0313703F2308321370043213701D4D4FF480741D482946224600F0FEFC1B48294617
:40570000224600F0F9FC1A481A49224600F0F4FC4FF4007418481949224600F0EDFC18481849224600F0E8FC174C184E04F14007354620686168A268E3680FC510342E46A6
:40574000BC42F5D10024124B1C70032000F058F8204600F05DF8F8220E4B1A70F8BD00BFA6430040D07D000000C4004000C5004000C600409078000000C00040D07B000001
:4057800000C20040D07900009079000000C700408CC7004084C70040084A137843F0100313701032137843F01003137002F50342CA32137843F0010313707047A6430040D7
:4057C00008B5054B1B7823B9FFF77EFF0122024B1A70FFF7E1FF08BDC203002018B9064B188880B27047012803D1044B188880B270470020704700BFA9C70040ADC70040C6
:4058000000F01F00014B1870704700BF98C7004000F00F00014B1870704700BF9CC70040024B1878C0F38010704700BF8F450040014B188880B2704788400040034B1A781D
:4058400000F0F80010431870704700BF8A400040024B187800F00700704700BF8A40004070B504460D46FFF7F3FF0646FFF7E0FF844257D02C4B1B7803F00403DAB296B9FA
:4058800000B184B938B9294B1C80294A137803F0BF03137070BD264A137843F040031370224B1C8070BD22B3002322490B7004260F310E7004310B700C390B7803F07F03B9
:4058C0000B701B4B1B7813F0080F00D08CB91A4B18800721013B1970164B1B7813F0010FFAD111490B7803F0FB030B700021114B19700D4B1B7813F0040F0DD00E4B1C8027
:405900000DB1032200E001220A4B1A70094B1B7813F0010FFAD170BD044B1C8002490B7813430B7070BD00BFA2430040884000408A40004001400040024000404FF000526F
:40594000014B1A60704700BF00E100E0014B188880B2704700410040034B1A7800F0F80010431870704700BF02410040024B187800F00700704700BF0241004070B50546FB
:405980000E46FFF7F3FF0446FFF7E0FF854256D02B4B1B7803F0010294B900B185B938B9284B1D80284A137803F0BF03137070BD254A137843F040031370224B1D8070BDD7
:4059C00022B3002321490B70012413310C7004390B7008390B7803F07F030B701A4B1B7813F0080F00D08DB9194B18800721013B1970164B1B7813F0010FFAD110490B78BA
:405A000003F0FE030B700021104B19700C4B1B7813F0010F0DD00E4B1D800EB1032200E001220A4B1A70094B1B7813F0010FFAD170BD044B1D8002490B7813430B7070BDB2
:405A4000A143004000410040024100400140004002400040000000000230800803D000BF01380046FCD17047EFF3108072B6704780F31088704700BF08B5124B1B7803F03A
:405A80000303012B02D0022B04D00FE00D4B1B79DBB20CE00B4B1B7903F07F0303EB43039B00094A13449B78DBB200E00023074A1268D35C022B02D1FEF7A8FA08BD00209C
:405AC00008BD00BF00600040B00600209C06002053B94AB9002908BF00281CBF4FF0FF314FF0FF3000F03CB882B0EC462DE9005000F01EF8DDF804E002B00CBC704700BFAE
:405B00002DE9F041069C904606460F461D4600F029F808FB01FCA8FB002300FB05C5B21A2B4467EB03038646C4E90023BDE8F0812DE9F843089E1746804689461D4600F085
:405B400067F900FB05F3A0FB074507FB0137B8EB04043D4469EB0505C6E90045BDE8F883704700BF00292DE9F043C0F2A8800026002BC0F29E8081468E4690469C46174680
:405B800004460D46002B3DD18A4259D9B2FA82F33BB1C3F120029D4020FA02F29F4015439C40390CB5FBF1F01FFA87FE01FB10550EFB00F3220C42EA0545AB4209D9ED19E6
:405BC00000F1FF3280F00B81AB4240F2088102383D44ED1AB5FBF1F301FB13550EFB03FEA4B244EA0545AE4508D9ED1903F1FF3280F0F780AE4540F2F480023B43EA004321
:405C0000002203E08B420FD900221346341C18BF012460424FF0000565EB45015840514000196941BDE8F083B3FA83F2002A40F089808B4202D3804500F2E2800123E5E733
:405C400012B90123B3FBF2F7B7FA87F8B8F1000F3BD1ED1B4FEA174C1FFA87FE0122B5FBFCF00CFB10550EFB00F3210C41EA0545AB4207D9ED1900F1FF3102D2AB4200F2F8
:405C8000C3800846ED1AB5FBFCF30CFB13550EFB03FEA4B244EA0545AE4507D9ED1903F1FF3102D2AE4500F2AD800B4643EA0043ACE752426FEA060663EB43035BE74042DE
:405CC00061EB41014FF0FF3652E707FA08F7C8F1200225FA02F34FEA174CB3FBFCF11FFA87FE0CFB113324FA02F205FA08F50EFB01F92A43100C40EA0343994504FA08F478
:405D000007D9DB1901F1FF3078D2994576D902393B44C9EB0303B3FBFCF00CFB10330EFB00F592B242EA03439D4207D9DB1900F1FF325FD29D425DD902383B445D1B40EA75
:405D400001428CE7C2F1200328FA03F10CFA02FC41EA0C0C4FEA1C402EFA03F1B1FBF0F51FFA8CF700FB151129FA03F30EFA02FE07FB05F943EA0E0E4FEA1E4343EA0141C8
:405D8000894508FA02F808D911EB0C0105F1FF3332D2894530D9023D6144C9EB0101B1FBF0F300FB131107FB03F71FFA8EFE4EEA014E774508D91EEB0C0E03F1FF3117D2EF
:405DC000774515D9023BE64443EA0543A3FB0889C7EB0E0ECE4509D305D0002216E71046F7E613460AE794404445F6D2013BF4E70B46E9E71046A1E71D46CEE7014688E7B7
:405E0000134603E7023B51E702383D443AE700BF2DE9F043002B44D18A42154604464FD9B2FA82F70E464FB1C7F12003B94020FA03F602FA07F50E4300FA07F42F0CB6FB63
:405E4000F7F01FFA85FE07FB10620EFB00F1260C46EA0243994209D95B1900F1FF3280F0EE80994240F2EB8002382B44591AB1FBF7F307FB13110EFB03FEA4B244EA014139
:405E80008E4508D9491903F1FF3280F0DA808E4540F2D780023B43EA004000263146BDE8F0838B4247D8B3FA83F6002E48D18B4202D3824200F2CF8001203146BDE8F08372
:405EC00012B90125B5FBF2F5B5FA85FCBCF1000F78D1491B2F0C1FFA85FE0126B1FBF7F007FB10110EFB00F2230C43EA01418A4207D9491900F1FF3302D28A4200F2BC8035
:405F00001846891AB1FBF7F307FB13110EFB03FEA4B244EA0142964508D9521903F1FF3180F09180964540F28E80023B43EA00403146BDE8F083002630463146BDE8F08388
:405F4000C6F1200422FA04F5B3402B4321FA04F74FEA1348B7FBF8FC1FFA83F908FB1C7720FA04FE01FA06F509FB0CF44EEA05054FEA154E4EEA0747BC4202FA06F204D90C
:405F8000FF180CF1FF3168D38C463F1BB7FBF8F408FB147709FB04F9ADB245EA0741894504D9C91804F1FF355DD32C4644EA0C44A4FB0223C9EB0101994249D345D0204672
:405FC00000266BE7CCF1200405FA0CF521FA04F32A0CB3FBF2F61FFA85FE02FB163820FA04F701FA0CF10EFB06F90F433C0C44EA0843994500FA0CF407D95B1906F1FF3108
:4060000038D2994536D9023E2B44C9EB0303B3FBF2F002FB10330EFB00F1BFB247EA0343994207D95B1900F1FF3721D299421FD902382B441746591A40EA06464EE71046B8
:4060400014E7134627E70B4670E7B0409042B6D2601E002622E7304620E7BC4294D9ACF1020C1F4491E789459FD9023C19449DE73846DFE70E46C8E70238294441E700BF77
:40608000014B1868704700BF5C82FF1F0E4B70B51E460E4C0025E41AA410A54204D056F8253098470135F8E701F0DEFF084B094C1E46E41AA4100025A54204D056F825302E
:4060C00098470135F8E770BD7480000074800000748000007C80000010B50A44441E914208D014F8013F0878834201D0181A10BD0131F4E7002010BD10B5431E0A449142E5
:4061000004D011F8014B03F8014FF8E710BD03460244934202D003F8011BFAE7704700000EB400B54FF402719CB0ADF814106FF00041049107914FF6FF711DABADF8161003
:40614000084953F8042B02900690086802A9019300F074F8029B00221A701CB05DF804EB03B070475C82FF1F034611F8012B03F8012B002AF9D17047034613F8012B002A68
:40618000FBD1181A013870472DE9F0478E688246B3420C469046994640D38A8912F4906F3AD02568096902236F1A656905EB450595FBF3F57B1C4B449D4238BF1D465305D1
:4061C0000FD5294600F030FB064698B121693A46FFF792FFA38923F4906343F08003A38113E02A4600F076FB064670B95046216900F0D6FA0C23CAF80030A3894FF0FF3027
:4062000043F04003A381BDE8F08726613E4426604E466561ED1BA560B14500D24E4632462068414600F0A0FAA36800209B1BA36023681E442660BDE8F08700002DE9F04389
:406240009DB003938B8906461C060D4690460CD50B6953B9402100F0E7FA2860286110B90C233360CCE040236B610023099320238DF8293030238DF82A3043461C4613F87E
:40628000012B1AB9B4EB08090FD002E0252AF5D1F8E73046294642464B46FFF775FF013000F0A980099B4B4409932378002B00F0A28000234FF0FF3204930793059206932D
:4062C0008DF853301A9304F101084446DFF8489121784846052200F039FA08F10108049B30B1C9EB00000122824013430493ECE7D80644BF20228DF85320190744BF2B22DA
:406300008DF8532022782A2A02D0079923460EE0039A0134111D12680391002ABBBF524243F0020307920792B8BF04930AE01C4622780133303A092A03D80A2000FB012117
:40634000F5E7079123782E2B1AD163782A2B0AD1039B02341A1D1B680392002BB8BF4FF0FF3305930CE0611C00220C4623780131303B092B03D80A2000FB0232F5E7059201
:40638000DFF8988021784046032200F0DFF938B1049AC8EB00004023834013430493013421781A48062204F101088DF8281000F0CDF988B1164B33B9039B073323F0070351
:4063C0000833039313E003AB0093304604A92A46104BAFF3008007E003AB0093304604A92A460C4B00F092F8421C074603D0099B3B44099341E7AB895B0601D4099801E0AB
:406400004FF0FF301DB0BDE8F08300BF3C800000000000008961000032800000388000002DE9F84391461F468A680B6906469342B8BF1346C9F8003091F843200C46DDF852
:40644000208012B10133C9F800302368990642BFD9F800300233C9F80030256815F006051CD094F843302268003318BF012392061FD5E118302081F843005A1C94F845101A
:406480002244023382F8431013E03046394604F119020123C047013007D00135E368D9F800209B1A9D42F0DBDBE74FF0FF30BDE8F8833046394604F14302C0470130F4D0FD
:4064C0002268D9F80050E36802F00602042A08BF5D1B2269A3680CBF25EAE57500259342C4BF9B1AED184FF00009A9450ADA3046394604F11A020123C0470130D5D009F123
:406500000109F2E70020BDE8F88300002DE9FF410C461746227E98466E2A06460A9B01F1430100F0B08012D8632A23D00AD8002A00F0BD80582A40F0CC8084F84520DFF87D
:4065400004E257E0642A1ED0692A1CD0C1E0732A00F0B18009D86F2A2ED0702A40F0B980226842F0200222603FE0752A24D0782A3BD0AEE01A6804F14205111D19601368FC
:4065800084F84230A9E020681A6810F0800F02D0101D186008E010F0400F02F10400186002D0B2F9003000E01368002B3EDA2D225B4284F8432039E020681A6810F0800FE6
:4065C00002D0101D186007E010F0400F02F10400186001D0138800E01368227EDFF864E16F2A0CBF08220A221CE07822DFF858E184F845202268186812F0800F00F1040526
:406600001D6003D1550601D5038800E00368D00744BF42F0200222601BB9226822F0200222601022002084F8430002E0DFF814E10A226568002DA8BF2068A560A4BF20F0F2
:406640000400206003B965B10D46B3FBF2F002FB10331EF8033005F8013D03460028F4D100E00D46082A0BD12368DA0708D5236962689A42DEBF302305F8013C05F1FF35D7
:40668000491B21612EE025681A6815F0800F606903D0151D1D60136808E015F0400F02F104051D60136801D0188000E01860002323610D4616E01A68111D196015680021D5
:4066C0002846626800F042F808B1401B6060636804E004F1420584F8422001232361002384F84330CDF800803046214603AA3B46FFF796FE013002D14FF0FF301FE0304620
:4067000039462A462369C0470130F5D023689B0705D4E068039B9842B8BF18460FE00025E368039A9B1A9D42F3DA3046394604F119020123C0470130DED00135F0E704B019
:40674000BDE8F081438000005480000010B5C9B202449042034605D01C7801308C42F8D1184610BD002010BD814210B501EB020301D3421E0BE09842FBD28118D21AD342A9
:4067800004D013F8014D01F8014DF8E710BD994204D011F8014B02F8014FF8E710BD000030B500293CD051F8042C0B1F1D49002AB8BF9B180A680C4612B95A600B6030BDA7
:4067C00093420DD219685818904201BF5A5852181A60426823605A6030BD994203D80A4651680029F9D1146815199D420AD11B682344D0188842136012D1086803441360C6
:406800004B680CE002D90C23036030BD1C681819884201BF08684968001918605960536030BD00BFC803002070B5CC1C24F0030408340C2C38BF0C24002C064603DA0C2324
:406840003360002070BD8C42F9D3204A136810461946A1B10A68121B0ED40B2A03D90A608B188C501FE08B420BBF5A684A6802605A6018BF0B4616E00B464968E9E7144DC0
:406880002B681BB9304600F04BF828603046214600F046F8421C0346D1D0C51C25F0030585420AD11C6003F10B001A1D20F00700821A0AD05142995070BD3046E91A00F0FC
:4068C0002FF80130BBD02B46ECE770BDC8030020C4030020F8B5074615460E4621B91146BDE8F840FFF7A0BF1AB9FFF759FF2846F8BD00F025F8A8420ED238462946FFF768
:4069000093FF044650B131462A46FFF7F5FB38463146FFF745FF01E03046F8BD2046F8BD38B5064C0023054608462360FBF7ECFF431C02D1236803B12B6038BD480700209C
:4069400051F8040C0028BEBF091851F8043CC01804387047000000000CF2FF7F0100000049444C45000000002020202020202020202020202020202000000000F8084C07B6
:4069800000000000303132333435363738394142434445460000000046573D322E356B0046573D322E306B0046573D312E356B0046573D302E346B0046573D342E306B00FF
:4069C0004C5342202000000055534220200000004357202020000000414D2020200000002A2A2A202000000025376C645B487A5D000000004572726F7220205B487A5D003C
:406A00002530386C64000000535F5F0053253032640000003030303030303030000000003530303030303000303038393130303000000000253573004C454400524F5400AC
:406A40004B455900434C4344000000005553425541525400524144494F00000031323334353637380000000030353030303030300000000043616C696272617465000000D2
:406A80004465627567204D6F646500000D0A000050726F6772616D207374617274730D0A000000002A2A2A2A2A2A2A2A2A2A2A2A2A2A2A2A2A2A2A2A2A2A2A2A2A2A2A2AEB
:406AC0002A2A2A2A2A2A2A2A2A2A2A2A2A2A2A2A2A2A2A2A2A2A2A2A2A2A2A2A2A2A2A0D0A0000002A202020202020202020202020202020202020202020202020202020DF
:406B00002020202020202020202020202020202020202020202020202020202020202A0D0A0000002A202020202020202020202020202020202053696D706C652053445297
:406B40002052656369657665722020202020202020202020202020202020202020202A0D0A0000002A202020202020202020202020202020666F72204359384B49542D3055
:406B80003539202850536F432D354C502920202020202020202020202020202020202A0D0A0000002A202020202020202020202020202020202020202020287665722E30A5
:406BC0002E302E3129202020202020202020202020202020202020202020202020202A0D0A00000048616D20526164696F2044656C757865206571756976616C656E742024
:406C0000636F6D6D616E64732061726520656E61626C65642E0D0A0093FEFF006BFEFF0000030000E0030000DFF8FF003BF7FF00E60E00008211000017E4FF0023E0FF0012
:406C4000553000003336000015B1FF0072A8FF001F7B0000D7870000A746FF00C033FF00960F01003B2C01002779FE004E4CFE00B52E0200AD78020053D9FC007054FC003A
:406C800038BC0400F3D205002D10F80029D9F4002C221300CF773900CF7739002C22130029D9F4002D10F800F3D2050038BC04007054FC0053D9FC00AD780200B52E020046
:406CC0004E4CFE002779FE003B2C0100960F0100C033FF00A746FF00D78700001F7B000072A8FF0015B1FF00333600005530000023E0FF0017E4FF0082110000E60E00002B
:406D00003BF7FF00DFF8FF00E0030000000300006BFEFF0093FEFF0093FEFF006BFEFF0000030000E0030000DFF8FF003BF7FF00E60E00008211000017E4FF0023E0FF0006
:406D4000553000003336000015B1FF0072A8FF001F7B0000D7870000A746FF00C033FF00960F01003B2C01002779FE004E4CFE00B52E0200AD78020053D9FC007054FC0039
:406D800038BC0400F3D205002D10F80029D9F4002C221300CF773900CF7739002C22130029D9F4002D10F800F3D2050038BC04007054FC0053D9FC00AD780200B52E020045
:406DC0004E4CFE002779FE003B2C0100960F0100C033FF00A746FF00D78700001F7B000072A8FF0015B1FF00333600005530000023E0FF0017E4FF0082110000E60E00002A
:406E00003BF7FF00DFF8FF00E0030000000300006BFEFF0093FEFF001B1F00002B1F000045190000470A000058EFFF00BFC7FF00D796FF006065FF003C41FF00433BFF0046
:406E40002263FF002AC2FF0055560000200F0100A1CD01009C68020042B40200558C02006FDE0100C1B10000042AFF001C84FD00660CFC004810FB00D5CDFA002B65FB0006
:406E800007CFFC0016DBFE00F6360100CD7C03009C46050058420600584206009C460500CD7C0300F636010016DBFE0007CFFC002B65FB00D5CDFA004810FB00660CFC0068
:406EC0001C84FD00042AFF00C1B100006FDE0100558C020042B402009C680200A1CD0100200F0100555600002AC2FF002263FF00433BFF003C41FF006065FF00D796FF0045
:406F0000BFC7FF0058EFFF00470A0000451900002B1F00001B1F00001B1F00002B1F000045190000470A000058EFFF00BFC7FF00D796FF006065FF003C41FF00433BFF002C
:406F40002263FF002AC2FF0055560000200F0100A1CD01009C68020042B40200558C02006FDE0100C1B10000042AFF001C84FD00660CFC004810FB00D5CDFA002B65FB0005
:406F800007CFFC0016DBFE00F6360100CD7C03009C46050058420600584206009C460500CD7C0300F636010016DBFE0007CFFC002B65FB00D5CDFA004810FB00660CFC0067
:406FC0001C84FD00042AFF00C1B100006FDE0100558C020042B402009C680200A1CD0100200F0100555600002AC2FF002263FF00433BFF003C41FF006065FF00D796FF0044
:40700000BFC7FF0058EFFF00470A0000451900002B1F00001B1F000066FFFF0001FEFF0020FCFF00BDFAFF00E9FBFF00CA010000D60C00001E1A0000CE220000EC1D00005E
:407040008E04000047D7FF0036A2FF00C27CFF00ED82FF00EDC8FF000F4D00005BEE0000B26E0100C38301005AF400000BB9FF00E312FE00B18BFC00AAD9FB00C0AAFC00FE
:407080007A66FF00C9FB0300F1CE090087D20F00EFC714002F9517002F951700EFC7140087D20F00F1CE0900C9FB03007A66FF00C0AAFC00AAD9FB00B18BFC00E312FE00CB
:4070C0000BB9FF005AF40000C3830100B26E01005BEE00000F4D0000EDC8FF00ED82FF00C27CFF0036A2FF0047D7FF008E040000EC1D0000CE2200001E1A0000D60C00007A
:40710000CA010000E9FBFF00BDFAFF0020FCFF0001FEFF0066FFFF0066FFFF0001FEFF0020FCFF00BDFAFF00E9FBFF00CA010000D60C00001E1A0000CE220000EC1D00007A
:407140008E04000047D7FF0036A2FF00C27CFF00ED82FF00EDC8FF000F4D00005BEE0000B26E0100C38301005AF400000BB9FF00E312FE00B18BFC00AAD9FB00C0AAFC00FD
:407180007A66FF00C9FB0300F1CE090087D20F00EFC714002F9517002F951700EFC7140087D20F00F1CE0900C9FB03007A66FF00C0AAFC00AAD9FB00B18BFC00E312FE00CA
:4071C0000BB9FF005AF40000C3830100B26E01005BEE00000F4D0000EDC8FF00ED82FF00C27CFF0036A2FF0047D7FF008E040000EC1D0000CE2200001E1A0000D60C000079
:40720000CA010000E9FBFF00BDFAFF0020FCFF0001FEFF0066FFFF0036FFFF00A3FDFF007EFCFF00F1FDFF00F0030000D60C0000AB11000053090000A2F0FF0032D2FF00B3
