:400000000080002011000000751500007515000008B5044B1A6803F53F5302331A6001F0ABFA00BFFA46004010B5054C237833B9044B13B10448AFF300800123237010BDBD
:40004000A881FF1F00000000543A0000084B10B51BB108480849AFF300800848036803B910BD074B002BFBD0BDE81040184700BF00000000543A0000AC81FF1F0881FF1FE5
:400080000000000000F1080343604FF0FF328260C360036100230360704700BF00230361704700BF43684B609A688A609A68516099600861036801330360704730B40D6866
:4000C000B5F1FF3F01D1026907E000F1080200E01A4653681C68AC42FAD953684B6099608A605160086103680133036030BC704703694268816891608268416851605A68BF
:40010000824201D182685A6000220261186801381860704706480068006880F3088862B661B6BFF34F8FBFF36F8F00DF00BF000008ED00E04FF0807340F8043C40F8081C0F
:40014000034B40F80C3C40F8202C4038704700BFA1010000074B19680868B0E8F00F80F30988BFF36F8F4FF0000080F311884EF00D0E70479882FF1F4FF08052034B1A60A3
:40018000BFF34F8FBFF36F8F704700BF04ED00E0EFF311804FF0A00181F311887047002008B5FFF7F5FFFEE708B5FFF7F1FF044A136801331360BFF34F8FBFF36F8F08BDDD
:4001C0000C81FF1F80F31188704700BF08B5044A1368013B136013B90020FFF7F3FF08BD0C81FF1FEFF30980BFF36F8F0D4B1A6820E9F00F10602DE908404FF0A00080F33C
:40020000118800F08FFC4FF0000080F31188BDE8084019680868B0E8F00F80F30988BFF36F8F70479882FF1F08B5FFF7B1FF00F03BFB18B14FF08052024B1A600020FFF707
:40024000C1FF08BD04ED00E0034A044B1A600722043B1A60704700BFCF01010014E000E008B5094B1A6842F460021A601A6842F060421A60FFF7E8FF0022044B1A60FFF7E2
:4002800049FFFFF78DFF00BF20ED00E00C81FF1F10B50446FFF788FFA26BE36B9A4201D1012400E00024FFF791FF204610BD00BF10B50446FFF778FFA36B0BB9012400E094
:4002C0000024FFF783FF204610BD00BF38B504461546026C3AB903685BBB406800F070FD002363602CE06DB9806803F00BFBA268236C1344A360626893421CD32368A360EF
:4003000000201DE0C06803F0FDFA236C5B42E2681A44E26021688A4202D262681344E360022D0AD1A36B53B1A36B013BA363002006E0002004E0002002E0002000E0002053
:40034000A36B0133A36338BD026C72B110B5C3681344C3604468A34201D30368C36003460846D96803F0CEFA10BD704710B50446FFF71AFF0BE0636A63B104F1240000F048
:4003800051FC08B100F0BCFCA36C013BA364A36C002BF0DC4FF0FF33A364FFF717FFFFF703FF0BE0236963B104F1100000F03AFC08B100F0A5FC636C013B6364636C002BEF
:4003C000F0DC4FF0FF336364FFF700FF10BD00BFF0B585B004460F4601921E460025FFF7E3FEA26BE36B9A4201D3022E16D1204639463246FFF76AFF636A43B104F1240054
:4004000000F010FC012805D1FFF7B6FE02E008B1FFF7B2FEFFF7DAFE012042E0019B1BB9FFF7D4FE00203CE01DB902A800F032FC0125FFF7CBFE00F02DFAFFF7B5FE636C3F
:40044000B3F1FF3F01D100236364A36CB3F1FF3F01D10023A364FFF7B9FE02A801A900F023FCC0B92046FFF713FF70B104F11000019900F0ABFB2046FFF778FF00F096FA51
:400480000028ACD1FFF778FEA9E72046FFF76EFF00F08CFAA3E72046FFF768FF00F086FA002005B0F0BD00BF38B54C2000F0F2FC0446C8B10025456005608560C560856343
:4004C0000123C36305644FF0FF33436483641030FFF7D8FD04F12400FFF7D4FD204629462A462B46FFF774FF204638BDF0B585B004460F4601921E460025FFF755FEA36BF9
:4005000033B3E56820463946FFF71EFF96B9A36B013BA363236813B900F094FC6060236993B104F1100000F07DFB01280CD1FFF723FE09E0E560636A33B104F1240000F018
:4005400071FB08B1FFF718FEFFF740FE01204BE0019B1BB9FFF73AFE002045E01DB902A800F098FB0125FFF731FE00F093F9FFF71BFE636CB3F1FF3F01D100236364A36C92
:40058000B3F1FF3F01D10023A364FFF71FFE02A801A900F089FB08BB2046FFF789FEB8B1236833B9FFF700FE606800F0B1FBFFF70DFE04F12400019900F008FB2046FFF7A1
:4005C000D5FE00F0F3F9002897D1FFF7D5FD94E72046FFF7CBFE00F0E9F98EE72046FFF7C5FE00F0E3F9002005B0F0BD094B9B6A1B680BB9012300E0002323B14FF0FF3295
:40060000044BDA627047034B9A6AD268D2685268DA627047C481FF1F10B50446006B00F093FC204600F090FC10BD00BF70B506460C4619B9800000F02DFC044654B150204E
:4006400000F028FC054608B1046304E0204600F07BFC00E0002525B1286BA521B20003F05CF9284670BD00BF70B504461546002306E0C85CE21882F83400CA5C12B1013306
:400680000B2BF6D9002384F83F30042D00D90425E562256400266664201DFFF7FFFC04F11800FFF7FBFC2461C5F10505A5616462A66484F84C6070BD70B5002407E004EB7D
:4006C00084039B0010481844FFF7DCFC0134042CF5D90E4C04F194063046FFF7D3FC04F1A8052846FFF7CEFC04F11400FFF7CAFC04F1BC00FFF7C6FC2046FFF7C3FCA662DE
:40070000C4F8D05070BD00BFF481FF1FC481FF1F38B504460E4BD3F8D4205060D3F8D830984208D20A4BD3F8D000D3F8D4100431FFF7C4FC38BD064DA86AD5F8D4100431AB
:40074000FFF7BCFCEB6A9C4200D2EC6238BD00BFC481FF1F2DE9F04782B081468A46164698460B9F10460C99FFF760FF002854D00446036B06F18045013D03EB850525F08C
:400780000705009651460A9A0D9BFFF76DFF284649464246FFF7CEFC206007B13C60FFF703FD284BD3F8DC200132C3F8DC20D3F8D4304BB9234BC3F8D440D3F8DC30012B0C
:4007C00010D1FFF779FF0DE01E4BD3F8E0304BB91C4BD3F8D430DB6A0A9A934202D8194BC3F8D440174AD2F8E4300133C2F8E430E36A012505FA03F0D2F8E8100143C2F80E
:40080000E810303203EB830080001044211DFFF749FCFFF7DBFC2C4601E04FF0FF34012C0CD1084BD3F8E03043B1064BD3F8D430DB6A0A9A934201D2FFF79EFC204602B089
:40084000BDE8F087C481FF1F00B585B0002300930193029303930C480C496422FFF77AFF01280DD1FFF794FC094B4FF0FF32DA620122C3F8E0200022C3F8D820FFF7F0FCDA
:4008800005B05DF804FB00BF1D0B0000603A0000C481FF1F034AD2F8F0300133C2F8F030704700BFC481FF1F2DE9F0413E4BD3F8F030002B66D13C4BD3F8D8200132C3F8D8
:4008C000D820D3F8D880B8F1000F0CD19A6AD3F8D0109962C3F8D020D3F8F4200132C3F8F420FFF783FE304BDB6A984503D200273CE0012700E000272B4B9B6A1B680BB9F5
:40090000012300E0002323B14FF0FF32264BDA622CE0254B9B6ADB68DC686368984502D2214AD36222E0261D3046FFF7E1FBA36A1BB104F11800FFF7DBFBE06A012383400B
:40094000194DD5F8E8201343C5F8E83005F1300300EB8000800018443146FFF7A3FBE26AD5F8D430DB6A9A42C3D2C5E70E4AD2F8D430DB6A03EB83039B0013441B6B012B94
:4009800008D808E0084AD2F8F8300133C2F8F830002700E00127044BD3F8FC3003B101273846BDE8F08100BFC481FF1F70B5FFF7FBFB304BD3F8F020013AC3F8F020D3F8D6
:4009C000F030002B4ED12B4BD3F8DC3033BB00244BE0284C236ADD6805F11800FFF788FB2E1D3046FFF784FBE86A01238340D4F8E8201343C4F8E83004F1300300EB800036
:400A0000800018443146FFF74DFBEA6AD4F8D430DB6A9A4202D30122C4F8FC20154B5B69002BD6D1134BD3F8F8306BB911E0FFF73BFF18B101220F4BC3F8FC200D4AD2F846
:400A4000F830013BC2F8F8300A4BD3F8F830002BEDD1084BD3F8FC30012B05D1FFF78CFB012402E0002400E00024FFF7AFFB204670BD00BFC481FF1F10B5F0B10446FFF70C
:400A800009FF104BD3F8D8201444D3F8D4000430FFF72EFB58B90B4BD3F8D420D16A01228A40D3F8E81021EA0202C3F8E8202046FFF72EFEFFF77AFF00E0002008B9FFF735
:400AC0005BFB10BDC481FF1F38B51FE0FFF7E2FE114BD3F8BC40FFF769FFBCB1FFF764FB0D4CD4F8C830DD68281DFFF701FBD4F8DC30013BC4F8DC30D4F8EC30013BC4F816
:400B0000EC30FFF763FB2846FFF786FD024BD3F8EC30002BDAD138BDC481FF1F08B5FFF7D3FFFCE7274BD3F8F03023B10122254BC3F8FC20704710B5224B0022C3F8FC2017
:400B4000D3F8D4301B6B1A68B2F1A53F0BD15A68B2F1A53F07D19A68B2F1A53F03D1DB68B3F1A53F07D0174BD3F8D400D3F8D410343100F0F7FC1348D0F8E830B3FA83F3C5
:400B8000DBB2C3F11F039A00D118890001444C6B64684C631A44920002443832944206D1606803EB83018900074A0A445060054A03EB83039B0013445B6BDB68C2F8D43074
:400BC00010BD00BFC481FF1FF481FF1F38B50D46134CD4F8D4101831FFF770FAD4F8D4000430FFF785FA50B9D4F8D420D16A01228A40D4F8E81021EA0202C4F8E820B5F104
:400C0000FF3F06D10648D0F8D4100431FFF74AFA38BD034BD3F8D8002844FFF779FD38BDC481FF1F38B5C368DC6804F118052846FFF75EFA154BD3F8F030ABB9251D284697
:400C4000FFF756FAE36A01229A401048D0F8E8100A43C0F8E820303003EB83039B0018442946FFF71FFA03E009482946FFF71AFAE26A064BD3F8D430DB6A9A4204D901203E
:400C8000024BC3F8FC0038BD002038BDC481FF1FD881FF1F034BD3F8F4200260D3F8D83043607047C481FF1F38B504460D46FFF77BFA124BD3F8D8202B68B3F1FF3F14D0BF
:400CC00020680E49D1F8F410884202D0616891420DD96168501A83420BD98A1A13442B602046FFF7D7FF002404E0002402E0012400E00124FFF76AFA204638BDC481FF1F46
:400D00000122024BC3F8FC20704700BFC481FF1F002850D038B50346C16A274AD2F8D420D26A914246D28269002A06DB224AD2F8D420D26AC2F1050282615969DA6A02EBA8
:400D4000820292001D480244914201D1012200E0002252B31D461C1D2046FFF7C9F978B9EA6A02EB82039B0013490B441B6B3BB901239340D1F8E82022EA0303C1F8E830C7
:400D80000D48D0F8D430DB6AEB6201229A40D0F8E8100A43C0F8E820303003EB83039B0018442146FFF77EF938BD034AD2F8D420D26ADA6238BD7047C481FF1FF481FF1FFD
:400DC000002837D038B50346426C013A4264C06A196C884230D08ABB1C461D1D2846FFF787F978B9E26A02EB82039B0014490B441B6B3BB901239340D1F8E82022EA030337
:400E0000C1F8E830236CE362C3F10502A261012404FA03F10A48D0F8E8200A43C0F8E820303003EB83039B0018442946FFF73AF9204638BD00207047002038BD002038BD4A
:400E4000C481FF1F064BD3F8D4302BB1044BD3F8D420536C01335364014BD3F8D4007047C481FF1F094A22F00702094BC3F838290020C3F83C0947F6F871C3F84419C3F8DF
:400E80004009516003F5146313607047CC82FF1F8CF9FF1F70B50446FFF7FCFC264BD3F848392BB9FFF7DEFF0122234BC3F8482934B1083414F0070F02D024F0070408349A
:400EC000621E47F6F6739A422BD81B49D1F8383901F6381101E0194613465A68A24202D21A68002AF7D1154A93421CD00D6808351A680A605A68121B102A0CD91E197260B3
:400F00005C6074680E4900E011460A685068A042FAD332600E6059680A4A13685B1A136002E0002500E00025FFF740FD0DB900F01DFB284670BD00BF8CF9FF1FCC02002042
:400F4000C40200201081FF1FD0B170B50546A0F10806FFF79FFC55F8044C0A4A00E01A4613685968A142FAD345F8083C166055F8041C054A13680B441360FFF717FD70BD77
:400F8000704700BFC40200201081FF1F0FB430B5C3B00F4B1B68ABB147AB419301A84FF48071469A00F00AF901AC08E001F01AF80028FBD0651C207800F0F4FF2C462378C8
:400FC000002BF3D143B0BDE8304004B0704700BFE402002010B50020022100F0D9FD002406E000F057FE0A4B18601B681BB90134084B9C42F5D9064B1B6813B100F060FF6E
:4010000001E000F0FDFD0448FFF7C0FF10BD00BFE40200207F841E00683A00000E4B1B68CBB130B583B00D48FFF7B0FF00F0CEFF05460028F7D006E00DF10700012100F031
:40104000DDFF013400E00024A542F5D80448FFF79DFF03B030BD7047E4020020803A00009C3A000070B582B004460E460568284601A9002202F0E0FC0246019B9D4207D0D8
:4010800000F10043013B13F1030F03D9002002E0002000E001203260019B236002B070BD2DE9F04391B09DF960E083EAE374A4EBE3744FFA84F8023CE4B2222C04D9002825
:4010C00079D00023037076E08EEAEE77A7EBEE777FB282EAE275A5EBE275002B03DB002A01DA1546FFE7002600E06646B5FBF8F408FB145406F1010C092C03D8303404F098
:40110000FF0402E0573404F0FF040DF14009B14409F8404CB5FBF8F5BCF13F0F04D9002849D00023037046E0002DDED165460C68D4B1002A18DA002B16DABEF1000F05DAB9
:401140002D2404700C68013C0C600130B51C0BE0BEF1000F01DB202400E0302404700C68013C0C60013F01300C68002C18BFAF42EED8C4B1002A16DA002B14DABEF1000FF8
:4011800011DB2D2303700B68013B0B6001300AE00CF1FF3C10AB634413F8403C03700B68013B0B6001300B6813B1BCF1000FEFD108B10023037011B0BDE8F08370B586B036
:4011C000044603911D4605929CE0252B40F09080531C05935278302A03D101330593FF2600E0012605A804A9FFF73CFF10B19DF8101000E00021059B1A786C2A01D1013344
:401200000593059B1B78642B29D005D8622B4ED009D8252B58D060E0752B2ED0782B39D0732B5AD10AE02A780435039B002B5BD02270039B013B0393013455E02B68043536
:4012400005E02370039B013B039313460134039A002A49D05A1C1B78002BF2D144E02A68043501FB06F149B20091204603A96FF00903FFF715FF044636E02A68043501FB05
:4012800006F149B20091204603A90A23FFF708FF044629E02A68043501FB06F149B20091204603A91023FFF7FBFE04461CE02A68043501FB06F149B20091204603A90223D7
:4012C000FFF7EEFE04460FE0039B6BB125232370039B013B0393013406E0039A22B12370039B013B03930134059B0133059309E0039A22B12370039B013B03930134059B6E
:4013000001330593059A1378002B7FF45EAF04B12370204606B070BD08B5012000F0B0FA002001F0B5FF6420FFF7A6FB002000F0A7FA012001F0ACFF4FF46170FFF79CFB14
:40134000EBE700BF000000002DE9F0418AB000248DF804408DF805408DF806408DF807408DF80840204601F019FE204601F016FE204601F013FE204601F010FE204601F043
:401380000DFE3220FFF778FB4B48FFF7FFFD4B4B186800214FF0FF320B46FFF7A7F84848FFF7F4FD002419E000F010FE18B93220FFF762FBF8E70DF12300012100F01EFE1F
:4013C0000DF12300012100F0C7FD9DF823300D2B06D00AAA224402F8183C01340E2CE3D90AAB1C44002504F8185C184604AB40F81C3D09A9FFF736FE3248FFF7C7FD32489B
:401400000999FFF7C3FD2846099929A3D3E9002301F076FF80460F462C4618E0E300C3F12005B3F1200628FA03F207FA05F542EA050202D447FA06F63243D2B20AAB2344BB
:4014400003F8242C21482146FFF7A0FD0134032CE4D9099B013B1E4A934219D89DF8040001F09CFD9DF8050001F098FD9DF8060001F094FD9DF8070001F090FD9DF8080078
:4014800001F08CFD01F062FD10F0010FFAD002E01048FFF77BFD094B186800210A460B46FEF796FF3220FFF7E7FA70E7AFF300804059730700000000A43A0000E802002023
:4014C000C03A0000D43A0000D83A0000EC3A0000FE596202003B0000034B044ADA62044A9A63044ADA6370470080FF1F55010000E50100002902000000B585B0FFF7ECFF81
:4015000062B6FFF767FDFFF789FD01F015FE0120FEF7CAFF0E4B18600123009300240194029403940B480C4980222346FFF712F902230093019402940394084808494FF45A
:4015400080622346FFF706F9FFF77EF9FEE700BFE802002019130000243B000049130000283B000008B5FEF713FEFEE708B5FEF70FFEFEE7FEE700BF08B5104E104D16E068
:4015800029686B68AC68002204E051F8040B43F8040B0432A242F8D1E868002203E0002143F8041B04328242F9D11035013E002EE6D102F081F9FFF79FFFFEE70100000045
:4015C000083E000008B5124A124B1A60124A136843F40073136000230AE0032B03D80F4A52F8231000E00E490E4A42F8231001332F2BF2D90C4B1A780C4B1A70094A0C4B0C
:401600001A6000F0B1F800220A4B1A6008BD00BF0004FA050CED00E014ED00E000000000751500000080FF1FBC7600400481FF1F08ED00E00081FF1FFEE700BFF0B400224A
:40164000174611E050F82760F3B226F0FF0608E001EB420511F812406D78A5550132013BDBB2002BF4D101371A2FEBD9F0BC7047064B1B78DBB203F00701054A11701B0944
:40168000013213704422034B1A707047CF0100496E5800407658004038B54122244B1A80182202331A70062203F27E231A705222A3F580731A701F4B1B78DBB21E4A1370BA
:4016C00040F621321D4B1A8041F25122023B1A80002419250CE01A4B1B7803F0010343EA440404F003044FF4F07000F0D5F8013D0DB1032CEFD115B90320FFF79DFF114A0C
:401700004FF4807313800723137000230E490B7048200231087013700532137002220B4B1A700B4A137843F00103137038BD00BF804000400F010049A14600402242004078
:4017400025420040044000400640004001400040A243004008B50A46002102F0DEF808BD08B502F0CFF808BD10B572B6344C61232370FFF791FF01232370324A137843F021
:401780000403137000240CE02F4963001A1952000A4423445B00C8589188FFF7DBFF0134E4B2072CF0D900240BE02749A3001A1952000A44106B516B8022FFF7D1FF013486
:4017C000E4B2002CF1D04FF090402049FFF736FF1F4A137843F0020313701032137843F0020313701B4C237843F040032370A2F58632513A137843F0100313701648174995
:401800000822FFF7ADFF164816490A22FFF7A8FF154816490822FFF7A3FF154815490822FFF79EFF144A137843F008031370FFF71FFF124821460E22FFF792FF10BD00BF9E
:4018400000480040E8460040303B00006C00004803500140A0430040C2510040F0020048F0510040F80200481251004004030048225100400C03004822430040B043004078
:40188000044A137803F0FD03400000F00200184310707047205100400230800803D000BF01380046FCD17047EFF3108072B6704780F31088704700BF01BE704708B5034B45
:4018C0001B7A03FB00F0FFF7E7FF08BD1481FF1F70B504460E46074B1D681F2802D90020FFF7EAFF04F01F04103455F8240045F8246070BD08ED00E038B504460D4607290D
:4019000002D90020FFF7D8FF1F2C02D90020FFF7D3FF04F01F0000F1604000F564406D01EDB2057038BD00BF134B1B78DBB20360124A127843EA02230360114A127843EAD0
:40194000024303600F4A127843EA026303600E4B1B78DBB243600D4A127843EA022343600B4A127843EA024343600A4A127843EA02634360704700BF0301004904010049DD
:40198000EC4600400201004901010049000100490501004906010049F8B5FFF785FF0646404A137843F0010313701032137843F00103137001273C4B1F700225943B1D70AB
:4019C00002F5E2521B32137803F07F0313700020FFF774FF354C237803F0F9032370344A137803F0DF03137023783B4323703846FFF764FF2820FFF761FF2E4B1A7802F046
:401A00007F021A701A7802F0BF021A7023782B4323702846FFF752FF237843F0040323700023254A1370013213703046FFF740FF17200721FFF760FF17202049FFF748FF0C
:401A400018200721FFF758FF18201D49FFF740FF15200721FFF750FF15201A49FFF738FF28460721FFF748FF28461749FFF730FF03200721FFF740FF03201449FFF728FF9C
:401A800004200721FFF738FF04201149FFF720FF0C200721FFF730FF0C200E49FFF718FFF8BD00BFA54300409D6000409443004012600040F851004084600040912500000C
:401AC000612300008D250000D52400000D250000492500009925000008B5214B18700023204A1370204A1370204A1370204A1370204A1370204A1370204A1370204B4FF45C
:401B000000021A604FF080721A604FF400121A6004221A6008221A6010221A6011B1012906D00BE0174A137803F0FE0313700AE0144A137843F00103137004E0114A137858
:401B400043F00103137003220F4B1A708022203B1A700120FFF7A0FE04220C4B1A7008BD970300209603002008030020090300200A0300209A0300200B030020070300208E
:401B800000E100E009600040286000401260004038B505460C46064B1B7823B9FFF7FCFE0122034B1A7028462146FFF795FF38BDD802002000230A4A13700A4A13700A4A99
:401BC00013700A4A13700A4A13700A4A13700A4A13700322094B1A708022203B1A7070479603002008030020090300200A0300209A0300200B0300200703002028600040AB
:401C000008B5FFF751FE1B4A137803F07F0313700A32137803F0FB031370A2F5E3520D3A137803F0FE0313701032137803F0FE031370FFF73DFE104B4FF400021A604FF09C
:401C400080721A604FF400121A6004221A6008221A6010221A600023084A1370084A1370084A1370084A1370084A1370084A137008BD00BF0860004080E100E00803002080
:401C8000090300200A0300209A0300200B030020D8020020014B1878704700BF0903002000EB40008000024B18444078704700BF28030020431EDBB2072B0BD8064B000146
:401CC0001A18185C00F00F00537843EA0020023880B2704700207047FC5F0040431EDBB2072B3BD8F0B4074600EB40039B001C4C2344DB889BB2C3F500739A4207D900EB54
:401D000040039B002344DA88C2F5007292B200EB40039B00124C2344DB7843EA1223114D04012E192B55D3B2737039B909E0CE5C3D010D4C665501339BB200E0002393420A
:401D4000F5D3430003449B00054A134400225A705A79D2B20001054B1A54F0BC704700BF28030020FC5F004078600040FE5F0040431EDBB2072B0BD8430003449B00054A9A
:401D8000134400225A705A79D2B20001024B1A54704700BF28030020FE5F004070B5D9B1054614460E46C8B1082819D8FFF782FFA04203D22846FFF77DFF0446002305E0CD
:401DC0002901094A525CF25401339BB2A342F7D32846FFF7CDFF04E0002402E0002400E00024204670BD00BF7860004010B4FF2400220EE00A4B9B5C03EB43039B00094932
:401E00000B449B78DBB2834201D1144602220132D2B2012AEED920465DF8044B704700BFF40200203003002010B5204C2079FFF7DDFF237813F0800F0ED06378DBB2212BB1
:401E40002FD11B4B07221A80C0EBC000194A1044586000F0F3FA10BD144B5B78DBB2202B02D0222B10D01EE0114A07231380C0EBC00310490B4453600F4A135C43F00103CE
:401E8000135400F003FB10BD084B9B780B4A22F81030094A135C43F00203135400F08EF910BD002010BD002010BD00BF00600040180300202481FF1FFC02002000030020CE
:401EC00010B500241F4B1C701F4B1C705C700AE01E4B185DC0B2431EDBB2072B01D8FFF747FF0134E4B2012CF2D9194B1B7813F0FF0F1AD0154B1B7813F0FF0F17D0154BD2
:401F00001B7813F0FF0F14D0114B1B78DBB2082B11D80E4B1B78DBB2082B0ED80D4B1B78DBB2082B0BD8002010BD012010BD012010BD012010BD012010BD012010BD0120AD
:401F400010BD00BFD9020020FC020020F0020020EC020020F402002070B506460D460E4B1B780E4AD45CE4B204EB44039B000C4A13441B899BB28B4208D204EB44039B00D1
:401F800013441D89ADB20020FFF796FC204631462A46FFF7A3FE70BDD9020020EC0200202803002000B583B002A901F8010D054B1B78054AD05C0122FFF790FE03B05DF811
:401FC00004FB00BFD9020020EC02002008B5034B1B78034AD05CFFF763FE08BDD9020020F002002008B5034B1B78034AD05CFFF757FE08BDD9020020EC02002008B50346A4
:402000000A46044909780448405C1946FFF7C6FE08BD00BFD9020020F0020020C37803F0030390F9020000280FDA032B06D002F001030B48C15442F001020EE0C2F3800363
:402040000848C15442F0040207E0032B05D0C2F340030548C15442F002021046704700BFEC020020F4020020F00200201C4B19781C4A13880B449BB2138000230EE01A4AAA
:4020800051680978C9B21948C1545168013151600133DBB21188013989B21180124A128892B20AB1072BEAD90D4A1278D2B2082A00D05BB10E490A7882F080020A700F2125
:4020C0000C4A117002210C4A117004E0022209490A7009490A70094A1370014A13707047070300209403002018030020006000400C03002006030020960300202403002000
:402100000222074B1A708022064B1A700F22064B1A700023054A1370054A137001207047960300200C03002006030020070300202403002008B5FFF799FF08BD10B4184BBE
:40214000197801F00F010239C9B2164A13880B449BB21380002010E0134B5C68134A125CD2B222705A6801325A600130C0B20139C9B21A88013A92B21A800B4B1B889BB2D2
:402180000BB10029E8D10A4B19700A4A137883F0800313700B22084B1A705DF8044B704729600040940300201803002000600040240300200C030020060300200623064A73
:4021C0001370064A13708022054B1A700022054B1A700120704700BF96030020060300200C03002024030020064B9B6843B1054B9A6810709A6804490988518000229A603B
:40220000704700BF180300209403002008B5134B1A78D2B21A701B78DBB213F0800F02D00F4A137008BD0220FFF7DEFF0D4B1B7803F06003202B05D0402B06D043B900F0D3
:4022400095FC06E001F030F803E000F037FE00E0002010B90322024B1A7008BD28600040060300200060004008B5084B1978084A13880B449BB213800022064B1A700120D0
:40228000FFF7B2FF0322044B1A7008BD0703002094030020960300200603002008B50B4B1B78DBB2042B06D0062B07D0022B0BD1FFF7DAFF08BDFFF741FF08BD0320FFF700
:4022C00093FF0322024B1A7008BD00BF960300200603002008B50022044B1A700120FFF783FF0322024B1A7008BD00BF960300200603002008B50B4B1B7813F0FF0F07D0A9
:40230000084A137843F0800307490B70002313700022064B1A700120FFF766FF0322044B1A7008BD9A03002008600040960300200603002008B5094B1B78DBB2042B06D0E0
:40234000062B07D0022B07D1FFF7F4FE08BDFFF7C1FF08BDFFF7CEFF08BD00BF9603002008B5284B1B78DBB213F0100F48D013F0800F0CD003F00F03012B16D1FFF746FFDD
:40238000214B1B7813F0800F11D1012312E013F0400F03D0FFF7CEFF01230BE013F0200F07D0FFF77BFF012304E0002302E0002300E0002323B3134B1B7813F0800F1FD1A8
:4023C000124B1B78124A12781343124A13701278D2B29A4214D10C4B1B78DBB2094A127812F0800F07D1084B1B78DBB2054A1370137803F00F03044A1278D2B29342EAD185
:4024000008BD00BF28600040060300200C03002024030020296000400022064B1A80064B9B682BB1044A916800230B7092685380704700BF940300201803002008B50F4B7A
:402440001B889BB213B9FFF75BFE15E002220C4B1A7000220B4B1A70FFF7DEFF0A4AD179937943EA0123054A128892B29A4201D9024A1380FFF7FAFD012008BD18030020B7
:40248000960300200C0300200060004008B504220B4B1A7080220B4B1A70FFF7BDFF0A4AD179937943EA0123084A128892B29A4201D9064A13800B22054B1A70012008BDEC
:4024C000960300200C0300200060004018030020060300200A4A137803F0FE031370094B9B7C094B1B7B03F00303012B04D0064AD37B83F08003D3730122034B5A7370477D
:402500000B600040FC5F0040280300200B4A137803F0FD0313700A4B93F82230094B1B7E03F00303012B04D0064AD37E83F08003D3760122034B5A76704700BF0B6000405A
:40254000FC5F0040280300200D4A137803F0FB0313700C4B93F832300B4B93F8243003F00303012B06D0084A92F8273083F0800382F827300122044B83F82520704700BF09
:402580000B600040FC5F004028030020704700BF08B5FFF70FFB08BD08B500F09BFC08BD70B588B0054603AC174E0FCE0FC43368237035B322232B7003236B7001A8FFF787
:4025C000B3F9002402231AE008AA224412F81C2C08A901EB121111F8141CE954581C00212954981C02F00F0208AE324412F8142C2A54DA1CA9540134E4B20433DBB2212BC1
:40260000E2D908B070BD00BF6C3B000010B401223DE0114613010C242148C45402EB42039B00204803445B7913F0FF0F12D002EB42039B0003441B7913F0800F04D0100112
:40264000194B03449C700AE01001174B03440820987004E01001144B0344802098704B000B449B000F480344DC88E4B208010C4901448C71D888C0F30720C871D888C0B2DA
:402680000871DB88C3F307234B710132D2B2082ABFD9FF22054B1A705DF8044B704700BF7060004028030020FC5F00400A600040074B1B78074A02EBC30253681A7C82426F
:4026C00003D903EBC003586970470020704700BF97030020803B0000F8B5404B1B7813F0FF0F79D03D4B18780138C0B2FFF7E0FF047AC2683A4B1878C0B200236AE01178E8
:40270000814264D13749095CC9B25578A9425ED1917801F07F01D67806F00306DFF8C8E04D000D44AD000EEB05074FF0000C87F803C092F802C087F804C092F803C00EF855
:4027400005C095883D8192F90250002D0DDA012E01D1072700E00D274D000D44AD00224E35446F7101266E700CE0012E01D1052700E009274D000D44AD001B4E35446F7136
:4027800000266E70DFF868E00F010EEB07060125B57001FA05F529448900134D29440D89C5F307250EF807500D89EDB27570CE88F6B20E4D3D44AE71CE88C6F30726EE7158
:4027C000CE88F6B22E71C988C1F30721697108320133DBB2A34292D3F8BD00BF090300200A030020140300202803002070600040FC5F0040034B1A78034B03EBC203586855
:40280000704700BF97030020803B000008B5074B18780138C0B2FFF74BFF28B14268127900EBC203586908BD002008BD090300202DE9F84300220EE06F4E53009D18AD00FB
:40284000741900217155A170E1702181A172617061710132D2B2082AEED940B90AE000226649CA546649CA540133DBB200E00023012BF4D9634B1B7813F0FF0F00F0B980A3
:40288000604B18780138C0B2FFF712FF80464368DB7913F0400F05D05B4A137843F00103137004E0584A137803F0FE03137098F808704FF0000901266CE0D8F80C500024BA
:4028C00064E0AB7803F07F039E425CD1314606EB46039B00484803441B899BB2A888834205D206EB46039B00434A134418812B784248C35CDBB26878834244D195F802C0DB
:402900003D484B000B449B0000EB030E8EF804C095F803E000F803E0EB7803F0030395F90200002811DA012B02D14FF0070C01E04FF00D0CDFF8C0E04B005818800070445D
:4029400080F805C00123437012E0012B02D14FF0050C01E04FF0090C27484FEA410E0EEB01039B00034483F805C0194600234B70AB790A2B01D0022B05D1284631464A46D8
:40298000FFF74CFB814608350134E4B2BC4298D30136F6B2082E90D9D8F80C0000220CE0837803F07F0310F8084B03EB43039B0016490B449C700132D2B2BA42F0D3FFF77A
:4029C00025FF134B1860002301210EE00A4C4A00501880002044C380028913449BB203F0010213449BB20131C9B20829EED9FFF70DFEBDE8F88300BF2803002014030020AB
:402A000004030020090300200B030020300300201003002008B5154B1A7902F07F02531EDBB2072B20D8530013449B0010490B44997841F0010199700021D970597841F09E
:402A4000020159701B7913F0800F05D01201094B13448D229A7004E01201064B134489229A70FFF7ABFB08BD002008BD0060004028030020FC5F0040264B1B7903F07F037E
:402A80005A1ED2B2072A43D810B55A001A44920021490A44917801F0FE0191700021D17019017F241D484454517801F0FD015170127912F0800F14D003EB43029200164954
:402AC0000A445278D2B2012A05D11B0102461A440C23937019E01B01104A1A440D23937013E003EB430292000B490A445278D2B2012A05D11B01094A1A440823937004E0BD
:402B00001B01064A1A4409239370FFF757FB10BD002070470060004028030020FC5F004010B50E4B1C79E4B20D4B18780138C0B2FFF7BEFD43681B799C4201D9022C0AD896
:402B4000084A135DDBB208490B55044B9B78DBB21355012010BD002010BD00BF0060004009030020140300200403002010B59B4B1B78DBB200219A4A118013F0800F00F057
:402B8000AD80964A5278D2B20A2A00F27281DFE812F06900700170017001700170010B007001920070019A008C4BDB78DBB2012B09D1FFF71FFE4268894B5A6012221A804B
:402BC000FFF73CFC10BD854BDB78DBB2022B13D1824B9878FFF76CFD002800F04C8142687F4B5A605A68D1785A68927842EA01221A80FFF723FC10BD784BDB78DBB2032B57
:402C000005D02CE00A7811440133DBB201E000237449724A9278D2B29A4203D90A7812F0FF0FEFD16D4B9B7813F0FF0F0BD06B4B9B78DBB26C4A127C934204D16B4C2046EE
:402C4000FFF7AEFC21460B7813F0FF0F00F015810B78634A13805160FFF7F0FB10BD00F023FB10BD13F0030317D0022B40F007815B490B80594B1B7903F07F0303EB430351
:402C80009B005B4A13449A78D2B25A4B1A7000225A704B60FFF7D2FB10BD514902230B80554B1A78D2B2534B1A7000225A704B60FFF7C4FB10BD4A4B01221A804F4A5A60AB
:402CC000FFF7BCFB10BD464A01231380434B1B794B490B445360FFF7B1FB10BD3F4A5278013A0A2A00F2CD80DFE812F04B00CB009600CB000B00CB00CB00CB001300CB0061
:402D00003000364B9B78DBB23E4A1370FFF756FA10BD324B9B7803F0FF041BB1601EC0B2FFF7C6FC04B110B9002C40F0AC80334B1B78DBB29C4206D0304B1C700120324B2D
:402D40001870FFF775FDFFF739FA10BDFFF7E8FE002800F09A80214A1379DBB21279D2B22A490A702A4AD25C2549C95CD3B28B4204D00122244B1A70FFF7AEFCFFF71EFABA
:402D800010BD03F00303012B17D04BB1022B7ED1124B9B7813F0FF0F7BD1FFF76DFE10BD0E4B9B78DBB2012B75D1134A137803F0FD031370FFF702FA10BD084B1B79DBB2CB
:402DC000012B6AD8054B98781B79DBB21149CA5C22EA0002CA54FFF7F1F910BD0060004018030020E83B0000CC3C0000B403002028030020DC0200200B030020090300200B
:402E0000140300209A030020080300200A030020040300209803002003F00303012B17D04BB1022B3BD1224B9B7813F0FF0F38D1FFF7F0FD10BD1E4B9B78DBB2012B32D1A1
:402E40001C4A137843F002031370FFF7B7F910BD174B1B79DBB2012B27D8154B98781B79DBB21549CA5C22EA0002CA54FFF7A6F910BD002010BD002010BD002010BD0020FB
:402E800010BD002010BD002010BD002010BD002010BD002010BD002010BD002010BD002010BD002010BD002010BD002010BD00BF006000400B03002098030020044B1B78EC
:402EC00013F0800F01D0024B5B780020704700BF00600040024B1878C0F38010704700BF8F4500400222014B1A60704700E100E00122014B1A60704700E100E008B5FEF7FA
:402F0000D3FC0B4A137843F02003137002F58072137843F0100313700132137843F010031370FEF7C5FCFFF7DDFFFFF7E1FF08BD986400400222014B1A60704780E100E004
:402F40000122014B1A60704780E100E010B5FFF7F1FF064B1C78064A137803F009031C4300231370FFF7BEFF204610BD68650040A503002010B5FFF7E3FF064B1B78064A75
:402F8000147804F040041C4300231370FFF7B0FF204610BD69650040B203002010B504462A4B1A7802F0FF0312B1013BDBB200E00423274A1278D2B29342F1D0FFF7BAFF2C
:402FC000244B1978244A137803F009030B4313701E4B1B781E4A1278DBB2934207D11E4B1B7813F0040F02D01C4B1C702BE0184A13780133DBB213701378DBB2042B02D9AB
:403000000022134B1A70124B1B78104A1278DBB293420ED10D4A13780133DBB213701378DBB2042B02D90022084B1A7001220C4B1A70074B1B78DBB20A4AD4540A4A137859
:4030400043F004031370FFF74DFF10BDAE030020B003002068650040A503002048640040AD030020A00300208865004008B501E00A4B1B780A4B1B7813F0200FF8D1FEF701
:4030800013FC084B1A7842F001021A701A7802F0FE021A70FEF70CFC08BD00BF58640040696500409864004010B50F22174B1A70174C0223236001200721FEF71DFC012023
:4030C0001449FEF705FC0123236000200721FEF713FC00201049FEF7FBFBFFF7C7FF00240E4B1C700E4B1C700E4B1C700E4B1C700E4B1C700E4B1C70FFF728FFFFF73AFF9C
:403100000C4B1C70202201331A7010BD8864004080E100E055310000F13100009C030020B1030020AF030020AD030020AE030020B00300208865004008B5054B1B7823B948
:40314000FFF7B2FF0122024B1A70FFF7D7FE08BDE002002028E01E4B19781E4A137803F009030B431370137813F0040F23D01A4B1B7813F0FF0F0CD1184A13780133DBB22F
:4031800013701378DBB2042B06D90022134B1A7002E00022104B1A70104B1B78DBB2104AD35CDBB20F4A13700C4B1B780E4A1278DBB29342CFD1094B1B780B4A1278DBB2E5
:4031C000934204D1094A137803F0FB031370704768650040A5030020AD030020AE030020A003002048640040B003002088650040204B1A7820490B7803F0400313430B7007
:4032000031E01E4B1A78D2B21D490B780133DBB20B700B78DBB2042B02D90021184B1970174B1B7817490978DBB28B420ED115490B780133DBB20B700B78DBB2042B02D96C
:403240000021104B197001210F4B19700C4B1B78DBB20E49CA54074B1A7807490B7803F0400313430B70044B1B7813F0200FC8D1704700BF69650040B20300205864004098
:40328000AF030020B10300209C030020A8030020044A137803F0EF03000100F01000184310707047F051004008B5124B1B7803F00303012B02D0022B04D00FE00D4B1B798C
:4032C000DBB20CE00B4B1B7903F07F0303EB43039B00094A13449B78DBB200E00023074A1268D35C022B02D1FEF79EFD08BD002008BD00BF006000403003002010030020C1
:403300007BB972B90029BEBF00204FF0004106E008BF00281CBF6FF000414FF0FF3000F03BB882B0EC462DE9005000F005F8DDF804E002B00CBC70472DE9F041069C9046E7
:4033400006460F461D4600F029F808FB01FCA8FB002300FB05C5B21A2B4467EB03038646C4E90023BDE8F0812DE9F843089E1746804689461D4600F067F900FB05F3A0FB3E
:40338000074507FB0137B8EB04043D4469EB0505C6E90045BDE8F883704700BF00292DE9F043C0F2A8800026002BC0F29E8081468E4690469C46174604460D46002B3DD180
:4033C0008A4259D9B2FA82F33BB1C3F120029D4020FA02F29F4015439C40390CB5FBF1F01FFA87FE01FB10550EFB00F3220C42EA0545AB4209D9ED1900F1FF3280F00B8186
:40340000AB4240F2088102383D44ED1AB5FBF1F301FB13550EFB03FEA4B244EA0545AE4508D9ED1903F1FF3280F0F780AE4540F2F480023B43EA0043002203E08B420FD96C
:4034400000221346341C18BF012460424FF0000565EB45015840514000196941BDE8F083B3FA83F2002A40F089808B4202D3804500F2E2800123E5E712B90123B3FBF2F74F
:40348000B7FA87F8B8F1000F3BD1ED1B4FEA174C1FFA87FE0122B5FBFCF00CFB10550EFB00F3210C41EA0545AB4207D9ED1900F1FF3102D2AB4200F2C3800846ED1AB5FB1E
:4034C000FCF30CFB13550EFB03FEA4B244EA0545AE4507D9ED1903F1FF3102D2AE4500F2AD800B4643EA0043ACE752426FEA060663EB43035BE7404261EB41014FF0FF360C
:4035000052E707FA08F7C8F1200225FA02F34FEA174CB3FBFCF11FFA87FE0CFB113324FA02F205FA08F50EFB01F92A43100C40EA0343994504FA08F407D9DB1901F1FF306C
:4035400078D2994576D902393B44C9EB0303B3FBFCF00CFB10330EFB00F592B242EA03439D4207D9DB1900F1FF325FD29D425DD902383B445D1B40EA01428CE7C2F12003C6
:4035800028FA03F10CFA02FC41EA0C0C4FEA1C402EFA03F1B1FBF0F51FFA8CF700FB151129FA03F30EFA02FE07FB05F943EA0E0E4FEA1E4343EA0141894508FA02F808D991
:4035C00011EB0C0105F1FF3332D2894530D9023D6144C9EB0101B1FBF0F300FB131107FB03F71FFA8EFE4EEA014E774508D91EEB0C0E03F1FF3117D2774515D9023BE64471
:4036000043EA0543A3FB0889C7EB0E0ECE4509D305D0002216E71046F7E613460AE794404445F6D2013BF4E70B46E9E71046A1E71D46CEE7014688E7134603E7023B51E7F7
:4036400002383D443AE700BF2DE9F043002B44D18A42154604464FD9B2FA82F70E464FB1C7F12003B94020FA03F602FA07F50E4300FA07F42F0CB6FBF7F01FFA85FE07FB7E
:4036800010620EFB00F1260C46EA0243994209D95B1900F1FF3280F0EE80994240F2EB8002382B44591AB1FBF7F307FB13110EFB03FEA4B244EA01418E4508D9491903F19C
:4036C000FF3280F0DA808E4540F2D780023B43EA004000263146BDE8F0838B4247D8B3FA83F6002E48D18B4202D3824200F2CF8001203146BDE8F08312B90125B5FBF2F5DC
:40370000B5FA85FCBCF1000F78D1491B2F0C1FFA85FE0126B1FBF7F007FB10110EFB00F2230C43EA01418A4207D9491900F1FF3302D28A4200F2BC801846891AB1FBF7F30D
:4037400007FB13110EFB03FEA4B244EA0142964508D9521903F1FF3180F09180964540F28E80023B43EA00403146BDE8F083002630463146BDE8F083C6F1200422FA04F517
:40378000B3402B4321FA04F74FEA1348B7FBF8FC1FFA83F908FB1C7720FA04FE01FA06F509FB0CF44EEA05054FEA154E4EEA0747BC4202FA06F204D9FF180CF1FF3168D365
:4037C0008C463F1BB7FBF8F408FB147709FB04F9ADB245EA0741894504D9C91804F1FF355DD32C4644EA0C44A4FB0223C9EB0101994249D345D0204600266BE7CCF1200480
:4038000005FA0CF521FA04F32A0CB3FBF2F61FFA85FE02FB163820FA04F701FA0CF10EFB06F90F433C0C44EA0843994500FA0CF407D95B1906F1FF3138D2994536D9023E11
:403840002B44C9EB0303B3FBF2F002FB10330EFB00F1BFB247EA0343994207D95B1900F1FF3721D299421FD902382B441746591A40EA06464EE7104614E7134627E70B4624
:4038800070E7B0409042B6D2601E002622E7304620E7BC4294D9ACF1020C1F4491E789459FD9023C19449DE73846DFE70E46C8E70238294441E700BF0E4B70B51E460E4CD6
:4038C0000025E41AA410A54204D056F8253098470135F8E700F086FA084B094C1E46E41AA4100025A54204D056F8253098470135F8E770BDF03D0000F03D0000F03D000046
:40390000F83D000010B5431E0A44914204D011F8014B03F8014FF8E710BD03460244934202D003F8011BFAE7704700002DE9F0470F46404CD4F800903D4615F801EB09EB0C
:403940000E04667806F0080404F0FF060CB12F46F2E774462D2C03D1BD1C7C78012603E02B2C04BF7C78BD1C13B1102B0AD15AE0302C56D12C7804F0DF04582C4CD16C7815
:4039800010230235002E14BF4FF000486FF00048B8FBF3FA0027BE4603FB1A8809EB040C9CF801C01CF0040F01D0303C0BE01CF0030C1BD0BCF1010F0CBF4FF0370C4FF014
:4039C000570CCCEB04049C4210DAB7F1FF3F0AD0D64506D801D1444503DC03FB0E4E012701E04FF0FF3715F8014BD7E77C1C73460AD1002E4FF0220114BF4FF000436FF08B
:403A0000004301602AB911E00EB1CEF100036AB107B1691E116009E03024002BB2D10823B0E70A23AEE7302CACD1A3E71846BDE8F08700BFA481FF1F30B505460C46134699
:403A4000034A294610682246BDE83040FFF76EBFA081FF1F0000000044F9FF7F0100000049444C45000000005468697320697320612044756D6D792054782E0D0A000000E7
:403A80005075736820616E79204B657920746F2053746172742E2E2E0D0000000D0A4F4B210D0A007365742044445320696E2073657269616C206D6F64652E0D0A0000001C
:403AC000456E746572206672657128487A293F20000000000D0A00004672657128487A29203D203078253038780D0A00775B25645D203D203078253032780D0A000000009C
:403B0000696E76616C696421207365742046726571286B487A29203C2034304D487A200D0A0000004C454400555342554152540000510040100030510040400000000140E1
:403B4000000880080140800700140140000800400140000A004C014000020050014020000008014070020048800000003031323334353637383941424344454600000000A0
:403B800001000000883B000001000000CC3C0000000000000000000001000000A03B000001000000883C000003000000CC3B0000000000000000000000000000000000008D
:403BC00000000000C83B0000020A000000008103080002000100820240000A000100030240000A0002030000040309042C0343007900700072006500730073002000530065
:403C000065006D00690063006F006E0064007500630074006F007200100355005300420055004100520054003803430044004300200043006F006D006D0075006E00690042
:403C400063006100740069006F006E00200049006E007400650072006600610063006500260343004400430020004400610074006100200049006E00740065007200660000
:403C80006100630065000000090243000201018032090400000102020103052400100104240202052406000105240100010705810308000A09040100020A000004070582B2
:403CC0000240000007050302400000001201000202000008B40432F201000102800100004300002020202020202020202828282828202020202020202020202020202020A6
:403D00002020208810101010101010101010101010101004040404040404040404101010101010104141414141410101010101010101010101010101010101010101101059
:403D400010101010424242424242020202020202020202020202020202020202020210101010200000000000000000000000000000000000000000000000000000000000EF
:403D80000000000000000000000000000000000000000000000000000000000000000000000000000000000000000000000000000000000000000000000000000000000003
:403DC000000000000000000000000000000000000000000000000000000000000000000000000000F8B500BFF8BC08BC9E4670474D000000C5150000F8B500BFF8BC08BC39
:403E00009E46704729000000183E00000881FF1FA00000003082000000000000AAAAAAAAF87F00000000E880D0010100420000008014EF0300C2010000000800C2010000C0
:403E400000080000A120000000000200000000000000000000000000000000000000000000000000000000000000000000000000E03C00000000000000000000000000005B
:403E80000000000000000000000000000000000000000000000000000000000000000000000000000000000000000000000000004081FF1FE23C0000000000000000000005
:403EC00000000000000000000000000000000000000000000000000000000000000000000000000000000000000000000000000000000000000000000000000000000000C2
:403F00000000000000000000000000000000000000000000000000000000000000000000000000000000000000000000000000000000000000000000000000000000000081
:403F40000000000000000000000000000000000000000000000000000000000000000000000000000000000000000000000000000000000000000000000000000000000041
:403F80000000000000000000000000000000000000000000000000000000000000000000000000000000000000000000000000000000000000000000000000000000000001
:020000040003F7
:0200000480007A
:400000000145004003520040016400400101014001030140010701400A08014032090140010D0140010F0140031701403D1801403E190140011B01400940014005410140C9
:4000400005420140064301400144014003450140024601400647014008480140054C0140054D014004500140025101407E02604061487C40880FE202EA04E2088104850186
:400080008702910495069701B707BB80D904DF010401060207280D200E810F20154017141DA01E421F08200123022408250C264427282C022E11300231083640372A380902
:4000C0003D403E0645A847024C044F065403571467016C806D406E156F157602852088018A10C0F0C2F0C4E0CAB0CCF3CED3D0F0D220D810EA04E202E208E601EA0200024F
:400100000149020803960555062007AA08010A020C0D0D020F0D1002120D15331610174C180219E01A041C0D200D240D280D300F322033F03610370F39083A023B80540984
:400140005604580459045B045F01820686028F019501960699019A019C019D01A101A404AF01B001B301B406BE01BF04D440D604D804D904DB04DF01000504010602072829
:4001800009080A010B080C800D020E1812801309171518841D021E111F0422082540268027202A022B0130803314372839403C013D885E625F0460806208630A640267809C
:4001C000808087408C049001914092409304970198029A029B1DA080A10CA215A305B002B308C0FCC2F7C474CA09CC6ECED8D6F0D89FEA02B44032403301358036083A80EE
:400200008680CCF0CE10E24096809D809F01AA08EA20512096809D809F01D420852096809D809F01A520E21087049704A740AB409704A74009080B040F809704A740C20E8B
:400240008240858096809D80AF01E210E680EA4060018E20AD08D602E40276209A20B401DE04EC0800010C0110011C0100AF0102569A09000A9810020700380084980002FD
:4002800004FC000360130064012100D8843800C0009A00008000040084020098040280000800020F7F1380E020000088000045003406100002DEB0CF3BFFFFFF2200F048F9
:4002C000040000000000022004040404000000010000C00040021012C002001240024002000000000000000000000000000000000048480048000000400000101000000013
:40030000C000000000808000800000000002020000000000000000000000000000000000000000000000000000000000000000000000000000000000000000000000000079
:40034000000000000000000000000000000000000000000000000000000000000000000000000000000000000000000000000000000000000000000000000000000000007D
:40038000000000000000000000000000000000000000000000000000000000000000000000000000000000000000000000000000000000000000000000000000000000003D
:4003C00000000000000000000000000000000000000000000000000000000000000000000000000000000000000000000000000000000000000000000000000000000000FD
:4004000000000000000000000000000000000000000000000000000000000000000000000000000000000000000000000000000000000000000000000000000000000000BC
:0200000490006A
:0400000000004005B7
:0200000490105A
:04000000BC90ACAF55
:0200000490303A
:02000000426854
:0200000490402A
:4000000000000000000000000000000000000000000000000000000000000000000000000000000000000000000000000000000000000000000000000000000000000000C0
:400040000000000000000000000000000000000000000000000000000000000000000000000000000000000000000000000000000000000000000000000000000000000080
:400080000000000000000000000000000000000000000000000000000000000000000000000000000000000000000000000000000000000000000000000000000000000040
:4000C0000000000000000000000000000000000000000000000000000000000000000000000000000000000000000000000000000000000000000000000000000000000000
:0200000490501A
:0C00000000012E16106900012E2E52D1B6
:00000001FF