:400000000080002011000000E9190000E919000008B5044B1A6803F53F5302331A6001F0FDFC00BFFA46004010B5054C237833B9044B13B10448AFF300800123237010BD79
:40004000D081FF1F0000000050420000084B10B51BB108480849AFF300800848036803B910BD074B002BFBD0BDE81040184700BF0000000050420000D481FF1F0881FF1F8D
:400080000000000000F1080343604FF0FF328260C360036100230360704700BF00230361704700BF43684B609A688A609A68516099600861036801330360704730B40D6866
:4000C000B5F1FF3F01D1026907E000F1080200E01A4653681C68AC42FAD953684B6099608A605160086103680133036030BC704703694268816891608268416851605A68BF
:40010000824201D182685A6000220261186801381860704706480068006880F3088862B661B6BFF34F8FBFF36F8F00DF00BF000008ED00E04FF0807340F8043C40F8081C0F
:40014000034B40F80C3C40F8202C4038704700BFA1010000074B19680868B0E8F00F80F30988BFF36F8F4FF0000080F311884EF00D0E7047C082FF1F4FF08052034B1A607B
:40018000BFF34F8FBFF36F8F704700BF04ED00E0EFF311804FF0A00181F311887047002008B5FFF7F5FFFEE708B5FFF7F1FF044A136801331360BFF34F8FBFF36F8F08BDDD
:4001C0000C81FF1F80F31188704700BF08B5044A1368013B136013B90020FFF7F3FF08BD0C81FF1FEFF30980BFF36F8F0D4B1A6820E9F00F10602DE908404FF0A00080F33C
:40020000118800F01BFD4FF0000080F31188BDE8084019680868B0E8F00F80F30988BFF36F8F7047C082FF1F08B5FFF7B1FF00F0C7FB18B14FF08052024B1A600020FFF7C6
:40024000C1FF08BD04ED00E0034A044B1A600722043B1A60704700BFCF01010014E000E008B5094B1A6842F460021A601A6842F060421A60FFF7E8FF0022044B1A60FFF7E2
:4002800049FFFFF78DFF00BF20ED00E00C81FF1F10B50446FFF788FFA26BE36B9A4201D1012400E00024FFF791FF204610BD00BF10B50446FFF778FFA36B0BB9012400E094
:4002C0000024FFF783FF204610BD00BF38B504461546026C3AB903685BBB406800F0FCFD002363602CE06DB9806803F08BFBA268236C1344A360626893421CD32368A360E3
:4003000000201DE0C06803F07DFB236C5B42E2681A44E26021688A4202D262681344E360022D0AD1A36B53B1A36B013BA363002006E0002004E0002002E0002000E00020D2
:40034000A36B0133A36338BD026C72B110B5C3681344C3604468A34201D30368C36003460846D96803F04EFB10BD704710B50446FFF71AFF0BE0636A63B104F1240000F0C7
:40038000DDFC08B100F048FDA36C013BA364A36C002BF0DC4FF0FF33A364FFF717FFFFF703FF0BE0236963B104F1100000F0C6FC08B100F031FD636C013B6364636C002BBD
:4003C000F0DC4FF0FF336364FFF700FF10BD00BF38B504460D46FFF7E7FE2168E26B236C03FB021060600020A063A160013A02FB0313E3604FF0FF336364A36455B9236950
:4004000083B104F1100000F099FC01280AD1FFF7B3FE07E004F11000FFF734FE04F12400FFF730FEFFF7D2FE012038BD70B506460D4619B101FB00F0013000E000204C30FF
:4004400000F0B4FD044658B10DB9206002E000F14C030360E663256420460121FFF7B8FF204670BDF0B585B004460F4601921E460025FFF799FEA26BE36B9A4201D3022EC6
:4004800016D1204639463246FFF720FF636A43B104F1240000F052FC012805D1FFF76CFE02E008B1FFF768FEFFF790FE012042E0019B1BB9FFF78AFE00203CE01DB902A804
:4004C00000F074FC0125FFF781FE00F06FFAFFF76BFE636CB3F1FF3F01D100236364A36CB3F1FF3F01D10023A364FFF76FFE02A801A900F065FCC0B92046FFF7C9FE70B12A
:4005000004F11000019900F0EDFB2046FFF72EFF00F0D8FA0028ACD1FFF72EFEA9E72046FFF724FF00F0CEFAA3E72046FFF71EFF00F0C8FA002005B0F0BD00BF38B54C201C
:4005400000F034FD0446C8B10025456005608560C56085630123C36305644FF0FF33436483641030FFF78EFD04F12400FFF78AFD204629462A462B46FFF774FF204638BDF3
:400580002DE9F04104460F4690461D46FFF700FE0646A26BE36B9A4201D3022D1BD1204639462A46FFF792FEA36CB3F1FF3F0DD1636A93B104F1240000F0C0FB78B1B8F165
:4005C000000F0ED00124C8F800400BE0A36C0133A364012406E0002404E0012402E0012400E001243046FFF7EDFD2046BDE8F081F0B585B004460F4601921E460025FFF713
:40060000D3FDA36B33B3E56820463946FFF79CFE96B9A36B013BA363236813B900F09EFC6060236993B104F1100000F087FB01280CD1FFF7A1FD09E0E560636A33B104F13F
:40064000240000F07BFB08B1FFF796FDFFF7BEFD01204BE0019B1BB9FFF7B8FD002045E01DB902A800F0A2FB0125FFF7AFFD00F09DF9FFF799FD636CB3F1FF3F01D10023C4
:400680006364A36CB3F1FF3F01D10023A364FFF79DFD02A801A900F093FB08BB2046FFF707FEB8B1236833B9FFF77EFD606800F0BBFBFFF78BFD04F12400019900F012FB13
:4006C0002046FFF753FE00F0FDF9002897D1FFF753FD94E72046FFF749FE00F0F3F98EE72046FFF743FE00F0EDF9002005B0F0BD10B50446FFF758FDA46BFFF767FD204604
:4007000010BD00BF094B9B6A1B680BB9012300E0002323B14FF0FF32044BDA627047034B9A6AD268D2685268DA627047EC81FF1F10B50446006B00F093FC204600F090FC07
:4007400010BD00BF70B506460C4619B9800000F02DFC044654B1502000F028FC054608B1046304E0204600F07BFC00E0002525B1286BA521B20003F050F9284670BD00BF54
:4007800070B504461546002306E0C85CE21882F83400CA5C12B101330B2BF6D9002384F83F30042D00D90425E562256400266664201DFFF773FC04F11800FFF76FFC2461E2
:4007C000C5F10505A5616462A66484F84C6070BD70B5002407E004EB84039B0010481844FFF750FC0134042CF5D90E4C04F194063046FFF747FC04F1A8052846FFF742FCC8
:4008000004F11400FFF73EFC04F1BC00FFF73AFC2046FFF737FCA662C4F8D05070BD00BF1C82FF1FEC81FF1F38B504460E4BD3F8D4205060D3F8D830984208D20A4BD3F856
:40084000D000D3F8D4100431FFF738FC38BD064DA86AD5F8D4100431FFF730FCEB6A9C4200D2EC6238BD00BFEC81FF1F2DE9F04782B081468A46164698460B9F10460C99B1
:40088000FFF760FF002854D00446036B06F18045013D03EB850525F00705009651460A9A0D9BFFF76DFF284649464246FFF742FC206007B13C60FFF777FC284BD3F8DC2041
:4008C0000132C3F8DC20D3F8D4304BB9234BC3F8D440D3F8DC30012B10D1FFF779FF0DE01E4BD3F8E0304BB91C4BD3F8D430DB6A0A9A934202D8194BC3F8D440174AD2F84B
:40090000E4300133C2F8E430E36A012505FA03F0D2F8E8100143C2F8E810303203EB830080001044211DFFF7BDFBFFF74FFC2C4601E04FF0FF34012C0CD1084BD3F8E030B3
:4009400043B1064BD3F8D430DB6A0A9A934201D2FFF712FC204602B0BDE8F087EC81FF1F00B585B0002300930193029303930C480C496422FFF77AFF01280DD1FFF708FC11
:40098000094B4FF0FF32DA620122C3F8E0200022C3F8D820FFF764FC05B05DF804FB00BF350C00005C420000EC81FF1F034AD2F8F0300133C2F8F030704700BFEC81FF1FB6
:4009C0002DE9F0413E4BD3F8F030002B66D13C4BD3F8D8200132C3F8D820D3F8D880B8F1000F0CD19A6AD3F8D0109962C3F8D020D3F8F4200132C3F8F420FFF783FE304BCA
:400A0000DB6A984503D200273CE0012700E000272B4B9B6A1B680BB9012300E0002323B14FF0FF32264BDA622CE0254B9B6ADB68DC686368984502D2214AD36222E0261D0A
:400A40003046FFF755FBA36A1BB104F11800FFF74FFBE06A01238340194DD5F8E8201343C5F8E83005F1300300EB8000800018443146FFF717FBE26AD5F8D430DB6A9A42D0
:400A8000C3D2C5E70E4AD2F8D430DB6A03EB83039B0013441B6B012B08D808E0084AD2F8F8300133C2F8F830002700E00127044BD3F8FC3003B101273846BDE8F08100BFAC
:400AC000EC81FF1F70B5FFF76FFB304BD3F8F020013AC3F8F020D3F8F030002B4ED12B4BD3F8DC3033BB00244BE0284C236ADD6805F11800FFF7FCFA2E1D3046FFF7F8FAE2
:400B0000E86A01238340D4F8E8201343C4F8E83004F1300300EB8000800018443146FFF7C1FAEA6AD4F8D430DB6A9A4202D30122C4F8FC20154B5B69002BD6D1134BD3F8B3
:400B4000F8306BB911E0FFF73BFF18B101220F4BC3F8FC200D4AD2F8F830013BC2F8F8300A4BD3F8F830002BEDD1084BD3F8FC30012B05D1FFF700FB012402E0002400E00B
:400B80000024FFF723FB204670BD00BFEC81FF1F10B5F0B10446FFF709FF104BD3F8D8201444D3F8D4000430FFF7A2FA58B90B4BD3F8D420D16A01228A40D3F8E81021EA7B
:400BC0000202C3F8E8202046FFF72EFEFFF77AFF00E0002008B9FFF7CFFA10BDEC81FF1F38B51FE0FFF7E2FE114BD3F8BC40FFF769FFBCB1FFF7D8FA0D4CD4F8C830DD6885
:400C0000281DFFF775FAD4F8DC30013BC4F8DC30D4F8EC30013BC4F8EC30FFF7D7FA2846FFF786FD024BD3F8EC30002BDAD138BDEC81FF1F08B5FFF7D3FFFCE7274BD3F855
:400C4000F03023B10122254BC3F8FC20704710B5224B0022C3F8FC20D3F8D4301B6B1A68B2F1A53F0BD15A68B2F1A53F07D19A68B2F1A53F03D1DB68B3F1A53F07D0174B78
:400C8000D3F8D400D3F8D410343100F0D1FD1348D0F8E830B3FA83F3DBB2C3F11F039A00D118890001444C6B64684C631A44920002443832944206D1606803EB830189006F
:400CC000074A0A445060054A03EB83039B0013445B6BDB68C2F8D43010BD00BFEC81FF1F1C82FF1F38B50D46134CD4F8D4101831FFF7E4F9D4F8D4000430FFF7F9F950B926
:400D0000D4F8D420D16A01228A40D4F8E81021EA0202C4F8E820B5F1FF3F06D10648D0F8D4100431FFF7BEF938BD034BD3F8D8002844FFF779FD38BDEC81FF1F38B5C36847
:400D4000DC6804F118052846FFF7D2F9154BD3F8F030ABB9251D2846FFF7CAF9E36A01229A401048D0F8E8100A43C0F8E820303003EB83039B0018442946FFF793F903E0C8
:400D800009482946FFF78EF9E26A064BD3F8D430DB6A9A4204D90120024BC3F8FC0038BD002038BDEC81FF1F0082FF1F034BD3F8F4200260D3F8D83043607047EC81FF1FEB
:400DC00038B504460D46FFF7EFF9124BD3F8D8202B68B3F1FF3F14D020680E49D1F8F410884202D0616891420DD96168501A83420BD98A1A13442B602046FFF7D7FF002490
:400E000004E0002402E0012400E00124FFF7DEF9204638BDEC81FF1F0122024BC3F8FC20704700BFEC81FF1F002850D038B50346C16A274AD2F8D420D26A914246D28269B9
:400E4000002A06DB224AD2F8D420D26AC2F1050282615969DA6A02EB820292001D480244914201D1012200E0002252B31D461C1D2046FFF73DF978B9EA6A02EB82039B0021
:400E800013490B441B6B3BB901239340D1F8E82022EA0303C1F8E8300D48D0F8D430DB6AEB6201229A40D0F8E8100A43C0F8E820303003EB83039B0018442146FFF7F2F8D3
:400EC00038BD034AD2F8D420D26ADA6238BD7047EC81FF1F1C82FF1F002837D038B50346426C013A4264C06A196C884230D08ABB1C461D1D2846FFF7FBF878B9E26A02EB78
:400F000082039B0014490B441B6B3BB901239340D1F8E82022EA0303C1F8E830236CE362C3F10502A261012404FA03F10A48D0F8E8200A43C0F8E820303003EB83039B0079
:400F400018442946FFF7AEF8204638BD00207047002038BD002038BDEC81FF1F064BD3F8D4302BB1044BD3F8D420536C01335364014BD3F8D4007047EC81FF1F094A22F0DD
:400F80000702094BC3F838290020C3F83C0947F6F871C3F84419C3F84009516003F5146313607047F482FF1FB4F9FF1F70B50446FFF7FCFC264BD3F848392BB9FFF7DEFF5C
:400FC0000122234BC3F8482934B1083414F0070F02D024F007040834621E47F6F6739A422BD81B49D1F8383901F6381101E0194613465A68A24202D21A68002AF7D1154A03
:4010000093421CD00D6808351A680A605A68121B102A0CD91E1972605C6074680E4900E011460A685068A042FAD332600E6059680A4A13685B1A136002E0002500E00025B7
:40104000FFF740FD0DB900F0F7FB284670BD00BFB4F9FF1FF4020020EC0200201081FF1FD0B170B50546A0F10806FFF79FFC55F8044C0A4A00E01A4613685968A142FAD35F
:4010800045F8083C166055F8041C054A13680B441360FFF717FD70BD704700BFEC0200201081FF1F704700BF70B582B000268DF80760354601F0DCFE044601F0D3FE00EBBA
:4010C0004400C0B2B04212D0032806D1022E04D19DF8073001338DF80730032806D1012E04D19DF80730013B8DF8073006460135ADB2312D0FD99DF807305BB1084B186807
:401100000DF1070100221346FFF7ACF900258DF8075000E000250320FFF73AFDCAE700BF3803002070B50646134B1D785878002102F066F8012000F0C9FF45F0FC0002F0D1
:40114000BBF805F00F0545F00C04204602F0B4F844EA0614E4B244F0040002F0ADF8012000F0B4FF04F0FB0002F0A6F8012000F0ADFF02F085F870BD1481FF1F38B5054636
:40118000184B1C785878002102F03AF8012000F09DFF44F0010002F08FF804F0FD0040F0010002F089F8002000F090FF04F00D0343F00104204602F07FF844EA0514E4B2AC
:4011C00044F0040002F078F8012000F07FFF04F0F90002F071F8012000F078FF02F050F838BD00BF1481FF1F08B5012000F06EFF08BD00BF10B50446FFF7F6FF2009FFF77D
:40120000BDFF04F00F00FFF7B9FF10BD38B505460078012404E0FFF7EDFF285D0134E4B20028F8D138BD00BF10B50446FFF7DCFF2009FFF777FF04F00F00FFF773FF10BD37
:4012400008B5282000F02CFF0320FFF76BFF052000F026FF0320FFF765FF0F2000F020FF0320FFF75FFF012000F01AFF0220FFF759FF052000F014FF0620FFF7D5FF0E207F
:40128000FFF7D2FF2C20FFF7CFFF0820FFF7CCFF0120FFF7C9FF0C20FFF7C6FF0320FFF7C3FF052000F0FCFE08BD00BF08B50C20FFF7BAFF0122014B1A7008BD00030020C1
:4012C00008B5054B5B7823B9FFF7BAFF0122024B5A70FFF7EBFF08BD0003002008B5032819D8DFE800F002070D1381F08000FFF79BFF08BDA1F14000C0B2FFF795FF08BDEF
:40130000A1F16C00C0B2FFF78FFF08BDA1F12C00C0B2FFF789FF08BD002303E00021034AD1540133012BF9D9704700BF2803002008B530B901F086FD80F0010000F0010079
:4013400008BD012806D101F085FD10F0010F03D1012002E0002000E00020C0B208BD00BF10B50022324B1A6059E0C0B2FFF7E0FF2F4B18711B682F4AD45C052C4BD8DFE890
:4013800004F003090E13273B003018BF0120294AD05440E000B10220264AD0543BE000B10320244AD05436E0234A52F82300234900221346FFF756F81D4B1A6803EB82016D
:4013C000002088601B7903B104231A498B5422E070B1174A02EB83029268322A00D905241449CC54124901EB830301329A6012E00021104AD1540EE00F4A52F823000F49D1
:4014000000221346FFF72EF8094B1A681B7903B1234608498B54064A136801331360044B18680128A1D90A20FFF7B2FB99E700BF0403002028030020300300201681FF1FF4
:4014400008B5012000F03EFD6420FFF7A1FB002000F038FD4FF46170FFF79AFBF1E700BFF0B589B0744B186806901B798DF81C309DF8180000F0BCFE9DF8190000F0B8FE0F
:401480009DF81A0000F0B4FE9DF81B0000F0B0FE9DF81C0000F0ACFE6420FFF779FB674E306800214FF0FF320B46FFF7A1F8644C01A8216802F0DEFA00200146FFF70EFF80
:4014C00001A8FFF7A3FE01200021FFF707FF5D48FFF79CFE2569236A1D44AD00306800210A460B46FEF7BEFF6420FFF751FB00273E46524B186800214FF0FF320B46FFF79E
:4015000077F8514B1868FFF7F3F850B14E4B18680DF1020100221346FFF76AF89DF902301D444A4B18680DF1030100221346FFF75FF8D0B10136F6B2032E00D9002644482D
:40154000FFF764FE3E4C01A854F8261002F092FA00200146FFF7C2FE01A8FFF757FE04EB86042569236A1D44AD00BD4254D00024204629462EA3D3E9002301F03BFF2346CD
:4015800014E0DA00C2F12004B2F1200E20FA02F201FA04F442EA040203D441FA0EFE42EA0E0208AC1C4404F8082C0133032BE8D96A1E284B9A4223D89DF8180000F018FE3C
:4015C0009DF8190000F014FE9DF81A0000F010FE9DF81B0000F00CFE9DF81C0000F008FE00F0DEFD10F0010FFAD02A46002D00DAEA1C01A81849921002F018FA2F4604E012
:4016000001AB164A07CA83E8070001200521FFF765FE01A8FFF7FAFD084B186800210A460B46FEF71FFF6420FFF7B2FA61E700BF4059730700000000644200002C03002048
:401640001881FF1F70420000380300203003002078420000FE5962028C4200009842000000B583B0164B1B7813F0080F0FD0002001F062FB00B202A941F8040DE822104BE7
:401680001A70104B186800221346FEF779FF0C4B1B7813F0100F0FD0012001F04DFB00B202A941F8080DF022054B1A70054B586800221346FEF764FF03B05DF804FB00BF58
:4016C00084C700403C030020034B044ADA62044A9A63044ADA6370470080FF1F55010000E50100002902000000B585B0FFF7ECFF62B601F00BFCFFF7E3FDFFF7D3FCFFF72A
:401700000BFE00F043FE0120FEF718FF384B1860082001210022FEF789FE364B1860012001460022FEF782FE334C2060012001460022FEF77BFE6060082004210022FEF74C
:4017400075FE2E4C2060082004210022FEF76EFE606000200146FFF7C1FD2948FFF756FD01200021FFF7BAFD2648FFF74FFD4FF47A7000F095FC032500950024019402943E
:4017800003942148214980222346FFF76FF800950194029403941E481E494FF480722346FFF764F800950194029403941A481B4980222346FFF75AF80223009301940294F0
:4017C0000394174817494FF400722346FFF74EF801230093019402940394134813494FF480622346FFF742F8FFF7BAF8FEE700BF2C03002038030020300300203C030020A3
:40180000A4420000B442000041140000C0420000A9100000C442000061130000C842000061140000CC420000F9180000D042000008B5FEF7ADFCFEE708B5FEF7A9FCFEE716
:4018400030B400230FE0002906DB41FA03F440FA03F5491B204405E041FA03F440FA03F52944001B01330F2BEDDD106030BC704738B5022001214FF48042134601F08AF81E
:40188000044600F0CFFB05460221FF22032300F0E3FB284645F6A0314CF2A07200F0F0FB2046294600F08EFB2046012100F042FB38BD00BF38B5022001214FF480421346B6
:4018C00001F086F8044600F0ADFB05460221FF22032300F0C1FB284645F6A2314CF2A47200F0CEFB2046294600F06CFB2046012100F020FB38BD00BF10B584B0FFF7B8FF94
:40190000FFF7D8FF01F080F900F044FE01F0F8F801F0B2F801F02CF801F04EFD01F0FEF92E4A137843F0030313700320012101F015FA0C20012101F011FA3020022101F0D7
:401940000DFAC020022101F009FA0120014601F017FA0220012101F013FA214801F050FA00F0DCFE00F0A0FF1E4B1868FEF7C0FE0028F9D01B4B5868FEF7BAFE0028F3D075
:40198000012001F02BFD174C206803A900221346FEF72EFE606802A900221346FEF728FE03980028B8BF4042039002990029B8BF4942029101AAFFF743FF9DF8040000F09D
:4019C0009FFF9DF8040001F0BFFC9DF80C0001F0BBFC002001F002FDC6E700BF98C70040611600003C030020FEE700BF08B5094B1A681044084BC31AB3F5805F02DC054B5A
:401A0000186005E001F0D2FF0C2303604FF0FF32104608BD4881FF1F9003002008B5104E104D16E029686B68AC68002204E051F8040B43F8040B0432A242F8D1E8680022ED
:401A400003E0002143F8041B04328242F9D11035013E002EE6D101F0AFFFFFF745FEFEE7010000001C4A000008B5134A134B1A60134A136843F40073136000230AE0032B95
:401A800003D8104A52F8231000E00F490F4A42F8231001332F2BF2D90D4B1A780D4B1A700A4A0D4B1A6000F067F900F029FA00220A4B1A6008BD00BF0004FA050CED00E077
:401AC00014ED00E000000000E91900000080FF1FBC7600400481FF1F08ED00E00081FF1FFEE700BFF0B40022174611E050F82760F3B226F0FF0608E001EB420511F812401F
:401B00006D78A5550132013BDBB2002BF4D101371B2FEBD9F0BC704708B50A46002101F07CFF08BDF8B5364B1B78DBB2354E3478E4B2354F3D78EDB203F00701334A1170EE
:401B40001B090132137044F00303337045F003033B7044F201022E4B1A804FF4015210331A80922221331A70092203F22F731A704023284A1370023213700632137002322D
:401B80001370F53213701022234B1A70082323490B70042122480170033001700221033001701630037080201E4B187001231E4803704E3001701D490B7041211C4B1970E8
:401BC00094213D33197020231A490B7003310B7005310A70184A137040F20642174B1A8040F2054204331A80AC2212331A700A2000F06CFA3D7034704422114B1A70F8BDA3
:401C0000CF010049F8460040F94600406E5800400C51004001590040045A0040085A0040145A0040345A00403A5A00409B5A0040C35A0040205B00402B5B0040425B0040D1
:401C40007658004008B501F0DDFE08BD38B50322394B1A801F2339490B7002310A80384A13700522374B1A80182306310B7002310A80354A1370412102321180023213700A
:401C800040F64F2102321180023213702F4830490822FFF7D7FF06222E4B1A705222A3F580731A702C4B1B78DBB22C4A137040F621322B4B1A8041F25122023B1A8000249E
:401CC00019250CE0274B1B7803F0010343EA440404F003044FF4F07000F002F9013D0DB1032CEFD115B90320FFF7FAFE1E4A4FF4807313800723137000231C490B704820AD
:401D0000023108701370053213700222184B1A7004220A331A70174A137843F03F031370013A137843F003031370013A137843F08003137038BD00BF8040004082400040A2
:401D400086400040884000408E40004000410040F8030048004300400F010049A14600402242004025420040044000400640004001400040A243004010B572B63C4C61238C
:401D80002370FFF763FF012323703A4A137843F00403137000240CE0374963001A1952000A4423445B00C8589188FFF7B5FE0134E4B2082CF0D900240BE02F49A3001A1926
:401DC00052000A44906BD16B8022FFF73BFF0134E4B2002CF1D04FF090402849FFF782FE0322274B1A8027480421FFF795FE26480421FFF791FE254A137843F00203137071
:401E00001032137843F002031370214C237843F040032370A2F58632513A137843F0100313701C481C490822FFF70CFF1B481C490822FFF707FF1B481B490822FFF702FF11
:401E40001A481B490A22FFF7FDFE1A481A490822FFF7F8FE194A137843F008031370FFF761FE174821460E22FFF7ECFE10BD00BF00480040E8460040244300007000004829
:401E800048580040007600400876004003500140A043004002510040CC030048C2510040D403004812510040DC03004820510040E403004832510040F003004822430040AE
:401EC000B0430040044A137803F0FD03400000F0020018431070704720510040000000000230800803D000BF01380046FCD17047EFF3108072B6704780F31088704700BF4D
:401F00000B4A7F2313708021517007E0DA0002F1804202F5F042013BDBB21370002BF5D1DB0003F1804303F5F04300221A7070474C81FF1F172815D831B103010A495A5CC3
:401F400042F020025A5405E0030107495A5C02F0DF025A540001044A835C43F00103835400207047012070471070004017280BD80001064A835C03F0F10301F0070143EAE5
:401F80004101815400207047012070471070004041F6FF73994201D14FF4005141F6FF739A4201D14FF40052172808D8C00000F1804000F5EC408180C280002070470120D9
:401FC000704700BF172805D8034B03EB0010417200207047012070471070004017281BD810B4C00000F1804404F5EC44D201D2B201F07F01114321709DF804201201D2B250
:4020000003F00F03134363709DF8083003F00F03A3700020E07001E0012070475DF8044B704700BF10B5FFF763FF0A4B5B78182B0BD9084A1478013B5370E30003F1804367
:4020400003F5F0431B78137000E0FF24FFF754FF204610BD4C81FF1F10F0800F0CD111F4704F0BD1C00000F1804000F5F04001808270C370002070470120704701207047E6
:4020800010F0800F08D1C00000F1804000F5F0408180C280002070470120704701BE704710B5044605E0084B1868FFF719FFA4F50044B4F5004FF6D8034B586800FB04F045
:4020C000FFF70EFF10BD00BF5481FF1F08B5034B1B7A03FB00F0FFF703FF08BD5481FF1F70B504460E46074B1D681F2802D90020FFF7D4FF04F01F04103455F8240045F872
:40210000246070BD08ED00E038B504460D46072902D90020FFF7C2FF1F2C02D90020FFF7BDFF04F01F0000F1604000F564406D01EDB2057038BD00BF0822014B1A6070479B
:4021400000E100E00422014B1A60704700E100E008B5FFF7CDFE0B4A137843F020031370A2F58072137843F0100313700132137843F010031370FFF7BFFEFFF7DDFFFFF724
:40218000E1FF08BD966500400822014B1A60704780E100E00422014B1A60704780E100E010B5FFF7F1FF064B1C78064A137803F009031C4300231370FFF7BEFF204610BD1E
:4021C000666400404D03002010B5FFF7E3FF064B1B78064A147804F040041C4300231370FFF7B0FF204610BD676400405A03002010B504462A4B1A7802F0FF0312B1013B62
:40220000DBB200E00423274A1278D2B29342F1D0FFF7BAFF244B1978244A137803F009030B4313701E4B1B781E4A1278DBB2934207D11E4B1B7813F0040F02D01C4B1C707E
:402240002BE0184A13780133DBB213701378DBB2042B02D90022134B1A70124B1B78104A1278DBB293420ED10D4A13780133DBB213701378DBB2042B02D90022084B1A709A
:4022800001220C4B1A70074B1B78DBB20A4AD4540A4A137843F004031370FFF74DFF10BD5603002058030020666400404D030020466500405503002048030020866400401B
:4022C00008B501E00A4B1B780A4B1B7813F0200FF8D1FFF70DFE084B1A7842F001021A701A7802F0FE021A70FFF706FE08BD00BF56650040676400409665004010B50F220D
:40230000174B1A70174C0823236003200721FFF7FBFE03201449FFF7E3FE0423236002200721FFF7F1FE02201049FFF7D9FEFFF7C7FF00240E4B1C700E4B1C700E4B1C705F
:402340000E4B1C700E4B1C700E4B1C70FFF728FFFFF73AFF0C4B1C70202201331A7010BD8665004080E100E0A923000045240000440300205903002057030020550300203C
:4023800056030020580300208664004008B5054B1B7823B9FFF7B2FF0122024B1A70FFF7D7FE08BD1403002028E01E4B19781E4A137803F009030B431370137813F0040FB5
:4023C00023D01A4B1B7813F0FF0F0CD1184A13780133DBB213701378DBB2042B06D90022134B1A7002E00022104B1A70104B1B78DBB2104AD35CDBB20F4A13700C4B1B7863
:402400000E4A1278DBB29342CFD1094B1B780B4A1278DBB2934204D1094A137803F0FB0313707047666400404D030020550300205603002048030020466500405803002076
:4024400086640040204B1A7820490B7803F0400313430B7031E01E4B1A78D2B21D490B780133DBB20B700B78DBB2042B02D90021184B1970174B1B7817490978DBB28B4236
:402480000ED115490B780133DBB20B700B78DBB2042B02D90021104B197001210F4B19700C4B1B78DBB20E49CA54074B1A7807490B7803F0400313430B70044B1B7813F06D
:4024C000200FC8D1704700BF676400405A0300205665004057030020590300204403002050030020054A137843F0010313701032137843F001031370704700BFA743004090
:402500000F490B7803F0FC0200F0030313430B7001280AD10B4B1B78DBB20B4A13700B4B1B78DBB2013213707047094B1B78DBB2054A1370074B1B78DBB2013213707047AE
:4025400040580040100100493046004014010049AD010049B501004908B50120FFF7D0FF0B4B1A7802F0DF021A701A7802F0FB021A701A7842F008021A7003F287231A78A3
:4025800002F0E7021A701A7842F010021A7008BD4058004008B5054B1B7823B9FFF7DCFF0122024B1A70FFF79DFF08BD1503002008B50A280FD00C2802D0082806D102E026
:4025C0004FF4805209E04FF4807206E00020FFF765FD002201E04FF480620021094B198042F2107303FB02F303F6C413064A82FB0302DB17C3EBE223044A1360044B19807A
:4026000008BD00BF5C030020AD8BDB68600300205E03002010B5FFF76BFC04461E4A137843F0010313701032137843F001031370193A137843F0040313701032137843F0DD
:402640000403137002F5AA521132137843F0030313700422114B1A70013B1A7802F0BF021A701A7842F003021A700E22053B1A700222A3F597530C3B1A70094A137843F067
:40268000080313700A20FFF721FD0122054B1A602046FFF731FC10BDAB43004006590040275B004080E200E010B504460A280DD00C2802D0082804D101E0C42207E04422FD
:4026C00005E00020FFF7EAFCC42200E08422034B1A702046FFF76CFF10BD00BF0259004008B5102000F09AFB00200721FFF70CFD00200749FFF7F4FC064A137843F00603A1
:4027000013700C20FFF7D0FF0022034B1A8008BD39270000015900406403002008B5054B1B7823B9FFF7DCFF0122024B1A70FFF771FF08BD16030020704700BF08B50A28C5
:402740000FD00C2802D0082806D102E04FF4805209E04FF4807206E00020FFF79FFC002201E04FF480620021094B198042F2107303FB02F303F6C413064A82FB0302DB174D
:40278000C3EBE223044A1360044B198008BD00BF70030020AD8BDB68680300206C03002038B5FFF7A5FB04461E4A137843F0020313701032137843F002031370193A137830
:4027C00043F0080313701032137843F00803137002F5AA521932137843F0030313700422114B1A70013B1A7802F0BF021A701A7842F003021A700E22053B1A700225A3F5E2
:402800009753123B1D70094A137843F0080313700A20FFF75BFC064B1D602046FFF76CFB38BD00BFAB4300400E5900402F5B004080E200E010B504460A280DD00C2802D074
:40284000082804D101E0C42207E0442205E00020FFF724FCC42200E08422034B1A702046FFF76CFF10BD00BF0A59004008B5102000F0DEFA01200721FFF746FC0120074943
:40288000FFF72EFC064A137843F0060313700C20FFF7D0FF0022034B1A8008BDC5280000095900406E03002008B5054B1B7823B9FFF7DCFF0122024B1A70FFF771FF08BD0C
:4028C00017030020704700BF054A137843F0020313701032137843F002031370704700BFA8430040054B1A7802F0FD021A701A7800F0020010431870704700BF245800407C
:40290000014B1870704700BF815B0040064B1B78C3F3810303F19243063393F83031DBB2024A1370704700BF245800400946004008B5064B1A7802F0F3021A701A7800F075
:402940000C0010431870FFF7E1FF08BD2458004010B50024054B1C7001331C702046FFF7E7FF2046FFF7BEFF10BD00BF2458004008B5074B1B7823B9FFF7EAFF0122044B22
:402980001A70FFF7A1FF6420FFF7BAFF08BD00BF18030020F0B583B086460F4616461D460A4C0023237000930193184671463A46FFF714FB207831462A46FFF7E9FA207890
:4029C0000221FFF7D3FA207803B0F0BD6481FF1FF0B583B086460F4616461D460A4C0120207000230093019371463A46FFF7F6FA207831462A46FFF7CBFA20780221FFF7E5
:402A0000B5FA207803B0F0BD6581FF1F084A137843F0020313701032137843F00203137002F5A5521E32137843F0800313707047A9430040044A137803F0FC0300F0030028
:402A400018431070704700BF0558004008B50622074B1A70182201331A70032001331870044A137843F008031370FFF7E3FF08BD045800401B5A004008B5054B1B7823B9CC
:402A8000FFF7E4FF0122024B1A70FFF7BFFF08BD19030020084A137843F0080313701032137843F00803137002F5A5521E32137843F0800313707047A9430040044A1378A4
:402AC00003F0FC0300F0030018431070704700BF0D58004008B50622074B1A70182201331A70032001331870044A137843F008031370FFF7E3FF08BD0C5800403B5A0040B3
:402B000008B5054B1B7823B9FFF7E4FF0122024B1A70FFF7BFFF08BD1A030020084A137843F0010313701032137843F00103137002F5A5521E32137843F0800313707047B9
:402B4000A9430040044A137803F0FC0300F0030018431070704700BF0158004010B487B00446194B03AA1868596803C2197A11706A4653F80C0F596803C21B7A1370082C29
:402B80001ED812490B7803F08003DBB20B70087806AB1C4414F80C3C14F8182C920002F00C02134303430B70094A137803F0F3031370117814F8183C0B4343F00C0313709F
:402BC00007B05DF8044B704768430000025800400158004008B50C22084B1A70084A137843F0200313700022064B1A700120FFF7B5FF0120FFF7A6FF08BD00BF00580040C7
:402C0000015800400258004008B5054B1B7823B9FFF7E0FF0122024B1A70FFF77FFF08BD1B030020F8B5254A137843F01003137002F50342DA32137803F0FE0313703F2383
:402C400008321370043213701D4D4FF480741D482946224600F0D6FE1B482946224600F0D1FE1A481A49224600F0CCFE4FF4007418481949224600F0C5FE184818492246A0
:402C800000F0C0FE174C184E04F14007354620686168A268E3680FC510342E46BC42F5D10024124B1C70032000F07AF8204600F07FF8F8220E4B1A70F8BD00BFA6430040F7
:402CC000C048000000C4004000C5004000C600408043000000C00040C046000000C20040C04400008044000000C700408CC7004084C70040084A137843F01003137010321D
:402D0000137843F01003137002F50342CA32137843F0010313707047A643004008B5054B1B7823B9FFF77EFF0122024B1A70FFF7E1FF08BD1C03002018B9064B188880B22B
:402D40007047012803D1044B188880B270470020704700BFA9C70040ADC700408B00DBB219430B01DBB21943044B1A7822EA00021A701A780140114319707047B0C70040CD
:402D8000012904D1054B1A7810431870704721B9024A137823EA000010707047B4C7004000F01F00014B1870704700BF98C7004000F00F00014B1870704700BF9CC700400C
:402DC000024B1B68C3F8B000704700BF08ED00E04001C0B2014B1870704700BF1CE400E04FF08052014B1A60704700BF00E100E04FF08052014B1A60704700BF80E100E0D4
:402E000010B50446FFF7F4FF2046FFF7D9FF0720FFF7DEFFFFF7E4FF10BD00BF034B1A7800F0F80010431870704700BF8A400040034B1A7800F0F80010431870704700BFCB
:402E40008E400040024B1878C0F34010704700BF21510040024B1878C0F30010704700BF21510040014B1878C009704721510040024B1878C0F38010704700BF215100401E
:402E800010B50222114B1A7081220E3B1A70082202331A702A2211331A70002401331C704FF400420A4B1A600F200721FFF72CF90F200849FFF714F91022074B1A70074B3D
:402EC0001C70074B1C70074B1C7010BDD649004080E100E0352F00007203002076030020780300207403002008B5FFF701F8064A137843F0040313701032137843F004030E
:402F00001370FEF7F9FF08BDA543004008B5074B1B7823B9FFF7B4FF0122044B1A70FFF7E3FF4FF40042024B1A6008BD1D03002000E100E038B5A44B1C78E4B2A34B1B78A0
:402F400013F0400F00F0378114F0010F00F01B819E4B1B78453B052B00F21281DFE813F006008200100110010600DE0004F0DF0504F00A04082C42D1944B1B78DBB2452B1E
:402F800035D1934B1B7813F0FF0F10D0914B1B681B78DBB2904A137004228B4B1A7001228E4B1A704622894B1A702C46EBE08C4B1B7813F0020F0DD08A4A137843F00A03C4
:402FC00013706022814B1A704FF40042864B1A602C46D8E0854A137843F0100313701022834B1A700422023B1A702C46CBE00022754B1A704A22754B1A702C46C3E00A2C58
:403000002BD1784A137843F0A0031370744B1B7813F0020F14D06D4B1B7813F0080F01D0092300E00A236F4A11780B4313706022664B1A704FF400426B4B1A602C46A2E0BC
:403040006A4A137843F0100313701022684B1A700422023B1A702C4695E00020FFF71EF82C4690E014F0020F35D15C4B1B78584A1278DBB2934210D2584A1378DBB25549DA
:403080000968CB5CDBB254490B7004214E4B197013780133DBB2137075E0514B1B7813F0020F0CD04F4A137843F00A0313706022464B1A704FF400424B4B1A6063E04B4A58
:4030C000137843F0100313701022494B1A700422023B1A7057E0424B1B7813F0020F0CD0404A137843F09A0313706022374B1A704FF400423C4B1A6045E03C4A137843F013
:403100001003137010223A4B1A700422023B1A70344A137843F09003137034E0354A1378DBB2354908682C490978C9B2C15413780133DBB213701378304A1278DBB293429A
:4031400003D21022204B1A701DE0254B1B7813F0020F0CD0234A137843F00903137060221A4B1A704FF400421F4B1A600BE01F4A137843F0100313700022134B1A7002E03B
:403180000020FEF78BFF14F0200F1CD00F4B1B7813F0080F01D0012300E00223114A11780B431370114A137803F0EF0313701022064B1A7038BD054B1B7813F0100F02D173
:4031C0001022024B1A7038BDD749004072030020770300207C030020D849004074030020750300207603002080E100E0D6490040D949004078030020800300208403002093
:403200001A4B1B78DBB2102B29D1194B1B7813F0080F26D14FF40042164B1A604000C0B229B140F001004922104B1A7002E045220E4B1A70104B1870012201331A700F4B15
:403240001B7813F0010FFAD00C4B1B7803F00A030A2B08D11022054B1A700320704702207047012070470020704700BF72030020D949004080E100E0D8490040D7490040C0
:403280000A4B1B7813F0040F0ED01023074A13700421023A1170064A1370064B1B7813F0210FFAD00020704702207047D949004072030020D7490040114B1B7813F0040F89
:4032C0001BD0104B18700422013B1A7046220E4B1A700E4B1B7813F0010FFAD00B4B1B7813F0020F04D16022074B1A70002070476022054B1A70032070470220704700BF2B
:40330000D9490040D849004072030020D7490040054A137843F0080313701032137843F008031370704700BFA8430040054B1A7802F0FD021A701A7800F00200104318704F
:40334000704700BF2C580040014B1870704700BF835B0040064B1B78C3F3810303F19243063393F83831DBB2024A1370704700BF2C5800400B46004008B5064B1A7802F0DE
:40338000F3021A701A7800F00C0010431870FFF7E1FF08BD2C58004010B50024054B1C7001331C702046FFF7E7FF2046FFF7BEFF10BD00BF2C58004008B5074B1B7823B918
:4033C000FFF7EAFF0122044B1A70FFF7A1FF6420FFF7BAFF08BD00BF1E030020044A137803F0FB03800000F00400184310707047105100407BB972B90029BEBF00204FF08F
:40340000004106E008BF00281CBF6FF000414FF0FF3000F03BB882B0EC462DE9005000F005F8DDF804E002B00CBC70472DE9F041069C904606460F461D4600F029F808FB32
:4034400001FCA8FB002300FB05C5B21A2B4467EB03038646C4E90023BDE8F0812DE9F843089E1746804689461D4600F067F900FB05F3A0FB074507FB0137B8EB04043D44A3
:4034800069EB0505C6E90045BDE8F883704700BF00292DE9F043C0F2A8800026002BC0F29E8081468E4690469C46174604460D46002B3DD18A4259D9B2FA82F33BB1C3F172
:4034C00020029D4020FA02F29F4015439C40390CB5FBF1F01FFA87FE01FB10550EFB00F3220C42EA0545AB4209D9ED1900F1FF3280F00B81AB4240F2088102383D44ED1ADA
:40350000B5FBF1F301FB13550EFB03FEA4B244EA0545AE4508D9ED1903F1FF3280F0F780AE4540F2F480023B43EA0043002203E08B420FD900221346341C18BF012460426C
:403540004FF0000565EB45015840514000196941BDE8F083B3FA83F2002A40F089808B4202D3804500F2E2800123E5E712B90123B3FBF2F7B7FA87F8B8F1000F3BD1ED1BBB
:403580004FEA174C1FFA87FE0122B5FBFCF00CFB10550EFB00F3210C41EA0545AB4207D9ED1900F1FF3102D2AB4200F2C3800846ED1AB5FBFCF30CFB13550EFB03FEA4B25B
:4035C00044EA0545AE4507D9ED1903F1FF3102D2AE4500F2AD800B4643EA0043ACE752426FEA060663EB43035BE7404261EB41014FF0FF3652E707FA08F7C8F1200225FA96
:4036000002F34FEA174CB3FBFCF11FFA87FE0CFB113324FA02F205FA08F50EFB01F92A43100C40EA0343994504FA08F407D9DB1901F1FF3078D2994576D902393B44C9EBB9
:403640000303B3FBFCF00CFB10330EFB00F592B242EA03439D4207D9DB1900F1FF325FD29D425DD902383B445D1B40EA01428CE7C2F1200328FA03F10CFA02FC41EA0C0C4D
:403680004FEA1C402EFA03F1B1FBF0F51FFA8CF700FB151129FA03F30EFA02FE07FB05F943EA0E0E4FEA1E4343EA0141894508FA02F808D911EB0C0105F1FF3332D28945EA
:4036C00030D9023D6144C9EB0101B1FBF0F300FB131107FB03F71FFA8EFE4EEA014E774508D91EEB0C0E03F1FF3117D2774515D9023BE64443EA0543A3FB0889C7EB0E0E01
:40370000CE4509D305D0002216E71046F7E613460AE794404445F6D2013BF4E70B46E9E71046A1E71D46CEE7014688E7134603E7023B51E702383D443AE700BF2DE9F04384
:40374000002B44D18A42154604464FD9B2FA82F70E464FB1C7F12003B94020FA03F602FA07F50E4300FA07F42F0CB6FBF7F01FFA85FE07FB10620EFB00F1260C46EA02434E
:40378000994209D95B1900F1FF3280F0EE80994240F2EB8002382B44591AB1FBF7F307FB13110EFB03FEA4B244EA01418E4508D9491903F1FF3280F0DA808E4540F2D78057
:4037C000023B43EA004000263146BDE8F0838B4247D8B3FA83F6002E48D18B4202D3824200F2CF8001203146BDE8F08312B90125B5FBF2F5B5FA85FCBCF1000F78D1491B99
:403800002F0C1FFA85FE0126B1FBF7F007FB10110EFB00F2230C43EA01418A4207D9491900F1FF3302D28A4200F2BC801846891AB1FBF7F307FB13110EFB03FEA4B244EAF1
:403840000142964508D9521903F1FF3180F09180964540F28E80023B43EA00403146BDE8F083002630463146BDE8F083C6F1200422FA04F5B3402B4321FA04F74FEA1348BF
:40388000B7FBF8FC1FFA83F908FB1C7720FA04FE01FA06F509FB0CF44EEA05054FEA154E4EEA0747BC4202FA06F204D9FF180CF1FF3168D38C463F1BB7FBF8F408FB147717
:4038C00009FB04F9ADB245EA0741894504D9C91804F1FF355DD32C4644EA0C44A4FB0223C9EB0101994249D345D0204600266BE7CCF1200405FA0CF521FA04F32A0CB3FBE1
:40390000F2F61FFA85FE02FB163820FA04F701FA0CF10EFB06F90F433C0C44EA0843994500FA0CF407D95B1906F1FF3138D2994536D9023E2B44C9EB0303B3FBF2F002FB50
:4039400010330EFB00F1BFB247EA0343994207D95B1900F1FF3721D299421FD902382B441746591A40EA06464EE7104614E7134627E70B4670E7B0409042B6D2601E002694
:4039800022E7304620E7BC4294D9ACF1020C1F4491E789459FD9023C19449DE73846DFE70E46C8E70238294441E700BF014B1868704700BFC881FF1F0E4B70B51E460E4C71
:4039C0000025E41AA410A54204D056F8253098470135F8E701F010F8084B094C1E46E41AA4100025A54204D056F8253098470135F8E770BD044A0000044A0000044A000059
:403A00000C4A000010B5431E0A44914204D011F8014B03F8014FF8E710BD03460244934202D003F8011BFAE7704700000EB400B54FF402719CB0ADF814106FF0004104916D
:403A400007914FF6FF711DABADF81610084953F8042B02900690086802A9019300F06CF8029B00221A701CB05DF804EB03B07047C881FF1F034611F8012B03F8012B002A77
:403A8000F9D170472DE9F0478E688246B3420C469046994640D38A8912F4906F3AD02568096902236F1A656905EB450595FBF3F57B1C4B449D4238BF1D4653050FD5294612
:403AC00000F030FB064698B121693A46FFF79AFFA38923F4906343F08003A38113E02A4600F076FB064670B95046216900F0D6FA0C23CAF80030A3894FF0FF3043F0400323
:403B0000A381BDE8F08726613E4426604E466561ED1BA560B14500D24E4632462068414600F0A0FAA36800209B1BA36023681E442660BDE8F08700002DE9F0439DB0039343
:403B40008B8906461C060D4690460CD50B6953B9402100F0E7FA2860286110B90C233360CCE040236B610023099320238DF8293030238DF82A3043461C4613F8012B1AB989
:403B8000B4EB08090FD002E0252AF5D1F8E73046294642464B46FFF775FF013000F0A980099B4B4409932378002B00F0A28000234FF0FF3204930793059206938DF853304B
:403BC0001A9304F101084446DFF8489121784846052200F039FA08F10108049B30B1C9EB00000122824013430493ECE7D80644BF20228DF85320190744BF2B228DF8532011
:403C000022782A2A02D0079923460EE0039A0134111D12680391002ABBBF524243F0020307920792B8BF04930AE01C4622780133303A092A03D80A2000FB0121F5E70791C2
:403C400023782E2B1AD163782A2B0AD1039B02341A1D1B680392002BB8BF4FF0FF3305930CE0611C00220C4623780131303B092B03D80A2000FB0232F5E70592DFF89880AD
:403C800021784046032200F0DFF938B1049AC8EB00004023834013430493013421781A48062204F101088DF8281000F0CDF988B1164B33B9039B073323F007030833039396
:403CC00013E003AB0093304604A92A46104BAFF3008007E003AB0093304604A92A460C4B00F092F8421C074603D0099B3B44099341E7AB895B0601D4099801E04FF0FF3035
:403D00001DB0BDE8F08300BFCC49000000000000853A0000C2490000C84900002DE9F84391461F468A680B6906469342B8BF1346C9F8003091F843200C46DDF8208012B1A4
:403D40000133C9F800302368990642BFD9F800300233C9F80030256815F006051CD094F843302268003318BF012392061FD5E118302081F843005A1C94F845102244023309
:403D800082F8431013E03046394604F119020123C047013007D00135E368D9F800209B1A9D42F0DBDBE74FF0FF30BDE8F8833046394604F14302C0470130F4D02268D9F864
:403DC0000050E36802F00602042A08BF5D1B2269A3680CBF25EAE57500259342C4BF9B1AED184FF00009A9450ADA3046394604F11A020123C0470130D5D009F10109F2E7C2
:403E00000020BDE8F88300002DE9FF410C461746227E98466E2A06460A9B01F1430100F0B08012D8632A23D00AD8002A00F0BD80582A40F0CC8084F84520DFF804E257E06A
:403E4000642A1ED0692A1CD0C1E0732A00F0B18009D86F2A2ED0702A40F0B980226842F0200222603FE0752A24D0782A3BD0AEE01A6804F14205111D1960136884F8423052
:403E8000A9E020681A6810F0800F02D0101D186008E010F0400F02F10400186002D0B2F9003000E01368002B3EDA2D225B4284F8432039E020681A6810F0800F02D0101DFC
:403EC000186007E010F0400F02F10400186001D0138800E01368227EDFF864E16F2A0CBF08220A221CE07822DFF858E184F845202268186812F0800F00F104051D6003D1FB
:403F0000550601D5038800E00368D00744BF42F0200222601BB9226822F0200222601022002084F8430002E0DFF814E10A226568002DA8BF2068A560A4BF20F004002060E6
:403F400003B965B10D46B3FBF2F002FB10331EF8033005F8013D03460028F4D100E00D46082A0BD12368DA0708D5236962689A42DEBF302305F8013C05F1FF35491B21619C
:403F80002EE025681A6815F0800F606903D0151D1D60136808E015F0400F02F104051D60136801D0188000E01860002323610D4616E01A68111D19601568002128466268AA
:403FC00000F042F808B1401B6060636804E004F1420584F8422001232361002384F84330CDF800803046214603AA3B46FFF796FE013002D14FF0FF301FE0304639462A4690
:404000002369C0470130F5D023689B0705D4E068039B9842B8BF18460FE00025E368039A9B1A9D42F3DA3046394604F119020123C0470130DED00135F0E704B0BDE8F08119
:40404000D3490000E449000010B5C9B202449042034605D01C7801308C42F8D1184610BD002010BD814210B501EB020301D3421E0BE09842FBD28118D21AD34204D013F855
:40408000014D01F8014DF8E710BD994204D011F8014B02F8014FF8E710BD000030B500293CD051F8042C0B1F1D49002AB8BF9B180A680C4612B95A600B6030BD93420DD2F9
:4040C00019685818904201BF5A5852181A60426823605A6030BD994203D80A4651680029F9D1146815199D420AD11B682344D0188842136012D10868034413604B680CE002
:4041000002D90C23036030BD1C681819884201BF08684968001918605960536030BD00BF2403002070B5CC1C24F0030408340C2C38BF0C24002C064603DA0C2333600020DB
:4041400070BD8C42F9D3204A136810461946A1B10A68121B0ED40B2A03D90A608B188C501FE08B420BBF5A684A6802605A6018BF0B4616E00B464968E9E7144D2B681BB933
:40418000304600F04BF828603046214600F046F8421C0346D1D0C51C25F0030585420AD11C6003F10B001A1D20F00700821A0AD05142995070BD3046E91A00F02FF8013032
:4041C000BBD02B46ECE770BD2403002020030020F8B5074615460E4621B91146BDE8F840FFF7A0BF1AB9FFF759FF2846F8BD00F025F8A8420ED238462946FFF793FF044653
:4042000050B131462A46FFF7FDFB38463146FFF745FF01E03046F8BD2046F8BD38B5064C0023054608462360FDF7E0FB431C02D1236803B12B6038BD8803002051F8040C10
:404240000028BEBF091851F8043CC01804387047000000003CF2FF7F0100000049444C4500000000F8084C0700000000759B0000467265713A00000020202020202020202E
:4042800020202020202020200000000025376C645B487A5D000000004572726F7220205B487A5D005344525F414D5F526164696F0000000067657420737461727465640019
:4042C0004C454400524F54004B45590044445200524144494F0000004E484B3120282B346B487A2920202020000000004E484B3220282B346B487A292020202000000000A3
:404300005442432020282B346B487A292020202000000000424541434F4E20282B346B487A292000C84900401900405100403000F0510040100000000140001000140140A0
:40434000000280160140800500400140000A004C014000020050014020000000001601404C0300488000000001112131416153637300000008090101050707040400000049
:4043800021F8050144F80B4067F8318081F80501A5F815014699A820E2F8070108F93B01A933CF2001F8050100000000000000000000000000000000000000000000000085
:4043C00000000000000000000000000000000000000000000000000000000000000000000000000000000000000000000000000000000000000000000000000000000000BD
:40440000000000000000000000000000000000000000000000000000000000000000000000000000000000000000000000000000000000000000000000000000000000007C
:40444000000000000000000000000000000000000000000000000000000000000000000000000000000000000000000000000000000000000000000000000000000000003C
:40448000A71300000000000002010000CF27000028140000020100007E3F0000FF3F000000000000000000000000000000000000000000000000000000000000000000000F
:4044C000EB2409002AB6ED00EB240900DA713D0057C5E7009CC82800C86EAE009CC82800870D4F005160DD00EA9A0D00D3351B00EA9A0D008CBD1800DA5CE900060A2800CA
:40450000F4EBAF00060A2800BFAF5C00AC5BD20037500B006EA0160037500B00CC8C2800D848ED00AA071000530F2000AA07100041390F00C642DE00B4F80E0068F11D009A
:40454000B4F80E0045040B001748CC00BAD831008C4E9C00BAD83100D4AE6800FE8FC600EB2409002AB6ED00EB240900DA713D0057C5E7009CC82800C86EAE009CC8280045
:40458000870D4F005160DD00EA9A0D00D3351B00EA9A0D008CBD1800DA5CE900060A2800F4EBAF00060A2800BFAF5C00AC5BD20037500B006EA0160037500B00CC8C28005C
:4045C000D848ED00AA071000530F2000AA07100041390F00C642DE00B4F80E0068F11D00B4F80E0045040B001748CC00BAD831008C4E9C00BAD83100D4AE6800FE8FC60099
:40460000000000000000000000000000000000000000000000000000000000000000000000000000000000000000000000000000000000000000000000000000000000007A
:40464000000000000000000000000000000000000000000000000000000000000000000000000000000000000000000000000000000000000000000000000000000000003A
:4046800000000000000000000000000000000000000000000000000000000000000000000000000000000000000000000000000000000000000000000000000000080000F2
:4046C00000000000000000000000000000000000000000000000000000000000000000000000000000000000000000000000000000000000000000000000000000000000BA
:404700000000000000000000000000000000000000000000000000000000000000000000000000000000000000000000000000000000000000000000000000000000000079
:404740000000000000000000000000000000000000000000000000000000000000000000000000000000000000000000000000000000000000000000000000000000000039
:4047800000000000000000000000000000000000000000000000000000000000000000000000000000000000000000000000000000000000000000000000000000000000F9
:4047C00000000000000000000000000000000000000000000000000000000000000000000000000000000000000000000000000000000000000000000000000000000000B9
:404800000000000000000000000000000000000000000000000000000000000000000000000000000000000000000000000000000000000000000000000000000000000078
:404840000000000000000000000000000000000000000000000000000000000000000000000000000000000000000000000000000000000000000000000000000000000038
:4048800000000000000000000000000000000000000000000000000000000000000000000000000000000000000000000000000000000000000000000000000000080000F0
:4048C000201300256117802601008026010080260100802620138026C20C8026E00E8026A40A8026631710068C0880266E06806D6C06802F2002106F008080262002806FF4
:40490000008080262002806F2002806F211A40FE00008726022210660080106E0182802620138026C80C8026E60E8026AA0A8026611710068C0880266E06806D6C06802FB7
:404940002002106F008080262002806F008080262002806F2002806F211A40FE00008726002210660080106E01828026000000000000000000000000000000000000000032
:4049800000000000000000000000000000000000000000000000000000000000000000000000000000000000000000000000000000000000000000000000000000000000F7
:4049C0004300232D302B2000686C4C006566674546470030313233343536373839414243444546003031323334353637383961626364656600000000F8B500BFF8BC08BC9D
:404A00009E4670474D000000691A0000F8B500BFF8BC08BC9E46704729000000304A00000881FF1FC8000000C08100000000000000000000AAAAAAAAF87F000008270100EA
:404A4000D8420000EC420000004300001443000078980D00E89D1000E039130028F90600A00F0000A00F0000A00F0000A00F0000900300207F800000030000000000E88076
:404A8000D0010100420000008014EF03FFFF00000000000000000000000000000000000000000000000000000000000000000000C049000000000000000000000000000055
:404AC0000000000000000000000000000000000000000000000000000000000000000000000000000000000000000000000000006881FF1F000000000000000000000000AF
:404B00000000000000000000000000000000000000000000000000000000000000000000000000000000000000000000000000000000000000000000000000000000000075
:404B40000000000000000000000000000000000000000000000000000000000000000000000000000000000000000000000000000000000000000000000000000000000035
:404B800000000000000000000000000000000000000000000000000000000000000000000000000000000000000000000000000000000000000000000000000000000000F5
:404BC00000000000000000000000000000000000000000000000000000000000000000000000000000000000000000000000000000000000000000000000000000000000B5
:020000040003F7
:0200000480007A
:4000000003520040035A0040025B00400165004002050140420601402E07014001090140010B014005150140051601404017014006190140051B014009400140044101404C
:400040000B4201400B43014002440140034501400846014007470140144801401F4901401D4C01400D4D014004500140035101400980604261411C043B013C0427842F84B9
:40008000860F8302E244028004110622088D0C020E0D104212081440170219011C8D200D2280248D28622A142C8D30703280330134703502360F3AA23E045409560458040F
:4000C00059045B045C845D405F018102830D8533874C89E08A0192049555960397AA99499A089B969E03A404A802B008B204B3F0B403B70FB908BB80BE04D440D604D804BD
:40010000D904DB04DC44DD40DF01012004280542064009080A880B020D020E110F201120130816021725188019201AA01D561F012204231126183118361838083B115E52D6
:400140005F04610462406388658067807F0283408740A302C0F2C2BFC4F6CC66CE07D6F0D89FDE10EE04EE04E244E008E40CE804EA01EC808F01B501D904DC40DF01051036
:40018000068207200EA917151C201DA01E4A230824082518265827202E012F2835103648370138803D203E0645AA4C044D024F045680573467016C106E056F1D76028204F6
:4001C0008E1090809220930194289641970499109D029E029F2DA102A410A518A601A714B010B1A0C0F0C2F0C470CAE0CCF0CEE8D0F0D220D810E208E450E602EA01E04045
:40020000E208E450E602E820EA01E008E40CE804EA01EC8033223608372039043C4069046B20CCF0CE6094409F20A608A7223E10531080108C4094409F20A608A722CE2016
:40024000D420E220830286089020961097209F20A608A702AB20E230EE202B02CA083004A302CC021A201B0483028E109C04A302C608E2023102422046019C04AB04CC0255
:40028000D006138015082108271438603C408001840287108F90902096109720AB20C460C8E0CE30E210E660EA80128016401B202004430445084C10700174028280864059
:4002C0008720902294049B04A002A108A804AA10B104C430C640C810D0C0D280DC80DE20E010E430E820EA801220132016401C0135083A2063087B807F4086608D028E01EC
:400300008F0494019C049E21A004A502A801B004C40EC601CC01CE08D802DE03E002E40AE804740483808508874097809D08A004A780AA20AB20B004DE04EC0100100A1043
:4003400010101A1000FF03C0100A0000609A00000A981002561309648400000004980002072138D801FC0003843800C0049A80008002040084020098000000000800020F22
:400380007F1380E020000088000045003406100002DECB0F1FFFFFFF2200F048040000000000022004040404444400010000C00040021012C00200124002400200000000A9
:4003C000000000000000000000000000000000000000550000484B004B0000000084840080006000F00000F20200000000000000000000000000BA0000001F0100001F0104
:4004000000000000000000000000000000000000000000000000000000000000000000000000000000000000000000000000000000000000000000000000000000000000BC
:40044000000000000000000000000000000000000000000000000000000000000000000000000000000000000000000000000000000000000000000000000000000000007C
:40048000000000000000000000000000000000000000000000000000000000000000000000000000000000000000000000000000000000000000000000000000000000003C
:4004C00000000000000000000000000000000000000000000000000000000000000000000000000000000000000000000000000000000000000000000000000000000000FC
:0200000490006A
:0400000000004005B7
:0200000490105A
:04000000BC90ACAF55
:0200000490303A
:0200000073206B
:0200000490402A
:4000000000000000000000000000000000000000000000000000000000000000000000000000000000000000000000000000000000000000000000000000000000000000C0
:400040000000000000000000000000000000000000000000000000000000000000000000000000000000000000000000000000000000000000000000000000000000000080
:400080000000000000000000000000000000000000000000000000000000000000000000000000000000000000000000000000000000000000000000000000000000000040
:4000C0000000000000000000000000000000000000000000000000000000000000000000000000000000000000000000000000000000000000000000000000000000000000
:0200000490501A
:0C00000000012E16106900012E328389C9
:00000001FF