:400000000080002011000000110A0000110A000008B5044B1A6803F53F5302331A6000F0F9FC00BFFA46004010B5054C237833B9044B13B10448AFF300800123237010BD4C
:400040001881FF1F00000000240D0000084B10B51BB108480849AFF300800848036803B910BD074B002BFBD0BDE81040184700BF00000000240D00001C81FF1F0881FF1FBF
:400080000000000000F1080343604FF0FF328260C360036100230360704700BF00230361704700BF43684B609A688A609A68516099600861036801330360704730B40D6866
:4000C000B5F1FF3F01D1026907E000F1080200E01A4653681C68AC42FAD953684B6099608A605160086103680133036030BC704703694268816891608268416851605A68BF
:40010000824201D182685A6000220261186801381860704706480068006880F3088862B661B6BFF34F8FBFF36F8F00DF00BF000008ED00E04FF0807340F8043C40F8081C0F
:40014000034B40F80C3C40F8202C4038704700BFA1010000074B19680868B0E8F00F80F30988BFF36F8F4FF0000080F311884EF00D0E70470882FF1F4FF08052034B1A6033
:40018000BFF34F8FBFF36F8F704700BF04ED00E0EFF311804FF0A00181F311887047002008B5FFF7F5FFFEE708B5FFF7F1FF044A136801331360BFF34F8FBFF36F8F08BDDD
:4001C0000C81FF1F80F31188704700BF08B5044A1368013B136013B90020FFF7F3FF08BD0C81FF1FEFF30980BFF36F8F0D4B1A6820E9F00F10602DE908404FF0A00080F33C
:40020000118800F0E1FA4FF0000080F31188BDE8084019680868B0E8F00F80F30988BFF36F8F70470882FF1F08B5FFF7B1FF00F08DF918B14FF08052024B1A600020FFF7F7
:40024000C1FF08BD04ED00E0034A044B1A600722043B1A60704700BFCF01010014E000E008B5094B1A6842F460021A601A6842F060421A60FFF7E8FF0022044B1A60FFF7E2
:4002800049FFFFF78DFF00BF20ED00E00C81FF1F094B9B6A1B680BB9012300E0002323B14FF0FF32044BDA627047034B9A6AD268D2685268DA6270473481FF1F10B504467B
:4002C000006B00F047FB204600F044FB10BD00BF70B506460C4619B9800000F0E1FA044654B1502000F0DCFA054608B1046304E0204600F02FFB00E0002525B1286BA521D8
:40030000B20000F006FD284670BD00BF70B504461546002306E0C85CE21882F83400CA5C12B101330B2BF6D9002384F83F30042D00D90425E562256400266664201DFFF7C9
:40034000ADFE04F11800FFF7A9FE2461C5F10505A5616462A66484F84C6070BD70B5002407E004EB84039B0010481844FFF78AFE0134042CF5D90E4C04F194063046FFF7BD
:4003800081FE04F1A8052846FFF77CFE04F11400FFF778FE04F1BC00FFF774FE2046FFF771FEA662C4F8D05070BD00BF6481FF1F3481FF1F38B504460E4BD3F8D420506040
:4003C000D3F8D830984208D20A4BD3F8D000D3F8D4100431FFF772FE38BD064DA86AD5F8D4100431FFF76AFEEB6A9C4200D2EC6238BD00BF3481FF1F2DE9F04782B081467E
:400400008A46164698460B9F10460C99FFF760FF002854D00446036B06F18045013D03EB850525F00705009651460A9A0D9BFFF76DFF284649464246FFF77CFE206007B119
:400440003C60FFF7B1FE284BD3F8DC200132C3F8DC20D3F8D4304BB9234BC3F8D440D3F8DC30012B10D1FFF779FF0DE01E4BD3F8E0304BB91C4BD3F8D430DB6A0A9A93428C
:4004800002D8194BC3F8D440174AD2F8E4300133C2F8E430E36A012505FA03F0D2F8E8100143C2F8E810303203EB830080001044211DFFF7F7FDFFF789FE2C4601E04FF0F3
:4004C000FF34012C0CD1084BD3F8E03043B1064BD3F8D430DB6A0A9A934201D2FFF74CFE204602B0BDE8F0873481FF1F00B585B0002300930193029303930C480C49642217
:40050000FFF77AFF01280DD1FFF742FE094B4FF0FF32DA620122C3F8E0200022C3F8D820FFF79EFE05B05DF804FB00BFC1070000280D00003481FF1F034AD2F8F0300133C7
:40054000C2F8F030704700BF3481FF1F2DE9F0413E4BD3F8F030002B66D13C4BD3F8D8200132C3F8D820D3F8D880B8F1000F0CD19A6AD3F8D0109962C3F8D020D3F8F4201F
:400580000132C3F8F420FFF783FE304BDB6A984503D200273CE0012700E000272B4B9B6A1B680BB9012300E0002323B14FF0FF32264BDA622CE0254B9B6ADB68DC68636831
:4005C000984502D2214AD36222E0261D3046FFF78FFDA36A1BB104F11800FFF789FDE06A01238340194DD5F8E8201343C5F8E83005F1300300EB8000800018443146FFF797
:4006000051FDE26AD5F8D430DB6A9A42C3D2C5E70E4AD2F8D430DB6A03EB83039B0013441B6B012B08D808E0084AD2F8F8300133C2F8F830002700E00127044BD3F8FC30D3
:4006400003B101273846BDE8F08100BF3481FF1F70B5FFF7A9FD304BD3F8F020013AC3F8F020D3F8F030002B4ED12B4BD3F8DC3033BB00244BE0284C236ADD6805F1180048
:40068000FFF736FD2E1D3046FFF732FDE86A01238340D4F8E8201343C4F8E83004F1300300EB8000800018443146FFF7FBFCEA6AD4F8D430DB6A9A4202D30122C4F8FC200C
:4006C000154B5B69002BD6D1134BD3F8F8306BB911E0FFF73BFF18B101220F4BC3F8FC200D4AD2F8F830013BC2F8F8300A4BD3F8F830002BEDD1084BD3F8FC30012B05D16D
:40070000FFF73AFD012402E0002400E00024FFF75DFD204670BD00BF3481FF1F10B5F0B10446FFF709FF104BD3F8D8201444D3F8D4000430FFF7DCFC58B90B4BD3F8D420FD
:40074000D16A01228A40D3F8E81021EA0202C3F8E8202046FFF72EFEFFF77AFF00E0002008B9FFF709FD10BD3481FF1F38B51FE0FFF7E2FE114BD3F8BC40FFF769FFBCB1B8
:40078000FFF712FD0D4CD4F8C830DD68281DFFF7AFFCD4F8DC30013BC4F8DC30D4F8EC30013BC4F8EC30FFF711FD2846FFF786FD024BD3F8EC30002BDAD138BD3481FF1F57
:4007C00008B5FFF7D3FFFCE7274BD3F8F03023B10122254BC3F8FC20704710B5224B0022C3F8FC20D3F8D4301B6B1A68B2F1A53F0BD15A68B2F1A53F07D19A68B2F1A53F30
:4008000003D1DB68B3F1A53F07D0174BD3F8D400D3F8D410343100F0F3F81348D0F8E830B3FA83F3DBB2C3F11F039A00D118890001444C6B64684C631A449200024438326E
:40084000944206D1606803EB83018900074A0A445060054A03EB83039B0013445B6BDB68C2F8D43010BD00BF3481FF1F6481FF1F094A22F00702094BC3F838290020C3F822
:400880003C0947F6F871C3F84419C3F84009516003F51463136070473C82FF1FFCF8FF1F70B50446FFF748FE264BD3F848392BB9FFF7DEFF0122234BC3F8482934B10834FC
:4008C00014F0070F02D024F007040834621E47F6F6739A422BD81B49D1F8383901F6381101E0194613465A68A24202D21A68002AF7D1154A93421CD00D6808351A680A6089
:400900005A68121B102A0CD91E1972605C6074680E4900E011460A685068A042FAD332600E6059680A4A13685B1A136002E0002500E00025FFF78CFE0DB900F065F828461C
:4009400070BD00BFFCF8FF1F3C020020340200201081FF1FD0B170B50546A0F10806FFF7EBFD55F8044C0A4A00E01A4613685968A142FAD345F8083C166055F8041C054AD8
:4009800013680B441360FFF763FE70BD704700BF340200201081FF1F08B500F06FF9C043C0B200F05FF94FF4FA70FFF7B7FEF4E7034B044ADA62044A9A63044ADA63704791
:4009C0000080FF1F55010000E50100002902000000B585B0FFF7ECFF62B6012300930023019302930393044804498022FFF704FDFFF77CFDFEE700BF99090000300D000052
:400A000008B5FFF7C5FBFEE708B5FFF7C1FBFEE7FEE700BF08B5104E104D16E029686B68AC68002204E051F8040B43F8040B0432A242F8D1E868002203E0002143F8041B25
:400A400004328242F9D11035013E002EE6D100F02FF9FFF7BDFFFEE701000000900D000008B5124A124B1A60124A136843F40073136000230AE0032B03D80F4A52F823102C
:400A800000E00E490E4A42F8231001332F2BF2D90C4B1A780C4B1A70094A0C4B1A6000F089F800220A4B1A6008BD00BF0004FA050CED00E014ED00E000000000110A000035
:400AC0000080FF1FBC7600400481FF1F08ED00E00081FF1FFEE700BF064B1B78DBB203F00701054A11701B09013213704422034B1A707047CF0100496E58004076580040F3
:400B000038B502221F4B1A7008224FF040231A70032203F500731A701B4B1B78DBB21B4A137040F242221A4B1A8041F25122023B1A80002419250CE0164B1B7803F0010387
:400B400043EA440404F003044FF4F07000F0A0F8013D0DB1032CEFD115B90320FFF7BAFF0D4B4FF480721A8007221A7000220B490A704820023108701A700222033B1A70FC
:400B800038BD00BF0043004008010049A14600402242004025420040044000400640004008B50A46002100F0B4F808BD08B500F0A5F808BD10B572B6224C61232370FFF72A
:400BC0009FFF01232370204A137843F00403137000240CE01D4963001A1952000A4423445B00C8589188FFF7DBFF0134E4B2082CF0D9174A137843F002031370103213783B
:400C000043F002031370134C237843F040032370A2F58632513A137843F0100313700E484FF090410822FFF7C1FF0C4A137843F008031370FFF750FF094821460E22FFF7BD
:400C4000B5FF10BD00480040E8460040340D000003500140A04300402251004022430040B0430040044A137803F0FD03400000F0020018431070704720510040024B18785C
:400C8000C0F34000704700BF21510040000000000230800803D000BF01380046FCD17047EFF3108072B6704780F31088704700BF0E4B70B51E460E4C0025E41AA410A542FE
:400CC00004D056F8253098470135F8E700F04EF8084B094C1E46E41AA4100025A54204D056F8253098470135F8E770BD780D0000780D0000780D0000800D000010B5431EAF
:400D00000A44914204D011F8014B03F8014FF8E710BD03460244934202D003F8011BFAE7704700000000000049444C45000000004C454400005100402000305100404000E8
:400D4000C05100401000F0510040100000000140001000140140000800400140000A004C014000020050014020000000F8B500BFF8BC08BC9E4670474D000000610A0000D1
:400D8000F8B500BFF8BC08BC9E46704729000000A00D00000881FF1F100000003081000000000000AAAAAAAAF87F0000000000000000000000000000000000000000000057
:400DC00000000000000000000000000000000000000000000000000000000000000000000000000000000000000000000000000000000000000000000000000000000000F3
:400E000000000000000000000000000000000000000000000000000000000000000000000000000000000000000000000000000000000000000000000000000000000000B2
:400E40000000000000000000000000000000000000000000000000000000000000000000000000000000000000000000000000000000000000000000000000000000000072
:400E80000000000000000000000000000000000000000000000000000000000000000000000000000000000000000000000000000000000000000000000000000000000032
:020000040003F7
:0200000480007A
:4000000000020200000000000000000000000000000000000000000000000000000000000000000000000000000000000000000000000000000000000000000000000000BC
:400040000000000000000000000000000000000000000000000000000000000000000000000000000000000000000000000000000000000000000000000000000000000080
:400080000000000000000000000000000000000000000000000000000000000000000000000000000000000000000000000000000000000000000000000000000000000040
:4000C0000000000000000000000000000000000000000000000000000000000000000000000000000000000000000000000000000000000000000000000000000000000000
:4001000000000000000000000000000000000000000000000000000000000000000000000000000000000000000000000000000000000000000000000000000000000000BF
:0200000490006A
:0400000000004005B7
:0200000490105A
:04000000BC90ACAF55
:0200000490303A
:02000000A85AFC
:0200000490402A
:4000000000000000000000000000000000000000000000000000000000000000000000000000000000000000000000000000000000000000000000000000000000000000C0
:400040000000000000000000000000000000000000000000000000000000000000000000000000000000000000000000000000000000000000000000000000000000000080
:400080000000000000000000000000000000000000000000000000000000000000000000000000000000000000000000000000000000000000000000000000000000000040
:4000C0000000000000000000000000000000000000000000000000000000000000000000000000000000000000000000000000000000000000000000000000000000000000
:0200000490501A
:0C00000000012E16106900012E1BB8C371
:00000001FF